:020000040000FA
:040000000200A43224
:01000B0032C2
:0100130032BA
:01001B0032B2
:0100230032AA
:03002B00022B1392
:01003300329A
:01003B003292
:01004300328A
:01004B003282
:01005300327A
:01005B003272
:01006300326A
:06006B00022B170207271B
:08008B0007CBEFBED0D0ADDEC3
:2000A40075812112B6EFE582600302006E79E1E94400601B7A0190D615781C759316E49313
:2000C400F2A308B800020593D9F4DAF27593FFE478FFF6D8FD788AE84400600A790075934E
:2000E40000E4F309D8FC7892E84415600C791690008AE4F0A3D8FCD9FA7800E4F27820E400
:20010400F208F29015677401F090159CE4F090159DF090159EF090159FF09015B0E4F0A304
:20012400F09015B2F0A3F002006EE5812407F5817F007E78BEC80040030201C38E047D0067
:200144008C82EDC42354E0C582C423C5826582C58254E0C5826582F583C007C00612AF803A
:20016400AC82AD83D006D0078D037D00EC4B604F8C828B838DF0C006122DE5D0068E078E01
:2001840004E42354E0CCC423CC6CCC54E0CC6CFDC004C0057435C0E074BBC0E01233FBE536
:2001A4008124FCF581EE24555011743FC0E074BBC0E01233FB1581158180FE0E020138E423
:2001C4002354E0CFC423CF6FCF54E0CF6FFE8F828E83C007C00612AF80AC82AD83D006D09D
:2001E40007E58124FCF8A60408A605087600E58124FCF8E6084670127491C0E074BBC0E0F3
:200204001233FB15811581020311A88118E4F608F6A881188603088604E58124FAF8A607BA
:2002240008A606E58124FAF8C3EB96EC08965034C007C006E58124FAF8E58124FDF9E726A2
:20024400FD09E70836FE0886078D828E838FF0EB129D76E58124FDF806B600020806D0060C
:20026400D00780AD7E007F00A88118E4F608F6A881188602088603E58124FAF8C3EA96EB5C
:2002840008965064C006C007E58124FAF8E58124FDF9E726FD09E70836FE0886078D828E17
:2002A400838FF012B6D3FDB50206D007D0068025D007D0068D047D00C004C005C002C006C5
:2002C400C00774C8C0E074BBC0E01233FBE58124F9F5818013A8811806B600020806A881A6
:2002E4001886060886078087E58124FCF886030886040886058B828C838DF0122DE574F36A
:20030400C0E074BBC0E01233FB15811581E58124F9F58122AF82758240C0071228A2783B25
:20032400E4F2783C7406F2E408F290151BF5F0125E03D0077E00BE06005010EE241BF582B0
:20034400E43415F5837481F00E80EB7E00C3EE9F505BC007C00612AF35D006D0077D00BDB3
:2003640006005046ED90084D93F582C007C006C005126F2AE582D005D006D0076029ED2481
:200384001BFBE43415FC8B828C83E0FA901562E0F508C3EA64808508F063F08095F0500783
:2003A4008B828C83E508F00D80B50E80A07582401228F2901521E4F0901522F0FFBF060058
:2003C400502DEF241BF582E43415F583E0FE901521E0C364808EF063F08095F0500EEF9074
:2003E400084D93901522F0901521EEF00F80CE901521E0901562F0901522E0F582227E00FE
:200404007F00C3EE9408EF648094805021EE24A2FCEF3415FD740C2EFA74783FFB8A828B6A
:2004240083E08C828D83F00EBE00D70F80D422901637E0FEA3E0FFC3742C9E74019F400F7E
:20044400901631E0700990161CE0700302052F901639E0FEA3E0FFBE200FBF010C122B1BCD
:20046400901639E4F0A3F080067582021228A2901639E02401F0A3E03400F0901636E06040
:200484000C901525E07006901645E0700C901526E06036901646E06030901685E0FFBFFF80
:2004A40002801775820C1228A2901685E0F582128FCD75820C1228F2800F7582081228A237
:2004C400120E567582081228F27582401228A212731CAE82AF83901523EEF0EFA3F0758242
:2004E40040C007C0061228F2D006D007EE4F6023901637E4F0A3F090161CE0600590161C85
:20050400E4F0901631E0600690161C7401F0901631E4F0901643E0602E758201120318E5B3
:2005240082FE6023901659EEF0801C7582401228A212731CE5828583F0901523F0E5F0A3F8
:20054400F07582401228F2122CC7901523E0FEA3E0FF4E700990162FE4F0A3F08049740FC8
:200564002EF582E43FF583E0FCA3E0FD90162FECF0EDA3F0740D2EFCE43FFD8C828D83E0E1
:2005840060128E828F83129647E582700790162FE4F0A3F0901523E0FEA3E0FF7D008E8205
:2005A4008F838DF0122DE5122D12AE82AF83901637E0FCA3E0FD901637EE2CF0EF3DA3F0F2
:2005C400BE580EBF020B901644E060057800E4F22290162FE0FEA3E0FF4E6039EF30E71E48
:2005E4008E048F0553057F7873ECF2ED08F2E408F208F29003E8F5F012B0E1022AE8787370
:20060400EEF2EF08F2E408F208F290EA60F5F012B0E1022AE8122D12AE82AF837873EEF241
:20062400EF08F2E408F208F29003E8F5F012B0E1022AE8901632E0FF6004EF30E005EF24AC
:20064400DB5003122B1B758202120318AF82901659EFF0EF700C901526E07006901646E083
:20066400701A901636E0600C901525E07006901645E07008901632E0FFBF233F7582081278
:2006840028A2901685E0FFBFFF0280177582041228A2901685E0F582128FCD75820412282F
:2006A400F28012901632E0FFBF230040051212428003120E567582081228F2901659E0FF6C
:2006C400E0603A8F8212352A901632E4F090163174FDF0900023122D63122D12AE82AF832E
:1C06E4007873EEF2EF08F2E408F208F29003E8F5F012B0E1122AE878007401F268
:2007000022758201122C8EAC82AD83AEF0FF7873ECF2ED08F2EE08F2EF08F29003E8E4F523
:20072000F012B0E1022AE87582111228A274F8C0E074BBC0E01233FB1581158112AF317580
:2007400082041228A290000112B4B2129D5A120402900023122D63125FB97582041228F267
:20076000122B1B12012ED2AF12AF35901541E0901647F090164DE0FF6007901659EFF0802F
:200780000C758204120318E582901659F0901659E0600578007401F2120E56758204122801
:2007A000A21260B77582041228F2901659E0FFE060058F8212352A12AF357800E2600B786F
:2007C00000E2B401F212043380ED12063780E8AF82BF00028019BF01028029BF02028012D8
:2007E000BF0302802CBF05028042BF215F804902AF3C7582041228A2125EBA1260B77582EB
:20080000040228F2758204120318E582901659F0227582081228A21212427582181228F29C
:2008200090FFFF74FFF5F0122AE880F47582041228A27582040228F2901637742DF0740169
:20084000A3F09016397420F07401A3F0220B0F14191A1B8582C1E58620E0FB228582C1E5FF
:200860008620E0FB85C1822253807F22438080225380EF224380102290000112B4B2E580ED
:2008800020E10890000112B4B280F322AE82AF83900001C007C00612B4B2D006D00753C0F9
:2008A000DF5389FD43AB02538CFE43B8207D007C008E828F838DF0EC12292BE59E20E6FB2A
:2008C000E580A2BDE433F5F005F07401800225E0D5F0FBF452B853ABFD2290000112B4B283
:2008E0005380FE90000112B4B24380019003E8020878AF82C007120870120868D0078F8271
:2009000012085312087475820012085CAF82C00712086CD0078F8222E58124FDFFC0071288
:200920000870120868D007A88118188682C007120853120874D0077E00E58124FDF8C3EE3E
:20094000965017EF24FEFDFF8D018782C007C006120853D006D0070E80DF02086C53867F14
:2009600075C20043C51043C5204380014380805380F953FDF943FDF943F32890000112B4F6
:20098000B253FEFD4390045390F743FE0C4390085390FB5390F743900490000102B4B212E4
:2009A000086C1208DA1208DA1208DA90000112B4B24380407582711208F27582701208F2F4
:2009C000740BC0E0E4C0E0740BC0E0E4C0E0C0E0C0E07437C0E0E4C0E07404C0E07401C075
:2009E000E0120918E58124F6F581742EC0E0E4C0E0742EC0E0E4C0E0742EC0E0E4C0E07428
:200A000003C0E023C0E0120918E58124F8F581E4C0E07404C0E0120918158115819005DCD9
:200A2000120878E4C0E0C0E004C0E07441C0E0120918E58124FCF5817402C0E07440C0E06E
:200A4000120918158115819003E812087812086875820012085C75820012085C12086C74D4
:200A6000CFC0E0E4C0E004C0E0E4C0E0120918E58124FCF581E4C0E0C0E0C0E0C0E0740252
:200A8000C0E0742AC0E0120918E58124FAF5817403C0E0E4C0E004C0E074E5C0E0120918E0
:200AA000E58124FCF5817407C0E0E4C0E004C0E07450C0E0120918E58124FCF5817422C00E
:200AC000E0E4C0E004C0E07460C0E0120918E58124FCF5817480C0E0E4C0E004C0E0E4C00B
:200AE000E07480C0E0E4C0E07402C0E0E4C0E07404C0E07461C0E0120918E58124F6F581AE
:200B0000743EC0E0E4C0E004C0E07430C0E0120918E58124FCF5817424C0E0E4C0E004C068
:200B2000E07482C0E0120918E58124FCF5812274F7C0E0E4C0E004C0E07450C0E012091824
:200B4000E58124FCF581E4C0E07402C0E01209181581158190001E12B49D9003E812087882
:200B600074A5C0E0E4C0E004C0E07407C0E0120918E58124FCF5815380BF4390085390FBFF
:200B800090000312B49D53FEF353F3D775F30075FD00438F0643F72075800090000112B4A6
:200BA0009D5390FD43FE0222AF828F055305F0E4C4CDC4540F6DCD540FCD6DCD30E30244AD
:200BC000F053070FEFC454F0FFED42078F055305CCE4A2E713CD13CDA2E713CD13CD530708
:200BE00033EF2F25E0FFED42078F055305AAE4A2E713CD13CD530755EF2F4DF58222E5818E
:200C00002407F581E4C0E07410C0E01209181581158190005012AF80AE82AF83E58124FB24
:200C2000F8A60608A60790005012AF80AC82AD83E58124FDF8A60408A605A88118767F08C2
:200C40007601A881188604088605C374809C74019D5003020DF012AF35E58124FBF886020D
:200C60000886039015A0E4F0784E7450F2E408F28A828B83126B36E58124FDF8860208860E
:200C8000039015A0E4F0784E7450F2E408F28A828B83126B36E58124FBF886020886037DFE
:200CA00000C002C003C005E4C0E0E58124FBF8868208868312393EE58124FCF58124FDF832
:200CC00086030886047D00C003C004C0057401C0E0E58124FBF8868208868312393EE58196
:200CE00024FCF5811208687C007D00C3EC9450ED94004003020DE1E58124FDF8EC26F58294
:200D0000ED0836F583E0F582C005C004120BA8AB82D004D005E58124FBF8EC26F582ED08BA
:200D200036F583E0F582C005C004C003120BA8AA82D003D004D0057F03EF30E703020DD982
:200D4000C0027E008F02E58124F9F8EA2AF6E58124F9F886F005F0EB8002C313D5F0FBD084
:200D60000230E0047E078016E58124FAF886F005F0EA8002C313D5F0FB30E0027E03C00204
:200D80008F02E58124F9F8EA2AF6E58124F9F886F005F0EB8002C313D5F0FBD00230E1056C
:200DA0004306708017E58124FAF886F005F0EA8002C313D5F0FB30E1034306308E82C00796
:200DC000C005C004C003C002120853D002D003D004D005D0071F020D390CBC00010D020C28
:200DE000EB12086CA8811816B6FF020816020C42E58124FBF886050886067F008D828E83CB
:200E00008FF0122DE5E58124FDF886040886057F008C828D838FF0122DE57582111208F23F
:200E2000E58124F9F58122120BFE124558E4C0E07413C0E01209181581158190C350120806
:200E40008C12AF3590001E02B4B212095D12099F120E27020B2F1246AE78307440F274017C
:200E600008F27832E4F29000141246F57582031247257482C0E074C4C0E012489D1581157F
:200E8000811246AE78307432F2E408F27832F29001071246F57582001247377491C0E0748C
:200EA000C4C0E012489D158115811246AE78307432F2E408F27832F29001371246F57582DF
:200EC000011247377499C0E074C4C0E012489D158115811246AE78307432F2E408F278320B
:200EE000F290014A1246F575820012473774A3C0E074C4C0E07480C0E07429C0E0E4C0E06D
:200F0000749BC0E074C4C0E012489DE58124F9F5811246AE78307432F2E408F27832F2900A
:200F2000001E1246F57582001247379015A7E0FF7E009015A8E0FD7C009015A9E0FB7A00CD
:200F4000C007C006C005C004C003C00274A9C0E074C4C0E07427C0E07415C0E0123464E56E
:200F60008124F6F5819015A4E0FF7E009015A5E0FD7C009015A6E0FB7A00C007C006C00525
:200F8000C004C003C00274A9C0E074C4C0E07430C0E07415C0E0123464E58124F6F58190D6
:200FA00015A2E0FF7E009015A3E0FD7C00C007C006C005C00474B9C0E074C4C0E07439C054
:200FC000E07415C0E0123464E58124F8F5817427C0E07415C0E0E4C0E074C3C0E074C4C0AF
:200FE000E012489DE58124FBF58190C04212474978307404F2E408F27832F2900004124673
:20100000F5758202124725758200124737901659E070030211491246AE7830748CF2E408A3
:20102000F27832F29000641246F575820212472574CFC0E074C4C0E012489D1581158190FC
:20104000C18A12474978307480F2E408F27832F29000E21246F5758201124725758200125D
:2010600047371246AE78307446F2E408F27832F290001E1246F5758201124725901653E0D4
:20108000FF7E00901654E0FD7C00901655E0FB7A00C007C006C005C004C003C00274A9C0B8
:2010A000E074C4C0E07427C0E07415C0E0123464E58124F6F581901650E0FF7E009016512A
:2010C000E0FD7C00901652E0FB7A00C007C006C005C004C003C00274A9C0E074C4C0E074C6
:2010E00030C0E07415C0E0123464E58124F6F58190164EE0FF7E0090164FE0FD7C00C007F1
:20110000C006C005C00474B9C0E074C4C0E07439C0E07415C0E0123464E58124F8F5819033
:201120001659E0FF7E00C007C0067427C0E07415C0E0E4C0E074D8C0E074C4C0E012489DB3
:20114000E58124F9F5810211B81246AE7830748CF2E408F27832F290004B1246F575820290
:2011600012472574EAC0E074C4C0E012489D1581158190C18A12474978307480F2E408F20F
:201180007832F29001001246F575820112472575820012473790C31612474978307480F23F
:2011A000E408F27832F29001061246F57582011247257582011247371211BE020E4A9016F2
:2011C00036E0602790C46A1247497830E4F208F27832F29002641246F575820212472575CF
:2011E00082001247379015257401F0901659E0705090C43A1247497830745CF2740108F206
:201200007832E4F29002601246F575820212472575820012473790C45E1247497830745C45
:20122000F2740108F27832E4F29002701246F575820212472575820112473790152674013F
:20124000F022020E4AAF82AE83ADF0FC7801EFF2EE08F2ED08F2EC08F27801E2F5F008E2EE
:2012600042F008E242F008E245F07004758220227805E4F208F208F2748008F27F00780127
:201280007905E3F5F0E255F0FB09E3F5F008E255F0FC09E3F5F008E255F0FD09E3F5F00814
:2012A000E255F0FEEB4C4D4E70150F7808E2C313F218E213F218E213F218E213F280BF8FAE
:2012C0008222C082C083E5812406F58124F9F8E60846603DE58124F5F8C3E6940108E664F2
:2012E000809480402CE58124F3F8C3E6940108E664809480401BE58124F1F8E608466011E2
:20130000E58124EFF8C3E6940108E664809480500690000102145EE58124F9F8740826F5CB
:2013200082E40836F583E58124EFF8E6F008E6A3F0E58124F9F8741A26F582E40836F58389
:20134000E58124F1F8E6F008E6A3F0E58124F9F8741226F582E40836F583E4F0A3F0A3F091
:20136000A3F0E58124F9F8740626F582E40836F583E4F0A3F0E58124F9F8E58124FBF974DA
:201380001626F7E4083609F7E58124F1F886020886038A828B83E0FCE4E58124FDF8080803
:2013A00008A60418181876000876000876008A828B83A3E0FF7E008E048F057F00E5812478
:2013C000FDF8EF26F6EE0836F6ED0836F6EC0836F68A828B83A3A3E0FF7E007D008D048E51
:2013E000058F067F00E58124FDF8EF26F6EE0836F6ED0836F6EC0836F68A828B83A3A3A3E4
:20140000E0FAE4FBFEFFE58124FDF8EA26FAEB0836FBEE0836FEEF0836FFE58124FBF88610
:2014200082088683EAF0EBA3F0EEA3F0EFA3F0E58124F9F88682088683E58124F5F9E7F0DB
:2014400009E7A3F0E58124F9F88682088683A3A3E58124F3F8E6F008E6A3F0900000E5816D
:2014600024F8F581227812E0F2A3E008F2780B7914E2F308E209F37812E22407FA08E23465
:2014800000C423CAC423541F6ACA541FCA6ACA30E40244E0FB7C007D00C3EC9AED64808BC9
:2014A000F063F08095F050157814E22CF58208E23DF58374FFF00CBC00DF0D80DC7C007D63
:2014C000007812C3E2F5F0EC95F008E2F5F0ED648063F08095F04001227809E2FA08E2FBEA
:2014E0008A828B83E0FEA3E0FF780974022AF2E43B08F28E048F057809E2FE08E2FF8E82C6
:201500008F83E0FAA3E0FB780974022EF2E43F08F2EAC39CFEEB9DFF7812C3E2F5F0EC95CA
:20152000F008E2F5F0ED648063F08095F0400122EE4F700122EE2CFAEF3DFBC3E49A748020
:201540008BF063F08095F040030214C1ED30E70AEC2EFEED3FFF7C007D00EE2CFAEF3DFB19
:201560007812C3E29A08E264808BF063F08095F0500A7812E2C39CFE08E29DFF8C0374074E
:201580005BD39408F4F5F005F0780D74FF800225E0D5F0FBF28C028E03EB2A5407FB8BF07D
:2015A00005F07BFFE4FA3392D28008A2D2EA13FAEB13FBD5F0F5780EEBF2EE2CFEEF3DC436
:2015C00023CEC423541F6ECE541FCE6ECE30E40244E0FF8C02EDC423CAC423541F6ACA54C0
:2015E0001FCA6ACA30E40244E0FBEEC39AFEEF9BFF7814E22AFA08E23BFBEE4F7027C0047D
:20160000C005780D790EE2F5F0E345F0F28A828B83E0FD780DE252058A828B83EDF0D005A7
:20162000D0040214C1C004C0058A048B05780F74012AF2E43B08F28C828D83E0FB780DE2C7
:2016400052038C828D83EBF0780FE2F50F08E2F5108E118F12D005D004C374019511748025
:201660008512F063F08095F0501A850F82851083E4F0A385820F858310151174FFB51102ED
:20168000151280D5850F82851083780EE2F00214C1C082C083E581240EF58124F1F88682C9
:2016A000088683E58124FBF9E0F7A3E009F7E58124F1F8A98119742226F77405083609F721
:2016C000E58124F1F8E58124FDF9742226F7E4083609F7E58124F9F8E4F608F6E58124F96C
:2016E000F8E626FE08E633FFA88118EE26FAEF0836FBE58124FBF886040886058A828B839D
:20170000ECF0EDA3F0E58124FDF8EE26F582EF0836F583ECF0EDA3F0E58124F9F806B6002B
:20172000020806E58124F9F8C3E6947E08E66480948240A8E58124F9F8E626FC08E633FDF2
:20174000E58124FDF8EC26FAED0836FBA88118EC26F582ED0836F58374FFF0747FA3F08AF8
:20176000828B8374FFF0747FA3F0E58124F9F8740126FCE40836FDEC2CFCED33FDE5812404
:20178000FDF8EC26FAED0836FBA88118EC26F582ED0836F58374FFF0747FA3F08A828B83B2
:2017A00074FFF0747FA3F0E58124F1F8741E26F582E40836F583E58124FDF8E6F008E6A31E
:2017C000F0E58124F1F8742026F582E40836F583A88118E6F008E6A3F0E58124F1F8741C40
:2017E00026FCE40836FDE58124F1F8741A26FAE40836FB8A828B83E0FEA3E0FF8C828D83D2
:20180000EEF0EFA3F0E58124F1F8E58124F3F9741626F7E4083609F78A828B83E0FAA3E03F
:20182000FB8A828B83E0FCE4E58124F5F8080808A60418181876000876000876008A828B49
:2018400083A3E0FF7E008E048F057F00E58124F5F8EF26F6EE0836F6ED0836F6EC0836F67B
:201860008A828B83A3A3E0FF7E007D008D048E058F067F00E58124F5F8EF26F6EE0836F652
:20188000ED0836F6EC0836F68A828B83A3A3A3E0FAE4FBFEFFE58124F5F8EA26FAEB0836A4
:2018A000FBEE0836FEEF0836FFE58124F3F88682088683EAF0EBA3F0EEA3F0EFA3F0E58188
:2018C00024F1F8741226F582E40836F583E4F0A3F0A3F0A3F0E58124F1F8740A26FEE408B0
:2018E00036FFE58124F1F88682088683E0FCA3E0FD3395E0FB8C828D838BF0C007C00612F0
:201900001245AD82D006D0077C007420C39DFDE49CFC8E828F83EDF0ECA3F0E58124F0F5BE
:201920008122C082C083E581243AF58124DBF8E4F608F6E58124CDF8E4F608F6E58124C500
:20194000F8741E26F582E40836F583E58124C7F8E0F6A3E008F6E58124C5F8742026F582AE
:20196000E40836F583E0FEA3E0FFE58124E7F8A60608A607E58124C9F8A60608A607E58191
:2019800024C5F8E58124CBF9741626F7E4083609F7E58124CBF88682088683E58124EFF977
:2019A000E0F7A3E009F7A3E009F7A3E009F7E58124C5F8E58124CFF9741226F7E408360960
:2019C000F7E58124CFF88682088683E58124D1F9E0F7A3E009F7A3E009F7A3E009F7E5818C
:2019E00024C5F8E58124D5F9741C26F7E4083609F7E58124D5F88682088683E58124F7F9F5
:201A0000E0F7A3E009F7E58124C5F8740A26F582E40836F583E0FAA3E0FBE58124FDF8A6F3
:201A20000208A603EB3395E008F608F6E58124FDF886F005F07E017F008006EE2EFEEF33BA
:201A4000FFD5F0F71EBEFF011FE58124F9F8A60608A6077AFF7BFFE58124C5F88682088624
:201A600083E58124E9F9E0F7A3E009F7E58124E9F8C3EA96EB64800886F063F08095F0408A
:201A8000030225EDE58124D1F8C3741896E40896E40896E408964003021B93E58124D1F82B
:201AA000860408E6C423CCC423541F6CCC541FCC6CCCFD08E6C42354E04DFD860608E6C464
:201AC00023CEC423541F6ECE541FCE6ECEE58124F7F8EC26F6ED0836F6E58124D1F8E654D3
:201AE00007F6087600087600087600E58124F7F88682088683E0FFE4E58124D7F8080808A9
:201B0000A6071818187600087600087600E58124F7F88682088683A3E0FF7E008E048F05A6
:201B20007F00E58124D7F8EF26F6EE0836F6ED0836F6EC0836F6E58124F7F88682088683CD
:201B4000A3A3E0FF7E007D008D048E058F067F00E58124D7F8EF26F6EE0836F6ED0836F686
:201B6000EC0836F6E58124F7F88682088683A3A3A3E0FCE4FDFEFFE58124D7F8E58124EF3E
:201B8000F9EC26F7ED083609F7EE083609F7EF083609F7E58124D1F886F005F0E58124EF88
:201BA000F88604088605088606088607800CEC2CFCED33FDEE33FEEF33FFD5F0F1EF30E72E
:201BC0004CE58124C9F88682088683E0FEA3E0FFA318A68208A6838E028F03E58124D1F86C
:201BE00006B6000C0806B600070806B6000208068A068B07E58124C7F88682088683EEF01C
:201C0000EFA3F0A318A68208A683021A6CE58124D1F886077418C39FFF8FF005F0E58124DB
:201C2000EFF88604088605088606088607800DC3EF13FFEE13FEED13FDEC13FCD5F0F0E595
:201C40008124D7F874FE5CF6087600087600087600E58124D7F8E624F7F58208E634C4F526
:201C600083E493FFE58124EBF8A607E58124D7F8740126FCE40836FDE40836E40836EC24EE
:201C8000F7F582ED34C4F583E493FFE4FEFDFCE58124D1F8EF26F6EE0836F6ED0836F6EC9B
:201CA0000836F6E58124EBF8B60102804EE58124EBF8B602028044E58124EBF8B603028069
:201CC0003AE58124EBF8B61103021DB3E58124EBF8B61203021DB3E58124EBF8B61303027C
:201CE0001DB3E58124EBF8B62003021E95E58124EBF8B630030225AD0225D7E58124C9F8A6
:201D00008682088683E0FEA3E0FFE58124EBF886047D00EEC39CFAEF9DFB8A068B07E58180
:201D200024C7F88682088683EEF0EFA3F0A318A68208A683E58124C9F8E58124E7F986F008
:201D4000E7B5F00A0886F009E7B5F0028002800DE58124C9F8740426F6E40836F6E5812448
:201D6000C9F8E624FEF608E634FFF6E58124C9F886060886078E828F83E58124D7F8E0F6D0
:201D8000A3E008F68A048B05E58124D7F8C3EC96ED64800886F063F08095F05003021A6C84
:201DA00074042EFEE43FFFE58124C9F8A60608A60780C2E58124C9F88682088683E0FEA38A
:201DC000E0FFA318A68208A683E58124E5F8A60608A607E58124EBF886045304077D00EC8A
:201DE0002EFAED3FFBE58124E5F8E58124E9F986F0E7B5F00A0886F009E7B5F002805AE5E1
:201E00008124E9F8C3EA96EB64800886F063F08095F05045E58124C9F886060886078E8243
:201E20008F83E58124D7F8E0F6A3E008F68A048B05E58124D7F8C3EC96ED64800886F06372
:201E4000F08095F0400974042EFEE43FFF80CFE58124C9F8A60608A607E58124E9F8C3E66F
:201E60009A08E664808BF063F08095F0500AE58124E9F886020886038A068B07E58124C7D2
:201E8000F88682088683EEF0EFA3F0A318A68208A683021A6CE58124D1F8C3741096E40819
:201EA00096E40896E408964003021FA4E58124D1F8860408E6C423CCC423541F6CCC541FFD
:201EC000CC6CCCFD08E6C42354E04DFD860608E6C423CEC423541F6ECE541FCE6ECEE58106
:201EE00024F7F8EC26F6ED0836F6E58124D1F8E65407F6087600087600087600E58124F721
:201F0000F88682088683E0FFE4E58124D7F8080808A6071818187600087600087600E581AF
:201F200024F7F88682088683A3E0FF7E008E048F057F00E58124D7F8EF26F6EE0836F6ED5D
:201F40000836F6EC0836F6E58124F7F88682088683A3A3E0FF7E007D008D048E058F067F43
:201F600000E58124D7F8EF26F6EE0836F6ED0836F6EC0836F6E58124F7F88682088683A365
:201F8000A3A3E0FCE4FDFEFFE58124D7F8E58124EFF9EC26F7ED083609F7EE083609F7EF27
:201FA000083609F78A06EBFF30E7047E007F00C006C007E58124CFF88607741EC39FFF8F64
:201FC000F005F0E58124EDF88604088605088606088607800DC3EF13FFEE13FEED13FDEC2E
:201FE00013FCD5F0F074035CFCE4FDFBFAE58124CFF8740226F6E40836F6E40836F6E40879
:2020000036F6C374039CE49DE49BE49AD007D00650030224F6EC2C2C90201C730220280255
:2020200020E90221D60222C3C006C007E58124CFF88605741DC39DFD8DF005F0E58124ED77
:20204000F88604088605088606088607800DC3EF13FFEE13FEED13FDEC13FCD5F0F0E581DF
:2020600024D9F874075CF6087600E58124CFF8E58124D5F9740326F7E4083609F7E408369F
:2020800009F7E4083609F7E58124D5F88607741DC39FFF8FF005F0E58124EDF8860708864A
:2020A00006088605088604800DC3EC13FCED13FDEE13FEEF13FFD5F0F0E58124CBF8740730
:2020C0005FF6087600E58124D5F8E58124CFF9740326F7E4083609F7E4083609F7E408368A
:2020E00009F7D007D0060224F6C006C007E58124CFF88605741DC39DFD8DF005F0E58124C4
:20210000EDF88604088605088606088607800DC3EF13FFEE13FEED13FDEC13FCD5F0F0E5B2
:202120008124D9F874075CF6087600E58124CFF8E58124D5F9740326F7E4083609F7E40893
:202140003609F7E4083609F7E58124FBF886077420C39FFFE58124D5F88604EFC39CFF8F6B
:20216000F005F0E58124EDF88607088606088605088604800DC3EC13FCED13FDEE13FEEF8F
:2021800013FFD5F0F0E58124F7F88604088605E58124CBF8EC5FF6ED5E08F6E58124D5F8B4
:2021A000E58124FBF9E726C0E009E70836C0E009E70836C0E009E70836C0E0E58124CEF83A
:2021C000D0E0F618D0E0F618D0E0F618D0E0F6D007D0060224F6C006C007E58124FBF886C6
:2021E000057420C39DFDE58124CFF88604EDC39CFD8DF005F0E58124EDF8860408860508BF
:202200008606088607800DC3EF13FFEE13FEED13FDEC13FCD5F0F0E58124F7F8860608860D
:2022200007E58124D9F8EE5CF6EF5D08F6E58124CFF8E58124FBF9E726C0E009E70836C048
:20224000E009E70836C0E009E70836C0E0E58124F0F8D0E0F618D0E0F618D0E0F618D0E0A6
:20226000F6E58124F1F88607741DC39FFF8FF005F0E58124EDF88607088606088605088651
:2022800004800DC3EC13FCED13FDEE13FEEF13FFD5F0F0E58124CBF874075FF6087600E5BD
:2022A0008124F1F8E58124CFF9740326F7E4083609F7E4083609F7E4083609F7D007D00697
:2022C0000224F6C006C007E58124FBF8E58124D5F9E6F7E58124D5F87420C396FCE58124D9
:2022E000CFF88607ECC39FFC8CF005F0E58124EDF88604088605088606088607800DC3EFDB
:2023000013FFEE13FEED13FDEC13FCD5F0F0E58124F7F88602088603E58124D9F8EA5CF6D6
:20232000EB5D08F6E58124CFF8E58124FBF9E726C0E009E70836C0E009E70836C0E009E74F
:202340000836C0E0E58124DAF8D0E0F618D0E0F618D0E0F618D0E0F6E58124DBF8C37410BF
:2023600096E40896E40896E40896D007D0064003022473C006C007E58124DBF8860408E656
:20238000C423CCC423541F6CCC541FCC6CCCFD08E6C42354E04DFD860608E6C423CEC4231B
:2023A000541F6ECE541FCE6ECEE58124F5F8EC26F6ED0836F6E58124DBF8E65407F608763F
:2023C00000087600087600E58124F5F88682088683E0FFE4E58124DFF8080808A607181858
:2023E000187600087600087600E58124F5F88682088683A3E0FF7E008E048F057F00E581B8
:2024000024DFF8EF26F6EE0836F6ED0836F6EC0836F6E58124F5F88682088683A3A3E0FF9E
:202420007E007D008D048E058F067F00E58124DFF8EF26F6EE0836F6ED0836F6EC0836F69A
:20244000E58124F5F88682088683A3A3A3E0FCE4FDFEFFE58124DFF8E58124EDF9EC26F76F
:20246000ED083609F7EE083609F7EF083609F7D007D006C006C007E58124D5F87420C3965A
:20248000FDE58124DBF88604EDC39CFD8DF005F0E58124EDF88604088605088606088607E8
:2024A000800DC3EF13FFEE13FEED13FDEC13FCD5F0F0E58124CBF8EA5CF6EB5D08F6E581EA
:2024C00024DBF8E58124FBF9E726C0E009E70836C0E009E70836C0E009E70836C0E0E5810A
:2024E00024CEF8D0E0F618D0E0F618D0E0F618D0E0F6D007D006E58124DBF8E62EFE08E608
:202500003FFF8E048F05E58124C7F88682088683ECF0EDA3F0E58124C7F8740226FCE408CC
:2025200036FDE58124CDF8E62EFA08E63FFBE58124E9F8C3EA96EB64800886F063F0809580
:20254000F0504DE58124C9F88606088607C004C0058E828F83E58124DFF8E0F6A3E008F61F
:202560008A048B05E58124DFF8C3EC96ED64800886F063F08095F0D005D004400974042E58
:20258000FEE43FFF80C7E58124C9F8A60608A6078A068B078C828D83EEF0EFA3F0E58124FE
:2025A000C7F874022CF6E43D08F6021A6CE58124C9F8740226FEE40836FF8E828F83E0FC19
:2025C000A3E0FDE58124C9F874022EF6E43F08F68C028D03021A6CE58124C5F886820886F2
:2025E00083A3A3A3A37402F0E4A3F0802AE58124E9F88606088607E58124C7F886820886DA
:2026000083EEF0EFA3F0E58124C7F88682088683A3A3EEF0EFA3F0E58124CBF886820886EC
:2026200083E58124EFF9E7F009E7A3F009E7A3F009E7A3F0E58124CFF88682088683E58175
:2026400024D1F9E7F009E7A3F009E7A3F009E7A3F0E58124D5F88682088683E58124F7F942
:20266000E7F009E7A3F0E58124C5F88682088683A3A3A3A3E0FEA3E0FF8E828F83E5812408
:20268000C4F58122C082C08305810581E58124FDF8E60846600AE58124F9F8E6084670060B
:2026A00090000102288AE58124FDF8740626FCE40836FD8C828D83E0FAA3E0FBE58124FD9E
:2026C000F88682088683A3A3E0FEA3E0FFC3EA9EEB64808FF063F08095F040069000050275
:2026E000288AE58124FDF88682088683A3A3A3A3E4F0A3F08C828D83E0FCA3E04C700DE572
:202700008124FDF88682088683121691E58124FDF8741A26F582E40836F583E0FCA3E0FDAD
:20272000E58124FDF8740826F582E40836F583E0FAA3E0FBEA2CFCEB3DFDE58124FDF874E5
:202740001C26F582E40836F583E0FAA3E0FBC3EA9CEB9D401AE58124FDF88682088683A368
:20276000A3A3A37402F0E4A3F090000202288AE58124FDF88682088683121922AC82AD830A
:202780008C028D03EC4D6003022860E58124FDF8741E26F582E40836F5837809E0F2A3E0D7
:2027A00008F2E58124F9F8790BE6F308E609F3E58124FDF88682088683121465E58124FDB3
:2027C000F8742026FCE40836FD8C828D83E0FBA3E0FAE58124FDF8A98119741E26F7E40859
:2027E0003609F7A881188682088683E0FEA3E0FF8C828D83EEF0EFA3F0A881188682088694
:2028000083EBF0EAA3F0E58124FDF8740626FEE40836FF8E828F83E0FCA3E0FD0CBC000158
:202820000D8E828F83ECF0EDA3F0E58124FDF88682088683A3A3E0FEA3E0FFC3EC9EED6431
:20284000808FF063F08095F04029E58124FDF88682088683A3A3A3A37405F0E4A3F0801321
:20286000E58124FDF88682088683A3A3A3A3EAF0EBA3F0E58124FDF88682088683A3A3A35B
:20288000A3E0FEA3E0FF8E828F83E58124FCF5812275C6C0E59E30E6FB53C6BFE59E20E605
:2028A000FB22E582FF30E019C0071228919062707404F012670B122D86E582D007901631B2
:2028C000F0EF30E407C007125E5ED007EF30E20D758201C00712562812564FD007EF30E6A2
:2028E0000AC0071237241234E9D00790163BE04FF022AF8290163BE05207EF30E407C00756
:20290000125E6BD007EF30E607C007123502D007EF30E20DC0071255CD758200125628D0B2
:2029200007EFF4FF90163BE05FF022AF82AE83ADF0FC901542EFF0EEA3F0EDA3F0ECA3F03B
:20294000AC957D007E007F00A89679007A008A0389028801E42CF8E93DF9EA3EFAEB3FFB7C
:20296000AC978D078C06E428FCED39FDEE3AFEEF3BFF901542E0F8A3E0F9A3E0FAA3E0C475
:202980002354E0CAC423CA6ACA54E0CA6AFBE9C423541F4AFAE9C42354E0C8C423C868C89C
:1E29A00054E0C868F9E82CFCE93DFDEA3EFEEB3FFF8E978D968C95D2AFD2AD43BE06CA
:2029C1007587010022AF8285951375140075150075160085960F751000751100751200AE71
:1F29E10011AD10AC0FE42513F513EC3514F514ED3515F515EE3516F516AB977C008C0617
:202A00008B057B007816EB2513F2EC351408F2ED351508F2EE351608F28F02EEC42354E0DB
:202A2000CAC423CA6ACA54E0CA6AFE3395E0FDFC7816E22AFA08E23EFE08E23DFD08E23CDC
:0E2A4000FC8D978E968A95D2AFD2AD43BE051F
:202A51007587010022AF82AE83ADF0FC901546EFF0EEA3F0EDA3F0ECA3F0901546E0FCA397
:202A7100E0FDA3E0FEA3E0FFEC4D4E4F605EC374FF9C74FF9D74079EE49F503990FFFF75C7
:202A9100F007E4C007C006C005C00412292BD004D005D006D007EC2401F8E43DF9EE34F83B
:202AB100FAEF34FFFB901546E8F0E9A3F0EAA3F0EBA3F080A58C828D838EF0EF12292B900E
:202AD1001546E4F0A3F0A3F0A3F0808EE59E20E6FB7582100228A2AF82AE83ADF0FC9015F8
:202AF1004AEFF0EEA3F0EDA3F0ECA3F090154AE0FCA3E0FDA3E0FEA3E08C828D838EF0022F
:202B11002A5653C07F3253C0DF3290001412B49D7F007E047D04BD1F0050678D04EC2C90E7
:202B31006264F0900064C007C006C00512B49DD005D006D007906264E020E62B906264E006
:202B5100FC5304407B008E017A00C004C003C001C0027477C0E074C5C0E01233FBE5812415
:202B7100FAF5818E07801B906264E043E001F0900064C007C00512B49DD005D0070D8D062B
:202B91008094906264E043E001F0BF13005003022C66EF24E15003022C66EF24EDFF240A05
:202BB10083F582EF241083F583E473D4E1EEFB07131E2A36424E5A2B2B2B2B2C2C2C2C2CED
:202BD1002C2C2C90163474FCF07408A3F0022C70901634742EF07409A3F0022C7090163485
:202BF1007460F07409A3F0022C709016347492F07409A3F0806990163474C4F07409A3F077
:202C1100805D90163474F6F0F4A3F080529016347428F0740AA3F08046901634748CF074BE
:202C31000AA3F0803A90163474F0F0740AA3F0802E9016347486F0740BA3F08022901634ED
:202C5100741CF0740CA3F080169016347480F0740CA3F0800A90163474B9F0740BA3F09046
:202C71001634E0FEA3E0FFC3EE94F0EF940A50079016367401F022901636E4F022E5826084
:202C910010901632E0FFBFFF005006901632EF04F0901632E0FFBF18005007900E10E4F521
:202CB100F022BF24005007901C20E4F5F02290518075F001E42290162EE0786DF2E408F2CA
:202CD10090023512AF11781A740AF2E408F2122D9AAE82AF8374232EFEE43FFF90162DE097
:202CF10054077D0025E0FCED33FDEC241DF582ED3416F583EEF0EFA3F090162DE02401F052
:202D1100227E007F007D00BD0800501DED75F002A4241DF582741635F0F583E0FBA3E0FCA3
:202D3100EB2EFEEC3FFF0D80DEEFC423CEC423541F6ECE541FCE6ECEFF90164BE0FCA3E0D0
:202D5100FDC3EE9CEF9D50058C828D83228E828F8322AE82AF837D00BD08005017ED75F056
:202D710002A4241DF582741635F0F583EEF0EFA3F00D80E422E59DFF70047582FC22BF02FF
:202D9100047582FE227582FE22AE82AF837C007D007B10EF235401FAEE2EFEEF33FFEC2C56
:202DB100FCED33FDEA6003430401781AC3E2F5F0EC95F008E2F5F0ED95F04011781AD3E2EE
:202DD1009CF4B3FCB308E29DF4FD430601DBC48E828F8322AD82AE83AFF0ED4E7001227B03
:202DF100007C00901616E0F513A3E0F514750F16751016E513451460398D118E12C3E513FE
:202E11009511E5149512502AC005C006C007AB13AC1474022513FAE43514FF8A0F8F108A7B
:202E3100828F83E0F513A3E0F514D007D006D00580C1781CE513F2E51408F2ED24FEFDEE4B
:202E510034FFFE74022DFAE43EFF8A828F83781CE2F008E2A3F0850F82851083EDF0EEA3D5
:202E7100F08D828E83E0F513A3E0F514781CE2B5130708E2B5140280028039C003C004857C
:202E91001382851483A3A3E0FBA3E0FC8A828F83EBF0ECA3F08D828E83E0FBA3E0FC8B82D1
:202EB1008C83E0FBA3E0FC8D828E83EBF0ECA3F0D004D003EB4C604BC002C0078B828C83F0
:202ED100E0FAA3E0FFEAB50506EFB506028005D007D00222D007D0028D828E83E0FDA3E0B6
:202EF100FE8B828C83EDF0EEA3F074022BFBE43CFC8A828F83E0FAA3E0FF8B828C83EAF021
:202F1100EFA3F022AE82AF83748BC0E074C5C0E01233FB158115817D00BD1000501C8D0370
:202F31007C00C003C0047494C0E074C5C0E01233FBE58124FCF5810D80DF749AC0E074C56D
:202F5100C0E01233FB158115817D00BD1000501274A4C0E074C5C0E01233FB158115810D9E
:202F710080E97C007D00E58124FDF8C3EC96ED089650488C028D03EA540F60028015C004D1
:202F9100C00574A8C0E074C5C0E01233FBE58124FCF581EC2EF582ED3FF583E0FB7A00C040
:202FB10003C00274B3C0E074C5C0E01233FBE58124FCF5810CBC00AE0D80AB749AC0E0748F
:202FD100C5C0E01233FB158115817F00BF1000501274A4C0E074C5C0E01233FB1581158162
:202FF1000F80E974B9C0E074C5C0E01233FB1581158122C007C083C082858107C004C00334
:20301100C002C001C00074F42581F8868318868218860018E493A36014B4250C7C007A000E
:20303100E493A36008B4251612333680E7D000D001D002D003D004D082D083D00722B4635D
:203051000518E61880E2FB4420B46D43EB542003F9C083C0821232A07C08C083C082EC1452
:203071002582F582E5833400F583E0FAC47B02540F2990336593123336EADBF3D082D083D3
:20309100DC06D082D083808C743A12333680CBEBB42A09BA009274014CFC8084B43007BA94
:2030B1000004740680F2FB24D0501224F6400E240AFB740A8AF0A42BFA740480DBBB6C0D65
:2030D100EC54086004741080CF740880CBBB7343EC5408C083C08270051232BE8007C2D5C6
:0F30F100C2D11232A0EC5404700A1232A76093BD
:2031000012333680F6BA000280891232A7600B123336DAF60230930231F07420123336DA87
:20312000F9023093EB4420B478EDC083C0821232E8C083C082E5F023F90324FF2582F582FE
:20314000E5833400F5831232DB54F07013191232DB700D191582E582B4FF021583D5F0E6B1
:20316000B9000109EC5420600B09EC54026005742D123336EC54046018EAC399401360112F
:20318000FAEC5402C4032420F582E582123336DAF9EC5420600B19EC54027005742D12333B
:2031A00036EB542003FAD082D083E904C313FC142582F582E5833400F583E954016007121C
:2031C00032DB790180071232DB7902FBC4540F2AC083C08290336593D082D083123336EBB0
:2031E000D9EB1582E582B4FF021583DCD9023093BB640674204CFC8008BB750280030230D6
:2032000025C083C0821232E8C0F07408C395F0244EF9E43415FB1232DBA312332BF0A312FA
:20322000332BD5F0F112332BF5F0EC54206028E5F054807006EC54DFFC801CD0F0C0F07483
:2032400008C395F0244EF582E43415F583C3E0F9E499F0A3D5F0F775F00AE4F0A3D5F0FB82
:20326000D0E0C403FB90155675F00AE0F9540F24FBE950022403F954F024B0E95002243015
:20328000F0A3D5F0E690154EC375F012E033F0A3D5F0F9DBD090155675F00AC2D50231314F
:2032A0008683188682182220D50620D107E0A322E493A3228883A882E6A883058222C2D551
:2032C000C2D1E61860DA6480600D64C0600585938380CFD2D180CBD2D580C530D508C000B8
:2032E000A882E6D00022E022EC54017021D2D575F000EC5418600E54106006D2F218181850
:2033000018D2F11818D2F01888821805F022C2D5EC541860105410600675F0080232A075B0
:20332000F0040232A075F0020232A0C583CBC583C582C9C58222C083C082C001C0008F0021
:20334000868218868318181818860118860012335AD000D001D082D08322C082C0838500AE
:20336000828501832230313233343536373839414243444546303132333435363738396190
:203380006263646566C007C006C005C004C001C000AC82AD83AEF0FFBF0A2A75820DC007E9
:2033A000C006C005C004C003C002C001C000C021125E72D021D000D001D002D003D004D01A
:2033C00005D006D0078F82C007C006C005C004C003C002C001C000C021125E72D021D0008A
:2033E000D001D002D003D004D005D006D007D000D001D004D005D006D00722C007C001C0A0
:2034000000E58124FAFFC007E58124F9F8E6C0E008E6C0E0E4C0E0C0E0903385123004E53C
:203420008124FBF581D000D001D00722C007C006C005C004C003C001AC82FF8C018F04876E
:20344000060987071974012EFBE43FFDA70309A7058E828F83ECF0D001D003D004D005D07E
:2034600006D00722C007C006C005C001C000E58124F6FFE58124F8FE7D00C007E58124F5B8
:20348000F8E6C0E008E6C0E0C006C00590342C123004E58124FBF58124F8F8868208868337
:2034A000E4F0D000D001D005D006D00722C082C083AF811F7E00E58124FAF8E6C0E0E58139
:2034C00024FAF8E6C0E008E6C0E0C007C00690342C123004E58124FBF581A88118868208B3
:2034E0008683E4F01581158122901560E0FF20E71075E1ED75E1ED75E1E390156074804F9F
:20350000F022901560E0FF30E71075E1EF75E1ED75E1ED901560747F5FF022AE82AF839068
:203520006172EEF0906173EFF022AF82BF0B004005EF24E5500122C007123502D007EF24D0
:20354000F575F005A490618F240BF00234E975E1ED75E1ED22AE82AF83906193E020E60432
:203560007582FF22E5D9FD2480501974BBC0E074C5C0E01233FB1581158175E1ED75E1EDD1
:2035800075820022ED24FB401974C9C0E074C5C0E01233FB1581158175E1ED75E1ED75820E
:2035A00000221D1D78417403F2758203C007C006C005126826D005D006D0078E038F048C6F
:2035C0000390158EEBF090158FEEF08D067F008F06901590EE541FF5F0E054E045F0F090DD
:2035E0001591EDF053D1F743D60843D708740855D1FFBF08F8E5D924B7901561F0E5D9300D
:20360000E708901562740AF0800475820022906193E054C0FFBF400C90619BE0700675E1EF
:20362000ED75E1ED8D8222AE82AF83906193E020E1F9901560E020E70BC007C0061234E9B6
:20364000D006D00775E1EE75E1EE78417402F2758202C007C006126826D006D0078E048F20
:20366000058D04901584ECF08E05901585EDF08E828F83E0FD7C000DBD00010C8C0590158D
:2036800088ED541FF5F0E054E045F0F08E828F83E0FE0E901589EEF053D1FB43D60443D7B4
:2036A00004740455D1FFBF04F8906193E020E41074D8C0E074C5C0E01233FB1581158122E3
:2036C000906193E030E51074E3C0E074C5C0E01233FB158115812275E1E97F00906193E0E1
:2036E00020E112BF0300500D0F90003CC00712B49DD00780E7906193E020E11675E1EE7521
:20370000E1EE74F3C0E074C5C0E01233FB1581158122906193E020E1F922E58260030234EC
:20372000E9023502901560E030E0237F00BF0800501BEF246AFDE43461FEEF24A2F582E49D
:203740003415F583E08D828E83F00F80E02278417403F275820312682675E1E37591007FAD
:2037600000BF0800501BEF246AFDE43461FEEF24A2F582E43415F583E08D828E83F00F80D6
:20378000E0906170E0906174F0906171E0906175F09061AB743FF09061AC7455F0906196FF
:2037A00074F8F09061FA7409F09061B27415F09061AEE4F09061897440F0906180E043E034
:2037C00001F0906182E4F075E1ED75E1ED906194747FF090619074D5F0901560E043E00100
:2037E000F090444712351B901659E0F58202352AAF83E5827824F2EF08F27822E2FC08E233
:20380000C313CC13CCFD7826E4F208F27826C3E29C08E29D5062C004C00578247926E3C538
:20382000F0E225F0FC09E3C5F008E235F0FD8C828D83E0FA78227926E3F5F0C3E295F0FED7
:2038400009E3F5F008E295F0FF1EBEFF011F7824E22EFE08E23FFF8E828F83E08C828D833C
:20386000F08E828F83EAF07826E22401F208E23400F2D005D004809422AF83E582782AF2A9
:20388000EF08F27828E2FC08E2C313CC13CCFD782CE4F208F2782CC3E29C08E29D5069C000
:2038A00004C005782A792CE3C5F0E225F0FC09E3C5F008E235F0FD8C828D83E0FA782879AF
:2038C0002CE3F5F0C3E295F0FE09E3F5F008E295F0FF1EBEFF011F782AE22EFE08E23FFFBA
:2038E0008E828F83E0FB6303FF8C828D83EBF074FF6A8E828F83F0782CE22401F208E234C3
:2039000000F2D005D004808D22AE82AF837D008D037C00782EC3E2F5F0EB95F008E2F5F083
:20392000EC95F05018ED2EFBE43FFC8B828C83E0FA6302FF8B828C83EAF00D80D222C08266
:20394000C083E581243FF58124EAF9E58124D3F8740629F6E58124DDF8740A29F6E581246A
:20396000C0F8C001796DE6F308E609F390005012AF11C8E58124D6C8A68208A683D001E574
:203980008124DDF8C001E58124E8F9E6F7D001E58124D7F8C001E58124C1F9E6F708E609A1
:2039A000F7D001E58124BDF8C001E58124C3F9E4B6010104F7D001E58124DDF8C001E5810B
:2039C00024C4F9E6F7D001E58124D7F8C001E58124C5F9E6F708E609F7D001E58124DDF8FB
:2039E000C001E58124C7F9E6F7D001E58124D7F8C001E58124C8F9E6F708E609F7D001E528
:203A00008124BDF8C001E58124CAF9E4B6020104F7D001E58124CCF8740F29F6E58124CD8E
:203A2000F8740529F6E58124CEF8740E29F6E58124CFF8740229F6E58124CEF8C001E581A8
:203A400024CFF9E6F7D001E58124D1F8740429F6E58124CFF8C001E58124D1F9E6F7D001CE
:203A6000E58124FAF8760090163CE0FEE58124FAF8C3E69E400302455189057C007B40E54C
:203A80008124FAF8E675F010A4FEAFF07820E22EFE08E23FFF7833EEF2EF08F2E408F2785B
:203AA000367410F2E408F28D828C838BF0C001125392D001E58124D3F886008607E5812468
:203AC000BDF8E6B507028003023F70740729F8E67003023CECE58124D2F886008606088646
:203AE0000718E58124C0F8C3E69E08E69F5003024548E58124D0F8860086058D027C008AB7
:203B000082ECC40354F8C582C403C5826582C58254F8C5826582F583E58124D1F886008650
:203B200004786DECF2E408F2C007C006C005C00112AF11AB82AC83D001D005D006D007E567
:203B40008124DBF8A60608A607E58124DBF8EB26F6EC0836F6E58124C0F88602088604E5C7
:203B60008124DBF8C3EA96EC08964003024548E58124C0F8E6C39EF58208E69FF583781A97
:203B8000EDF2E408F2C001122D9AC8E58124FAC8A68208A683D001E58124D4F8740829F69F
:203BA000C001E58124CCF98700D001C000E58124FCF87600D0008602C000E58124CFF886FA
:203BC0000086048AF0ECA4FAAFF0E58124FCF8C001E58124D7F9E6F7097700D001E5812467
:203BE000D8F8C3E69A08E664808FF063F08095F0D0004003024548C000E58124D3F88600CC
:203C0000860608860718E58124FAF88602088603E58124DEF8A602EBC423C6C423541F6676
:203C2000C6541FC666C608F6E58124D0F886008605E58124FCF88CF0E6848DF0A4FCADF0DA
:203C4000E58124DEF8EC26FCED0836FDD000EC2EF582ED3FF583E0FF5302077B008AF00594
:203C6000F07A80E43392D28008A2D2EB13FBEA13FAD5F0F57E00EF5202EE5203EA4B605F41
:203C8000870609870719C000E58124D8F88604088605EC2EFEED3F8E04C423CCC423541FCD
:203CA0006CCC541FCC6CCCFDE58124B9F8EC26FCED0836FD088603D0008C828D838BF012DB
:203CC000B6D3FA5306078EF005F07401800225E0D5F0FB42028C828D838BF0EA129D76C026
:203CE00000E58124FCF806D000023BB6E58124CFF88600860608860718E58124C0F8C3E682
:203D00009E08E69F5003024548E58124CDF886008605E58124CEF8860086048DF0ECA4FACF
:203D2000ABF0E58124DBF8A60608A607E58124DBF8C001E58124DEF9EA26F7EB083609F77B
:203D4000D001E58124C0F88602088603E58124DFF8C3EA96EB089640030245488DF0ECA42B
:203D6000FD1DE58124C0F8E6C39EFCEDC39CFDE58124FBF8A605E58124DEF8740829F6C078
:203D800001E58124D0F98700D001C000E58124FBF8E4F608F6D00086038B027F008A82EF02
:203DA000C40354F8C582C403C5826582C58254F8C5826582F583C000E58124CDF8C001E5C6
:203DC0008124DDF98600E6F7D001E58124DEF8C001796DE6F3E409F3D001D000C003C0014F
:203DE000C00012AF11AA82AF83D000D001D003C000E58124FBF8C001E58124D9F9E6F70820
:203E0000E609F7D001E58124DAF8C3E69A08E69FD0004003024548C000E58124DDF8860078
:203E2000860208860718E58124DAF8C001E58124D7F9E6F708E6C423C7C423541F67C75481
:203E40001FC767C709F7D001E58124DEF8C001791AE6F3E409F3D001E58124D8F8868208D5
:203E60008683D000C007C003C002C001C000122D9AAC82AD83D000D001D002D003D007C088
:203E800000E58124FAF8C001E58124DDF987F0E684D001F5F0EBA4AEF02CFCEE3DFDEC2A5B
:203EA000F582ED3FF583E0FFE58124DEF8C001791AE6F3E409F3D001E58124FBF88682083D
:203EC0008683D000C007C001C000122D9AAD82D000D001D0075305077E008DF005F07D80F5
:203EE000E43392D28008A2D2EE13FEED13FDD5F0F57C00EF5205EC5206ED4E6061870609FD
:203F0000870719EFC423CEC423541F6ECE541FCE6ECEFFC000E58124D8F8EE26FEEF0836EB
:203F2000FFE58124B9F8EE26FEEF0836FF0886058E828F838DF012B6D3FCE58124DAF87470
:203F40000756FAD0008AF005F07401800225E0D5F0FB42048E828F838DF0EC129D76C00059
:203F6000E58124FBF806B600020806D000023D97E58124CCF88600E6FF7003024548BF02D6
:203F800002800302448AE58124BDF8E66003024133E58124DDF8860086030886040886053B
:203FA00008860618181874162BFFE43CFCE43DFDE43EFEE58124D7F8C001E58124E4F9E6B0
:203FC000F708E609F7097700097700D001E58124E5F8E62FFB08E63CFC08E63DFD08E63E3A
:203FE000FEE58124FBF8A60374782C08F6E43D08F6E43E08F6900050C00112AF80AA82AE8C
:2040000083D001A88118A60208A606A881188605088606C0017450C0E0E4C0E0C005C0061B
:20402000E58124F6F886820886830886F008E6125467E58124FCF581D001E58124DDF88604
:2040400000860308860408860508860618181874162BFBE43CFCE43DFDE43EFEE58124E55D
:20406000F8E62BFB08E63CFC08E63DFD08E63EFFE58124BAF8C001E58124E4F9E6F708E694
:2040800009F7D001E58124E5F88602088606C0017450C0E0E4C0E0C002C0068B828C838DF2
:2040A000F0EF125467E58124FCF581D001782E7450F2E408F2A881188682088683C0011220
:2040C0003909D0017F00BF50005035E58124BAF8EF26FCE40836FD0886068C828D838EF01E
:2040E00012B6D3FBA88118EF26F582E40836F583E052038C828D838EF0EB129D760F80C68D
:20410000A8811886040886057E008C828D838EF0C001122DE5D00178227450F2E408F2E55E
:204120008124E5F88682088683C0011237F0D001024548E58124C4F8E670030242EEC001F8
:20414000E58124E8F88600860308860408860508860618181874162BFFE43CFCE43DFDE413
:204160003EFEE58124C1F8C001E58124DFF9E6F708E609F7097700097700D001E58124E097
:20418000F8E62FFA08E63CFC08E63DFD08E63EFEE58124FAF8A60274782C08F6E43D08F647
:2041A000E43E08F6900050C00112AF80AB82AE83D001A8811818A60308A606A88118188639
:2041C00005088606C0017450C0E0E4C0E0C005C006E58124F5F886820886830886F008E616
:2041E000125467E58124FCF581D001E58124E8F886008603088604088605088606181818AB
:2042000074162BFBE43CFCE43DFDE43EFEE58124E0F8C001E58124E3F9E62BF708E63C09D0
:20422000F708E63D09F708E63E09F7D001E58124B9F886020886068A048E05C006C002C09F
:20424000017450C0E0E4C0E0C004C005E58124DDF886820886830886F008E6125467E581D5
:2042600024FCF581D001D002D006782E7450F2E408F28A828E83C001123909D0017F00D0A3
:2042800001BF50005035E58124BAF8EF26FCE40836FD0886068C828D838EF012B6D3FBA8AF
:2042A0008118EF26F582E40836F583E052038C828D838EF0EB129D760F80C6A8811886043E
:2042C0000886057E008C828D838EF0C001122DE5D001E58124BAF8868208868378227450C8
:2042E000F2E408F2C0011237F0D001024548E58124CBF8E67003024548C001E58124C4F858
:204300008600860308860408860508860618181874162BFFE43CFCE43DFDE43EFEE58124F5
:20432000C5F8C001E58124DFF9E6F708E609F7097700097700D001E58124E0F8E62FFB0887
:20434000E63CFC08E63DFD08E63EFEE58124FAF8A60374782C08F6E43D08F6E43E08F690E3
:204360000050C00112AF80AA82AE83D001A8811818A60208A606A88118188605088606C0D0
:20438000017450C0E0E4C0E0C005C006E58124F5F886820886830886F008E6125467E5817A
:2043A00024FCF581D001E58124C4F88600860308860408860508860618181874162BFBE4AC
:2043C0003CFCE43DFDE43EFEE58124E0F8E62BFB08E63CFC08E63DFD08E63EFFE58124B93D
:2043E000F8C001E58124E3F9E6F708E609F7D001E58124E4F88602088606C0017450C0E05B
:20440000E4C0E0C002C0068B828C838DF0EF125467E58124FCF581D0017F00D001BF50000F
:204420005035E58124BAF8EF26FCE40836FD0886068C828D838EF012B6D3FBA88118EF266F
:20444000F582E40836F583E052038C828D838EF0EB129D760F80C6A8811886040886057E39
:20446000008C828D838EF0C001122DE5D00178227450F2E408F2E58124E5F886820886833C
:20448000C0011237F0D001024548BF01028003024548E58124BDF8E66003024548C001E531
:2044A0008124C7F886008604088605088606088607181818E58124FAF874162CF6E43D0833
:2044C000F6E43E08F6E43F08F6E58124C8F88602088603E4FEFFE58124FAF8C001E581249A
:2044E000E3F9EA26F7EB083609F7EE083609F7EF083609F7D001E58124B9F886040886052E
:204500008C068D07C005C004C0017450C0E0E4C0E0C006C007E58124DDF886820886830836
:2045200086F008E6125467E58124FCF581D001D004D00578227450F2E408F28C828D83C0C8
:20454000011237F0D001D001E58124FAF806023A67E58124BFF581227F0090163CE0FEC377
:20456000EF9E5034EF75F010A4FDAEF07820E22DFD08E23EFE74082DF582E43EF583E0FD26
:20458000A3E0FE4D600F7C008D828E838CF0C007122DE5D0070F80C27820E2F5F008E24525
:2045A000F060127820E2FD08E2FE7F008D828E838FF0122DE57820E4F208F290163CF0229C
:2045C000058105817820E2F5F008E245F0700302466C90163CE02401F075F010A4F582853E
:2045E000F08312AF80AE82AF83A88118A60608A607A88118740F26F582E40836F583E4F034
:20460000A881188603088604FD78207933E2F308E209F3E409F390163CE0FA7F001ABAFF54
:20462000011F7836EAF28FF0E2C5F0C454F0C5F0C4C5F065F0C5F054F0C5F065F0C5F0F285
:20464000E5F008F28B828C838DF01253927820E2FD08E2FE7F008D828E838FF0122DE5A8B2
:2046600081187920E6F308E609F3801890001012AF80AE82AF837820EEF2EF08F290163C27
:20468000E02401F090163CE0FF7E001FBFFF011EEEC454F0CFC4CF6FCF54F0CF6FFE78203C
:2046A000E22FF58208E23EF58315811581221245C0AE82AF83781EEEF2EF08F2740E2EF507
:2046C00082E43FF5837401F074062EF582E43FF583E4F08E828F837408F0E4A3F08E828F26
:2046E00083A3A37408F0E4A3F074072EF582E43FF583E4F022AE82AF83781EE2FC08E2FDA0
:204700008C828D83EEF0EFA3F08C828D83A3A37830E2F008E2A3F074072CF582E43DF58309
:204720007832E2F022AF82781EE2240EF58208E23400F583EFF022AF82781EE22406F582A8
:2047400008E23400F583EFF022C082C083E5812405F5811245C0AC82AD83781EECF2ED085A
:20476000F2740E2CF582E43DF5837402F074062CF582E43DF583E4F08C828D837440F0E4F3
:20478000A3F08C828D83A3A37404F0E4A3F074072CF582E43DF5837401F074042CFAE43D68
:2047A000FBE58124FAF88682088683E493FF7E0078867408F2E408F28F828E83C005C00480
:2047C000C003C00212B360AE82D002D003D004D0058A828B83EEF0E58124FCF874052CF6A0
:2047E000E43D08F6E58124FAF88682088683A3A3E493FFE58124FCF88682088683EFF0745F
:20480000082CFCE43DFD8A828B83E0FA8AF0EFA4F58285F083C005C00412AF80AE82AF83AE
:20482000D004D0058C828D83EEF0EFA3F0781EE2FE08E2FF74082EF582E43FF583E0FCA3B7
:20484000E0FDA8811818A60408A605087600E58124FAF8740426FAE40836FD7833EAF2EDA0
:2048600008F2748008F28E828F83A3A3A3A3E0FD8E828F83A3A3A3A3A3E08DF0A4FDAEF0D8
:204880007836EDF2EE08F2A881181886820886830886F0125392E58124F9F58122E5812417
:2048A0001CF58190003012AF80AE82AF83E58124F5F8A60608A607087600E58124E1FCE561
:2048C0008124F5F88602088603C004E58124E0F8E6C0E008E6C0E08A828B831234AD158150
:2048E0001581158190003012AF80AB82AC83E58124F8F8A60308A60408E4F6FEFFE58124F1
:20490000FBF87600C006C007E58124F3F8E58124F9F9E726FDE40836FE0886078D828E83D1
:204920008FF012B6D3FDFCD007D006ED6070BC20118E048F0574042CFCE43DFD8C068D0703
:2049400080537D00786DEC24E0F2ED34FF08F2900021C007C00612AF11AC82AD83D006D012
:2049600007EC24FDF582ED34C5F583E493FDFC53040F7410C39CFCEDC4540FFDECC39DFD3F
:204980008E038F047A00ED2BFBEA3CFC0BBB00010C8B068C07E58124FBF8060249041EBE9F
:2049A000FF011F8E04EFC423CCC423541F6CCC541FCC6CCCE58124FCF8A604EE54076006C4
:2049C000E58124FCF806781EE22408FE08E23400FFE58124FCF886047D008C03EDC454F08B
:2049E000CBC4CB6BCB54F0CB6BFA8B828A83C007C006C003C00212AF80AC82AD83D002D046
:204A000003D006D0078E828F83ECF0EDA3F0781EE22408F58208E23400F583E0FEA3E0FF57
:204A20004E7012745DC0E074D2C0E01233FB158115810252AE7D00783BE4F2783CEBF2EA60
:204A400008F28E828F838DF0125E03781EE2FE08E2FF8E828F83A3A3A3A3E58124FCF8E6D9
:204A6000F08E828F83A3A3A3A3A37410F0E4FEFFE58124FBF87600C006C007E58124F3F8AB
:204A8000E58124F9F9E726FDE40836FE0886078D828E838FF012B6D3FDFCD007D006ED709E
:204AA00003025282BC20128E048F0574042CFCE43DFD8C068D07025279C006C0078C057FBB
:204AC00000786DED24E0F2EF34FF08F2900021C007C00512AF11AC82AE83D005D007EC24C8
:204AE000FDF582EE34C5F583E493FEFC53040F7410C39CFCE58124FCF8EEC4540FF6E5813E
:204B000024FCF8E58124FBF9ECC396F7786DED24E0F2EF34FF08F290002112AF11AE82AF7D
:204B200083E58124E5F8EE24FDF6EF34C508F6E58124FDF87600D007D006A88118B61000F7
:204B40004003024BF6C006C007E58124FDF8E675F003A4FCADF0E58124F6F8E58124E7F956
:204B6000EC26F7ED083609F708E609F7E58124FDF8E626FE2402C8E58124E5C826F58208C0
:204B8000E436F583E493FFE58124E7F886820886830886F0EF129D7674012CFBE43DFFE558
:204BA0008124F6F8EB26FBEF0836FF088602EE04C8E58124E5C826F58208E436F583E493FB
:204BC0008B828F838AF0129D7674022CFCE43DFDE58124F6F8EC26FCED0836FD0886078C8C
:204BE000828D838FF0E4129D76E58124FDF806D007D006024B3A8E048F055304077D00A839
:204C000081181886027B00EAB50407EBB505030250A2C3EA9CEB9D4003024E5C8C03A88122
:204C20001818EBC396FDBD08005003024CF85305077C00BC30004003024CF8C006C007E5E3
:204C40008124E7F8A604087600E58124E7F8740226FAE40836FBE58124F6F8E58124EAF9A7
:204C6000EA26F7EB083609F708E609F7E58124E7F8740126FEE40836FFE58124F6F8E58115
:204C800024EDF9EE26F7EF083609F708E609F7E58124EDF886820886830886F012B6D3FA49
:204CA000E58124EAF886820886830886F0EA129D76E58124F6F8E58124E7F9E726FA09E709
:204CC0000836FE0886078A828E838FF012B6D3FBE58124EDF886820886830886F0EB129D31
:204CE000768A828E838FF0E4129D768C0274032AFCD007D006024C337C00BC300040030293
:204D000050A2C006C007E58124EDF8A604087600E58124EDF8740226FBE40836FEE58124CD
:204D2000F6F8E58124E7F9EB26F7EE083609F708E609F7E58124E7F886820886830886F0F9
:204D400012B6D3FA8DF005F0E58124EAF8EA8002C313D5F0FBF6E58124EDF8740126FAE400
:204D60000836FFE58124F6F8E58124F0F9EA26F7EF083609F708E609F7E58124F0F886826F
:204D80000886830886F012B6D3FA8D03E58124E3F87408C39BF68A03E58124E3F886F005BD
:204DA000F0EB800225E0D5F0FBFBE58124EAF8E64203E58124E7F886820886830886F0EB54
:204DC000129D76E58124F0F886820886830886F012B6D3FB8DF005F0E58124EAF8EB8002C4
:204DE000C313D5F0FBF6E58124F6F8E58124EDF9E726FB09E70836FE0886078B828E838FC9
:204E0000F012B6D3FAE58124E3F886F005F0EA800225E0D5F0FBFAE58124EAF8E64202E597
:204E20008124F0F886820886830886F0EA129D768B828E838FF012B6D3FA8DF005F0EA8031
:204E400002C313D5F0FB8B828E838FF0129D768C0374032BFCD007D006024CFAA88118187D
:204E6000A98119E6C39CF7A88118B608005003024F36A88118E65407F6A8817600A881B6E4
:204E800030004003024F36C006C007A881181886027B00E58124F6F8E58124F0F9EA26F73D
:204EA000EB083609F708E609F774012AFDE43BFFE58124F6F8ED26FDEF0836FF0886068D4C
:204EC000828F838EF012B6D3FCE58124F0F886820886830886F0EC129D7674022AFAE43B56
:204EE000FBE58124F6F8E58124F0F9EA26F7EB083609F708E609F7E58124F0F886820886A6
:204F0000830886F012B6D38D828F838EF0129D76E58124F0F886820886830886F0E4129D95
:204F200076A88118188604A881181874032CF6D007D006024E7DA8817600A88118E5812442
:204F4000F2F97408C396F7A881B6300040030250A2C006C007A881181886027B00E58124E1
:204F6000F6F8E58124EAF9EA26F7EB083609F708E609F7E58124EAF886820886830886F0B5
:204F800012B6D3FCE58124FDF886F005F0E58124EDF8EC800225E0D5F0FBF674012AFCE479
:204FA0003BFFE58124F6F8EC26FCEF0836FF0886068C828F838EF012B6D3FDE58124F0F8C9
:204FC00086F005F0ED8002C313D5F0FBFDE58124EDF8E64205E58124EAF88682088683083B
:204FE00086F0ED129D768C828F838EF012B6D3FDE58124FDF886F005F0E58124EDF8ED802D
:205000000225E0D5F0FBF674022AFAE43BFBE58124F6F8E58124EAF9EA26F7EB083609F70A
:2050200008E609F7E58124EAF886820886830886F012B6D3FDE58124F0F886F005F0ED809D
:2050400002C313D5F0FBFDE58124EDF8E642058C828F838EF0ED129D76E58124EAF88682FB
:205060000886830886F012B6D3FFE58124FDF886F005F0EF800225E0D5F0FBFFE58124EA74
:20508000F886820886830886F0EF129D76A88118188605A881181874032DF6D007D00602E7
:2050A0004F47A881187600A88118B61000400302525D8E038F04ECC423CBC423541F6BCB56
:2050C000541FCB6BCB781EE22408FA08E23400FCC006C0078A828C83E58124F0F8E0F6A311
:2050E000E008F6E58124E5F8A603087600E58124E5F8740226FDE40836FBE58124FDF8E5C3
:205100008124FAF986F0E7A4C0E0C0F0E58124E9F8D0E0F618D0E0F6E58124EAF8E62DFE5A
:2051200008E63BFFE58124F0F8E58124F0F9EE26F7EF083609F7E58124F0F886820886839F
:20514000E0FBE58124FDF8E58124E7F9E675F003A4F709A7F0E58124E7F8740226FEE40813
:2051600036FFE58124F6F8EE26FEEF0836FD0886078E828D838FF012B6D3FEEB4206E581E0
:2051800024F0F88682088683EEF08A828C83E0FEA3E0FFE58124E5F8740126FBE40836FD75
:2051A000E58124EAF8E62BFB08E63DFDE58124EDF8EB2EF6ED3F08F6E58124EDF886820828
:2051C0008683E58124F0F9E0F7E58124E7F8740126FBE40836FDE58124F6F8EB26FBED08E5
:2051E00036FD0886078B828D838FF012B6D3FBE58124F0F8E64203E58124EDF88682088613
:2052000083EBF08A828C83E0FAA3E0FCE58124E5F8E58124EAF9E726FE09E70836FFEE2A98
:20522000FAEF3CFC8A828C83E0FFE58124F6F8E58124E7F9E726FB09E70836FD0886068B1F
:20524000828D838EF012B6D342078A828C83EFF0E58124FDF806D007D0060250A7E58124AB
:20526000FDF886058E038F047A00ED2BFBEA3CFC0BBB00010C8B068C07E58124FBF806025F
:205280004A77E58124F8F886020886030886048A828B838CF0122DE5E58124F5F886050864
:2052A00086060886078D828E838FF0122DE5E58124E4F58122C082C083C0F0C0E01245C018
:2052C000E5828583F0781EF2E5F008F27582041228A290001612AF80AA82AB838A068B07DE
:2052E000C003C0027416C0E0E4C0E0C006C007E58124F7F886820886830886F008E612548A
:2053000067E58124FCF581D002D00374102AF582E43BF583E0FFBF2012781EE2240FF582D7
:2053200008E23400F5837401F08013BF2110781EE2240FF58208E23400F5837402F07F0052
:205340008A828B838FF0122DE5781EE2FE08E2FF74082EF582E43FF583E4F0A3F0740A2E62
:20536000F582E43FF583E58124FDF8E6F008E6A3F008E6A3F008E6A3F074062EF582E43F01
:20538000F58374FEF01211BE120E4AE58124FCF58122AD82AE83AFF07838EDF2EE08F2EF65
:2053A00008F27833E2F50F08E2F51008E2F5117836E2F51208E2F513AB12AC13151274FFE4
:2053C000B512021513EB4C6025850F828510838511F012B6D3FCA385820F8583108D828E67
:2053E000838FF0EC129D76A3AD82AE8380CA7838E2F58208E2F58308E2F5F022901563E009
:20540000FCA3E0FDA3E0FEA3E08C828D838EF0228582F9E5F820E0FB85F982225390EF2260
:2054200043901022AC82AD83AEF0FFC007C006C005C00412541C758203125410D004D005BB
:20544000D0068E82C006C005C004125410D004D0058D82C005C004125410D004D005D0066B
:20546000D0078C82025410AC82AD83AEF0FFE58124FDF88602088603C007C006C005C00438
:20548000C003C00212541C758203125410D002D003D004D005D0068E82C006C005C004C052
:2054A00003C002125410D002D003D004D0058D82C005C004C003C002125410D002D003D05B
:2054C00004D005D006D0078C82C003C002125410D002D003E58124FBF87950E6F308E60982
:2054E000F38A828B83126B8C025420AF82C00712541CD0078F8212541002542012541C75DB
:205500008205125410758200125410E58220E0F512542075820122AC82AD83AEF0FFE581C4
:2055200024FDF88602088603758206C007C006C005C004C003C0021254EB12541C758202D5
:20554000125410D002D003D004D005D0068E82C006C005C004C003C002125410D002D003B2
:20556000D004D0058D82C005C004C003C002125410D002D003D004D005D006D0078C82C026
:2055800003C002125410D002D0038A068B07E58124FBF886040886058C028D031CBCFF0179
:2055A0001DEA4B60228E828F83E0FBA3AE82AF838B82C007C006C005C004125410D004D0D8
:2055C00005D006D00780D11254200254FC7582B90254EB7582AB0254EBAE82AF83C007C033
:2055E0000612541C75825A125410758200125410D006D0078F82C007C006125410D006D088
:20560000078E82125410758200125410E58124FCF87950E6F3E409F3E58124FDF886820801
:205620008683126B8C025420E582601953F87F75FA0043FC1043FC2043F10212542043FE1E
:205640007043F4E02253FE8F53908F53F41F22E5812404F581901567E070071255D3D30251
:205660005BA8901567E4F090000812AF80AE82AF83E58124FDF8A60608A60790014012AF9A
:2056800080AC82AD83A88118A60408A6051255D37408C0E0E58124FCF8E6C0E008E6C0E0A6
:2056A0009000001255D9158115811581E58124FDF88682088683E0FBBB5367E58124FDF8F1
:2056C0008682088683A3E0FBBB4657E58124FDF8740226FAE40836FB8A828B83E0FDBD44B1
:2056E00041C002C003E58124FBF8740326FFE40836FE8F828E83E0FBBB50028006D003D078
:2057000002801FE58124FBF8740726F582E40836F583E0FBBBFF07D003D0020258A3D003A8
:20572000D002C208C02112541CD021758290C021125410D021758200C021125410D02175F6
:205740008200C021125410D021758200C021125410D021758200C021125410AD82D021BD15
:20576000C202800DBDC8028079BDEF028047025823D20890163D7420F0758200C0211254E7
:2057800010AC82D021BC05028005BC12238010901563E4F0A3F004A3F0E4A3F0025880902A
:2057A0001563E4F0A3F07408A3F0E4A3F0025880C208025880D20890163D7420F0758200CE
:2057C000C021125410AC82D021BC1311901563E4F0A3F07408A3F0E4A3F0025880C20802D8
:2057E0005880D20890163D7420F0758200C021125410AC82D021BC12028008BC1302801367
:20580000025880901563E4F0A3F07408A3F0E4A3F0806D901563E4F0A3F07410A3F0E4A3BF
:20582000F0805D7C00C005C004746DC0E074D2C0E01233FBE58124FCF58190163D7420F08C
:20584000901563E4F0A3F07408A3F0E4A3F0758200C021125410AD82D0217C00C005C004E0
:20586000748BC0E074D2C0E01233FBE58124FCF5817493C0E074D2C0E01233FB158115816E
:20588000C021125420D021A8811886040886057F008C828D838FF0C021122DE5D021A20896
:2058A000025BA8E58124FDF88682088683A3A3A3A3A3E0FDBD01028004C3025BA8E58124A9
:2058C000FDF8740626F582E40836F583E0FDBDFF011D8A047A00C004C003C007C006C0058A
:2058E000C0027408C0E08A82126189AB82AC831581D00274082BFBE43CFCC004C003C002F7
:205900007408C0E0E58124F4F8E6C0E008E6C0E08B828C831255D9158115811581D002D021
:2059200003D004D005D006D007E58124FBF88682088683E0D003D0046003025B9EC0058C42
:20594000828B83E0FDBD01028005D005025B9ED005C004C0038F828E83E0FCBC0900D003D3
:20596000D0045003025B9EE58124FDF8740426FEE40836FF8E828F83E0FEA3E0FF7424C0EF
:20598000E0A8811818E6C0E008E6C0E08E828F831255D9158115811581A8811886820886BF
:2059A00083E0FFFE530603BE01028003025BA7EF20E203025BA7A881188682088683A3A34B
:2059C000E054066003025BA7A881188682088683A3E0FD7003025BA7BDFF03025BA790166C
:2059E0003DEDF0A88118740726F582E40836F583E0FE30E703025BA78E07EFFE6010901507
:205A000063E4F0A3F07420A3F0E4A3F08042A88118740626F582E40836F583E0FE6010908C
:205A20001563E4F07420A3F0E4A3F0A3F08021A881188682088683A3A3A3A3A3E0FE70036E
:205A4000025BA79015637420F0E4A3F0A3F0A3F0EE602E901563E0FFA3E0FCA3E0FBA3E036
:205A6000FAEF2FFFEC33FCEB33FBEA33FA901563EFF0ECA3F0EBA3F0EAA3F0EEC313FE8021
:205A8000CF7C1C8C067F000EBE00010FA88118EE26F582EF0836F583E0FF6038BFFF02808A
:205AA00033A88118EC26F582E40836F583E0FEBE0C02800ABE0F02800FBE10188011EDB5A4
:205AC00007028010C3025BA890163EEFF0800590163FEFF08C0774022FFCBC240040A474ED
:205AE000B2C0E074D2C0E01233FB1581158174C3C0E074D2C0E01233FB1581158190163DF6
:205B0000E0FFE060177E00C007C00674D3C0E074D2C0E01233FBE58124FCF58190163EE077
:205B2000FFE060177E00C007C00674E0C0E074D2C0E01233FBE58124FCF58190163FE0FF2A
:205B4000E060177E00C007C00674EDC0E074D2C0E01233FBE58124FCF5817E637F15C00685
:205B6000C00774FAC0E074D2C0E01233FBE58124FCF581A8811886040886057F008C828DB6
:205B8000838FF0122DE5E58124FDF886060886077D008E828F838DF0122DE5D3800A0AC3D5
:205BA000ED9A40030258D6C3A8D0E58124FCF58188D022C082C083C0F0C0E005810581E574
:205BC0008124F7F88605088604E58124F5F8E608467003025C91C005C004E58124F9F8867D
:205BE00002087B00E58124FDF8E4C39AF674019B08F6E58124FDF8E58124F3F9C3E796091E
:205C0000E70896D004D005500EE58124F5F8A98119E6F708E609F78D028C03C005C004E5E7
:205C20008124FDF8E6C0E008E6C0E0C002C003E58124F5F886820886830886F008E61255CE
:205C400017AB82E58124FCF581D004D005EB7004F5828040A881188602088603E4FEFFE5A5
:205C60008124FBF8EA26F6EB0836F6EE0836F6EF0836F6A88118E62DFD08E63CFCE5812421
:205C8000F5F8A98119E6C397F608E60997F6025BC9758201E58124FAF58122C082C083C09B
:205CA000F0C0E0E58124FDF88602088603EA7005EB540F6015740BC0E074D3C0E01233FB54
:205CC00015811581758200025DF0E58124F9F8E608467003025DED7582061254EB12541C14
:205CE000E58124F9F88602088603C3EA9410EB9400401FE58124FDF88602088603EA4B70A4
:205D00001190163FE0FBE060098B821254107B108041E58124F9F88602088607C3EA9408B9
:205D2000EF94004023E58124FDF88602088607EA7016EF547F701190163EE0FFE060098F93
:205D4000821254107B08800B90163DE0F5821254107B01E58124FDF808088682C003125451
:205D600010D003E58124FDF8088682C003125410D003E58124FDF88682C00312541012AF24
:205D80003512542012AF351254FCE582D0037014741FC0E074D3C0E01233FB158115817537
:205DA0008200804CC003C00390100012619EAC82AD83AEF0FF1581D003E58124FDF8EC2669
:205DC000F6ED0836F6EE0836F6EF0836F6E58124F9F886060886077D00EEC39BFEEF9DFF79
:205DE000E58124F9F8A60608A607025CCA758201E58124FCF581227582B10254EB7582C1E8
:205E00000254EBAFF0AE83E582783EF2EE08F2EF08F2783CE2F50F08E2F510783CE2F5F08D
:205E200008E245F0602A783EE2FA08E2FB08E2FC783BE2FFAD0FAE108A828B838CF0EF12B7
:205E40009D76A3AA82AB831DBDFF011EED4E70E8783EE2F58208E2F58308E2F5F02243FF03
:205E60000143EC0475EB3E75ED8B2253FF0153A0FE22AF82C2AF53D8EF741055D8FEBE10A2
:205E8000F853A0FE7E00BE0800501E53D8EF741055D8FDBD10F8EF30E00543A0018003531C
:205EA000A0FEEFC313FF0E80DD53D8EF741055D8FFBF10F843A001D2AF229016407401F0B2
:205EC000901641E4F0901642F0901643F090164404F0901645F0901646F0901648E4F0906F
:205EE0001647F090164B7423F0E4A3F090164DF09016497492F07409A3F022AD82AE83AF5D
:205F0000F012B6D3FCBC01217A407B167C007833EDF2EE08F2EF08F27836740EF2E408F2FA
:205F20008A828B838CF0125392901541E0901647F00260B790008012AF80AE82AF838E04D3
:205F40008F05C007C006740EC0E0E4C0E0C004C005900004F5F0125467E58124FCF581D0DF
:205F600006D0078E048F057B0078817440F2741608F2E408F27884740EF2E408F28C828DB9
:205F8000838BF0C007C00612B2A6E5828583F0D006D00745F070128E048F05FB8C828D830A
:205FA0008BF0122DE5758201227D008E828F838DF0122DE5758200222290008012AF80AEAE
:205FC00082AF838E048F05C007C006740EC0E0E4C0E0C004C005900004F5F0125467E5817F
:205FE00024FCF581D006D0078E048F057833ECF2ED08F2E408F27836740EF2E408F2901644
:2060000040F5F0C007C006125392901568E4F0A3F0A3F0A3F07404C0E0E4C0E07468C0E025
:206020007415C0E0900000E4F5F0125467E58124FCF581D006D0078E048F058C098D0A7A9C
:20604000407B168A828B83C007C006740EC0E0E4C0E0C009C00A1263A5E58124FCF581D0A9
:2060600006D007901640E0FDBDFF028022C005901568E0FAA3E0FBA3E0FCA3E0FDBAA50D8B
:20608000BB5A0ABCBA07BDAB04D005800FD005C007C006125EBAD006D0078010BD010050BD
:2060A0000BC007C006125FB8D006D0077D008E828F838DF0022DE5125F34E582600122743F
:2060C00001C0E0E4C0E0900000F5F0125C9B1581158190156C74A5F0F4A3F074BAA3F0C4CB
:2060E000A3F07404C0E0E4C0E0746CC0E07415C0E0900000E4F5F0125BB3E58124FCF58153
:20610000740EC0E0E4C0E07440C0E07416C0E0900004E4F5F0125BB3E58124FCF581229030
:206120001570E4F0A3F0A3F0A3F07404C0E0E4C0E07470C0E07415C0E0900000E4F5F01299
:206140005BB3E58124FCF58122858283D0F0D0E0D082C082C0E0C0F022C00074FB2581F846
:20616000E58286820886830886F0D0002275F008C58213C58233D5F0F7C58222E583A2E7D8
:2061800013F583E58213F58222D083D0E0D0F0C0F0C0E0C083E582A4F58285F08322C000AF
:2061A000E58124FDF8E6F88582F0A4F582E8A8F08583F0A428F583E5F03400F5F0E4D00012
:2061C00022C000C001C0E0C0F074FA2581F88600E58288F0A4F582A9F0E58388F0A429F505
:2061E00083E5F03400F9D0E088F0A429C5F03400F9D0E0C0F088F0A429D0F0D001D000221B
:20620000C000C001C002E58124FBF8E6F918E6F88582F0A4C0E0AAF0E58388F0A42AF8E589
:20622000F03400FAE98582F0A428C0E0E5F03AFA74003400F8E98583F0A42AFAE5F0388A0B
:20624000F0D083D082D002D001D00022D0E0D0F0C000C001C002C0F0C0E074F82581F9E71F
:20626000F809E7F922D002D001D00022C9C583C9C8C582C82212624C75F00812626CE0A323
:2062800012626CF0A3D5F0F302626512624C75F00812626CE493A312626CF0A3D5F0F202B7
:2062A000626512624CC375F00812626CE0A3F50212626CE03AF0A3D5F0EF02626512624C03
:2062C00075F00812626CE0A3F50212626CE05AF0A3D5F0EF02626512624CC375F008126269
:2062E0006CE0A3F50212626CE09AF0A3D5F0EF02626512624CC375F00812626CE0A3F50204
:2063000012626CE0A39AD5F0F002626512624C75F00812626CE0A3F50212626CE0A36A703E
:2063200007D5F0EED3026265C3026265C8C0E075F008E038F0A3D5F0F9D00022D3E402632F
:206340002CC374FF02632CC000C00174FA2581F8E6F5F0088601496015088600E8F0A37428
:20636000FF25F0F5F074FF39F50145F070EED001D00022C000C001C00274F92581F9E7D323
:20638000601CF5F0098700098701C3E0F502A312626CE0A312626C6A7004D5F0EED3D002C5
:2063A000D001D00022C000C001C00274F82581F9E7F5F00987024A601F0987000987011272
:2063C000626CE0A312626CF0A374FF25F0F5F074FF3AF50245F070E7D002D001D00022C007
:2063E00000C001C00274F92581F9E76015F5F009870009870112626CE0A312626CF0A3D501
:20640000F0F3D002D001D00022C083C082E06003A380FAC3E582D0F095F0F582E583D0F011
:2064200095F0F58322C003C002C001C000C0E0C0F0C083C082A98174F62581F886F018861C
:2064400000750201750300758211A2F74014C3E833F8E5F033F5F0C3EA33FAEB33FB05821A
:2064600080E8E4C003C002C0E0C0E0AA81C0F0C000C0E0C0E0A881C0E0C0E0C0E0C0E0ABDC
:2064800081C000C001C375830486F018E71995F0D583F6D001D000402BC000C001C3758392
:2064A0000486F018E795F0F719D583F585020085030175830486F018E745F0F719D583F56E
:2064C000D001D00074FC28F8C375830408E613F6D583F9C00074FC2AF8C375830408E61372
:2064E000F6D583F9D000D5829820D508D082D083D0F0D00074F42581F58130D508D082D0B1
:2065000083D0F0D000E8D000D001D002D00322C2D5026425D2D5026425C003C002C001C0BE
:2065200000C0E0C0F0C083C082A98174F62581F886F07401758219A2F7400A23C5F023C5B6
:20654000F0058280F2C0E0E4C0E0C0E0C0E0AA81C0F0C0E0C0E0C0E0A881C0E0C0E0C0E02A
:20656000C0E0AB81C000C001C375830486F018E71995F0D583F6D001D000402BC000C00121
:20658000C375830486F018E795F0F719D583F585020085030175830486F018E745F0F7191F
:2065A000D583F5D001D00074FC28F8C375830408E613F6D583F9C00074FC2AF8C375830445
:2065C00008E613F6D583F9D000D58298D082D083D0F0D00074F42581F581E8D000D001D0A2
:2065E00002D00322C006C005C004C003C002C001C00074F72581F886F074017C09A2F740FD
:206600000923C5F023C5F00C80F3FBE4FAA9F0F88582F0FDFEC3E58298E583994011C3E52A
:206620008298F582E58399F583EA4DFDEB4EFEC3E913F9E813F8C3EB13FBEA13FADCD620B5
:20664000D5048D828E83D000D001D002D003D004D005D00622C2D50265E4D2D50265E4E0A6
:20666000C0E02401F0A3E0C0E03400F0A3E0D083D0826014B4600AC000A882E2D000F58251
:20668000224009E493F58222E0F58222C000A882E6D000F5822212624C75F004D312626CF1
:2066A000E0FA3400F0EAA312626CF0A3D5F0EE02626512624C75F004C312626CE0FAA31205
:2066C000626CE0A36A7004D5F0EFD302626512624CC3E0A398E0A399E0A39400E0A3940053
:2066E00002626512624CC3E0A338E0A339E0A33400E0A3340002626575F004E07004A3D56B
:20670000F0F9F58222A3A3A3E033227F00BF0500400302678DEF75F008A42474FD7415350A
:20672000F0FE74072DF582E43EF583E054F7F074072DF582E43EF583E054FBF074062DF523
:2067400082E43EF583E0547FF074062DF582E43EF583E054E0F08D828E83A3A3A3A3E054DE
:206760001FF074072DF582E43EF583E054FCF074072DF582E43EF583E0543FF074072DF578
:2067800082E43EF583E054CFF00F02670D90159BE0543F4440F090159BE054CF4410F09027
:2067A000159AE0549F4420F090157BE0543FF090157BE054CF4410F090157AE054E0441092
:2067C000F090157AE0549FF090157BE054FC4402F07EF97F708F06901574EEF07FF9901552
:2067E00075EFF0901583E054CFF0901582E054E04411F0901582E0549FF0901583E054FC68
:20680000F07EF97F708F0690157EEEF07FF990157FEFF07E747F158FD575D4747E7C7F15DC
:206820008FD375D27C22E582FF249CFDE43415FE8D828E83E0FC7841E2B50401227841E2B5
:20684000B4020280157841E2B403030269027841E2B404030269A6026A2CC005C006EF753B
:20686000F008A42474FB741535F0FC74072BF582E43CF583E054F7F074072BF582E43CF53D
:2068800083E054FBF074062BF582E43CF583E0547FF08B828C83A3A3A3A3E0541FF0740799
:2068A0002BF582E43CF583E054FCF074072BF582E43CF583E0543F4440F074072BF582E4E1
:2068C0003CF583E054CFF074062BF582E43CF583E054E0F074062BF582E43CF583E0549FD2
:2068E0004420F08B828C83A3A37AD97E708E02EAF08B828C83A3A3A374D9F0D006D0050248
:206900006A2CC005C006EF75F008A42474FB741535F0FC74072BF582E43CF583E054F7F049
:2069200074072BF582E43CF583E054FBF074062BF582E43CF583E0547FF08B828C83A3A3CA
:20694000A3A3E0541FF074072BF582E43CF583E054FCF074072BF582E43CF583E0543FF0C1
