:020000040000FA
:040000000200A43224
:01000B0032C2
:0100130032BA
:01001B0032B2
:0100230032AA
:03002B00022B2085
:01003300329A
:01003B003292
:01004300328A
:01004B003282
:01005300327A
:01005B003272
:01006300326A
:06006B00022B240207270E
:08008B0007CBEFBED0D0ADDEC3
:2000A40075812112B6A9E582600302006E79E1E94400601B7A0190D5CF781C759316E493A0
:2000C400F2A308B800020593D9F4DAF27593FFE478FFF6D8FD788AE84400600A790075934E
:2000E40000E4F309D8FC7892E84415600C791690008AE4F0A3D8FCD9FA7800E4F27820E400
:20010400F208F29015677401F090159CE4F090159DF090159EF090159FF09015B0E4F0A304
:20012400F09015B2F0A3F002006EE5812407F5817F007E78BEC80040030201C38E047D0067
:200144008C82EDC42354E0C582C423C5826582C58254E0C5826582F583C007C00612AF3A80
:20016400AC82AD83D006D0078D037D00EC4B604F8C828B838DF0C006122DF2D0068E078EF4
:2001840004E42354E0CCC423CC6CCC54E0CC6CFDC004C00574EFC0E074BAC0E0123408E56F
:2001A4008124FCF581EE2455501174F9C0E074BAC0E01234081581158180FE0E020138E45C
:2001C4002354E0CFC423CF6FCF54E0CF6FFE8F828E83C007C00612AF3AAC82AD83D006D0E3
:2001E40007E58124FCF8A60408A605087600E58124FCF8E608467012744BC0E074BBC0E039
:2002040012340815811581020311A88118E4F608F6A881188603088604E58124FAF8A607AC
:2002240008A606E58124FAF8C3EB96EC08965034C007C006E58124FAF8E58124FDF9E726A2
:20024400FD09E70836FE0886078D828E838FF0EB129D30E58124FDF806B600020806D00652
:20026400D00780AD7E007F00A88118E4F608F6A881188602088603E58124FAF8C3EA96EB5C
:2002840008965064C006C007E58124FAF8E58124FDF9E726FD09E70836FE0886078D828E17
:2002A400838FF012B68DFDB50206D007D0068025D007D0068D047D00C004C005C002C0060B
:2002C400C0077482C0E074BBC0E0123408E58124F9F5818013A8811806B600020806A881DE
:2002E4001886060886078087E58124FCF886030886040886058B828C838DF0122DF274ADA3
:20030400C0E074BBC0E012340815811581E58124F9F58122AF82758240C0071228AF783B0A
:20032400E4F2783C7406F2E408F290151BF5F0125E10D0077E00BE06005010EE241BF582A3
:20034400E43415F5837481F00E80EB7E00C3EE9F505BC007C00612AEEFD006D0077D00BDFA
:2003640006005046ED90084D93F582C007C006C005126F37E582D005D006D0076029ED2474
:200384001BFBE43415FC8B828C83E0FA901562E0F508C3EA64808508F063F08095F0500783
:2003A4008B828C83E508F00D80B50E80A07582401228FF901521E4F0901522F0FFBF06004B
:2003C400502DEF241BF582E43415F583E0FE901521E0C364808EF063F08095F0500EEF9074
:2003E400084D93901522F0901521EEF00F80CE901521E0901562F0901522E0F582227E00FE
:200404007F00C3EE9408EF648094805021EE24A2FCEF3415FD740C2EFA74783FFB8A828B6A
:2004240083E08C828D83F00EBE00D70F80D422901637E0FEA3E0FFC3742C9E74019F400F7E
:20044400901631E0700990161CE0700302052F901639E0FEA3E0FFBE200FBF010C122B28C0
:20046400901639E4F0A3F080067582021228AF901639E02401F0A3E03400F0901636E06033
:200484000C901525E07006901645E0700C901526E06036901646E06030901685E0FFBFFF80
:2004A40002801775820C1228AF901685E0F582128F9175820C1228FF800F7582081228AF4C
:2004C400120E567582081228FF7582401228AF127329AE82AF83901523EEF0EFA3F075821B
:2004E40040C007C0061228FFD006D007EE4F6023901637E4F0A3F090161CE0600590161C78
:20050400E4F0901631E0600690161C7401F0901631E4F0901643E0602E758201120318E5B3
:2005240082FE6023901659EEF0801C7582401228AF127329E5828583F0901523F0E5F0A3DE
:20054400F07582401228FF122CD4901523E0FEA3E0FF4E700990162FE4F0A3F08049740FAE
:200564002EF582E43FF583E0FCA3E0FD90162FECF0EDA3F0740D2EFCE43FFD8C828D83E0E1
:2005840060128E828F83129606E582700790162FE4F0A3F0901523E0FEA3E0FF7D008E8246
:2005A4008F838DF0122DF2122D1FAE82AF83901637E0FCA3E0FD901637EE2CF0EF3DA3F0D8
:2005C400BE580EBF020B901644E060057800E4F22290162FE0FEA3E0FF4E6039EF30E71E48
:2005E4008E048F0553057F7873ECF2ED08F2E408F208F29003E8F5F012B09B022AF57873A9
:20060400EEF2EF08F2E408F208F290EA60F5F012B09B022AF5122D1FAE82AF837873EEF26D
:20062400EF08F2E408F208F29003E8F5F012B09B022AF5901632E0FF6004EF30E005EF24E5
:20064400DB5003122B28758202120318AF82901659EFF0EF700C901526E07006901646E076
:20066400701A901636E0600C901525E07006901645E07008901632E0FFBF233F7582081278
:2006840028AF901685E0FFBFFF0280177582041228AF901685E0F582128F91758204122851
:2006A400FF8012901632E0FFBF2300400512124F8003120E567582081228FF901659E0FF45
:2006C400E0603A8F82123537901632E4F090163174FDF0900023122D70122D1FAE82AF8307
:1C06E4007873EEF2EF08F2E408F208F29003E8F5F012B09B122AF578007401F2A1
:2007000022758201122C9BAC82AD83AEF0FF7873ECF2ED08F2EE08F2EF08F29003E8E4F516
:20072000F012B09B022AF57582111228AF74B2C0E074BBC0E01234081581158112AEEB752B
:2007400082041228AF90000112B46C129D14120402900023122D70125FC67582041228FFBF
:20076000122B2812012ED2AF12AEEF901541E0901647F090164DE0FF6007901659EFF08069
:200780000C758204120318E582901659F0901659E0600578007401F2120E56758204122801
:2007A000AF1260C47582041228FF901659E0FFE060058F8212353712AEEF7800E2600B7882
:2007C00000E2B401F212043380ED12063780E8AF82BF00028019BF01028029BF02028012D8
:2007E000BF0302802CBF05028042BF215F804902AEF67582041228AF125EC71260C475820B
:20080000040228FF758204120318E582901659F0227582081228AF12124F7582181228FF68
:2008200090FFFF74FFF5F0122AF580F47582041228AF7582040228FF901637742DF0740142
:20084000A3F09016397420F07401A3F0220B0F14191A1B8582C1E58620E0FB228582C1E5FF
:200860008620E0FB85C1822253807F22438080225380EF224380102290000112B46CE58033
:2008800020E10890000112B46C80F322AE82AF83900001C007C00612B46CD006D00753C085
:2008A000DF5389FD43AB02538CFE43B8207D007C008E828F838DF0EC122938E59E20E6FB1D
:2008C000E580A2BDE433F5F005F07401800225E0D5F0FBF452B853ABFD2290000112B46CC9
:2008E0005380FE90000112B46C4380019003E8020878AF82C007120870120868D0078F82B7
:2009000012085312087475820012085CAF82C00712086CD0078F8222E58124FDFFC0071288
:200920000870120868D007A88118188682C007120853120874D0077E00E58124FDF8C3EE3E
:20094000965017EF24FEFDFF8D018782C007C006120853D006D0070E80DF02086C53867F14
:2009600075C20043C51043C5204380014380805380F953FDF943FDF943F32890000112B4F6
:200980006C53FEFD4390045390F743FE0C4390085390FB5390F743900490000102B46C1270
:2009A000086C1208DA1208DA1208DA90000112B46C4380407582711208F27582701208F23A
:2009C000740BC0E0E4C0E0740BC0E0E4C0E0C0E0C0E07437C0E0E4C0E07404C0E07401C075
:2009E000E0120918E58124F6F581742EC0E0E4C0E0742EC0E0E4C0E0742EC0E0E4C0E07428
:200A000003C0E023C0E0120918E58124F8F581E4C0E07404C0E0120918158115819005DCD9
:200A2000120878E4C0E0C0E004C0E07441C0E0120918E58124FCF5817402C0E07440C0E06E
:200A4000120918158115819003E812087812086875820012085C75820012085C12086C74D4
:200A6000CFC0E0E4C0E004C0E0E4C0E0120918E58124FCF581E4C0E0C0E0C0E0C0E0740252
:200A8000C0E0742AC0E0120918E58124FAF5817403C0E0E4C0E004C0E074E5C0E0120918E0
:200AA000E58124FCF5817407C0E0E4C0E004C0E07450C0E0120918E58124FCF5817422C00E
:200AC000E0E4C0E004C0E07460C0E0120918E58124FCF5817480C0E0E4C0E004C0E0E4C00B
:200AE000E07480C0E0E4C0E07402C0E0E4C0E07404C0E07461C0E0120918E58124F6F581AE
:200B0000743EC0E0E4C0E004C0E07430C0E0120918E58124FCF5817424C0E0E4C0E004C068
:200B2000E07482C0E0120918E58124FCF5812274F7C0E0E4C0E004C0E07450C0E012091824
:200B4000E58124FCF581E4C0E07402C0E01209181581158190001E12B4579003E8120878C8
:200B600074A5C0E0E4C0E004C0E07407C0E0120918E58124FCF5815380BF4390085390FBFF
:200B800090000312B45753FEF353F3D775F30075FD00438F0643F72075800090000112B4EC
:200BA000575390FD43FE0222AF828F055305F0E4C4CDC4540F6DCD540FCD6DCD30E30244F3
:200BC000F053070FEFC454F0FFED42078F055305CCE4A2E713CD13CDA2E713CD13CD530708
:200BE00033EF2F25E0FFED42078F055305AAE4A2E713CD13CD530755EF2F4DF58222E5818E
:200C00002407F581E4C0E07410C0E01209181581158190005012AF3AAE82AF83E58124FB6A
:200C2000F8A60608A60790005012AF3AAC82AD83E58124FDF8A60408A605A88118767F0808
:200C40007601A881188604088605C374809C74019D5003020DF012AEEFE58124FBF8860254
:200C60000886039015A0E4F0784E7450F2E408F28A828B83126B43E58124FDF88602088601
:200C8000039015A0E4F0784E7450F2E408F28A828B83126B43E58124FBF886020886037DF1
:200CA00000C002C003C005E4C0E0E58124FBF8868208868312394BE58124FCF58124FDF825
:200CC00086030886047D00C003C004C0057401C0E0E58124FBF8868208868312394BE58189
:200CE00024FCF5811208687C007D00C3EC9450ED94004003020DE1E58124FDF8EC26F58294
:200D0000ED0836F583E0F582C005C004120BA8AB82D004D005E58124FBF8EC26F582ED08BA
:200D200036F583E0F582C005C004C003120BA8AA82D003D004D0057F03EF30E703020DD982
:200D4000C0027E008F02E58124F9F8EA2AF6E58124F9F886F005F0EB8002C313D5F0FBD084
:200D60000230E0047E078016E58124FAF886F005F0EA8002C313D5F0FB30E0027E03C00204
:200D80008F02E58124F9F8EA2AF6E58124F9F886F005F0EB8002C313D5F0FBD00230E1056C
:200DA0004306708017E58124FAF886F005F0EA8002C313D5F0FB30E1034306308E82C00796
:200DC000C005C004C003C002120853D002D003D004D005D0071F020D390CBC00010D020C28
:200DE000EB12086CA8811816B6FF020816020C42E58124FBF886050886067F008D828E83CB
:200E00008FF0122DF2E58124FDF886040886057F008C828D838FF0122DF27582111208F225
:200E2000E58124F9F58122120BFE124565E4C0E07413C0E01209181581158190C3501208F9
:200E40008C12AEEF90001E02B46C12095D12099F120E27020B2F1246BB78307440F27401FC
:200E600008F27832E4F2900014124702758203124732743CC0E074C4C0E01248AA1581159D
:200E8000811246BB78307432F2E408F27832F2900107124702758200124744744BC0E074AA
:200EA000C4C0E01248AA158115811246BB78307432F2E408F27832F29001371247027582B7
:200EC000011247447453C0E074C4C0E01248AA158115811246BB78307432F2E408F278322A
:200EE000F290014A124702758200124744745DC0E074C4C0E07480C0E07429C0E0E4C0E098
:200F00007455C0E074C4C0E01248AAE58124F9F5811246BB78307432F2E408F27832F29036
:200F2000001E1247027582001247449015A7E0FF7E009015A8E0FD7C009015A9E0FB7A00B2
:200F4000C007C006C005C004C003C0027463C0E074C4C0E07427C0E07415C0E0123471E5A7
:200F60008124F6F5819015A4E0FF7E009015A5E0FD7C009015A6E0FB7A00C007C006C00525
:200F8000C004C003C0027463C0E074C4C0E07430C0E07415C0E0123471E58124F6F581900F
:200FA00015A2E0FF7E009015A3E0FD7C00C007C006C005C0047473C0E074C4C0E07439C09A
:200FC000E07415C0E0123471E58124F8F5817427C0E07415C0E0E4C0E0747DC0E074C4C0E8
:200FE000E01248AAE58124FBF58190BFFC12475678307404F2E408F27832F290000412479F
:2010000002758202124732758200124744901659E070030211491246BB7830748CF2E4086F
:20102000F27832F29000641247027582021247327489C0E074C4C0E01248AA15811581901A
:20104000C14412475678307480F2E408F27832F29000E2124702758201124732758200127B
:2010600047441246BB78307446F2E408F27832F290001E124702758201124732901653E09F
:20108000FF7E00901654E0FD7C00901655E0FB7A00C007C006C005C004C003C0027463C0FE
:2010A000E074C4C0E07427C0E07415C0E0123471E58124F6F581901650E0FF7E009016511D
:2010C000E0FD7C00901652E0FB7A00C007C006C005C004C003C0027463C0E074C4C0E0740C
:2010E00030C0E07415C0E0123471E58124F6F58190164EE0FF7E0090164FE0FD7C00C007E4
:20110000C006C005C0047473C0E074C4C0E07439C0E07415C0E0123471E58124F8F581906C
:201120001659E0FF7E00C007C0067427C0E07415C0E0E4C0E07492C0E074C4C0E01248AAEC
:20114000E58124F9F5810211B81246BB7830748CF2E408F27832F290004B12470275820275
:2011600012473274A4C0E074C4C0E01248AA1581158190C14412475678307480F2E408F274
:201180007832F290010012470275820112473275820012474490C2D012475678307480F251
:2011A000E408F27832F29001061247027582011247327582011247441211BE020E4A9016CA
:2011C00036E0602990C4241247567830E4F208F27832F290026412470275820212473275EB
:2011E00082001247449015257401F08005901525E4F0901659E0705190C3F4124756783040
:20120000745CF2740108F27832E4F290026012470275820212473275820012474490C4184C
:201220001247567830745CF2740108F27832E4F290027012470275820212473275820112BB
:2012400047449015267401F022901526E4F022020E4AAF82AE83ADF0FC7801EFF2EE08F259
:20126000ED08F2EC08F27801E2F5F008E242F008E242F008E245F07004758220227805E4FC
:20128000F208F208F2748008F27F0078017905E3F5F0E255F0FB09E3F5F008E255F0FC0915
:2012A000E3F5F008E255F0FD09E3F5F008E255F0FEEB4C4D4E70150F7808E2C313F218E2B2
:2012C00013F218E213F218E213F280BF8F8222C082C083E5812406F58124F9F8E608466065
:2012E0003DE58124F5F8C3E6940108E664809480402CE58124F3F8C3E6940108E664809491
:2013000080401BE58124F1F8E608466011E58124EFF8C3E6940108E664809480500690005F
:201320000102146BE58124F9F8740826F582E40836F583E58124EFF8E6F008E6A3F0E581CF
:2013400024F9F8741A26F582E40836F583E58124F1F8E6F008E6A3F0E58124F9F8741226C2
:20136000F582E40836F583E4F0A3F0A3F0A3F0E58124F9F8740626F582E40836F583E4F0CF
:20138000A3F0E58124F9F8E58124FBF9741626F7E4083609F7E58124F1F886020886038AE2
:2013A000828B83E0FCE4E58124FDF8080808A60418181876000876000876008A828B83A325
:2013C000E0FF7E008E048F057F00E58124FDF8EF26F6EE0836F6ED0836F6EC0836F68A8212
:2013E0008B83A3A3E0FF7E007D008D048E058F067F00E58124FDF8EF26F6EE0836F6ED08E6
:2014000036F6EC0836F68A828B83A3A3A3E0FAE4FBFEFFE58124FDF8EA26FAEB0836FBEE2C
:201420000836FEEF0836FFE58124FBF88682088683EAF0EBA3F0EEA3F0EFA3F0E58124F9D0
:20144000F88682088683E58124F5F9E7F009E7A3F0E58124F9F88682088683A3A3E5812445
:20146000F3F8E6F008E6A3F0900000E58124F8F581227812E0F2A3E008F2780B7914E2F3C2
:2014800008E209F37812E22407FA08E23400C423CAC423541F6ACA541FCA6ACA30E40244AD
:2014A000E0FB7C007D00C3EC9AED64808BF063F08095F050157814E22CF58208E23DF58356
:2014C00074FFF00CBC00DF0D80DC7C007D007812C3E2F5F0EC95F008E2F5F0ED648063F028
:2014E0008095F04001227809E2FA08E2FB8A828B83E0FEA3E0FF780974022AF2E43B08F29C
:201500008E048F057809E2FE08E2FF8E828F83E0FAA3E0FB780974022EF2E43F08F2EAC300
:201520009CFEEB9DFF7812C3E2F5F0EC95F008E2F5F0ED648063F08095F0400122EE4F70FD
:201540000122EE2CFAEF3DFBC3E49A74808BF063F08095F040030214CEED30E70AEC2EFED8
:20156000ED3FFF7C007D00EE2CFAEF3DFB7812C3E29A08E264808BF063F08095F0500A78D0
:2015800012E2C39CFE08E29DFF8C0374075BD39408F4F5F005F0780D74FF800225E0D5F08E
:2015A000FBF28C028E03EB2A5407FB8BF005F07BFFE4FA3392D28008A2D2EA13FAEB13FB69
:2015C000D5F0F5780EEBF2EE2CFEEF3DC423CEC423541F6ECE541FCE6ECE30E40244E0FFA9
:2015E0008C02EDC423CAC423541F6ACA541FCA6ACA30E40244E0FBEEC39AFEEF9BFF78142D
:20160000E22AFA08E23BFBEE4F7027C004C005780D790EE2F5F0E345F0F28A828B83E0FD73
:20162000780DE252058A828B83EDF0D005D0040214CEC004C0058A048B05780F74012AF2A9
:20164000E43B08F28C828D83E0FB780DE252038C828D83EBF0780FE2F50F08E2F5108E11C8
:201660008F12D005D004C37401951174808512F063F08095F0501A850F82851083E4F0A360
:2016800085820F858310151174FFB51102151280D5850F82851083780EE2F00214CEC08293
:2016A000C083E581240EF58124F1F88682088683E58124FBF9E0F7A3E009F7E58124F1F868
:2016C000A98119742226F77405083609F7E58124F1F8E58124FDF9742226F7E4083609F795
:2016E000E58124F9F8E4F608F6E58124F9F8E626FE08E633FFA88118EE26FAEF0836FBE596
:201700008124FBF886040886058A828B83ECF0EDA3F0E58124FDF8EE26F582EF0836F583EF
:20172000ECF0EDA3F0E58124F9F806B600020806E58124F9F8C3E6947E08E66480948240A8
:20174000A8E58124F9F8E626FC08E633FDE58124FDF8EC26FAED0836FBA88118EC26F582C5
:20176000ED0836F58374FFF0747FA3F08A828B8374FFF0747FA3F0E58124F9F8740126FCC8
:20178000E40836FDEC2CFCED33FDE58124FDF8EC26FAED0836FBA88118EC26F582ED083653
:2017A000F58374FFF0747FA3F08A828B8374FFF0747FA3F0E58124F1F8741E26F582E40837
:2017C00036F583E58124FDF8E6F008E6A3F0E58124F1F8742026F582E40836F583A8811806
:2017E000E6F008E6A3F0E58124F1F8741C26FCE40836FDE58124F1F8741A26FAE40836FB10
:201800008A828B83E0FEA3E0FF8C828D83EEF0EFA3F0E58124F1F8E58124F3F9741626F740
:20182000E4083609F78A828B83E0FAA3E0FB8A828B83E0FCE4E58124F5F8080808A60418E9
:20184000181876000876000876008A828B83A3E0FF7E008E048F057F00E58124F5F8EF269B
:20186000F6EE0836F6ED0836F6EC0836F68A828B83A3A3E0FF7E007D008D048E058F067F9D
:2018800000E58124F5F8EF26F6EE0836F6ED0836F6EC0836F68A828B83A3A3A3E0FAE4FBA7
:2018A000FEFFE58124F5F8EA26FAEB0836FBEE0836FEEF0836FFE58124F3F88682088683A2
:2018C000EAF0EBA3F0EEA3F0EFA3F0E58124F1F8741226F582E40836F583E4F0A3F0A3F083
:2018E000A3F0E58124F1F8740A26FEE40836FFE58124F1F88682088683E0FCA3E0FD33956F
:20190000E0FB8C828D838BF0C007C006121252AD82D006D0077C007420C39DFDE49CFC8EFD
:20192000828F83EDF0ECA3F0E58124F0F58122C082C083E581243AF58124DBF8E4F608F617
:20194000E58124CDF8E4F608F6E58124C5F8741E26F582E40836F583E58124C7F8E0F6A38E
:20196000E008F6E58124C5F8742026F582E40836F583E0FEA3E0FFE58124E7F8A60608A654
:2019800007E58124C9F8A60608A607E58124C5F8E58124CBF9741626F7E4083609F7E581D0
:2019A00024CBF88682088683E58124EFF9E0F7A3E009F7A3E009F7A3E009F7E58124C5F80E
:2019C000E58124CFF9741226F7E4083609F7E58124CFF88682088683E58124D1F9E0F7A3B8
:2019E000E009F7A3E009F7A3E009F7E58124C5F8E58124D5F9741C26F7E4083609F7E5812D
:201A000024D5F88682088683E58124F7F9E0F7A3E009F7E58124C5F8740A26F582E4083664
:201A2000F583E0FAA3E0FBE58124FDF8A60208A603EB3395E008F608F6E58124FDF886F07A
:201A400005F07E017F008006EE2EFEEF33FFD5F0F71EBEFF011FE58124F9F8A60608A6073F
:201A60007AFF7BFFE58124C5F88682088683E58124E9F9E0F7A3E009F7E58124E9F8C3EA35
:201A800096EB64800886F063F08095F040030225FAE58124D1F8C3741896E40896E408966B
:201AA000E408964003021BA0E58124D1F8860408E6C423CCC423541F6CCC541FCC6CCCFD20
:201AC00008E6C42354E04DFD860608E6C423CEC423541F6ECE541FCE6ECEE58124F7F8EC0C
:201AE00026F6ED0836F6E58124D1F8E65407F6087600087600087600E58124F7F88682081C
:201B00008683E0FFE4E58124D7F8080808A6071818187600087600087600E58124F7F88622
:201B200082088683A3E0FF7E008E048F057F00E58124D7F8EF26F6EE0836F6ED0836F6ECDA
:201B40000836F6E58124F7F88682088683A3A3E0FF7E007D008D048E058F067F00E58124DD
:201B6000D7F8EF26F6EE0836F6ED0836F6EC0836F6E58124F7F88682088683A3A3A3E0FCD1
:201B8000E4FDFEFFE58124D7F8E58124EFF9EC26F7ED083609F7EE083609F7EF083609F70F
:201BA000E58124D1F886F005F0E58124EFF88604088605088606088607800CEC2CFCED33F0
:201BC000FDEE33FEEF33FFD5F0F1EF30E74CE58124C9F88682088683E0FEA3E0FFA318A69B
:201BE0008208A6838E028F03E58124D1F806B6000C0806B600070806B6000208068A068B3B
:201C000007E58124C7F88682088683EEF0EFA3F0A318A68208A683021A79E58124D1F88679
:201C2000077418C39FFF8FF005F0E58124EFF88604088605088606088607800DC3EF13FF34
:201C4000EE13FEED13FDEC13FCD5F0F0E58124D7F874FE5CF6087600087600087600E581DB
:201C600024D7F8E624B1F58208E634C4F583E493FFE58124EBF8A607E58124D7F87401265D
:201C8000FCE40836FDE40836E40836EC24B1F582ED34C4F583E493FFE4FEFDFCE58124D1A4
:201CA000F8EF26F6EE0836F6ED0836F6EC0836F6E58124EBF8B60102804EE58124EBF8B6A7
:201CC00002028044E58124EBF8B60302803AE58124EBF8B61103021DC0E58124EBF8B6120F
:201CE00003021DC0E58124EBF8B61303021DC0E58124EBF8B62003021EA2E58124EBF8B6BF
:201D000030030225BA0225E4E58124C9F88682088683E0FEA3E0FFE58124EBF886047D006C
:201D2000EEC39CFAEF9DFB8A068B07E58124C7F88682088683EEF0EFA3F0A318A68208A660
:201D400083E58124C9F8E58124E7F986F0E7B5F00A0886F009E7B5F0028002800DE5812491
:201D6000C9F8740426F6E40836F6E58124C9F8E624FEF608E634FFF6E58124C9F8860608B7
:201D800086078E828F83E58124D7F8E0F6A3E008F68A048B05E58124D7F8C3EC96ED648057
:201DA0000886F063F08095F05003021A7974042EFEE43FFFE58124C9F8A60608A60780C2B1
:201DC000E58124C9F88682088683E0FEA3E0FFA318A68208A683E58124E5F8A60608A60763
:201DE000E58124EBF886045304077D00EC2EFAED3FFBE58124E5F8E58124E9F986F0E7B5F1
:201E0000F00A0886F009E7B5F002805AE58124E9F8C3EA96EB64800886F063F08095F05036
:201E200045E58124C9F886060886078E828F83E58124D7F8E0F6A3E008F68A048B05E5819B
:201E400024D7F8C3EC96ED64800886F063F08095F0400974042EFEE43FFF80CFE58124C9F2
:201E6000F8A60608A607E58124E9F8C3E69A08E664808BF063F08095F0500AE58124E9F8F1
:201E800086020886038A068B07E58124C7F88682088683EEF0EFA3F0A318A68208A683022F
:201EA0001A79E58124D1F8C3741096E40896E40896E408964003021FB1E58124D1F88604E7
:201EC00008E6C423CCC423541F6CCC541FCC6CCCFD08E6C42354E04DFD860608E6C423CED9
:201EE000C423541F6ECE541FCE6ECEE58124F7F8EC26F6ED0836F6E58124D1F8E65407F6A3
:201F0000087600087600087600E58124F7F88682088683E0FFE4E58124D7F8080808A607D4
:201F20001818187600087600087600E58124F7F88682088683A3E0FF7E008E048F057F00B0
:201F4000E58124D7F8EF26F6EE0836F6ED0836F6EC0836F6E58124F7F88682088683A3A3E2
:201F6000E0FF7E007D008D048E058F067F00E58124D7F8EF26F6EE0836F6ED0836F6EC08B4
:201F800036F6E58124F7F88682088683A3A3A3E0FCE4FDFEFFE58124D7F8E58124EFF9EC29
:201FA00026F7ED083609F7EE083609F7EF083609F78A06EBFF30E7047E007F00C006C00761
:201FC000E58124CFF88607741EC39FFF8FF005F0E58124EDF8860408860508860608860707
:201FE000800DC3EF13FFEE13FEED13FDEC13FCD5F0F074035CFCE4FDFBFAE58124CFF8747A
:202000000226F6E40836F6E40836F6E40836F6C374039CE49DE49BE49AD007D00650030204
:202020002503EC2C2C902029730220350220F60221E30222D0C006C007E58124CFF8860516
:20204000741DC39DFD8DF005F0E58124EDF88604088605088606088607800DC3EF13FFEE2C
:2020600013FEED13FDEC13FCD5F0F0E58124D9F874075CF6087600E58124CFF8E58124D54C
:20208000F9740326F7E4083609F7E4083609F7E4083609F7E58124D5F88607741DC39FFF77
:2020A0008FF005F0E58124EDF88607088606088605088604800DC3EC13FCED13FDEE13FEB0
:2020C000EF13FFD5F0F0E58124CBF874075FF6087600E58124D5F8E58124CFF9740326F772
:2020E000E4083609F7E4083609F7E4083609F7D007D006022503C006C007E58124CFF8863F
:2021000005741DC39DFD8DF005F0E58124EDF88604088605088606088607800DC3EF13FF54
:20212000EE13FEED13FDEC13FCD5F0F0E58124D9F874075CF6087600E58124CFF8E5812472
:20214000D5F9740326F7E4083609F7E4083609F7E4083609F7E58124FBF886077420C39FB7
:20216000FFE58124D5F88604EFC39CFF8FF005F0E58124EDF8860708860608860508860409
:20218000800DC3EC13FCED13FDEE13FEEF13FFD5F0F0E58124F7F88604088605E58124CB57
:2021A000F8EC5FF6ED5E08F6E58124D5F8E58124FBF9E726C0E009E70836C0E009E708361F
:2021C000C0E009E70836C0E0E58124CEF8D0E0F618D0E0F618D0E0F618D0E0F6D007D006B4
:2021E000022503C006C007E58124FBF886057420C39DFDE58124CFF88604EDC39CFD8DF08E
:2022000005F0E58124EDF88604088605088606088607800DC3EF13FFEE13FEED13FDEC13C8
:20222000FCD5F0F0E58124F7F88606088607E58124D9F8EE5CF6EF5D08F6E58124CFF8E538
:202240008124FBF9E726C0E009E70836C0E009E70836C0E009E70836C0E0E58124F0F8D08C
:20226000E0F618D0E0F618D0E0F618D0E0F6E58124F1F88607741DC39FFF8FF005F0E58182
:2022800024EDF88607088606088605088604800DC3EC13FCED13FDEE13FEEF13FFD5F0F0F2
:2022A000E58124CBF874075FF6087600E58124F1F8E58124CFF9740326F7E4083609F7E424
:2022C000083609F7E4083609F7D007D006022503C006C007E58124FBF8E58124D5F9E6F788
:2022E000E58124D5F87420C396FCE58124CFF88607ECC39FFC8CF005F0E58124EDF886040C
:20230000088605088606088607800DC3EF13FFEE13FEED13FDEC13FCD5F0F0E58124F7F88B
:202320008602088603E58124D9F8EA5CF6EB5D08F6E58124CFF8E58124FBF9E726C0E00922
:20234000E70836C0E009E70836C0E009E70836C0E0E58124DAF8D0E0F618D0E0F618D0E094
:20236000F618D0E0F6E58124DBF8C3741096E40896E40896E40896D007D006400302248053
:20238000C006C007E58124DBF8860408E6C423CCC423541F6CCC541FCC6CCCFD08E6C4234D
:2023A00054E04DFD860608E6C423CEC423541F6ECE541FCE6ECEE58124F5F8EC26F6ED08E9
:2023C00036F6E58124DBF8E65407F6087600087600087600E58124F5F88682088683E0FF54
:2023E000E4E58124DFF8080808A6071818187600087600087600E58124F5F8868208868389
:20240000A3E0FF7E008E048F057F00E58124DFF8EF26F6EE0836F6ED0836F6EC0836F6E563
:202420008124F5F88682088683A3A3E0FF7E007D008D048E058F067F00E58124DFF8EF2623
:20244000F6EE0836F6ED0836F6EC0836F6E58124F5F88682088683A3A3A3E0FCE4FDFEFFF0
:20246000E58124DFF8E58124EDF9EC26F7ED083609F7EE083609F7EF083609F7D007D00651
:20248000C006C007E58124D5F87420C396FDE58124DBF88604EDC39CFD8DF005F0E5812442
:2024A000EDF88604088605088606088607800DC3EF13FFEE13FEED13FDEC13FCD5F0F0E50F
:2024C0008124CBF8EA5CF6EB5D08F6E58124DBF8E58124FBF9E726C0E009E70836C0E009B3
:2024E000E70836C0E009E70836C0E0E58124CEF8D0E0F618D0E0F618D0E0F618D0E0F6D049
:2025000007D006E58124DBF8E62EFE08E63FFF8E048F05E58124C7F88682088683ECF0EDF2
:20252000A3F0E58124C7F8740226FCE40836FDE58124CDF8E62EFA08E63FFBE58124E9F818
:20254000C3EA96EB64800886F063F08095F0504DE58124C9F88606088607C004C0058E82F1
:202560008F83E58124DFF8E0F6A3E008F68A048B05E58124DFF8C3EC96ED64800886F0631B
:20258000F08095F0D005D004400974042EFEE43FFF80C7E58124C9F8A60608A6078A068B80
:2025A000078C828D83EEF0EFA3F0E58124C7F874022CF6E43D08F6021A79E58124C9F87442
:2025C0000226FEE40836FF8E828F83E0FCA3E0FDE58124C9F874022EF6E43F08F68C028D15
:2025E00003021A79E58124C5F88682088683A3A3A3A37402F0E4A3F0802AE58124E9F886DF
:2026000006088607E58124C7F88682088683EEF0EFA3F0E58124C7F88682088683A3A3EEC7
:20262000F0EFA3F0E58124CBF88682088683E58124EFF9E7F009E7A3F009E7A3F009E7A3E0
:20264000F0E58124CFF88682088683E58124D1F9E7F009E7A3F009E7A3F009E7A3F0E58106
:2026600024D5F88682088683E58124F7F9E7F009E7A3F0E58124C5F88682088683A3A3A333
:20268000A3E0FEA3E0FF8E828F83E58124C4F58122C082C08305810581E58124FDF8E60831
:2026A00046600AE58124F9F8E608467006900001022897E58124FDF8740626FCE40836FDB9
:2026C0008C828D83E0FAA3E0FBE58124FDF88682088683A3A3E0FEA3E0FFC3EA9EEB64802C
:2026E0008FF063F08095F04006900005022897E58124FDF88682088683A3A3A3A3E4F0A3CC
:20270000F08C828D83E0FCA3E04C700DE58124FDF8868208868312169EE58124FDF8741A18
:2027200026F582E40836F583E0FCA3E0FDE58124FDF8740826F582E40836F583E0FAA3E077
:20274000FBEA2CFCEB3DFDE58124FDF8741C26F582E40836F583E0FAA3E0FBC3EA9CEB9DD8
:20276000401AE58124FDF88682088683A3A3A3A37402F0E4A3F0900002022897E58124FD24
:20278000F8868208868312192FAC82AD838C028D03EC4D600302286DE58124FDF8741E26E8
:2027A000F582E40836F5837809E0F2A3E008F2E58124F9F8790BE6F308E609F3E58124FDEF
:2027C000F88682088683121472E58124FDF8742026FCE40836FD8C828D83E0FBA3E0FAE5A1
:2027E0008124FDF8A98119741E26F7E4083609F7A881188682088683E0FEA3E0FF8C828DD6
:2028000083EEF0EFA3F0A881188682088683EBF0EAA3F0E58124FDF8740626FEE40836FFE5
:202820008E828F83E0FCA3E0FD0CBC00010D8E828F83ECF0EDA3F0E58124FDF886820886B1
:2028400083A3A3E0FEA3E0FFC3EC9EED64808FF063F08095F04029E58124FDF886820886DC
:2028600083A3A3A3A37405F0E4A3F08013E58124FDF88682088683A3A3A3A3EAF0EBA3F05A
:20288000E58124FDF88682088683A3A3A3A3E0FEA3E0FF8E828F83E58124FCF5812275C639
:2028A000C0E59E30E6FB53C6BFE59E20E6FB22E582FF30E019C00712289E9062707404F04E
:2028C000126718122D93E582D007901631F0EF30E407C007125E6BD007EF30E20D75820107
:2028E000C00712563512565CD007EF30E60AC0071237311234F6D00790163BE04FF022AFA5
:202900008290163BE05207EF30E407C007125E78D007EF30E607C00712350FD007EF30E28A
:202920000DC0071255DA758200125635D007EFF4FF90163BE05FF022AF82AE83ADF0FC9078
:202940001542EFF0EEA3F0EDA3F0ECA3F0AC957D007E007F00A89679007A008A0389028835
:2029600001E42CF8E93DF9EA3EFAEB3FFBAC978D078C06E428FCED39FDEE3AFEEF3BFF9075
:202980001542E0F8A3E0F9A3E0FAA3E0C42354E0CAC423CA6ACA54E0CA6AFBE9C423541F1C
:2029A0004AFAE9C42354E0C8C423C868C854E0C868F9E82CFCE93DFDEA3EFEEB3FFF8E9724
:0B29C0008D968C95D2AFD2AD43BE06C1
:2029CE007587010022AF8285951375140075150075160085960F751000751100751200AE64
:1229EE0011AD10AC0FE42513F513EC3514F514ED3515B5
:202A0000F515EE3516F516AB977C008C068B057B007816EB2513F2EC351408F2ED351508FC
:202A2000F2EE351608F28F02EEC42354E0CAC423CA6ACA54E0CA6AFE3395E0FDFC7816E2B1
:1B2A40002AFA08E23EFE08E23DFD08E23CFC8D978E968A95D2AFD2AD43BE057E
:202A5E007587010022AF82AE83ADF0FC901546EFF0EEA3F0EDA3F0ECA3F0901546E0FCA38A
:202A7E00E0FDA3E0FEA3E0FFEC4D4E4F605EC374FF9C74FF9D74079EE49F503990FFFF75BA
:202A9E00F007E4C007C006C005C004122938D004D005D006D007EC2401F8E43DF9EE34F821
:202ABE00FAEF34FFFB901546E8F0E9A3F0EAA3F0EBA3F080A58C828D838EF0EF12293890F4
:202ADE001546E4F0A3F0A3F0A3F0808EE59E20E6FB7582100228AFAF82AE83ADF0FC9015DE
:202AFE004AEFF0EEA3F0EDA3F0ECA3F090154AE0FCA3E0FDA3E0FEA3E08C828D838EF00222
:202B1E002A6353C07F3253C0DF3290001412B4577F007E047D04BD1F0050678D04EC2C9013
:202B3E006264F0900064C007C006C00512B457D005D006D007906264E020E62B906264E03F
:202B5E00FC5304407B008E017A00C004C003C001C0027431C0E074C5C0E0123408E5812440
:202B7E00FAF5818E07801B906264E043E001F0900064C007C00512B457D005D0070D8D0664
:202B9E008094906264E043E001F0BF13005003022C73EF24E15003022C73EF24EDFF240ADE
:202BBE0083F582EF241083F583E473E1EEFB0814202B37434F5B672B2B2B2C2C2C2C2C2C43
:202BDE002C2C2C90163474FCF07408A3F0022C7D901634742EF07409A3F0022C7D9016345E
:202BFE007460F07409A3F0022C7D9016347492F07409A3F0806990163474C4F07409A3F05D
:202C1E00805D90163474F6F0F4A3F080529016347428F0740AA3F08046901634748CF074B1
:202C3E000AA3F0803A90163474F0F0740AA3F0802E9016347486F0740BA3F08022901634E0
:202C5E00741CF0740CA3F080169016347480F0740CA3F0800A90163474B9F0740BA3F09039
:202C7E001634E0FEA3E0FFC3EE94F0EF940A50079016367401F022901636E4F022E5826077
:202C9E0010901632E0FFBFFF005006901632EF04F0901632E0FFBF18005007900E10E4F514
:202CBE00F022BF24005007901C20E4F5F02290518075F001E42290162EE0786DF2E408F2BD
:202CDE0090023512AECB781A740AF2E408F2122DA7AE82AF8374232EFEE43FFF90162DE0C4
:202CFE0054077D0025E0FCED33FDEC241DF582ED3416F583EEF0EFA3F090162DE02401F045
:202D1E00227E007F007D00BD0800501DED75F002A4241DF582741635F0F583E0FBA3E0FC96
:202D3E00EB2EFEEC3FFF0D80DEEFC423CEC423541F6ECE541FCE6ECEFF90164BE0FCA3E0C3
:202D5E00FDC3EE9CEF9D50058C828D83228E828F8322AE82AF837D00BD08005017ED75F049
:202D7E0002A4241DF582741635F0F583EEF0EFA3F00D80E422E59DFF70047582FC22BF02F2
:202D9E00047582FE227582FE22AE82AF837C007D007B10EF235401FAEE2EFEEF33FFEC2C49
:202DBE00FCED33FDEA6003430401781AC3E2F5F0EC95F008E2F5F0ED95F04011781AD3E2E1
:202DDE009CF4B3FCB308E29DF4FD430601DBC48E828F8322AD82AE83AFF0ED4E7001227BF6
:202DFE00007C00901616E0F513A3E0F514750F16751016E513451460398D118E12C3E513F1
:202E1E009511E5149512502AC005C006C007AB13AC1474022513FAE43514FF8A0F8F108A6E
:202E3E00828F83E0F513A3E0F514D007D006D00580C1781CE513F2E51408F2ED24FEFDEE3E
:202E5E0034FFFE74022DFAE43EFF8A828F83781CE2F008E2A3F0850F82851083EDF0EEA3C8
:202E7E00F08D828E83E0F513A3E0F514781CE2B5130708E2B5140280028039C003C004856F
:202E9E001382851483A3A3E0FBA3E0FC8A828F83EBF0ECA3F08D828E83E0FBA3E0FC8B82C4
:202EBE008C83E0FBA3E0FC8D828E83EBF0ECA3F0D004D003EB4C604BC002C0078B828C83E3
:202EDE00E0FAA3E0FFEAB50506EFB506028005D007D00222D007D0028D828E83E0FDA3E0A9
:202EFE00FE8B828C83EDF0EEA3F074022BFBE43CFC8A828F83E0FAA3E0FF8B828C83EAF014
:202F1E00EFA3F022AE82AF837445C0E074C5C0E0123408158115817D00BD1000501C8D039B
:202F3E007C00C003C004744EC0E074C5C0E0123408E58124FCF5810D80DF7454C0E074C5DE
:202F5E00C0E0123408158115817D00BD10005012745EC0E074C5C0E0123408158115810DBB
:202F7E0080E97C007D00E58124FDF8C3EC96ED089650488C028D03EA540F60028015C004C4
:202F9E00C0057462C0E074C5C0E0123408E58124FCF581EC2EF582ED3FF583E0FB7A00C06B
:202FBE0003C002746DC0E074C5C0E0123408E58124FCF5810CBC00AE0D80AB7454C0E07400
:202FDE00C5C0E0123408158115817F00BF10005012745EC0E074C5C0E0123408158115817F
:202FFE000F80E97473C0E074C5C0E01234081581158122C007C083C082858107C004C0035F
:20301E00C002C001C00074F42581F8868318868218860018E493A36014B4250C7C007A0001
:20303E00E493A36008B4251612334380E7D000D001D002D003D004D082D083D00722B46343
:20305E000518E61880E2FB4420B46D43EB542003F9C083C0821232AD7C08C083C082EC1438
:20307E002582F582E5833400F583E0FAC47B02540F2990337293123343EADBF3D082D083AC
:20309E00DC06D082D083808C743A12334380CBEBB42A09BA009274014CFC8084B43007BA7A
:2030BE000004740680F2FB24D0501224F6400E240AFB740A8AF0A42BFA740480DBBB6C0D58
:2030DE00EC54086004741080CF740880CBBB7343EC5408C083C08270051232CB8007C2D5AC
:0230FE00C2D13D
:203100001232ADEC5404700A1232B4609312334380F6BA000280891232B4600B123343DA8D
:20312000F60230A00231FD7420123343DAF90230A0EB4420B478EDC083C0821232F5C0836D
:20314000C082E5F023F90324FF2582F582E5833400F5831232E854F07013191232E8700D2F
:20316000191582E582B4FF021583D5F0E6B9000109EC5420600B09EC54026005742D12331C
:2031800043EC54046018EAC39940136011FAEC5402C4032420F582E582123343DAF9EC5466
:2031A00020600B19EC54027005742D123343EB542003FAD082D083E904C313FC142582F51B
:2031C00082E5833400F583E9540160071232E8790180071232E87902FBC4540F2AC083C091
:2031E0008290337293D082D083123343EBD9EB1582E582B4FF021583DCD90230A0BB6406B2
:2032000074204CFC8008BB75028003023032C083C0821232F5C0F07408C395F0244EF9E4B0
:203220003415FB1232E8A3123338F0A3123338D5F0F1123338F5F0EC54206028E5F0548045
:203240007006EC54DFFC801CD0F0C0F07408C395F0244EF582E43415F583C3E0F9E499F076
:20326000A3D5F0F775F00AE4F0A3D5F0FBD0E0C403FB90155675F00AE0F9540F24FBE950D9
:20328000022403F954F024B0E950022430F0A3D5F0E690154EC375F012E033F0A3D5F0F996
:2032A000DBD090155675F00AC2D502313E8683188682182220D50620D107E0A322E493A3DC
:2032C000228883A882E6A883058222C2D5C2D1E61860DA6480600D64C0600585938380CFB7
:2032E000D2D180CBD2D580C530D508C000A882E6D00022E022EC54017021D2D575F000EC59
:203300005418600E54106006D2F218181818D2F11818D2F01888821805F022C2D5EC5418F0
:2033200060105410600675F0080232AD75F0040232AD75F0020232ADC583CBC583C582C908
:20334000C58222C083C082C001C0008F008682188683181818188601188600123367D00045
:20336000D001D082D08322C082C083850082850183223031323334353637383941424344E7
:20338000454630313233343536373839616263646566C007C006C005C004C001C000AC827B
:2033A000AD83AEF0FFBF0A2A75820DC007C006C005C004C003C002C001C000C021125E7F5D
:2033C000D021D000D001D002D003D004D005D006D0078F82C007C006C005C004C003C002B4
:2033E000C001C000C021125E7FD021D000D001D002D003D004D005D006D007D000D001D07E
:2034000004D005D006D00722C007C001C000E58124FAFFC007E58124F9F8E6C0E008E6C0C3
:20342000E0E4C0E0C0E0903392123011E58124FBF581D000D001D00722C007C006C005C039
:2034400004C003C001AC82FF8C018F0487060987071974012EFBE43FFDA70309A7058E822D
:203460008F83ECF0D001D003D004D005D006D00722C007C006C005C001C000E58124F6FFF0
:20348000E58124F8FE7D00C007E58124F5F8E6C0E008E6C0E0C006C005903439123011E51D
:2034A0008124FBF58124F8F88682088683E4F0D000D001D005D006D00722C082C083AF81FB
:2034C0001F7E00E58124FAF8E6C0E0E58124FAF8E6C0E008E6C0E0C007C0069034391230F1
:2034E00011E58124FBF581A881188682088683E4F01581158122901560E0FF20E71075E1F3
:20350000ED75E1ED75E1E390156074804FF022901560E0FF30E71075E1EF75E1ED75E1ED12
:20352000901560747F5FF022AE82AF83906172EEF0906173EFF022AF82BF0B004005EF24C7
:20354000E5500122C00712350FD007EF24F575F005A490618F240BF00234F675E1ED75E1A5
:20356000ED22AE82AF83906193E020E6047582FF22E5D9FD248050197475C0E074C5C0E02A
:203580001234081581158175E1ED75E1ED75820022ED24FB40197483C0E074C5C0E01234F7
:2035A000081581158175E1ED75E1ED758200221D1D78417403F2758203C007C006C005127E
:2035C0006833D005D006D0078E038F048C0390158EEBF090158FEEF08D067F008F069015AF
:2035E00090EE541FF5F0E054E045F0F0901591EDF053D1F743D60843D708740855D1FFBFEB
:2036000008F8E5D924B7901561F0E5D930E708901562740AF0800475820022906193E05474
:20362000C0FFBF400C90619BE0700675E1ED75E1ED8D8222AE82AF83906193E020E1F990D7
:203640001560E020E70BC007C0061234F6D006D00775E1EE75E1EE78417402F2758202C02B
:2036600007C006126833D006D0078E048F058D04901584ECF08E05901585EDF08E828F83AB
:20368000E0FD7C000DBD00010C8C05901588ED541FF5F0E054E045F0F08E828F83E0FE0EB0
:2036A000901589EEF053D1FB43D60443D704740455D1FFBF04F8906193E020E4107492C00E
:2036C000E074C5C0E01234081581158122906193E030E510749DC0E074C5C0E0123408151F
:2036E0008115812275E1E97F00906193E020E112BF0300500D0F90003CC00712B457D007A7
:2037000080E7906193E020E11675E1EE75E1EE74ADC0E074C5C0E012340815811581229079
:203720006193E020E1F922E58260030234F602350F901560E030E0237F00BF0800501BEFA5
:20374000246AFDE43461FEEF24A2F582E43415F583E08D828E83F00F80E02278417403F2F3
:2037600075820312683375E1E37591007F00BF0800501BEF246AFDE43461FEEF24A2F58295
:20378000E43415F583E08D828E83F00F80E0906170E0906174F0906171E0906175F0906106
:2037A000AB743FF09061AC7455F090619674F8F09061FA7409F09061B27415F09061AEE48B
:2037C000F09061897440F0906180E043E001F0906182E4F075E1ED75E1ED906194747FF041
:2037E00090619074D5F0901560E043E001F0904447123528901659E0F582023537AF83E5B1
:20380000827824F2EF08F27822E2FC08E2C313CC13CCFD7826E4F208F27826C3E29C08E298
:203820009D5062C004C00578247926E3C5F0E225F0FC09E3C5F008E235F0FD8C828D83E03F
:20384000FA78227926E3F5F0C3E295F0FE09E3F5F008E295F0FF1EBEFF011F7824E22EFE61
:2038600008E23FFF8E828F83E08C828D83F08E828F83EAF07826E22401F208E23400F2D09D
:2038800005D004809422AF83E582782AF2EF08F27828E2FC08E2C313CC13CCFD782CE4F2A3
:2038A00008F2782CC3E29C08E29D5069C004C005782A792CE3C5F0E225F0FC09E3C5F008E5
:2038C000E235F0FD8C828D83E0FA7828792CE3F5F0C3E295F0FE09E3F5F008E295F0FF1E5A
:2038E000BEFF011F782AE22EFE08E23FFF8E828F83E0FB6303FF8C828D83EBF074FF6A8E4D
:20390000828F83F0782CE22401F208E23400F2D005D004808D22AE82AF837D008D037C00B3
:20392000782EC3E2F5F0EB95F008E2F5F0EC95F05018ED2EFBE43FFC8B828C83E0FA6302AF
:20394000FF8B828C83EAF00D80D222C082C083E581243FF58124EAF9E58124D3F87406292E
:20396000F6E58124DDF8740A29F6E58124C0F8C001796DE6F308E609F390005012AECBC876
:20398000E58124D6C8A68208A683D001E58124DDF8C001E58124E8F9E6F7D001E58124D73B
:2039A000F8C001E58124C1F9E6F708E609F7D001E58124BDF8C001E58124C3F9E4B601018C
:2039C00004F7D001E58124DDF8C001E58124C4F9E6F7D001E58124D7F8C001E58124C5F9A4
:2039E000E6F708E609F7D001E58124DDF8C001E58124C7F9E6F7D001E58124D7F8C001E514
:203A00008124C8F9E6F708E609F7D001E58124BDF8C001E58124CAF9E4B6020104F7D001EE
:203A2000E58124CCF8740F29F6E58124CDF8740529F6E58124CEF8740E29F6E58124CFF86D
:203A4000740229F6E58124CEF8C001E58124CFF9E6F7D001E58124D1F8740429F6E581244C
:203A6000CFF8C001E58124D1F9E6F7D001E58124FAF8760090163CE0FEE58124FAF8C3E6E5
:203A80009E400302455E89057C007B40E58124FAF8E675F010A4FEAFF07820E22EFE08E233
:203AA0003FFF7833EEF2EF08F2E408F278367410F2E408F28D828C838BF0C00112539FD046
:203AC00001E58124D3F886008607E58124BDF8E6B507028003023F7D740729F8E670030262
:203AE0003CF9E58124D2F88600860608860718E58124C0F8C3E69E08E69F5003024555E594
:203B00008124D0F8860086058D027C008A82ECC40354F8C582C403C5826582C58254F8C57D
:203B2000826582F583E58124D1F886008604786DECF2E408F2C007C006C005C00112AECB02
:203B4000AB82AC83D001D005D006D007E58124DBF8A60608A607E58124DBF8EB26F6EC08A0
:203B600036F6E58124C0F88602088604E58124DBF8C3EA96EC08964003024555E58124C06A
:203B8000F8E6C39EF58208E69FF583781AEDF2E408F2C001122DA7C8E58124FAC8A6820830
:203BA000A683D001E58124D4F8740829F6C001E58124CCF98700D001C000E58124FCF876FE
:203BC00000D0008602C000E58124CFF8860086048AF0ECA4FAAFF0E58124FCF8C001E58124
:203BE00024D7F9E6F7097700D001E58124D8F8C3E69A08E664808FF063F08095F0D000404D
:203C000003024555C000E58124D3F88600860608860718E58124FAF88602088603E5812412
:203C2000DEF8A602EBC423C6C423541F66C6541FC666C608F6E58124D0F886008605E581BC
:203C400024FCF88CF0E6848DF0A4FCADF0E58124DEF8EC26FCED0836FDD000EC2EF582EDC8
:203C60003FF583E0FF5302077B008AF005F07A80E43392D28008A2D2EB13FBEA13FAD5F042
:203C8000F57E00EF5202EE5203EA4B605F870609870719C000E58124D8F88604088605ECD7
:203CA0002EFEED3F8E04C423CCC423541F6CCC541FCC6CCCFDE58124B9F8EC26FCED0836ED
:203CC000FD088603D0008C828D838BF012B68DFA5306078EF005F07401800225E0D5F0FB0F
:203CE00042028C828D838BF0EA129D30C000E58124FCF806D000023BC3E58124CFF8860033
:203D0000860608860718E58124C0F8C3E69E08E69F5003024555E58124CDF886008605E520
:203D20008124CEF8860086048DF0ECA4FAABF0E58124DBF8A60608A607E58124DBF8C0018A
:203D4000E58124DEF9EA26F7EB083609F7D001E58124C0F88602088603E58124DFF8C3EA98
:203D600096EB089640030245558DF0ECA4FD1DE58124C0F8E6C39EFCEDC39CFDE58124FBCB
:203D8000F8A605E58124DEF8740829F6C001E58124D0F98700D001C000E58124FBF8E4F602
:203DA00008F6D00086038B027F008A82EFC40354F8C582C403C5826582C58254F8C5826517
:203DC00082F583C000E58124CDF8C001E58124DDF98600E6F7D001E58124DEF8C001796D7E
:203DE000E6F3E409F3D001D000C003C001C00012AECBAA82AF83D000D001D003C000E581A2
:203E000024FBF8C001E58124D9F9E6F708E609F7D001E58124DAF8C3E69A08E69FD0004096
:203E200003024555C000E58124DDF88600860208860718E58124DAF8C001E58124D7F9E6AC
:203E4000F708E6C423C7C423541F67C7541FC767C709F7D001E58124DEF8C001791AE6F381
:203E6000E409F3D001E58124D8F88682088683D000C007C003C002C001C000122DA7AC826D
:203E8000AD83D000D001D002D003D007C000E58124FAF8C001E58124DDF987F0E684D001C6
:203EA000F5F0EBA4AEF02CFCEE3DFDEC2AF582ED3FF583E0FFE58124DEF8C001791AE6F303
:203EC000E409F3D001E58124FBF88682088683D000C007C001C000122DA7AD82D000D001CD
:203EE000D0075305077E008DF005F07D80E43392D28008A2D2EE13FEED13FDD5F0F57C00F6
:203F0000EF5205EC5206ED4E6061870609870719EFC423CEC423541F6ECE541FCE6ECEFF28
:203F2000C000E58124D8F8EE26FEEF0836FFE58124B9F8EE26FEEF0836FF0886058E828F7E
:203F4000838DF012B68DFCE58124DAF8740756FAD0008AF005F07401800225E0D5F0FB42AC
:203F6000048E828F838DF0EC129D30C000E58124FBF806B600020806D000023DA4E581248D
:203F8000CCF88600E6FF7003024555BF02028003024497E58124BDF8E66003024140E5814F
:203FA00024DDF88600860308860408860508860618181874162BFFE43CFCE43DFDE43EFEEA
:203FC000E58124D7F8C001E58124E4F9E6F708E609F7097700097700D001E58124E5F8E677
:203FE0002FFB08E63CFC08E63DFD08E63EFEE58124FBF8A60374782C08F6E43D08F6E43EA2
:2040000008F6900050C00112AF3AAA82AE83D001A88118A60208A606A881188605088606DB
:20402000C0017450C0E0E4C0E0C005C006E58124F6F886820886830886F008E6125474E590
:204040008124FCF581D001E58124DDF88600860308860408860508860618181874162BFB59
:20406000E43CFCE43DFDE43EFEE58124E5F8E62BFB08E63CFC08E63DFD08E63EFFE5812470
:20408000BAF8C001E58124E4F9E6F708E609F7D001E58124E5F88602088606C0017450C0E2
:2040A000E0E4C0E0C002C0068B828C838DF0EF125474E58124FCF581D001782E7450F2E4A5
:2040C00008F2A881188682088683C001123916D0017F00BF50005035E58124BAF8EF26FC39
:2040E000E40836FD0886068C828D838EF012B68DFBA88118EF26F582E40836F583E0520385
:204100008C828D838EF0EB129D300F80C6A8811886040886057E008C828D838EF0C0011299
:204120002DF2D00178227450F2E408F2E58124E5F88682088683C0011237FDD0010245556D
:20414000E58124C4F8E670030242FBC001E58124E8F8860086030886040886050886061876
:20416000181874162BFFE43CFCE43DFDE43EFEE58124C1F8C001E58124DFF9E6F708E609C7
:20418000F7097700097700D001E58124E0F8E62FFA08E63CFC08E63DFD08E63EFEE58124E4
:2041A000FAF8A60274782C08F6E43D08F6E43E08F6900050C00112AF3AAB82AE83D001A89D
:2041C000811818A60308A606A88118188605088606C0017450C0E0E4C0E0C005C006E581BF
:2041E00024F5F886820886830886F008E6125474E58124FCF581D001E58124E8F88600860C
:204200000308860408860508860618181874162BFBE43CFCE43DFDE43EFEE58124E0F8C06E
:2042200001E58124E3F9E62BF708E63C09F708E63D09F708E63E09F7D001E58124B9F886FC
:20424000020886068A048E05C006C002C0017450C0E0E4C0E0C004C005E58124DDF8868286
:204260000886830886F008E6125474E58124FCF581D001D002D006782E7450F2E408F28AAE
:20428000828E83C001123916D0017F00D001BF50005035E58124BAF8EF26FCE40836FD0840
:2042A00086068C828D838EF012B68DFBA88118EF26F582E40836F583E052038C828D838E3E
:2042C000F0EB129D300F80C6A8811886040886057E008C828D838EF0C001122DF2D001E5AF
:2042E0008124BAF8868208868378227450F2E408F2C0011237FDD001024555E58124CBF85F
:20430000E67003024555C001E58124C4F88600860308860408860508860618181874162BDC
:20432000FFE43CFCE43DFDE43EFEE58124C5F8C001E58124DFF9E6F708E609F70977000966
:204340007700D001E58124E0F8E62FFB08E63CFC08E63DFD08E63EFEE58124FAF8A6037492
:20436000782C08F6E43D08F6E43E08F6900050C00112AF3AAA82AE83D001A8811818A60291
:2043800008A606A88118188605088606C0017450C0E0E4C0E0C005C006E58124F5F886823E
:2043A0000886830886F008E6125474E58124FCF581D001E58124C4F88600860308860408EA
:2043C000860508860618181874162BFBE43CFCE43DFDE43EFEE58124E0F8E62BFB08E63CD4
:2043E000FC08E63DFD08E63EFFE58124B9F8C001E58124E3F9E6F708E609F7D001E58124E6
:20440000E4F88602088606C0017450C0E0E4C0E0C002C0068B828C838DF0EF125474E581AB
:2044200024FCF581D0017F00D001BF50005035E58124BAF8EF26FCE40836FD0886068C8223
:204440008D838EF012B68DFBA88118EF26F582E40836F583E052038C828D838EF0EB129DAC
:20446000300F80C6A8811886040886057E008C828D838EF0C001122DF2D00178227450F22C
:20448000E408F2E58124E5F88682088683C0011237FDD001024555BF01028003024555E584
:2044A0008124BDF8E66003024555C001E58124C7F8860086040886050886060886071818B7
:2044C00018E58124FAF874162CF6E43D08F6E43E08F6E43F08F6E58124C8F88602088603D9
:2044E000E4FEFFE58124FAF8C001E58124E3F9EA26F7EB083609F7EE083609F7EF083609A6
:20450000F7D001E58124B9F886040886058C068D07C005C004C0017450C0E0E4C0E0C0065D
:20452000C007E58124DDF886820886830886F008E6125474E58124FCF581D001D004D00580
:2045400078227450F2E408F28C828D83C0011237FDD001D001E58124FAF806023A74E581CE
:2045600024BFF581227F0090163CE0FEC3EF9E5034EF75F010A4FDAEF07820E22DFD08E27C
:204580003EFE74082DF582E43EF583E0FDA3E0FE4D600F7C008D828E838CF0C007122DF2FB
:2045A000D0070F80C27820E2F5F008E245F060127820E2FD08E2FE7F008D828E838FF01254
:2045C0002DF27820E4F208F290163CF022058105817820E2F5F008E245F070030246799012
:2045E000163CE02401F075F010A4F58285F08312AF3AAE82AF83A88118A60608A607A881C4
:2046000018740F26F582E40836F583E4F0A881188603088604FD78207933E2F308E209F39C
:20462000E409F390163CE0FA7F001ABAFF011F7836EAF28FF0E2C5F0C454F0C5F0C4C5F096
:2046400065F0C5F054F0C5F065F0C5F0F2E5F008F28B828C838DF012539F7820E2FD08E28E
:20466000FE7F008D828E838FF0122DF2A881187920E6F308E609F3801890001012AF3AAE6F
:2046800082AF837820EEF2EF08F290163CE02401F090163CE0FF7E001FBFFF011EEEC454ED
:2046A000F0CFC4CF6FCF54F0CF6FFE7820E22FF58208E23EF58315811581221245CDAE8288
:2046C000AF83781EEEF2EF08F2740E2EF582E43FF5837401F074062EF582E43FF583E4F094
:2046E0008E828F837408F0E4A3F08E828F83A3A37408F0E4A3F074072EF582E43FF583E4CB
:20470000F022AE82AF83781EE2FC08E2FD8C828D83EEF0EFA3F08C828D83A3A37830E2F06E
:2047200008E2A3F074072CF582E43DF5837832E2F022AF82781EE2240EF58208E23400F542
:2047400083EFF022AF82781EE22406F58208E23400F583EFF022C082C083E5812405F5816A
:204760001245CDAC82AD83781EECF2ED08F2740E2CF582E43DF5837402F074062CF582E437
:204780003DF583E4F08C828D837440F0E4A3F08C828D83A3A37404F0E4A3F074072CF582F6
:2047A000E43DF5837401F074042CFAE43DFBE58124FAF88682088683E493FF7E0078867446
:2047C00008F2E408F28F828E83C005C004C003C00212B31AAE82D002D003D004D0058A8268
:2047E0008B83EEF0E58124FCF874052CF6E43D08F6E58124FAF88682088683A3A3E493FF44
:20480000E58124FCF88682088683EFF074082CFCE43DFD8A828B83E0FA8AF0EFA4F5828563
:20482000F083C005C00412AF3AAE82AF83D004D0058C828D83EEF0EFA3F0781EE2FE08E298
:20484000FF74082EF582E43FF583E0FCA3E0FDA8811818A60408A605087600E58124FAF891
:20486000740426FAE40836FD7833EAF2ED08F2748008F28E828F83A3A3A3A3E0FD8E828FFB
:2048800083A3A3A3A3A3E08DF0A4FDAEF07836EDF2EE08F2A881181886820886830886F065
:2048A00012539FE58124F9F58122E581241CF58190003012AF3AAE82AF83E58124F5F8A683
:2048C0000608A607087600E58124E1FCE58124F5F88602088603C004E58124E0F8E6C0E0FC
:2048E00008E6C0E08A828B831234BA15811581158190003012AF3AAB82AC83E58124F8F8BD
:20490000A60308A60408E4F6FEFFE58124FBF87600C006C007E58124F3F8E58124F9F9E705
:2049200026FDE40836FE0886078D828E838FF012B68DFDFCD007D006ED6070BC20118E04C9
:204940008F0574042CFCE43DFD8C068D0780537D00786DEC24E0F2ED34FF08F2900021C03D
:2049600007C00612AECBAC82AD83D006D007EC24B7F582ED34C5F583E493FDFC53040F74EE
:2049800010C39CFCEDC4540FFDECC39DFD8E038F047A00ED2BFBEA3CFC0BBB00010C8B061B
:2049A0008C07E58124FBF8060249111EBEFF011F8E04EFC423CCC423541F6CCC541FCC6C19
:2049C000CCE58124FCF8A604EE54076006E58124FCF806781EE22408FE08E23400FFE5818B
:2049E00024FCF886047D008C03EDC454F0CBC4CB6BCB54F0CB6BFA8B828A83C007C006C0A9
:204A000003C00212AF3AAC82AD83D002D003D006D0078E828F83ECF0EDA3F0781EE2240804
:204A2000F58208E23400F583E0FEA3E0FF4E70127417C0E074D2C0E01234081581158102AC
:204A400052BB7D00783BE4F2783CEBF2EA08F28E828F838DF0125E10781EE2FE08E2FF8EC2
:204A6000828F83A3A3A3A3E58124FCF8E6F08E828F83A3A3A3A3A37410F0E4FEFFE5812492
:204A8000FBF87600C006C007E58124F3F8E58124F9F9E726FDE40836FE0886078D828E8350
:204AA0008FF012B68DFDFCD007D006ED700302528FBC20128E048F0574042CFCE43DFD8CDB
:204AC000068D07025286C006C0078C057F00786DED24E0F2EF34FF08F2900021C007C005A4
:204AE00012AECBAC82AE83D005D007EC24B7F582EE34C5F583E493FEFC53040F7410C39CC9
:204B0000FCE58124FCF8EEC4540FF6E58124FCF8E58124FBF9ECC396F7786DED24E0F2EF21
:204B200034FF08F290002112AECBAE82AF83E58124E5F8EE24B7F6EF34C508F6E58124FD17
:204B4000F87600D007D006A88118B610004003024C03C006C007E58124FDF8E675F003A4A1
:204B6000FCADF0E58124F6F8E58124E7F9EC26F7ED083609F708E609F7E58124FDF8E6260D
:204B8000FE2402C8E58124E5C826F58208E436F583E493FFE58124E7F88682088683088635
:204BA000F0EF129D3074012CFBE43DFFE58124F6F8EB26FBEF0836FF088602EE04C8E5811B
:204BC00024E5C826F58208E436F583E4938B828F838AF0129D3074022CFCE43DFDE5812498
:204BE000F6F8EC26FCED0836FD0886078C828D838FF0E4129D30E58124FDF806D007D0066A
:204C0000024B478E048F055304077D00A881181886027B00EAB50407EBB505030250AFC38D
:204C2000EA9CEB9D4003024E698C03A8811818EBC396FDBD08005003024D055305077C00FA
:204C4000BC30004003024D05C006C007E58124E7F8A604087600E58124E7F8740226FAE4D0
:204C60000836FBE58124F6F8E58124EAF9EA26F7EB083609F708E609F7E58124E7F874011A
:204C800026FEE40836FFE58124F6F8E58124EDF9EE26F7EF083609F708E609F7E58124ED4A
:204CA000F886820886830886F012B68DFAE58124EAF886820886830886F0EA129D30E581E4
:204CC00024F6F8E58124E7F9E726FA09E70836FE0886078A828E838FF012B68DFBE581241A
:204CE000EDF886820886830886F0EB129D308A828E838FF0E4129D308C0274032AFCD0070D
:204D0000D006024C407C00BC300040030250AFC006C007E58124EDF8A604087600E58124D5
:204D2000EDF8740226FBE40836FEE58124F6F8E58124E7F9EB26F7EE083609F708E609F7D3
:204D4000E58124E7F886820886830886F012B68DFA8DF005F0E58124EAF8EA8002C313D50F
:204D6000F0FBF6E58124EDF8740126FAE40836FFE58124F6F8E58124F0F9EA26F7EF08360E
:204D800009F708E609F7E58124F0F886820886830886F012B68DFA8D03E58124E3F874085C
:204DA000C39BF68A03E58124E3F886F005F0EB800225E0D5F0FBFBE58124EAF8E64203E599
:204DC0008124E7F886820886830886F0EB129D30E58124F0F886820886830886F012B68D90
:204DE000FB8DF005F0E58124EAF8EB8002C313D5F0FBF6E58124F6F8E58124EDF9E726FBF1
:204E000009E70836FE0886078B828E838FF012B68DFAE58124E3F886F005F0EA800225E0A4
:204E2000D5F0FBFAE58124EAF8E64202E58124F0F886820886830886F0EA129D308B828EB5
:204E4000838FF012B68DFA8DF005F0EA8002C313D5F0FB8B828E838FF0129D308C0374030B
:204E60002BFCD007D006024D07A8811818A98119E6C39CF7A88118B608005003024F43A8A2
:204E80008118E65407F6A8817600A881B630004003024F43C006C007A881181886027B00D4
:204EA000E58124F6F8E58124F0F9EA26F7EB083609F708E609F774012AFDE43BFFE58124A5
:204EC000F6F8ED26FDEF0836FF0886068D828F838EF012B68DFCE58124F0F8868208868399
:204EE0000886F0EC129D3074022AFAE43BFBE58124F6F8E58124F0F9EA26F7EB083609F79A
:204F000008E609F7E58124F0F886820886830886F012B68D8D828F838EF0129D30E581243D
:204F2000F0F886820886830886F0E4129D30A88118188604A881181874032CF6D007D006AD
:204F4000024E8AA8817600A88118E58124F2F97408C396F7A881B6300040030250AFC0063D
:204F6000C007A881181886027B00E58124F6F8E58124EAF9EA26F7EB083609F708E609F70B
:204F8000E58124EAF886820886830886F012B68DFCE58124FDF886F005F0E58124EDF8EC78
:204FA000800225E0D5F0FBF674012AFCE43BFFE58124F6F8EC26FCEF0836FF0886068C82A7
:204FC0008F838EF012B68DFDE58124F0F886F005F0ED8002C313D5F0FBFDE58124EDF8E6BB
:204FE0004205E58124EAF886820886830886F0ED129D308C828F838EF012B68DFDE5812421
:20500000FDF886F005F0E58124EDF8ED800225E0D5F0FBF674022AFAE43BFBE58124F6F86B
:20502000E58124EAF9EA26F7EB083609F708E609F7E58124EAF886820886830886F012B61A
:205040008DFDE58124F0F886F005F0ED8002C313D5F0FBFDE58124EDF8E642058C828F832B
:205060008EF0ED129D30E58124EAF886820886830886F012B68DFFE58124FDF886F005F0A5
:20508000EF800225E0D5F0FBFFE58124EAF886820886830886F0EF129D30A8811818860526
:2050A000A881181874032DF6D007D006024F54A881187600A88118B61000400302526A8E5E
:2050C000038F04ECC423CBC423541F6BCB541FCB6BCB781EE22408FA08E23400FCC006C05A
:2050E000078A828C83E58124F0F8E0F6A3E008F6E58124E5F8A603087600E58124E5F8745C
:205100000226FDE40836FBE58124FDF8E58124FAF986F0E7A4C0E0C0F0E58124E9F8D0E0E5
:20512000F618D0E0F6E58124EAF8E62DFE08E63BFFE58124F0F8E58124F0F9EE26F7EF082F
:205140003609F7E58124F0F88682088683E0FBE58124FDF8E58124E7F9E675F003A4F709D8
:20516000A7F0E58124E7F8740226FEE40836FFE58124F6F8EE26FEEF0836FD0886078E821B
:205180008D838FF012B68DFEEB4206E58124F0F88682088683EEF08A828C83E0FEA3E0FF16
:2051A000E58124E5F8740126FBE40836FDE58124EAF8E62BFB08E63DFDE58124EDF8EB2EAB
:2051C000F6ED3F08F6E58124EDF88682088683E58124F0F9E0F7E58124E7F8740126FBE4FA
:2051E0000836FDE58124F6F8EB26FBED0836FD0886078B828D838FF012B68DFBE58124F0CD
:20520000F8E64203E58124EDF88682088683EBF08A828C83E0FAA3E0FCE58124E5F8E581C7
:2052200024EAF9E726FE09E70836FFEE2AFAEF3CFC8A828C83E0FFE58124F6F8E58124E713
:20524000F9E726FB09E70836FD0886068B828D838EF012B68D42078A828C83EFF0E58124D1
:20526000FDF806D007D0060250B4E58124FDF886058E038F047A00ED2BFBEA3CFC0BBB00DD
:20528000010C8B068C07E58124FBF806024A84E58124F8F886020886030886048A828B834B
:2052A0008CF0122DF2E58124F5F886050886060886078D828E838FF0122DF2E58124E4F5E3
:2052C0008122C082C083C0F0C0E01245CDE5828583F0781EF2E5F008F27582041228AF9008
:2052E000001612AF3AAA82AB838A068B07C003C0027416C0E0E4C0E0C006C007E58124F7E0
:20530000F886820886830886F008E6125474E58124FCF581D002D00374102AF582E43BF55C
:2053200083E0FFBF2012781EE2240FF58208E23400F5837401F08013BF2110781EE2240FCF
:20534000F58208E23400F5837402F07F008A828B838FF0122DF2781EE2FE08E2FF74082E88
:20536000F582E43FF583E4F0A3F0740A2EF582E43FF583E58124FDF8E6F008E6A3F008E632
:20538000A3F008E6A3F074062EF582E43FF58374FEF01211BE120E4AE58124FCF58122ADC7
:2053A00082AE83AFF07838EDF2EE08F2EF08F27833E2F50F08E2F51008E2F5117836E2F546
:2053C0001208E2F513AB12AC13151274FFB512021513EB4C6025850F828510838511F01240
:2053E000B68DFCA385820F8583108D828E838FF0EC129D30A3AD82AE8380CA7838E2F582DD
:2054000008E2F58308E2F5F022901563E0FCA3E0FDA3E0FEA3E08C828D838EF0228582F913
:20542000E5F820E0FB85F982225390EF2243901022AC82AD83AEF0FFC007C006C005C00468
:2054400012542975820312541DD004D005D0068E82C006C005C00412541DD004D0058D8227
:20546000C005C00412541DD004D005D006D0078C8202541DAC82AD83AEF0FFE58124FDF8CF
:205480008602088603C007C006C005C004C003C00212542975820312541DD002D003D004D3
:2054A000D005D0068E82C006C005C004C003C00212541DD002D003D004D0058D82C005C0F8
:2054C00004C003C00212541DD002D003D004D005D006D0078C82C003C00212541DD002D00D
:2054E00003E58124FBF87950E6F308E609F38A828B83126B9902542DAF82C007125429D096
:20550000078F8212541D02542D12542975820512541D75820012541DE58220E0F512542DF6
:2055200075820122AC82AD83AEF0FFE58124FDF88602088603758206C007C006C005C004AB
:20554000C003C0021254F812542975820212541DD002D003D004D005D0068E82C006C0059E
:20556000C004C003C00212541DD002D003D004D0058D82C005C004C003C00212541DD0029F
:20558000D003D004D005D006D0078C82C003C00212541DD002D0038A068B07E58124FBF888
:2055A00086040886058C028D031CBCFF011DEA4B60228E828F83E0FBA3AE82AF838B82C035
:2055C00007C006C005C00412541DD004D005D006D00780D112542D0255097582B90254F85A
:2055E0007582AB0254F8AE82AF83C007C00612542975825A12541D75820012541DD006D049
:20560000078F82C007C00612541DD006D0078E8212541D75820012541DE58124FCF8795061
:20562000E6F3E409F3E58124FDF88682088683126B9902542DE582601953F87F75FA004324
:20564000FC1043FC2043F10212542D43FE7043F4E02253FE8F53908F53F41F22E5812404C4
:20566000F581901567E070071255E0D3025BB5901567E4F090000812AF3AAE82AF83E581EA
:2056800024FDF8A60608A60790014012AF3AAC82AD83A88118A60408A6051255E07408C045
:2056A000E0E58124FCF8E6C0E008E6C0E09000001255E6158115811581E58124FDF8868252
:2056C000088683E0FBBB5367E58124FDF88682088683A3E0FBBB4657E58124FDF8740226E0
:2056E000FAE40836FB8A828B83E0FDBD4441C002C003E58124FBF8740326FFE40836FE8F0D
:20570000828E83E0FBBB50028006D003D002801FE58124FBF8740726F582E40836F583E035
:20572000FBBBFF07D003D0020258B0D003D002C208C021125429D021758290C02112541D43
:20574000D021758200C02112541DD021758200C02112541DD021758200C02112541DD02174
:20576000758200C02112541DAD82D021BDC202800DBDC8028079BDEF028047025830D20847
:2057800090163D7420F0758200C02112541DAC82D021BC05028005BC12238010901563E473
:2057A000F0A3F004A3F0E4A3F002588D901563E4F0A3F07408A3F0E4A3F002588DC20802C9
:2057C000588DD20890163D7420F0758200C02112541DAC82D021BC1311901563E4F0A3F0DA
:2057E0007408A3F0E4A3F002588DC20802588DD20890163D7420F0758200C02112541DAC43
:2058000082D021BC12028008BC1302801302588D901563E4F0A3F07408A3F0E4A3F0806D90
:20582000901563E4F0A3F07410A3F0E4A3F0805D7C00C005C0047427C0E074D2C0E0123422
:2058400008E58124FCF58190163D7420F0901563E4F0A3F07408A3F0E4A3F0758200C02110
:2058600012541DAD82D0217C00C005C0047445C0E074D2C0E0123408E58124FCF581744D36
:20588000C0E074D2C0E012340815811581C02112542DD021A8811886040886057F008C82B8
:2058A0008D838FF0C021122DF2D021A208025BB5E58124FDF88682088683A3A3A3A3A3E0F3
:2058C000FDBD01028004C3025BB5E58124FDF8740626F582E40836F583E0FDBDFF011D8A41
:2058E000047A00C004C003C007C006C005C0027408C0E08A82126196AB82AC831581D0029A
:2059000074082BFBE43CFCC004C003C0027408C0E0E58124F4F8E6C0E008E6C0E08B828C41
:20592000831255E6158115811581D002D003D004D005D006D007E58124FBF8868208868344
:20594000E0D003D0046003025BABC0058C828B83E0FDBD01028005D005025BABD005C004DC
:20596000C0038F828E83E0FCBC0900D003D0045003025BABE58124FDF8740426FEE4083662
:20598000FF8E828F83E0FEA3E0FF7424C0E0A8811818E6C0E008E6C0E08E828F831255E672
:2059A000158115811581A881188682088683E0FFFE530603BE01028003025BB4EF20E20349
:2059C000025BB4A881188682088683A3A3E054066003025BB4A881188682088683A3E0FD8E
:2059E0007003025BB4BDFF03025BB490163DEDF0A88118740726F582E40836F583E0FE3092
:205A0000E703025BB48E07EFFE6010901563E4F0A3F07420A3F0E4A3F08042A8811874060F
:205A200026F582E40836F583E0FE6010901563E4F07420A3F0E4A3F0A3F08021A88118866C
:205A400082088683A3A3A3A3A3E0FE7003025BB49015637420F0E4A3F0A3F0A3F0EE602E7D
:205A6000901563E0FFA3E0FCA3E0FBA3E0FAEF2FFFEC33FCEB33FBEA33FA901563EFF0EC8A
:205A8000A3F0EBA3F0EAA3F0EEC313FE80CF7C1C8C067F000EBE00010FA88118EE26F58216
:205AA000EF0836F583E0FF6038BFFF028033A88118EC26F582E40836F583E0FEBE0C0280C9
:205AC0000ABE0F02800FBE10188011EDB507028010C3025BB590163EEFF0800590163FEFBB
:205AE000F08C0774022FFCBC240040A4746CC0E074D2C0E012340815811581747DC0E074D9
:205B0000D2C0E01234081581158190163DE0FFE060177E00C007C006748DC0E074D2C0E0EE
:205B2000123408E58124FCF58190163EE0FFE060177E00C007C006749AC0E074D2C0E01250
:205B40003408E58124FCF58190163FE0FFE060177E00C007C00674A7C0E074D2C0E0123400
:205B600008E58124FCF5817E637F15C006C00774B4C0E074D2C0E0123408E58124FCF58127
:205B8000A8811886040886057F008C828D838FF0122DF2E58124FDF886060886077D008EAF
:205BA000828F838DF0122DF2D3800A0AC3ED9A40030258E3C3A8D0E58124FCF58188D022C1
:205BC000C082C083C0F0C0E005810581E58124F7F88605088604E58124F5F8E60846700330
:205BE000025C9EC005C004E58124F9F88602087B00E58124FDF8E4C39AF674019B08F6E5F1
:205C00008124FDF8E58124F3F9C3E79609E70896D004D005500EE58124F5F8A98119E6F708
:205C200008E609F78D028C03C005C004E58124FDF8E6C0E008E6C0E0C002C003E58124F538
:205C4000F886820886830886F008E6125524AB82E58124FCF581D004D005EB7004F5828014
:205C600040A881188602088603E4FEFFE58124FBF8EA26F6EB0836F6EE0836F6EF0836F6C2
:205C8000A88118E62DFD08E63CFCE58124F5F8A98119E6C397F608E60997F6025BD67582EF
:205CA00001E58124FAF58122C082C083C0F0C0E0E58124FDF88602088603EA7005EB540FAD
:205CC000601574C5C0E074D2C0E012340815811581758200025DFDE58124F9F8E6084670A4
:205CE00003025DFA7582061254F8125429E58124F9F88602088603C3EA9410EB9400401F9B
:205D0000E58124FDF88602088603EA4B701190163FE0FBE060098B8212541D7B108041E56B
:205D20008124F9F88602088607C3EA9408EF94004023E58124FDF88602088607EA7016EF86
:205D4000547F701190163EE0FFE060098F8212541D7B08800B90163DE0F58212541D7B0108
:205D6000E58124FDF808088682C00312541DD003E58124FDF8088682C00312541DD003E5E6
:205D80008124FDF88682C00312541D12AEEF12542D12AEEF125509E582D003701474D9C0EF
:205DA000E074D2C0E012340815811581758200804CC003C0039010001261ABAC82AD83AE90
:205DC000F0FF1581D003E58124FDF8EC26F6ED0836F6EE0836F6EF0836F6E58124F9F8867D
:205DE000060886077D00EEC39BFEEF9DFFE58124F9F8A60608A607025CD7758201E5812423
:205E0000FCF581227582B10254F87582C10254F8AFF0AE83E582783EF2EE08F2EF08F278CA
:205E20003CE2F50F08E2F510783CE2F5F008E245F0602A783EE2FA08E2FB08E2FC783BE23B
:205E4000FFAD0FAE108A828B838CF0EF129D30A3AA82AB831DBDFF011EED4E70E8783EE245
:205E6000F58208E2F58308E2F5F02243FF0143EC0475EB3E75ED8B2253FF0153A0FE22AF20
:205E800082C2AF53D8EF741055D8FEBE10F853A0FE7E00BE0800501E53D8EF741055D8FD15
:205EA000BD10F8EF30E00543A001800353A0FEEFC313FF0E80DD53D8EF741055D8FFBF10F9
:205EC000F843A001D2AF229016407401F0901641E4F0901642F0901643F090164404F0901E
:205EE0001645F0901646F0901648E4F0901647F090164B7423F0E4A3F090164DF09016491B
:205F00007492F07409A3F022AD82AE83AFF012B68DFCBC01217A407B167C007833EDF2EEEC
:205F200008F2EF08F27836740EF2E408F28A828B838CF012539F901541E0901647F00260DF
:205F4000C490008012AF3AAE82AF838E048F05C007C006740EC0E0E4C0E0C004C00590009E
:205F600004F5F0125474E58124FCF581D006D0078E048F057B0078817440F2741608F2E40D
:205F800008F27884740EF2E408F28C828D838BF0C007C00612B260E5828583F0D006D00763
:205FA00045F070128E048F05FB8C828D838BF0122DF2758201227D008E828F838DF0122DCA
:205FC000F2758200222290008012AF3AAE82AF838E048F05C007C006740EC0E0E4C0E0C00E
:205FE00004C005900004F5F0125474E58124FCF581D006D0078E048F057833ECF2ED08F246
:20600000E408F27836740EF2E408F2901640F5F0C007C00612539F901568E4F0A3F0A3F03F
:20602000A3F07404C0E0E4C0E07468C0E07415C0E0900000E4F5F0125474E58124FCF5815D
:20604000D006D0078E048F058C098D0A7A407B168A828B83C007C006740EC0E0E4C0E0C0E9
:2060600009C00A1263B2E58124FCF581D006D007901640E0FDBDFF028022C005901568E0A8
:20608000FAA3E0FBA3E0FCA3E0FDBAA50DBB5A0ABCBA07BDAB04D005800FD005C007C0064F
:2060A000125EC7D006D0078010BD0100500BC007C006125FC5D006D0077D008E828F838DB7
:2060C000F0022DF2125F41E5826001227401C0E0E4C0E0900000F5F0125CA8158115819033
:2060E000156C74A5F0F4A3F074BAA3F0C4A3F07404C0E0E4C0E0746CC0E07415C0E09000A2
:2061000000E4F5F0125BC0E58124FCF581740EC0E0E4C0E07440C0E07416C0E0900004E4F1
:20612000F5F0125BC0E58124FCF58122901570E4F0A3F0A3F0A3F07404C0E0E4C0E074700D
:20614000C0E07415C0E0900000E4F5F0125BC0E58124FCF58122858283D0F0D0E0D082C0C6
:2061600082C0E0C0F022C00074FB2581F8E58286820886830886F0D0002275F008C58213A7
:20618000C58233D5F0F7C58222E583A2E713F583E58213F58222D083D0E0D0F0C0F0C0E0BE
:2061A000C083E582A4F58285F08322C000E58124FDF8E6F88582F0A4F582E8A8F08583F059
:2061C000A428F583E5F03400F5F0E4D00022C000C001C0E0C0F074FA2581F88600E5828865
:2061E000F0A4F582A9F0E58388F0A429F583E5F03400F9D0E088F0A429C5F03400F9D0E04D
:20620000C0F088F0A429D0F0D001D00022C000C001C002E58124FBF8E6F918E6F88582F07A
:20622000A4C0E0AAF0E58388F0A42AF8E5F03400FAE98582F0A428C0E0E5F03AFA740034DA
:2062400000F8E98583F0A42AFAE5F0388AF0D083D082D002D001D00022D0E0D0F0C000C0EC
:2062600001C002C0F0C0E074F82581F9E7F809E7F922D002D001D00022C9C583C9C8C58298
:20628000C82212625975F008126279E0A3126279F0A3D5F0F302627212625975F0081262AE
:2062A00079E493A3126279F0A3D5F0F2026272126259C375F008126279E0A3F502126279ED
:2062C000E03AF0A3D5F0EF02627212625975F008126279E0A3F502126279E05AF0A3D5F067
:2062E000EF026272126259C375F008126279E0A3F502126279E09AF0A3D5F0EF02627212DF
:206300006259C375F008126279E0A3F502126279E0A39AD5F0F002627212625975F008124A
:206320006279E0A3F502126279E0A36A7007D5F0EED3026272C3026272C8C0E075F008E00D
:2063400038F0A3D5F0F9D00022D3E4026339C374FF026339C000C00174FA2581F8E6F5F041
:20636000088601496015088600E8F0A374FF25F0F5F074FF39F50145F070EED001D0002262
:20638000C000C001C00274F92581F9E7D3601CF5F0098700098701C3E0F502A3126279E068
:2063A000A31262796A7004D5F0EED3D002D001D00022C000C001C00274F82581F9E7F5F03A
:2063C0000987024A601F098700098701126279E0A3126279F0A374FF25F0F5F074FF3AF542
:2063E0000245F070E7D002D001D00022C000C001C00274F92581F9E76015F5F00987000951
:206400008701126279E0A3126279F0A3D5F0F3D002D001D00022C083C082E06003A380FAD2
:20642000C3E582D0F095F0F582E583D0F095F0F58322C003C002C001C000C0E0C0F0C08396
:20644000C082A98174F62581F886F0188600750201750300758211A2F74014C3E833F8E514
:20646000F033F5F0C3EA33FAEB33FB058280E8E4C003C002C0E0C0E0AA81C0F0C000C0E04E
:20648000C0E0A881C0E0C0E0C0E0C0E0AB81C000C001C375830486F018E71995F0D583F6E6
:2064A000D001D000402BC000C001C375830486F018E795F0F719D583F585020085030175B4
:2064C000830486F018E745F0F719D583F5D001D00074FC28F8C375830408E613F6D583F9F6
:2064E000C00074FC2AF8C375830408E613F6D583F9D000D5829820D508D082D083D0F0D052
:206500000074F42581F58130D508D082D083D0F0D000E8D000D001D002D00322C2D5026468
:2065200032D2D5026432C003C002C001C000C0E0C0F0C083C082A98174F62581F886F074F3
:2065400001758219A2F7400A23C5F023C5F0058280F2C0E0E4C0E0C0E0C0E0AA81C0F0C09F
:20656000E0C0E0C0E0A881C0E0C0E0C0E0C0E0AB81C000C001C375830486F018E71995F0D3
:20658000D583F6D001D000402BC000C001C375830486F018E795F0F719D583F585020085FE
:2065A000030175830486F018E745F0F719D583F5D001D00074FC28F8C375830408E613F6ED
:2065C000D583F9C00074FC2AF8C375830408E613F6D583F9D000D58298D082D083D0F0D01D
:2065E0000074F42581F581E8D000D001D002D00322C006C005C004C003C002C001C00074FE
:20660000F72581F886F074017C09A2F7400923C5F023C5F00C80F3FBE4FAA9F0F88582F003
:20662000FDFEC3E58298E583994011C3E58298F582E58399F583EA4DFDEB4EFEC3E913F976
:20664000E813F8C3EB13FBEA13FADCD620D5048D828E83D000D001D002D003D004D005D00A
:206660000622C2D50265F1D2D50265F1E0C0E02401F0A3E0C0E03400F0A3E0D083D08260A0
:2066800014B4600AC000A882E2D000F582224009E493F58222E0F58222C000A882E6D00021
:2066A000F5822212625975F004D3126279E0FA3400F0EAA3126279F0A3D5F0EE02627212A5
:2066C000625975F004C3126279E0FAA3126279E0A36A7004D5F0EFD3026272126259C3E04E
:2066E000A398E0A399E0A39400E0A39400026272126259C3E0A338E0A339E0A33400E0A3FE
:20670000340002627275F004E07004A3D5F0F9F58222A3A3A3E033227F00BF050040030212
:20672000679AEF75F008A42474FD741535F0FE74072DF582E43EF583E054F7F074072DF5A6
:2067400082E43EF583E054FBF074062DF582E43EF583E0547FF074062DF582E43EF583E00B
:2067600054E0F08D828E83A3A3A3A3E0541FF074072DF582E43EF583E054FCF074072DF590
:2067800082E43EF583E0543FF074072DF582E43EF583E054CFF00F02671A90159BE0543F89
:2067A0004440F090159BE054CF4410F090159AE0549F4420F090157BE0543FF090157BE0F5
:2067C00054CF4410F090157AE054E04410F090157AE0549FF090157BE054FC4402F07EF9FC
:2067E0007F708F06901574EEF07FF9901575EFF0901583E054CFF0901582E054E04411F012
:20680000901582E0549FF0901583E054FCF07EF97F708F0690157EEEF07FF990157FEFF0CF
:206820007E747F158FD575D4747E7C7F158FD375D27C22E582FF249CFDE43415FE8D828EF1
:2068400083E0FC7841E2B50401227841E2B4020280157841E2B4030302690F7841E2B40458
:20686000030269B3026A39C005C006EF75F008A42474FB741535F0FC74072BF582E43CF558
:2068800083E054F7F074072BF582E43CF583E054FBF074062BF582E43CF583E0547FF08BA4
:2068A000828C83A3A3A3A3E0541FF074072BF582E43CF583E054FCF074072BF582E43CF571
:2068C00083E0543F4440F074072BF582E43CF583E054CFF074062BF582E43CF583E054E0DE
:2068E000F074062BF582E43CF583E0549F4420F08B828C83A3A37AD97E708E02EAF08B82B3
:206900008C83A3A3A374D9F0D006D005026A39C005C006EF75F008A42474FB741535F0FC2A
:2069200074072BF582E43CF583E054F7F074072BF582E43CF583E054FBF074062BF582E4B3
:206940003CF583E0547FF08B828C83A3A3A3A3E0541FF074072BF582E43CF583E054FCF020
