:020000040000FA
:040000000200A43224
:01000B0032C2
:0100130032BA
:01001B0032B2
:0100230032AA
:03002B00022C366E
:01003300329A
:01003B003292
:01004300328A
:01004B003282
:01005300327A
:01005B003272
:01006300326A
:06006B00022C3A020727F7
:08008B0004CBEFBED0D0ADDEC6
:2000A40075812112B7D5E582600302006E79E2E94400601B7A0190D6EB781C759316E49355
:2000C400F2A308B800020593D9F4DAF27593FFE478FFF6D8FD788AE84400600A790075934E
:2000E40000E4F309D8FC7892E84415600C791690008AE4F0A3D8FCD9FA7800E4F27820E400
:20010400F208F290156B7401F09015A0E4F09015A1F09015A2F09015A3F09015B4E4F0A3EC
:20012400F09015B6F0A3F002006EE5812407F5817F007E78BEC80040030201C38E047D0063
:200144008C82EDC42354E0C582C423C5826582C58254E0C5826582F583C007C00612B17840
:20016400AC82AD83D006D0078D037D00EC4B604F8C828B838DF0C006122F08D0068E078EDC
:2001840004E42354E0CCC423CC6CCC54E0CC6CFDC004C005741BC0E074BCC0E012351EE52A
:2001A4008124FCF581EE245550117425C0E074BCC0E012351E1581158180FE0E020138E417
:2001C4002354E0CFC423CF6FCF54E0CF6FFE8F828E83C007C00612B178AC82AD83D006D0A3
:2001E40007E58124FCF8A60408A605087600E58124FCF8E6084670127477C0E074BCC0E00C
:2002040012351E15811581020311A88118E4F608F6A881188603088604E58124FAF8A60795
:2002240008A606E58124FAF8C3EB96EC08965034C007C006E58124FAF8E58124FDF9E726A2
:20024400FD09E70836FE0886078D828E838FF0EB129F6EE58124FDF806B600020806D00612
:20026400D00780AD7E007F00A88118E4F608F6A881188602088603E58124FAF8C3EA96EB5C
:2002840008965064C006C007E58124FAF8E58124FDF9E726FD09E70836FE0886078D828E17
:2002A400838FF012B7B9FDB50206D007D0068025D007D0068D047D00C004C005C002C006DE
:2002C400C00774AEC0E074BCC0E012351EE58124F9F5818013A8811806B600020806A8819A
:2002E4001886060886078087E58124FCF886030886040886058B828C838DF0122F0874D95F
:20030400C0E074BCC0E012351E15811581E58124F9F58122AF82758240C007122967783B39
:20032400E4F2783C7406F2E408F290151BF5F012603CD0077E00BE06005010EE241BF58275
:20034400E43415F5837481F00E80EB7E00C3EE9F505BC007C00612B12DD006D0077D00BDB9
:2003640006005046ED90086E93F582C007C006C005127163E582D005D006D0076029ED2425
:200384001BFBE43415FC8B828C83E0FA901562E0F508C3EA64808508F063F08095F0500783
:2003A4008B828C83E508F00D80B50E80A07582401229B7901521E4F0901522F0FFBF060092
:2003C400502DEF241BF582E43415F583E0FE901521E0C364808EF063F08095F0500EEF9074
:2003E400086E93901522F0901521EEF00F80CE901521E0901562F0901522E0F582227E00DD
:200404007F00C3EE9408EF648094805021EE24A6FCEF3415FD740C2EFA74783FFB8A828B66
:2004240083E08C828D83F00EBE00D70F80D422901637E0FEA3E0FFC3742C9E74019F400F7E
:20044400901631E0700990161CE0700302052F901639E0FEA3E0FFBE200FBF010C122C3EA9
:20046400901639E4F0A3F08006758202122967901639E02401F0A3E03400F0901636E0607A
:200484000C901525E07006901646E0700C901526E06036901647E06030901686E0FFBFFF7D
:2004A40002801775820C122967901686E0F5821291CF75820C1229B7800F758208122967E0
:2004C400120F1B7582081229B7758240122967127557AE82AF83901523EEF0EFA3F07582B3
:2004E40040C007C0061229B7D006D007EE4F6023901637E4F0A3F090161CE0600590161CBF
:20050400E4F0901631E0600690161C7401F0901631E4F0901644E0602E758201120318E5B2
:2005240082FE602390165AEEF0801C758240122967127557E5828583F0901523F0E5F0A3F4
:20054400F07582401229B7122DEA901523E0FEA3E0FF4E700990162FE4F0A3F08049740FDE
:200564002EF582E43FF583E0FCA3E0FD90162FECF0EDA3F0740D2EFCE43FFD8C828D83E0E1
:2005840060128E828F83129844E582700790162FE4F0A3F0901523E0FEA3E0FF7D008E8206
:2005A4008F838DF0122F08122E35AE82AF83901637E0FCA3E0FD901637EE2CF0EF3DA3F0A9
:2005C400BE580EBF020B901645E060057800E4F22290162FE0FEA3E0FF4E6039EF30E71E47
:2005E4008E048F0553057F7873ECF2ED08F2E408F208F29003E8F5F012B2D9022C0B787351
:20060400EEF2EF08F2E408F208F290EA60F5F012B2D9022C0B122E35AE82AF837873EEF2FE
:20062400EF08F2E408F208F29003E8F5F012B2D9022C0B901632E0FF6004EF30E005EF248D
:20064400DB5003122C3E758202120318AF8290165AEFF0EF700C901526E07006901647E05D
:20066400701A901636E0600C901525E07006901646E07008901632E0FFBF233F7582081277
:200684002967901686E0FFBFFF028017758204122967901686E0F5821291CF75820412299C
:2006A400B78012901632E0FFBF230040051213078003120F1B7582081229B790165AE0FF54
:2006C400E0603A8F8212364D901632E4F090163174FDF0900023122E86122E35AE82AF83C2
:1C06E4007873EEF2EF08F2E408F208F29003E8F5F012B2D9122C0B78007401F249
:2007000022758201122DB1AC82AD83AEF0FF7873ECF2ED08F2EE08F2EF08F29003E8E4F5FF
:20072000F012B2D9022C0B43FE0143900175821112296774DEC0E074BCC0E012351E158176
:20074000158112B1297582041229679000011255A6129F52120402900023122E861261F2E3
:200760007582041229B7122C3E12012ED2AF12B12D901541E0901648F090164EE0FF600780
:2007800090165AEFF0800C758204120318E58290165AF090165AE0600578007401F2539068
:2007A000FE120F1B7582041229671262F07582041229B790165AE0FFE060058F8212364D47
:2007C00012B12D7800E2600B7800E2B401F212043380ED12063780E8AF82BF00028024BFA1
:2007E00001028034BF0202801DBF03028037BF0502804DBF21028054BF30028064BF310257
:2008000080652202B1347582041229671260F31262F07582040229B7758204120318E58218
:2008200090165AF0227582081229671213077582181229B790FFFF74FFF5F0122C0B80F435
:200840007582041229677582040229B7901637742DF07401A3F09016397420F07401A3F03D
:200860002290163BE4F02290163B7401F0220B0F14191A1B8582C1E58620E0FB228582C183
:20088000E58620E0FB85C1822253807F22438080225380EF22438010229000011255A6E5D3
:2008A0008020E1089000011255A680F322AE82AF83900001C007C0061255A6D006D00753EF
:2008C000C0DF5389FD43AB02538CFE43B8207D007C008E828F838DF0EC1229F0E59E20E680
:2008E000FBE580A2BDE433F5F005F07401800225E0D5F0FBF452B853ABFD22900001125579
:20090000A65380FE9000011255A6438001900000020899AF82C007120891120889D0078F1F
:200920008212087412089575820012087DAF82C00712088DD0078F8222E58124FDFFC00774
:20094000120891120889D007A88118188682C007120874120895D0077E00E58124FDF8C376
:20096000EE965017EF24FEFDFF8D018782C007C006120874D006D0070E80DF02088D538643
:200980007F75C20043C51043C5204380014380805390FD5380F953FDF943FDB943F32843CB
:2009A000FE029000010255A612088D1208FB1208FB758271120913758270120913E4C0E029
:2009C000C0E07407C0E0E4C0E07402C0E014C0E0120939E58124FAF5817421C0E0E4C0E007
:2009E000742EC0E0E4C0E07422C0E0E4C0E07425C0E0E4C0E0742FC0E0E4C0E0740AC0E0D5
:200A0000E4C0E0740FC0E0E4C0E07407C0E014C0E0120939E58124F0F581E4C0E07404C0DC
:200A2000E0120939158115819003E8120899E4C0E0C0E004C0E07441C0E0120939E581242D
:200A4000FCF581E4C0E07440C0E0120939158115819003E8120899E4C0E0C0E004C0E07462
:200A600016C0E0120939E58124FCF5817449C0E0E4C0E0740FC0E0E4C0E07402C0E0E4C02E
:200A8000E0120939E58124FAF5817478C0E0E4C0E004C0E0744DC0E0120939E58124FCF544
:200AA000817444C0E0E4C0E07454C0E0E4C0E07410C0E0E4C0E07403C0E0C0E0120939E555
:200AC0008124F8F5817437C0E0E4C0E004C0E07450C0E0120939E58124FCF5817402C0E0C6
:200AE000E4C0E07402C0E0E4C0E07402C0E07460C0E0120939E58124FAF58174FAC0E0E40E
:200B0000C0E0C0E0C0E07480C0E0E4C0E0C0E0C0E07404C0E07461C0E0120939E58124F63C
:200B2000F581741CC0E0E4C0E004C0E074E7C0E0120939E58124FCF5817422C0E0E4C0E0E2
:200B400004C0E074E3C0E0120939E58124FCF58174D0C0E0E4C0E004C0E074B4C0E01209BB
:200B600039E58124FCF5817403C0E0E4C0E004C0E074B5C0E0120939E58124FCF581740173
:200B8000C0E0E4C0E004C0E074E9C0E0120939E58124FCF5817408C0E0E4C0E004C0E07488
:200BA00030C0E0120939E58124FCF5812274C7C0E0E4C0E004C0E07450C0E0120939E581D2
:200BC00024FCF581E4C0E07402C0E01209391581158174A5C0E0E4C0E004C0E07407C0E069
:200BE000120939E58124FCF58190001E12559143900253F3D775F30075FD0043F7207580E4
:200C00000043900290000112559153FEFD22E581240BF5811254B9E4C0E07410C0E0120919
:200C2000391581158190001012B178AE82AF83900010C007C00612B178AC82AD83D006D0A6
:200C400007E58124F6F8A60408A605900010C007C00612B178AA82AB83D006D007E58124BF
:200C6000F8F8A60208A603E58124FAF876F9087600E58124FAF88602088603C374FA9AE47E
:200C80009B5003020E9F8E028F039015A4E4F0784E7410F2E408F28A828B83C007C00612A5
:200CA0006D6FD006D007E58124F6F886020886039015A4E4F0784E7410F2E408F28A828B4C
:200CC00083C007C006126D6FD006D007E58124F8F886020886039015A4E4F0784E7410F27D
:200CE000E408F28A828B83C007C006126D6FD006D0078E028F037D00C007C006C002C00323
:200D0000C005E4C0E0E58124F4F88682088683123A61E58124FCF581D006D007E58124F625
:200D2000F886030886047D00C007C006C003C004C0057401C0E0E58124F4F88682088683A6
:200D4000123A61E58124FCF581D006D007E58124F8F886020886037D00C007C006C002C01E
:200D600003C0057402C0E0E58124F4F88682088683123A61E58124FCF58112B12D120889CA
:200D8000D006D007E58124FCF8E4F608F6E58124FCF88602088603C3EA9480EB9400400336
:200DA000020E81A88118187600E58124FCF88602088605A881187600A88118B60400400345
:200DC000020E6EC006C007E58124FCF88607E58124FCF8EF2FF6E625E0F68A068D078E03D5
:200DE000EFC423CBC423541F6BCB541FCB6BCB5306078EF005F0A88118187401800225E026
:200E0000D5F0FBF6E58124F4F8EB26F582E40836F583E0FFA8811818E65FD007D006600AF0
:200E2000A8811818E64403F68038E58124F8F8EB26F582E40836F583E0FCA881E65C600A31
:200E4000A8811818E64402F68018EB2EF582E43FF583E0FCA881E65C7008A8811818E64412
:200E600001F60ABA00010DA8811806020DB8E58124FCF8A60208A605A881181886C1020D13
:200E80008DE58620E0FBC007C00612088DD006D007E58124FAF816B6FF020816020C717D1B
:200EA000008E828F838DF0122F08E58124F6F886040886057F008C828D838FF0122F08E56B
:200EC0008124F8F886020886037F008A828B838FF0122F087480C0E0E4C0E004C0E07411C2
:200EE000C0E0120939E58124FC24F5F58122120C0E12467FE4C0E0C0E004C0E07412C0E0D6
:200F0000120939E58124FCF58190C3500208AD12097E1209A8120EEE020BAD1247D578302D
:200F20007401F2E408F2783204F290000112481C75820212484C7468C0E074C5C0E0124976
:200F4000C4158115811247D5783074A0F2E408F2783204F290006812481C75820012485E2A
:200F60007477C0E074C5C0E01249C4158115811247D5783074CFF2E408F2783204F29000A9
:200F80006812481C75820112485E747FC0E074C5C0E01249C4158115811247D5783074D6EC
:200FA000F2E408F2783204F290006812481C75820212485E7481C0E074C5C0E01249C41500
:200FC0008115811247D578307402F2E408F2783204F290005612481C75820012485E90158E
:200FE000ABE0FF7E009015ACE0FD7C009015ADE0FB7A00C007C006C005C004C003C0027489
:2010000083C0E074C5C0E07427C0E07415C0E0123587E58124F6F5819015A8E0FF7E009072
:2010200015A9E0FD7C009015AAE0FB7A00C007C006C005C004C003C0027483C0E074C5C0CA
:20104000E07430C0E07415C0E0123587E58124F6F5819015A6E0FF7E009015A7E0FD7C0032
:20106000C007C006C005C0047493C0E074C5C0E07439C0E07415C0E0123587E58124F8F51F
:20108000817427C0E07415C0E0E4C0E0749DC0E074C5C0E01249C4E58124FBF58190C128CA
:2010A00012487078307404F2E408F2783204F290006612481C75820112484C75820012487B
:2010C0005E90165AE070030212001247D578307401F2E408F2783204F290002012481C75F5
:2010E000820212484C74A9C0E074C5C0E01249C41581158190C270124870783074C4F2E4A3
:2011000008F2783204F290000F12481C75820112484C75820012485E1247D578307401F296
:20112000E408F2783204F290004412481C75820112484C901654E0FF7E00901655E0FD7C9E
:2011400000901656E0FB7A00C007C006C005C004C003C0027483C0E074C5C0E07427C0E0F8
:201160007415C0E0123587E58124F6F581901651E0FF7E00901652E0FD7C00901653E0FB09
:201180007A00C007C006C005C004C003C0027483C0E074C5C0E07430C0E07415C0E0123516
:2011A00087E58124F6F58190164FE0FF7E00901650E0FD7C00C007C006C005C0047493C034
:2011C000E074C5C0E07439C0E07415C0E0123587E58124F8F58190165AE0FF7E00C007C036
:2011E000067427C0E07415C0E0E4C0E074B2C0E074C5C0E01249C4E58124F9F581021272C4
:201200001247D578307414F2E408F2783204F290002612481C75820212484C74C0C0E074ED
:20122000C5C0E01249C41581158190C270124870783074C2F2E408F2783204F290001C1266
:20124000481C75820112484C75820012485E90C3FC124870783074C6F2E408F2783204F272
:2012600090002412481C75820112484C75820112485E020F0F901636E0602C90C55012488F
:2012800070783074EAF2E408F2783204F290007612481C75820112484C75820012485E900F
:2012A00015257401F08005901525E4F090165AE0704F90C520124870783074EAF2E408F2B8
:2012C000783204F290000012481C75820112484C75820012485E90C544124870783074F2AA
:2012E000F2E408F2783204F290000812481C75820112484C75820112485E9015267401F0F2
:2013000022901526E4F022020F0FAF82AE83ADF0FC7801EFF2EE08F2ED08F2EC08F2780147
:20132000E2F5F008E242F008E242F008E245F07004758220227805E4F208F208F27480089F
:20134000F27F0078017905E3F5F0E255F0FB09E3F5F008E255F0FC09E3F5F008E255F0FD42
:2013600009E3F5F008E255F0FEEB4C4D4E70150F7808E2C313F218E213F218E213F218E2E7
:2013800013F280BF8F8222C082C083E5812406F58124F9F8E60846603DE58124F5F8C3E645
:2013A000940108E664809480402CE58124F3F8C3E6940108E664809480401BE58124F1F8DF
:2013C000E608466011E58124EFF8C3E6940108E6648094805006900001021523E58124F92F
:2013E000F8740826F582E40836F583E58124EFF8E6F008E6A3F0E58124F9F8741A26F582D4
:20140000E40836F583E58124F1F8E6F008E6A3F0E58124F9F8741226F582E40836F583E44C
:20142000F0A3F0A3F0A3F0E58124F9F8740626F582E40836F583E4F0A3F0E58124F9F8E510
:201440008124FBF9741626F7E4083609F7E58124F1F886020886038A828B83E0FCE4E5815E
:2014600024FDF8080808A60418181876000876000876008A828B83A3E0FF7E008E048F0597
:201480007F00E58124FDF8EF26F6EE0836F6ED0836F6EC0836F68A828B83A3A3E0FF7E0023
:2014A0007D008D048E058F067F00E58124FDF8EF26F6EE0836F6ED0836F6EC0836F68A827E
:2014C0008B83A3A3A3E0FAE4FBFEFFE58124FDF8EA26FAEB0836FBEE0836FEEF0836FFE577
:2014E0008124FBF88682088683EAF0EBA3F0EEA3F0EFA3F0E58124F9F88682088683E581E6
:2015000024F5F9E7F009E7A3F0E58124F9F88682088683A3A3E58124F3F8E6F008E6A3F0B9
:20152000900000E58124F8F581227812E0F2A3E008F2780B7914E2F308E209F37812E224CD
:2015400007FA08E23400C423CAC423541F6ACA541FCA6ACA30E40244E0FB7C007D00C3ECDF
:201560009AED64808BF063F08095F050157814E22CF58208E23DF58374FFF00CBC00DF0D01
:2015800080DC7C007D007812C3E2F5F0EC95F008E2F5F0ED648063F08095F0400122780995
:2015A000E2FA08E2FB8A828B83E0FEA3E0FF780974022AF2E43B08F28E048F057809E2FE3D
:2015C00008E2FF8E828F83E0FAA3E0FB780974022EF2E43F08F2EAC39CFEEB9DFF7812C359
:2015E000E2F5F0EC95F008E2F5F0ED648063F08095F0400122EE4F700122EE2CFAEF3DFB4D
:20160000C3E49A74808BF063F08095F04003021586ED30E70AEC2EFEED3FFF7C007D00EEAA
:201620002CFAEF3DFB7812C3E29A08E264808BF063F08095F0500A7812E2C39CFE08E29D49
:20164000FF8C0374075BD39408F4F5F005F0780D74FF800225E0D5F0FBF28C028E03EB2A84
:201660005407FB8BF005F07BFFE4FA3392D28008A2D2EA13FAEB13FBD5F0F5780EEBF2EEBE
:201680002CFEEF3DC423CEC423541F6ECE541FCE6ECE30E40244E0FF8C02EDC423CAC423E0
:2016A000541F6ACA541FCA6ACA30E40244E0FBEEC39AFEEF9BFF7814E22AFA08E23BFBEE6B
:2016C0004F7027C004C005780D790EE2F5F0E345F0F28A828B83E0FD780DE252058A828B72
:2016E00083EDF0D005D004021586C004C0058A048B05780F74012AF2E43B08F28C828D834E
:20170000E0FB780DE252038C828D83EBF0780FE2F50F08E2F5108E118F12D005D004C374BD
:2017200001951174808512F063F08095F0501A850F82851083E4F0A385820F8583101511CC
:2017400074FFB51102151280D5850F82851083780EE2F0021586C082C083E581240EF5811C
:2017600024F1F88682088683E58124FBF9E0F7A3E009F7E58124F1F8A98119742226F7748E
:2017800005083609F7E58124F1F8E58124FDF9742226F7E4083609F7E58124F9F8E4F608E1
:2017A000F6E58124F9F8E626FE08E633FFA88118EE26FAEF0836FBE58124FBF88604088682
:2017C000058A828B83ECF0EDA3F0E58124FDF8EE26F582EF0836F583ECF0EDA3F0E58124F9
:2017E000F9F806B600020806E58124F9F8C3E6947E08E66480948240A8E58124F9F8E6269F
:20180000FC08E633FDE58124FDF8EC26FAED0836FBA88118EC26F582ED0836F58374FFF02D
:20182000747FA3F08A828B8374FFF0747FA3F0E58124F9F8740126FCE40836FDEC2CFCEDED
:2018400033FDE58124FDF8EC26FAED0836FBA88118EC26F582ED0836F58374FFF0747FA341
:20186000F08A828B8374FFF0747FA3F0E58124F1F8741E26F582E40836F583E58124FDF8BA
:20188000E6F008E6A3F0E58124F1F8742026F582E40836F583A88118E6F008E6A3F0E581B5
:2018A00024F1F8741C26FCE40836FDE58124F1F8741A26FAE40836FB8A828B83E0FEA3E091
:2018C000FF8C828D83EEF0EFA3F0E58124F1F8E58124F3F9741626F7E4083609F78A828B42
:2018E00083E0FAA3E0FB8A828B83E0FCE4E58124F5F8080808A604181818760008760008B6
:2019000076008A828B83A3E0FF7E008E048F057F00E58124F5F8EF26F6EE0836F6ED0836C3
:20192000F6EC0836F68A828B83A3A3E0FF7E007D008D048E058F067F00E58124F5F8EF2693
:20194000F6EE0836F6ED0836F6EC0836F68A828B83A3A3A3E0FAE4FBFEFFE58124F5F8EA14
:2019600026FAEB0836FBEE0836FEEF0836FFE58124F3F88682088683EAF0EBA3F0EEA3F066
:20198000EFA3F0E58124F1F8741226F582E40836F583E4F0A3F0A3F0A3F0E58124F1F87421
:2019A0000A26FEE40836FFE58124F1F88682088683E0FCA3E0FD3395E0FB8C828D838BF0B4
:2019C000C007C00612130AAD82D006D0077C007420C39DFDE49CFC8E828F83EDF0ECA3F008
:2019E000E58124F0F58122C082C083E581243AF58124DBF8E4F608F6E58124CDF8E4F60816
:201A0000F6E58124C5F8741E26F582E40836F583E58124C7F8E0F6A3E008F6E58124C5F8D9
:201A2000742026F582E40836F583E0FEA3E0FFE58124E7F8A60608A607E58124C9F8A606BA
:201A400008A607E58124C5F8E58124CBF9741626F7E4083609F7E58124CBF886820886830D
:201A6000E58124EFF9E0F7A3E009F7A3E009F7A3E009F7E58124C5F8E58124CFF97412264F
:201A8000F7E4083609F7E58124CFF88682088683E58124D1F9E0F7A3E009F7A3E009F7A3EF
:201AA000E009F7E58124C5F8E58124D5F9741C26F7E4083609F7E58124D5F8868208868368
:201AC000E58124F7F9E0F7A3E009F7E58124C5F8740A26F582E40836F583E0FAA3E0FBE5F9
:201AE0008124FDF8A60208A603EB3395E008F608F6E58124FDF886F005F07E017F008006F6
:201B0000EE2EFEEF33FFD5F0F71EBEFF011FE58124F9F8A60608A6077AFF7BFFE58124C5B5
:201B2000F88682088683E58124E9F9E0F7A3E009F7E58124E9F8C3EA96EB64800886F06370
:201B4000F08095F040030226B2E58124D1F8C3741896E40896E40896E408964003021C58FC
:201B6000E58124D1F8860408E6C423CCC423541F6CCC541FCC6CCCFD08E6C42354E04DFD8E
:201B8000860608E6C423CEC423541F6ECE541FCE6ECEE58124F7F8EC26F6ED0836F6E581FB
:201BA00024D1F8E65407F6087600087600087600E58124F7F88682088683E0FFE4E58124A8
:201BC000D7F8080808A6071818187600087600087600E58124F7F88682088683A3E0FF7E25
:201BE000008E048F057F00E58124D7F8EF26F6EE0836F6ED0836F6EC0836F6E58124F7F800
:201C00008682088683A3A3E0FF7E007D008D048E058F067F00E58124D7F8EF26F6EE0836C3
:201C2000F6ED0836F6EC0836F6E58124F7F88682088683A3A3A3E0FCE4FDFEFFE58124D7D7
:201C4000F8E58124EFF9EC26F7ED083609F7EE083609F7EF083609F7E58124D1F886F005BF
:201C6000F0E58124EFF88604088605088606088607800CEC2CFCED33FDEE33FEEF33FFD5EB
:201C8000F0F1EF30E74CE58124C9F88682088683E0FEA3E0FFA318A68208A6838E028F0317
:201CA000E58124D1F806B6000C0806B600070806B6000208068A068B07E58124C7F88682F7
:201CC000088683EEF0EFA3F0A318A68208A683021B31E58124D1F886077418C39FFF8FF0E5
:201CE00005F0E58124EFF88604088605088606088607800DC3EF13FFEE13FEED13FDEC13EC
:201D0000FCD5F0F0E58124D7F874FE5CF6087600087600087600E58124D7F8E624CDF582D4
:201D200008E634C5F583E493FFE58124EBF8A607E58124D7F8740126FCE40836FDE4083683
:201D4000E40836EC24CDF582ED34C5F583E493FFE4FEFDFCE58124D1F8EF26F6EE0836F6DE
:201D6000ED0836F6EC0836F6E58124EBF8B60102804EE58124EBF8B602028044E58124EBCE
:201D8000F8B60302803AE58124EBF8B61103021E78E58124EBF8B61203021E78E58124EBC2
:201DA000F8B61303021E78E58124EBF8B62003021F5AE58124EBF8B6300302267202269C52
:201DC000E58124C9F88682088683E0FEA3E0FFE58124EBF886047D00EEC39CFAEF9DFB8A73
:201DE000068B07E58124C7F88682088683EEF0EFA3F0A318A68208A683E58124C9F8E581C4
:201E000024E7F986F0E7B5F00A0886F009E7B5F0028002800DE58124C9F8740426F6E408C3
:201E200036F6E58124C9F8E624FEF608E634FFF6E58124C9F886060886078E828F83E58122
:201E400024D7F8E0F6A3E008F68A048B05E58124D7F8C3EC96ED64800886F063F08095F0D5
:201E60005003021B3174042EFEE43FFFE58124C9F8A60608A60780C2E58124C9F8868208B2
:201E80008683E0FEA3E0FFA318A68208A683E58124E5F8A60608A607E58124EBF8860453B3
:201EA00004077D00EC2EFAED3FFBE58124E5F8E58124E9F986F0E7B5F00A0886F009E7B55D
:201EC000F002805AE58124E9F8C3EA96EB64800886F063F08095F05045E58124C9F8860677
:201EE0000886078E828F83E58124D7F8E0F6A3E008F68A048B05E58124D7F8C3EC96ED646E
:201F0000800886F063F08095F0400974042EFEE43FFF80CFE58124C9F8A60608A607E581FB
:201F200024E9F8C3E69A08E664808BF063F08095F0500AE58124E9F886020886038A068BBB
:201F400007E58124C7F88682088683EEF0EFA3F0A318A68208A683021B31E58124D1F8C340
:201F6000741096E40896E40896E408964003022069E58124D1F8860408E6C423CCC423543A
:201F80001F6CCC541FCC6CCCFD08E6C42354E04DFD860608E6C423CEC423541F6ECE541FEB
:201FA000CE6ECEE58124F7F8EC26F6ED0836F6E58124D1F8E65407F6087600087600087671
:201FC00000E58124F7F88682088683E0FFE4E58124D7F8080808A607181818760008760052
:201FE000087600E58124F7F88682088683A3E0FF7E008E048F057F00E58124D7F8EF26F6C8
:20200000EE0836F6ED0836F6EC0836F6E58124F7F88682088683A3A3E0FF7E007D008D041A
:202020008E058F067F00E58124D7F8EF26F6EE0836F6ED0836F6EC0836F6E58124F7F88633
:2020400082088683A3A3A3E0FCE4FDFEFFE58124D7F8E58124EFF9EC26F7ED083609F7EE5D
:20206000083609F7EF083609F78A06EBFF30E7047E007F00C006C007E58124CFF886077484
:202080001EC39FFF8FF005F0E58124EDF88604088605088606088607800DC3EF13FFEE1346
:2020A000FEED13FDEC13FCD5F0F074035CFCE4FDFBFAE58124CFF8740226F6E40836F6E4F1
:2020C0000836F6E40836F6C374039CE49DE49BE49AD007D00650030225BBEC2C2C9020E1A9
:2020E000730220ED0221AE02229B022388C006C007E58124CFF88605741DC39DFD8DF00548
:20210000F0E58124EDF88604088605088606088607800DC3EF13FFEE13FEED13FDEC13FCD2
:20212000D5F0F0E58124D9F874075CF6087600E58124CFF8E58124D5F9740326F7E40836E5
:2021400009F7E4083609F7E4083609F7E58124D5F88607741DC39FFF8FF005F0E58124ED7A
:20216000F88607088606088605088604800DC3EC13FCED13FDEE13FEEF13FFD5F0F0E581BE
:2021800024CBF874075FF6087600E58124D5F8E58124CFF9740326F7E4083609F7E4083689
:2021A00009F7E4083609F7D007D0060225BBC006C007E58124CFF88605741DC39DFD8DF09A
:2021C00005F0E58124EDF88604088605088606088607800DC3EF13FFEE13FEED13FDEC1309
:2021E000FCD5F0F0E58124D9F874075CF6087600E58124CFF8E58124D5F9740326F7E4085F
:202200003609F7E4083609F7E4083609F7E58124FBF886077420C39FFFE58124D5F8860464
:20222000EFC39CFF8FF005F0E58124EDF88607088606088605088604800DC3EC13FCED13DD
:20224000FDEE13FEEF13FFD5F0F0E58124F7F88604088605E58124CBF8EC5FF6ED5E08F65F
:20226000E58124D5F8E58124FBF9E726C0E009E70836C0E009E70836C0E009E70836C0E072
:20228000E58124CEF8D0E0F618D0E0F618D0E0F618D0E0F6D007D0060225BBC006C007E50D
:2022A0008124FBF886057420C39DFDE58124CFF88604EDC39CFD8DF005F0E58124EDF8867F
:2022C00004088605088606088607800DC3EF13FFEE13FEED13FDEC13FCD5F0F0E58124F7C0
:2022E000F88606088607E58124D9F8EE5CF6EF5D08F6E58124CFF8E58124FBF9E726C0E064
:2023000009E70836C0E009E70836C0E009E70836C0E0E58124F0F8D0E0F618D0E0F618D095
:20232000E0F618D0E0F6E58124F1F88607741DC39FFF8FF005F0E58124EDF8860708860613
:20234000088605088604800DC3EC13FCED13FDEE13FEEF13FFD5F0F0E58124CBF874075F34
:20236000F6087600E58124F1F8E58124CFF9740326F7E4083609F7E4083609F7E408360921
:20238000F7D007D0060225BBC006C007E58124FBF8E58124D5F9E6F7E58124D5F87420C3CA
:2023A00096FCE58124CFF88607ECC39FFC8CF005F0E58124EDF88604088605088606088644
:2023C00007800DC3EF13FFEE13FEED13FDEC13FCD5F0F0E58124F7F88602088603E58124DD
:2023E000D9F8EA5CF6EB5D08F6E58124CFF8E58124FBF9E726C0E009E70836C0E009E70848
:2024000036C0E009E70836C0E0E58124DAF8D0E0F618D0E0F618D0E0F618D0E0F6E5812452
:20242000DBF8C3741096E40896E40896E40896D007D0064003022538C006C007E58124DB25
:20244000F8860408E6C423CCC423541F6CCC541FCC6CCCFD08E6C42354E04DFD860608E686
:20246000C423CEC423541F6ECE541FCE6ECEE58124F5F8EC26F6ED0836F6E58124DBF8E6B1
:202480005407F6087600087600087600E58124F5F88682088683E0FFE4E58124DFF80808AD
:2024A00008A6071818187600087600087600E58124F5F88682088683A3E0FF7E008E048FFC
:2024C000057F00E58124DFF8EF26F6EE0836F6ED0836F6EC0836F6E58124F5F8868208869C
:2024E00083A3A3E0FF7E007D008D048E058F067F00E58124DFF8EF26F6EE0836F6ED083648
:20250000F6EC0836F6E58124F5F88682088683A3A3A3E0FCE4FDFEFFE58124DFF8E5812487
:20252000EDF9EC26F7ED083609F7EE083609F7EF083609F7D007D006C006C007E58124D58F
:20254000F87420C396FDE58124DBF88604EDC39CFD8DF005F0E58124EDF886040886050863
:202560008606088607800DC3EF13FFEE13FEED13FDEC13FCD5F0F0E58124CBF8EA5CF6EBC9
:202580005D08F6E58124DBF8E58124FBF9E726C0E009E70836C0E009E70836C0E009E708C4
:2025A00036C0E0E58124CEF8D0E0F618D0E0F618D0E0F618D0E0F6D007D006E58124DBF80B
:2025C000E62EFE08E63FFF8E048F05E58124C7F88682088683ECF0EDA3F0E58124C7F8741C
:2025E0000226FCE40836FDE58124CDF8E62EFA08E63FFBE58124E9F8C3EA96EB6480088608
:20260000F063F08095F0504DE58124C9F88606088607C004C0058E828F83E58124DFF8E07D
:20262000F6A3E008F68A048B05E58124DFF8C3EC96ED64800886F063F08095F0D005D0040F
:20264000400974042EFEE43FFF80C7E58124C9F8A60608A6078A068B078C828D83EEF0EF6B
:20266000A3F0E58124C7F874022CF6E43D08F6021B31E58124C9F8740226FEE40836FF8EE5
:20268000828F83E0FCA3E0FDE58124C9F874022EF6E43F08F68C028D03021B31E58124C589
:2026A000F88682088683A3A3A3A37402F0E4A3F0802AE58124E9F88606088607E58124C719
:2026C000F88682088683EEF0EFA3F0E58124C7F88682088683A3A3EEF0EFA3F0E58124CB2C
:2026E000F88682088683E58124EFF9E7F009E7A3F009E7A3F009E7A3F0E58124CFF886829E
:20270000088683E58124D1F9E7F009E7A3F009E7A3F009E7A3F0E58124D5F8868208868384
:20272000E58124F7F9E7F009E7A3F0E58124C5F88682088683A3A3A3A3E0FEA3E0FF8E8269
:202740008F83E58124C4F58122C082C08305810581E58124FDF8E60846600AE58124F9F858
:20276000E60846700690000102294FE58124FDF8740626FCE40836FD8C828D83E0FAA3E0EF
:20278000FBE58124FDF88682088683A3A3E0FEA3E0FFC3EA9EEB64808FF063F08095F040CF
:2027A0000690000502294FE58124FDF88682088683A3A3A3A3E4F0A3F08C828D83E0FCA3DC
:2027C000E04C700DE58124FDF88682088683121756E58124FDF8741A26F582E40836F583F5
:2027E000E0FCA3E0FDE58124FDF8740826F582E40836F583E0FAA3E0FBEA2CFCEB3DFDE5D7
:202800008124FDF8741C26F582E40836F583E0FAA3E0FBC3EA9CEB9D401AE58124FDF886CF
:2028200082088683A3A3A3A37402F0E4A3F090000202294FE58124FDF886820886831219CD
:20284000E7AC82AD838C028D03EC4D6003022925E58124FDF8741E26F582E40836F5837869
:2028600009E0F2A3E008F2E58124F9F8790BE6F308E609F3E58124FDF8868208868312157F
:202880002AE58124FDF8742026FCE40836FD8C828D83E0FBA3E0FAE58124FDF8A98119740E
:2028A0001E26F7E4083609F7A881188682088683E0FEA3E0FF8C828D83EEF0EFA3F0A8815A
:2028C000188682088683EBF0EAA3F0E58124FDF8740626FEE40836FF8E828F83E0FCA3E0B0
:2028E000FD0CBC00010D8E828F83ECF0EDA3F0E58124FDF88682088683A3A3E0FEA3E0FF49
:20290000C3EC9EED64808FF063F08095F04029E58124FDF88682088683A3A3A3A37405F0CC
:20292000E4A3F08013E58124FDF88682088683A3A3A3A3EAF0EBA3F0E58124FDF886820882
:202940008683A3A3A3A3E0FEA3E0FF8E828F83E58124FCF5812275C6C0E59E30E6FB53C69A
:20296000BFE59E20E6FB22E582FF30E019C0071229569062707404F0126944122EA9E58232
:20298000D007901631F0EF30E407C007126097D007EF30E20D758201C0071258611258885E
:2029A000D007EF30E60AC00712384712360CD00790163CE04FF022AF8290163CE05207EF50
:2029C00030E407C0071260A4D007EF30E607C007123625D007EF30E20DC0071258067582D5
:2029E00000125861D007EFF4FF90163CE05FF022AF82AE83ADF0FC901542EFF0EEA3F0EDF1
:202A0000A3F0ECA3F0AC957D007E007F00A89679007A008A0389028801E42CF8E93DF9EA06
:202A20003EFAEB3FFBAC978D078C06E428FCED39FDEE3AFEEF3BFF901542E0F8A3E0F9A378
:202A4000E0FAA3E0C42354E0CAC423CA6ACA54E0CA6AFBE9C423541F4AFAE9C42354E0C899
:202A6000C423C868C854E0C868F9E82CFCE93DFDEA3EFEEB3FFF8E978D968C95D2AFD2AD2F
:032A800043BE064C
:202A86007587010022AF8285951375140075150075160085960F751000751100751200AEAB
:202AA60011AD10AC0FE42513F513EC3514F514ED3515F515EE3516F516AB977C008C068BC5
:202AC600057B007816EB2513F2EC351408F2ED351508F2EE351608F28F02EEC42354E0CAD6
:202AE600C423CA6ACA54E0CA6AFE3395E0FDFC7816E22AFA08E23EFE08E23DFD08E23CFCE4
:0D2B06008D978E968A95D2AFD2AD43BE0555
:202B16007587010022AF82AE83ADF0FC901546EFF0EEA3F0EDA3F0ECA3F0901546E0FCA3D1
:202B3600E0FDA3E0FEA3E0FF901546E0F5F0A3E042F0A3E042F0A3E045F07003022C00C369
:202B560074EE9C74029DE49EE49F502590163BE0601F90165AE06019439001900001E4F5FD
:202B7600F01229F05390FE7CEE7D027E007F0080087CFF7DFF7E077F00901546E0F8A3E094
:202B9600F9A3E0FAA3E0FBC3EC98ED99EE9AEF9B50408C828D838EF0EFC007C006C005C01F
:202BB60004C003C002C001C0001229F0D000D001D002D003D004D005D006D007901546E85B
:202BD600C39CF0E99DA3F0EA9EA3F0EB9FA3F0022B30888289838AF0EB1229F0901546E46D
:202BF600F0A3F0A3F0A3F0022B30E59E20E6FB758210022967AF82AE83ADF0FC90154AEFC3
:202C1600F0EEA3F0EDA3F0ECA3F090154AE0FCA3E0FDA3E0FEA3E08C828D838EF0022B1BFB
:202C360053C07F3253C0DF329000141255917F007E047D04BD1F0050678D04EC2C906264E6
:202C5600F0900064C007C006C005125591D005D006D007906264E020E62B906264E0FC53C2
:202C760004407B008E017A00C004C003C001C002744DC0E074C6C0E012351EE58124FAF553
:202C9600818E07801B906264E043E001F0900064C007C005125591D005D0070D8D0680944B
:202CB600906264E043E001F0BF13005003022D89EF24E15003022D89EF24EDFF240A83F533
:202CD60082EF241083F583E473F704111E2A36414D5965717D2C2D2D2D2D2D2D2D2D2D2D35
:202CF6002D90163474FCF07408A3F0022D93901634742EF07409A3F0022D9390163474609A
:202D1600F07409A3F0022D939016347492F07409A3F0806990163474C4F07409A3F0805D23
:202D360090163474F6F0F4A3F080529016347428F0740AA3F08046901634748CF0740AA3C8
:202D5600F0803A90163474F0F0740AA3F0802E9016347486F0740BA3F08022901634741CE4
:202D7600F0740CA3F080169016347480F0740CA3F0800A90163474B9F0740BA3F090163466
:202D9600E0FEA3E0FFC3EE94F0EF940A50079016367401F022901636E4F022E58260109008
:202DB6001632E0FFBFFF005006901632EF04F0901632E0FFBF18005007900E10E4F5F02289
:202DD600BF24005007901C20E4F5F02290518075F001E42290162EE0786DF2E408F2900224
:202DF6003512B109781A740AF2E408F2122EBDAE82AF8374232EFEE43FFF90162DE054078A
:202E16007D0025E0FCED33FDEC241DF582ED3416F583EEF0EFA3F090162DE02401F0227EE6
:202E3600007F007D00BD0800501DED75F002A4241DF582741635F0F583E0FBA3E0FCEB2E04
:202E5600FEEC3FFF0D80DEEFC423CEC423541F6ECE541FCE6ECEFF90164CE0FCA3E0FDC302
:202E7600EE9CEF9D50058C828D83228E828F8322AE82AF837D00BD08005017ED75F002A44A
:202E9600241DF582741635F0F583EEF0EFA3F00D80E422E59DFF70047582FC22BF02047506
:202EB60082FE227582FE22AE82AF837C007D007B10EF235401FAEE2EFEEF33FFEC2CFCEDC0
:202ED60033FDEA6003430401781AC3E2F5F0EC95F008E2F5F0ED95F04011781AD3E29CF421
:202EF600B3FCB308E29DF4FD430601DBC48E828F8322AD82AE83AFF0ED4E7001227B007CF1
:202F16000090161AE0F513A3E0F514750F1A751016E513451460398D118E12C3E5139511A5
:202F3600E5149512502AC005C006C007AB13AC1474022513FAE43514FF8A0F8F108A828FEA
:202F560083E0F513A3E0F514D007D006D00580C1781CE513F2E51408F2ED24FEFDEE34FF03
:202F7600FE74022DFAE43EFF8A828F83781CE2F008E2A3F0850F82851083EDF0EEA3F08D65
:202F9600828E83E0F513A3E0F514781CE2B5130708E2B5140280028039C003C0048513823E
:202FB600851483A3A3E0FBA3E0FC8A828F83EBF0ECA3F08D828E83E0FBA3E0FC8B828C8331
:202FD600E0FBA3E0FC8D828E83EBF0ECA3F0D004D003EB4C604BC002C0078B828C83E0FAFF
:202FF600A3E0FFEAB50506EFB506028005D007D00222D007D0028D828E83E0FDA3E0FE8BE1
:20301600828C83EDF0EEA3F074022BFBE43CFC8A828F83E0FAA3E0FF8B828C83EAF0EFA3F1
:20303600F022AE82AF837461C0E074C6C0E012351E158115817D00BD1000501C8D037C0064
:20305600C003C004746AC0E074C6C0E012351EE58124FCF5810D80DF7470C0E074C6C0E050
:2030760012351E158115817D00BD10005012747AC0E074C6C0E012351E158115810D80E98E
:203096007C007D00E58124FDF8C3EC96ED089650488C028D03EA540F60028015C004C0054F
:2030B600747EC0E074C6C0E012351EE58124FCF581EC2EF582ED3FF583E0FB7A00C003C020
:2030D600027489C0E074C6C0E012351EE58124FCF5810CBC00AE0D80AB7470C0E074C6C0D4
:0A30F600E012351E158115817F00E0
:20310000BF10005012747AC0E074C6C0E012351E158115810F80E9748FC0E074C6C0E0127E
:20312000351E1581158122C007C083C082858107C004C003C002C001C00074F42581F8863F
:203140008318868218860018E493A36014B4250C7C007A00E493A36008B42516123459801D
:20316000E7D000D001D002D003D004D082D083D00722B4630518E61880E2FB4420B46D4359
:20318000EB542003F9C083C0821233C37C08C083C082EC142582F582E5833400F583E0FA32
:2031A000C47B02540F2990348893123459EADBF3D082D083DC06D082D083808C743A1234E0
:2031C0005980CBEBB42A09BA009274014CFC8084B43007BA0004740680F2FB24D050122462
:2031E000F6400E240AFB740A8AF0A42BFA740480DBBB6C0DEC54086004741080CF7408801F
:20320000CBBB7343EC5408C083C08270051233E18007C2D5C2D11233C3EC5404700A12334E
:20322000CA609312345980F6BA000280891233CA600B123459DAF60231B602331374201237
:203240003459DAF90231B6EB4420B478EDC083C08212340BC083C082E5F023F90324FF2526
:2032600082F582E5833400F5831233FE54F07013191233FE700D191582E582B4FF021583FA
:20328000D5F0E6B9000109EC5420600B09EC54026005742D123459EC54046018EAC39940C3
:2032A000136011FAEC5402C4032420F582E582123459DAF9EC5420600B19EC5402700574E4
:2032C0002D123459EB542003FAD082D083E904C313FC142582F582E5833400F583E95401DE
:2032E00060071233FE790180071233FE7902FBC4540F2AC083C08290348893D082D08312FE
:203300003459EBD9EB1582E582B4FF021583DCD90231B6BB640674204CFC8008BB7502804D
:2033200003023148C083C08212340BC0F07408C395F0244EF9E43415FB1233FEA312344EB8
:20334000F0A312344ED5F0F112344EF5F0EC54206028E5F054807006EC54DFFC801CD0F099
:20336000C0F07408C395F0244EF582E43415F583C3E0F9E499F0A3D5F0F775F00AE4F0A3FD
:20338000D5F0FBD0E0C403FB90155675F00AE0F9540F24FBE950022403F954F024B0E9508A
:2033A000022430F0A3D5F0E690154EC375F012E033F0A3D5F0F9DBD090155675F00AC2D53C
:2033C0000232548683188682182220D50620D107E0A322E493A3228883A882E6A883058261
:2033E00022C2D5C2D1E61860DA6480600D64C0600585938380CFD2D180CBD2D580C530D5A6
:2034000008C000A882E6D00022E022EC54017021D2D575F000EC5418600E54106006D2F2AE
:2034200018181818D2F11818D2F01888821805F022C2D5EC541860105410600675F008028E
:2034400033C375F0040233C375F0020233C3C583CBC583C582C9C58222C083C082C001C0DC
:20346000008F00868218868318181818860118860012347DD000D001D082D08322C082C0E2
:20348000838500828501832230313233343536373839414243444546303132333435363739
:2034A0003839616263646566C007C006C005C004C001C000AC82AD83AEF0FFBF0A2A7582CA
:2034C0000DC007C006C005C004C003C002C001C000C0211260ABD021D000D001D002D0038E
:2034E000D004D005D006D0078F82C007C006C005C004C003C002C001C000C0211260ABD07B
:2035000021D000D001D002D003D004D005D006D007D000D001D004D005D006D00722C0070E
:20352000C001C000E58124FAFFC007E58124F9F8E6C0E008E6C0E0E4C0E0C0E09034A8128F
:203540003127E58124FBF581D000D001D00722C007C006C005C004C003C001AC82FF8C012A
:203560008F0487060987071974012EFBE43FFDA70309A7058E828F83ECF0D001D003D004E8
:20358000D005D006D00722C007C006C005C001C000E58124F6FFE58124F8FE7D00C007E58C
:2035A0008124F5F8E6C0E008E6C0E0C006C00590354F123127E58124FBF58124F8F8868245
:2035C000088683E4F0D000D001D005D006D00722C082C083AF811F7E00E58124FAF8E6C04D
:2035E000E0E58124FAF8E6C0E008E6C0E0C007C00690354F123127E58124FBF581A8811814
:203600008682088683E4F01581158122901560E0FF20E71075E1ED75E1ED75E1E3901560B0
:2036200074804FF022901560E0FF30E71075E1EF75E1ED75E1ED901560747F5FF022AE82C6
:20364000AF83906172EEF0906173EFF022AF82BF0B004005EF24E5500122C007123625D0E3
:2036600007EF24F575F005A490618F240BF002360C75E1ED75E1ED22AE82AF83906193E0DC
:2036800020E6047582FF22E5D9FD248050197491C0E074C6C0E012351E1581158175E1EDED
:2036A00075E1ED75820022ED24FB4019749FC0E074C6C0E012351E1581158175E1ED75E192
:2036C000ED758200221D1D78417403F2758203C007C006C005126A5FD005D006D0078E034E
:2036E0008F048C03901592EBF0901593EEF08D067F008F06901594EE541FF5F0E054E04501
:20370000F0F0901595EDF053D1F743D60843D708740855D1FFBF08F8E5D924B7901561F065
:20372000E5D930E708901562740AF0800475820022906193E054C0FFBF400C90619BE0703C
:203740000675E1ED75E1ED8D8222AE82AF83906193E020E1F9901560E020E70BC007C00668
:2037600012360CD006D00775E1EE75E1EE78417402F2758202C007C006126A5FD006D00791
:203780008E048F058D04901588ECF08E05901589EDF08E828F83E0FD7C000DBD00010C8CED
:2037A0000590158CED541FF5F0E054E045F0F08E828F83E0FE0E90158DEEF053D1FB43D6FF
:2037C0000443D704740455D1FFBF04F8906193E020E41074AEC0E074C6C0E012351E158160
:2037E000158122906193E030E51074B9C0E074C6C0E012351E158115812275E1E97F0090E0
:203800006193E020E112BF0300500D0F90003CC007125591D00780E7906193E020E11675DA
:20382000E1EE75E1EE74C9C0E074C6C0E012351E1581158122906193E020E1F922E58260C4
:203840000302360C023625901560E030E0237F00BF0800501BEF246AFDE43461FEEF24A651
:20386000F582E43415F583E08D828E83F00F80E02278417403F2758203126A5F75E1E37506
:2038800091007F00BF0800501BEF246AFDE43461FEEF24A6F582E43415F583E08D828E8320
:2038A000F00F80E0906170E0906174F0906171E0906175F09061AB743FF09061AC7455F0E6
:2038C00090619674F8F09061FA7409F09061B27415F09061AEE4F09061897440F09061808F
:2038E000E043E001F0906182E4F075E1ED75E1ED906194747FF090619074D5F0901560E000
:2039000043E001F090444712363E90165AE0F58202364DAF83E5827824F2EF08F27822E28A
:20392000FC08E2C313CC13CCFD7826E4F208F27826C3E29C08E29D5062C004C005782479FF
:2039400026E3C5F0E225F0FC09E3C5F008E235F0FD8C828D83E0FA78227926E3F5F0C3E26B
:2039600095F0FE09E3F5F008E295F0FF1EBEFF011F7824E22EFE08E23FFF8E828F83E08C2A
:20398000828D83F08E828F83EAF07826E22401F208E23400F2D005D004809422AF83E5828A
:2039A000782AF2EF08F27828E2FC08E2C313CC13CCFD782CE4F208F2782CC3E29C08E29DC4
:2039C0005069C004C005782A792CE3C5F0E225F0FC09E3C5F008E235F0FD8C828D83E0FA2E
:2039E0007828792CE3F5F0C3E295F0FE09E3F5F008E295F0FF1EBEFF011F782AE22EFE08A0
:203A0000E23FFF8E828F83E0FB6303FF8C828D83EBF074FF6A8E828F83F0782CE22401F29F
:203A200008E23400F2D005D004808D22AE82AF837D008D037C00782EC3E2F5F0EB95F0080B
:203A4000E2F5F0EC95F05018ED2EFBE43FFC8B828C83E0FA6302FF8B828C83EAF00D80D2E2
:203A600022C082C083E581243FF58124EAF9E58124D3F8740629F6E58124DDF8740A29F66F
:203A8000E58124C0F8C001E58124D6F9E6F708E6C454F0C7C4C767C754F0C76709F7D00134
:203AA000E58124DDF8C001E58124E8F9E6F7D001E58124D7F8C001E58124C1F9E6F708E6A4
:203AC00009F7D001E58124BDF8C001E58124C3F9E4B6010104F7D001E58124DDF8C001E562
:203AE0008124C4F9E6F7D001E58124D7F8C001E58124C5F9E6F708E609F7D001E58124DD51
:203B0000F8C001E58124C7F9E6F7D001E58124D7F8C001E58124C8F9E6F708E609F7D001F3
:203B2000E58124BDF8C001E58124CAF9E4B6020104F7D001E58124CCF8740F29F6E5812455
:203B4000CDF8740529F6E58124CEF8740E29F6E58124CFF8740229F6E58124CEF8C001E53B
:203B60008124CFF9E6F7D001E58124D1F8740429F6E58124CFF8C001E58124D1F9E6F7D02D
:203B800001E58124FAF8760090163DE0FEE58124FAF8C3E69E400302467889057C007B40E6
:203BA000E58124FAF8E675F010A4FEAFF07820E22EFE08E23FFF7833EEF2EF08F2E408F2CD
:203BC00078367410F2E408F28D828C838BF0C0011255CBD001E58124D3F886008607E581B8
:203BE00024BDF8E6B507028003024091740729F8E67003023E0DE58124D2F8860086060842
:203C0000860718E58124C0F8C3E69E08E69F500302466FE58124D0F8860086058D027C0071
:203C20008A82ECC40354F8C582C403C5826582C58254F8C5826582F583E58124D1F886002B
:203C40008604786DECF2E408F2C007C006C005C00112B109AB82AC83D001D005D006D007AB
:203C6000E58124DBF8A60608A607E58124DBF8EB26F6EC0836F6E58124C0F88602088604A6
:203C8000E58124DBF8C3EA96EC0896400302466FE58124C0F8E6C39EF58208E69FF5837883
:203CA0001AEDF2E408F2C001122EBDC8E58124FAC8A68208A683D001E58124D4F874082936
:203CC000F6C001E58124CCF98700D001C000E58124FCF87600D0008602C000E58124CFF869
:203CE000860086048AF0ECA4FAAFF0E58124FCF8C001E58124D7F9E6F7097700D001E581E4
:203D000024D8F8C3E69A08E664808FF063F08095F0D000400302466FC000E58124D3F8865E
:203D200000860608860718E58124FAF88602088603E58124DEF8A602EBC423C6C423541FBB
:203D400066C6541FC666C608F6E58124D0F886008605E58124FCF88CF0E6848DF0A4FCAD43
:203D6000F0E58124DEF8EC26FCED0836FDD000EC2EF582ED3FF583E0FF5302077B008AF088
:203D800005F07A80E43392D28008A2D2EB13FBEA13FAD5F0F57E00EF5202EE5203EA4B607A
:203DA0005F870609870719C000E58124D8F88604088605EC2EFEED3F8E04C423CCC423546C
:203DC0001F6CCC541FCC6CCCFDE58124B9F8EC26FCED0836FD088603D0008C828D838BF0AD
:203DE00012B7B9FA5306078EF005F07401800225E0D5F0FB42028C828D838BF0EA129F6ED2
:203E0000C000E58124FCF806D000023CD7E58124CFF88600860608860718E58124C0F8C364
:203E2000E69E08E69F500302466FE58124CDF886008605E58124CEF8860086048DF0ECA49A
:203E4000FAABF0E58124DBF8A60608A607E58124DBF8C001E58124DEF9EA26F7EB08360957
:203E6000F7D001E58124C0F88602088603E58124DFF8C3EA96EB0896400302466F8DF0EC8F
:203E8000A4FD1DE58124C0F8E6C39EFCEDC39CFDE58124FBF8A605E58124DEF8740829F673
:203EA000C001E58124D0F98700D001C000E58124FBF8E4F608F6D00086038B027F008A8210
:203EC000EFC40354F8C582C403C5826582C58254F8C5826582F583C000E58124CDF8C0019B
:203EE000E58124DDF98600E6F7D001E58124DEF8C001796DE6F3E409F3D001D000C003C04A
:203F000001C00012B109AA82AF83D000D001D003C000E58124FBF8C001E58124D9F9E6F70B
:203F200008E609F7D001E58124DAF8C3E69A08E69FD000400302466FC000E58124DDF88627
:203F400000860208860718E58124DAF8C001E58124D7F9E6F708E6C423C7C423541F67C7B4
:203F6000541FC767C709F7D001E58124DEF8C001791AE6F3E409F3D001E58124D8F8868268
:203F8000088683D000C007C003C002C001C000122EBDAC82AD83D000D001D002D003D007FB
:203FA000C000E58124FAF8C001E58124DDF987F0E684D001F5F0EBA4AEF02CFCEE3DFDECA4
:203FC0002AF582ED3FF583E0FFE58124DEF8C001791AE6F3E409F3D001E58124FBF88682FA
:203FE000088683D000C007C001C000122EBDAD82D000D001D0075305077E008DF005F07D28
:2040000080E43392D28008A2D2EE13FEED13FDD5F0F57C00EF5205EC5206ED4E6061870664
:2040200009870719EFC423CEC423541F6ECE541FCE6ECEFFC000E58124D8F8EE26FEEF08F7
:2040400036FFE58124B9F8EE26FEEF0836FF0886058E828F838DF012B7B9FCE58124DAF8A6
:20406000740756FAD0008AF005F07401800225E0D5F0FB42048E828F838DF0EC129F6EC0CA
:2040800000E58124FBF806B600020806D000023EB8E58124CCF88600E6FF700302466FBF6D
:2040A000020280030245B1E58124BDF8E66003024256E58124DDF8860086030886040886D1
:2040C0000508860618181874162BFFE43CFCE43DFDE43EFEE58124D7F8C001E58124E4F970
:2040E000E6F708E609F7097700097700D001E58124E5F8E62FFB08E63CFC08E63DFD08E671
:204100003EFEE58124FBF874A02BF6740F3C08F6E43D08F6E43E08F6900010C00112B17819
:20412000AA82AE83D001A88118A60208A606A881188605088606C0017410C0E0E4C0E0C02B
:2041400005C006E58124F6F886820886830886F008E61256A0E58124FCF581D001E5812438
:20416000DDF88600860308860408860508860618181874162BFBE43CFCE43DFDE43EFEE56B
:204180008124E5F8E62BFB08E63CFC08E63DFD08E63EFFE58124BAF8C001E58124E4F9E6CE
:2041A000F708E609F7D001E58124E5F88602088606C0017410C0E0E4C0E0C002C0068B82C8
:2041C0008C838DF0EF1256A0E58124FCF581D001782E7410F2E408F2A8811886820886833B
:2041E000C001123A2CD0017F00BF10005035E58124BAF8EF26FCE40836FD0886068C828D47
:20420000838EF012B7B9FBA88118EF26F582E40836F583E052038C828D838EF0EB129F6EDE
:204220000F80C6A8811886040886057E008C828D838EF0C001122F08D00178227410F2E4E2
:2042400008F2E58124E5F88682088683C001123913D00102466FE58124C4F8E67003024458
:2042600013C001E58124E8F88600860308860408860508860618181874162BFFE43CFCE43C
:204280003DFDE43EFEE58124C1F8C001E58124DFF9E6F708E609F7097700097700D001E5DD
:2042A0008124E0F8E62FFA08E63CFC08E63DFD08E63EFEE58124FAF874A02AF6740F3C0883
:2042C000F6E43D08F6E43E08F6900010C00112B178AB82AE83D001A8811818A60308A60628
:2042E000A88118188605088606C0017410C0E0E4C0E0C005C006E58124F5F88682088683C2
:204300000886F008E61256A0E58124FCF581D001E58124E8F88600860308860408860508B6
:20432000860618181874162BFBE43CFCE43DFDE43EFEE58124E0F8C001E58124E3F9E62B05
:20434000F708E63C09F708E63D09F708E63E09F7D001E58124B9F886020886068A048E059C
:20436000C006C002C0017410C0E0E4C0E0C004C005E58124DDF886820886830886F008E6DF
:204380001256A0E58124FCF581D001D002D006782E7410F2E408F28A828E83C001123A2C50
:2043A000D0017F00D001BF10005035E58124BAF8EF26FCE40836FD0886068C828D838EF0EC
:2043C00012B7B9FBA88118EF26F582E40836F583E052038C828D838EF0EB129F6E0F80C6C9
:2043E000A8811886040886057E008C828D838EF0C001122F08D001E58124BAF88682088698
:204400008378227410F2E408F2C001123913D00102466FE58124CBF8E6700302466FC00166
:20442000E58124C4F88600860308860408860508860618181874162BFFE43CFCE43DFDE454
:204440003EFEE58124C5F8C001E58124DFF9E6F708E609F7097700097700D001E58124E0B0
:20446000F8E62FFB08E63CFC08E63DFD08E63EFEE58124FAF874A02BF6740F3C08F6E43D2D
:2044800008F6E43E08F6900010C00112B178AA82AE83D001A8811818A60208A606A881183E
:2044A000188605088606C0017410C0E0E4C0E0C005C006E58124F5F886820886830886F0C3
:2044C00008E61256A0E58124FCF581D001E58124C4F88600860308860408860508860618F3
:2044E000181874162BFBE43CFCE43DFDE43EFEE58124E0F8E62BFB08E63CFC08E63DFD08BE
:20450000E63EFFE58124B9F8C001E58124E3F9E6F708E609F7D001E58124E4F886020886FE
:2045200006C0017410C0E0E4C0E0C002C0068B828C838DF0EF1256A0E58124FCF581D00127
:204540007F00D001BF10005035E58124BAF8EF26FCE40836FD0886068C828D838EF012B752
:20456000B9FBA88118EF26F582E40836F583E052038C828D838EF0EB129F6E0F80C6A881C7
:204580001886040886057E008C828D838EF0C001122F08D00178227410F2E408F2E5812479
:2045A000E5F88682088683C001123913D00102466FBF0102800302466FE58124BDF8E660DD
:2045C0000302466FC001E58124C7F886008604088605088606088607181818E58124FAF887
:2045E00074162CF6E43D08F6E43E08F6E43F08F6E58124C8F88602088603E4FEFFE58124E1
:20460000FAF8C001E58124E3F9EA26F7EB083609F7EE083609F7EF083609F7D001E581249D
:20462000B9F886040886058C068D07C005C004C0017410C0E0E4C0E0C006C007E58124DDA0
:20464000F886820886830886F008E61256A0E58124FCF581D001D004D00578227410F2E46B
:2046600008F28C828D83C001123913D001D001E58124FAF806023B88E58124BFF581227FBA
:204680000090163DE0FEC3EF9E5034EF75F010A4FDAEF07820E22DFD08E23EFE74082DF57A
:2046A00082E43EF583E0FDA3E0FE4D600F7C008D828E838CF0C007122F08D0070F80C278FC
:2046C00020E2F5F008E245F060127820E2FD08E2FE7F008D828E838FF0122F087820E4F22E
:2046E00008F290163DF022058105817820E2F5F008E245F0700302479390163DE02401F01A
:2047000075F010A4F58285F08312B178AE82AF83A88118A60608A607A88118740F26F58271
:20472000E40836F583E4F0A881188603088604FD78207933E2F308E209F3E409F390163DF0
:20474000E0FA7F001ABAFF011F7836EAF28FF0E2C5F0C454F0C5F0C4C5F065F0C5F054F0E9
:20476000C5F065F0C5F0F2E5F008F28B828C838DF01255CB7820E2FD08E2FE7F008D828E73
:20478000838FF0122F08A881187920E6F308E609F3801890001012B178AE82AF837820EED6
:2047A000F2EF08F290163DE02401F090163DE0FF7E001FBFFF011EEEC454F0CFC4CF6FCF74
:2047C00054F0CF6FFE7820E22FF58208E23EF58315811581221246E7AE82AF83781EEEF234
:2047E000EF08F2740E2EF582E43FF5837401F074062EF582E43FF583E4F08E828F8374087D
:20480000F0E4A3F08E828F83A3A37408F0E4A3F074072EF582E43FF583E4F022AE82AF83D3
:20482000781EE2FC08E2FD8C828D83EEF0EFA3F08C828D83A3A37830E2F008E2A3F07407C9
:204840002CF582E43DF5837832E2F022AF82781EE2240EF58208E23400F583EFF022AF8264
:20486000781EE22406F58208E23400F583EFF022C082C083E5812405F5811246E7AC82ADE4
:2048800083781EECF2ED08F2740E2CF582E43DF5837402F074062CF582E43DF583E4F08C00
:2048A000828D837440F0E4A3F08C828D83A3A37404F0E4A3F074072CF582E43DF5837401DC
:2048C000F074042CFAE43DFBE58124FAF88682088683E493FF7E0078867408F2E408F28FCC
:2048E000828E83C005C004C003C00212B558AE82D002D003D004D0058A828B83EEF0E5811C
:2049000024FCF874052CF6E43D08F6E58124FAF88682088683A3A3E493FFE58124FCF88670
:2049200082088683EFF074082CFCE43DFD8A828B83E0FA8AF0EFA4F58285F083C005C0044A
:2049400012B178AE82AF83D004D0058C828D83EEF0EFA3F0781EE2FE08E2FF74082EF58213
:20496000E43FF583E0FCA3E0FDA8811818A60408A605087600E58124FAF8740426FAE4080C
:2049800036FD7833EAF2ED08F2748008F28E828F83A3A3A3A3E0FD8E828F83A3A3A3A3A3AC
:2049A000E08DF0A4FDAEF07836EDF2EE08F2A881181886820886830886F01255CBE581243A
:2049C000F9F58122E581241CF58190003012B178AE82AF83E58124F5F8A60608A607087677
:2049E00000E58124E1FCE58124F5F88602088603C004E58124E0F8E6C0E008E6C0E08A827A
:204A00008B831235D015811581158190003012B178AB82AC83E58124F8F8A60308A604087B
:204A2000E4F6FEFFE58124FBF87600C006C007E58124F3F8E58124F9F9E726FDE40836FE04
:204A40000886078D828E838FF012B7B9FDFCD007D006ED6070BC20118E048F0574042CFC8A
:204A6000E43DFD8C068D0780537D00786DEC24E0F2ED34FF08F2900021C007C00612B109B7
:204A8000AC82AD83D006D007EC24D3F582ED34C6F583E493FDFC53040F7410C39CFCEDC4EC
:204AA000540FFDECC39DFD8E038F047A00ED2BFBEA3CFC0BBB00010C8B068C07E58124FBFE
:204AC000F806024A2B1EBEFF011F8E04EFC423CCC423541F6CCC541FCC6CCCE58124FCF8AB
:204AE000A604EE54076006E58124FCF806781EE22408FE08E23400FFE58124FCF886047D95
:204B0000008C03EDC454F0CBC4CB6BCB54F0CB6BFA8B828A83C007C006C003C00212B178A6
:204B2000AC82AD83D002D003D006D0078E828F83ECF0EDA3F0781EE22408F58208E234000E
:204B4000F583E0FEA3E0FF4E70127433C0E074D3C0E012351E158115810253D57D00783B94
:204B6000E4F2783CEBF2EA08F28E828F838DF012603C781EE2FE08E2FF8E828F83A3A3A333
:204B8000A3E58124FCF8E6F08E828F83A3A3A3A3A37410F0E4FEFFE58124FBF87600C006BF
:204BA000C007E58124F3F8E58124F9F9E726FDE40836FE0886078D828E838FF012B7B9FD60
:204BC000FCD007D006ED70030253A9BC20128E048F0574042CFCE43DFD8C068D070253A0E1
:204BE000C006C0078C057F00786DED24E0F2EF34FF08F2900021C007C00512B109AC82AE4F
:204C000083D005D007EC24D3F582EE34C6F583E493FEFC53040F7410C39CFCE58124FCF877
:204C2000EEC4540FF6E58124FCF8E58124FBF9ECC396F7786DED24E0F2EF34FF08F29000BD
:204C40002112B109AE82AF83E58124E5F8EE24D3F6EF34C608F6E58124FDF87600D007D040
:204C600006A88118B610004003024D1DC006C007E58124FDF8E675F003A4FCADF0E5812457
:204C8000F6F8E58124E7F9EC26F7ED083609F708E609F7E58124FDF8E626FE2402C8E581BD
:204CA00024E5C826F58208E436F583E493FFE58124E7F886820886830886F0EF129F6E74F4
:204CC000012CFBE43DFFE58124F6F8EB26FBEF0836FF088602EE04C8E58124E5C826F582BE
:204CE00008E436F583E4938B828F838AF0129F6E74022CFCE43DFDE58124F6F8EC26FCEDBC
:204D00000836FD0886078C828D838FF0E4129F6EE58124FDF806D007D006024C618E048F21
:204D2000055304077D00A881181886027B00EAB50407EBB505030251C9C3EA9CEB9D4003B5
:204D4000024F838C03A8811818EBC396FDBD08005003024E1F5305077C00BC3000400302C3
:204D60004E1FC006C007E58124E7F8A604087600E58124E7F8740226FAE40836FBE5812402
:204D8000F6F8E58124EAF9EA26F7EB083609F708E609F7E58124E7F8740126FEE40836FF77
:204DA000E58124F6F8E58124EDF9EE26F7EF083609F708E609F7E58124EDF886820886835D
:204DC0000886F012B7B9FAE58124EAF886820886830886F0EA129F6EE58124F6F8E58124CB
:204DE000E7F9E726FA09E70836FE0886078A828E838FF012B7B9FBE58124EDF886820886ED
:204E0000830886F0EB129F6E8A828E838FF0E4129F6E8C0274032AFCD007D006024D5A7CEB
:204E200000BC300040030251C9C006C007E58124EDF8A604087600E58124EDF8740226FBFD
:204E4000E40836FEE58124F6F8E58124E7F9EB26F7EE083609F708E609F7E58124E7F8863F
:204E6000820886830886F012B7B9FA8DF005F0E58124EAF8EA8002C313D5F0FBF6E5812445
:204E8000EDF8740126FAE40836FFE58124F6F8E58124F0F9EA26F7EF083609F708E609F76A
:204EA000E58124F0F886820886830886F012B7B9FA8D03E58124E3F87408C39BF68A03E536
:204EC0008124E3F886F005F0EB800225E0D5F0FBFBE58124EAF8E64203E58124E7F88682B2
:204EE0000886830886F0EB129F6EE58124F0F886820886830886F012B7B9FB8DF005F0E53C
:204F00008124EAF8EB8002C313D5F0FBF6E58124F6F8E58124EDF9E726FB09E70836FE08ED
:204F200086078B828E838FF012B7B9FAE58124E3F886F005F0EA800225E0D5F0FBFAE5816A
:204F400024EAF8E64202E58124F0F886820886830886F0EA129F6E8B828E838FF012B7B9F0
:204F6000FA8DF005F0EA8002C313D5F0FB8B828E838FF0129F6E8C0374032BFCD007D0062D
:204F8000024E21A8811818A98119E6C39CF7A88118B60800500302505DA88118E65407F64F
:204FA000A8817600A881B63000400302505DC006C007A881181886027B00E58124F6F8E50B
:204FC0008124F0F9EA26F7EB083609F708E609F774012AFDE43BFFE58124F6F8ED26FDEFF4
:204FE0000836FF0886068D828F838EF012B7B9FCE58124F0F886820886830886F0EC129F1D
:205000006E74022AFAE43BFBE58124F6F8E58124F0F9EA26F7EB083609F708E609F7E581FF
:2050200024F0F886820886830886F012B7B98D828F838EF0129F6EE58124F0F88682088685
:20504000830886F0E4129F6EA88118188604A881181874032CF6D007D006024FA4A8817636
:2050600000A88118E58124F2F97408C396F7A881B6300040030251C9C006C007A88118185A
:2050800086027B00E58124F6F8E58124EAF9EA26F7EB083609F708E609F7E58124EAF88618
:2050A000820886830886F012B7B9FCE58124FDF886F005F0E58124EDF8EC800225E0D5F0D0
:2050C000FBF674012AFCE43BFFE58124F6F8EC26FCEF0836FF0886068C828F838EF012B779
:2050E000B9FDE58124F0F886F005F0ED8002C313D5F0FBFDE58124EDF8E64205E58124EA0B
:20510000F886820886830886F0ED129F6E8C828F838EF012B7B9FDE58124FDF886F005F0ED
:20512000E58124EDF8ED800225E0D5F0FBF674022AFAE43BFBE58124F6F8E58124EAF9EA53
:2051400026F7EB083609F708E609F7E58124EAF886820886830886F012B7B9FDE58124F01F
:20516000F886F005F0ED8002C313D5F0FBFDE58124EDF8E642058C828F838EF0ED129F6E84
:20518000E58124EAF886820886830886F012B7B9FFE58124FDF886F005F0EF800225E0D556
:2051A000F0FBFFE58124EAF886820886830886F0EF129F6EA88118188605A8811818740340
:2051C0002DF6D007D00602506EA881187600A88118B6100040030253848E038F04ECC4236E
:2051E000CBC423541F6BCB541FCB6BCB781EE22408FA08E23400FCC006C0078A828C83E59B
:205200008124F0F8E0F6A3E008F6E58124E5F8A603087600E58124E5F8740226FDE40836FA
:20522000FBE58124FDF8E58124FAF986F0E7A4C0E0C0F0E58124E9F8D0E0F618D0E0F6E572
:205240008124EAF8E62DFE08E63BFFE58124F0F8E58124F0F9EE26F7EF083609F7E58124E7
:20526000F0F88682088683E0FBE58124FDF8E58124E7F9E675F003A4F709A7F0E58124E76F
:20528000F8740226FEE40836FFE58124F6F8EE26FEEF0836FD0886078E828D838FF012B7AA
:2052A000B9FEEB4206E58124F0F88682088683EEF08A828C83E0FEA3E0FFE58124E5F87445
:2052C0000126FBE40836FDE58124EAF8E62BFB08E63DFDE58124EDF8EB2EF6ED3F08F6E560
:2052E0008124EDF88682088683E58124F0F9E0F7E58124E7F8740126FBE40836FDE5812419
:20530000F6F8EB26FBED0836FD0886078B828D838FF012B7B9FBE58124F0F8E64203E581BA
:2053200024EDF88682088683EBF08A828C83E0FAA3E0FCE58124E5F8E58124EAF9E726FE1D
:2053400009E70836FFEE2AFAEF3CFC8A828C83E0FFE58124F6F8E58124E7F9E726FB09E713
:205360000836FD0886068B828D838EF012B7B942078A828C83EFF0E58124FDF806D007D0D2
:20538000060251CEE58124FDF886058E038F047A00ED2BFBEA3CFC0BBB00010C8B068C0712
:2053A000E58124FBF806024B9EE58124F8F886020886030886048A828B838CF0122F08E596
:2053C0008124F5F886050886060886078D828E838FF0122F08E58124E4F58122C082C08314
:2053E000C0F0C0E01246E7E5828583F0781EF2E5F008F275820412296790001612B178AA40
:2054000082AB838A068B07C003C0027416C0E0E4C0E0C006C007E58124F7F8868208868368
:205420000886F008E61256A0E58124FCF581D002D00374102AF582E43BF583E0FFBF2012CB
:20544000781EE2240FF58208E23400F5837401F08013BF2110781EE2240FF58208E234006C
:20546000F5837402F07F008A828B838FF0122F08781EE2FE08E2FF74082EF582E43FF583D2
:20548000E4F0A3F0740A2EF582E43FF583E58124FDF8E6F008E6A3F008E6A3F008E6A3F00F
:2054A00074062EF582E43FF58374FEF0121275120F0FE58124FCF58122125559AC82AD83CB
:2054C000AEF0FF901563ECF0EDA3F0EEA3F0EFA3F022125559AC82AD83AEF0FF901563E003
:2054E000F8A3E0F9A3E0FAA3E0FBECC398F8ED99F9EE9AFAEF9BFBE9C403C8C40354076876
:20550000C85407C868C8F9EAC40354F849F9EBC403CAC40354076ACA5407CA6ACAFBC00052
:20552000C001C002C0037443C0E074D3C0E012351EE58124FAF581901563ECF0EDA3F0EE36
:20554000A3F0EFA3F022AE957F00AD967C00EE4204EF42058C828D8322AC957D007E007F2E
:2055600000A89679007A008A0389028801E42CF8E93DF9EA3EFAEB3FFBAC978D078C06E49E
:2055800028F8ED39F9EE3AFAEF3B888289838AF022AE82AF838E048F051EBEFF011FEC4D12
:2055A00060030080F022AE82AF838E048F051EBEFF011FEC4D60109003E6C007C00612555D
:2055C00091D006D00780E3220255A6AD82AE83AFF07838EDF2EE08F2EF08F27833E2F50F1B
:2055E00008E2F51008E2F5117836E2F51208E2F513AB12AC13151274FFB512021513EB4C05
:205600006025850F828510838511F012B7B9FCA385820F8583108D828E838FF0EC129F6E58
:20562000A3AD82AE8380CA7838E2F58208E2F58308E2F5F022901567E0FCA3E0FDA3E0FED8
:20564000A3E08C828D838EF0228582F9E5F820E0FB85F982225390EF2243901022AC82AD3B
:2056600083AEF0FFC007C006C005C004125655758203125649D004D005D0068E82C006C077
:2056800005C004125649D004D0058D82C005C004125649D004D005D006D0078C8202564999
:2056A000AC82AD83AEF0FFE58124FDF88602088603C007C006C005C004C003C002125655FF
:2056C000758203125649D002D003D004D005D0068E82C006C005C004C003C002125649D096
:2056E00002D003D004D0058D82C005C004C003C002125649D002D003D004D005D006D00763
:205700008C82C003C002125649D002D003E58124FBF87950E6F308E609F38A828B83126DFE
:20572000C5025659AF82C007125655D0078F82125649025659125655758205125649758293
:2057400000125649E58220E0F512565975820122AC82AD83AEF0FFE58124FDF886020886D1
:2057600003758206C007C006C005C004C003C002125724125655758202125649D002D003F5
:20578000D004D005D0068E82C006C005C004C003C002125649D002D003D004D0058D82C0D8
:2057A00005C004C003C002125649D002D003D004D005D006D0078C82C003C002125649D0DB
:2057C00002D0038A068B07E58124FBF886040886058C028D031CBCFF011DEA4B60228E825E
:2057E0008F83E0FBA3AE82AF838B82C007C006C005C004125649D004D005D006D00780D13C
:205800001256590257357582B90257247582AB025724AE82AF83C007C00612565575825AF0
:20582000125649758200125649D006D0078F82C007C006125649D006D0078E821256497530
:205840008200125649E58124FCF87950E6F3E409F3E58124FDF88682088683126DC50256E1
:2058600059E582601953F87F75FA0043FC1043FC2043F10212565943FE7043F4E02253FED6
:205880008F53908F53F41F22E5812404F58190156BE0700712580CD3025DE190156BE4F0A7
:2058A00090000812B178AE82AF83E58124FDF8A60608A60790014012B178AC82AD83A88140
:2058C00018A60408A60512580C7408C0E0E58124FCF8E6C0E008E6C0E0900000125812150E
:2058E0008115811581E58124FDF88682088683E0FBBB5367E58124FDF88682088683A3E0F8
:20590000FBBB4657E58124FDF8740226FAE40836FB8A828B83E0FDBD4441C002C003E581DE
:2059200024FBF8740326FFE40836FE8F828E83E0FBBB50028006D003D002801FE58124FB3B
:20594000F8740726F582E40836F583E0FBBBFF07D003D002025ADCD003D002C208C02112C2
:205960005655D021758290C021125649D021758200C021125649D021758200C0211256497E
:20598000D021758200C021125649D021758200C021125649AD82D021BDC202800DBDC8025E
:2059A0008079BDEF028047025A5CD20890163E7420F0758200C021125649AC82D021BC0516
:2059C000028005BC12238010901567E4F0A3F004A3F0E4A3F0025AB9901567E4F0A3F07442
:2059E00008A3F0E4A3F0025AB9C208025AB9D20890163E7420F0758200C021125649AC82A8
:205A0000D021BC1311901567E4F0A3F07408A3F0E4A3F0025AB9C208025AB9D20890163E0A
:205A20007420F0758200C021125649AC82D021BC12028008BC13028013025AB9901567E479
:205A4000F0A3F07408A3F0E4A3F0806D901567E4F0A3F07410A3F0E4A3F0805D7C00C00531
:205A6000C004744EC0E074D3C0E012351EE58124FCF58190163E7420F0901567E4F0A3F0DD
:205A80007408A3F0E4A3F0758200C021125649AD82D0217C00C005C004746CC0E074D3C04B
:205AA000E012351EE58124FCF5817474C0E074D3C0E012351E15811581C021125659D02112
:205AC000A8811886040886057F008C828D838FF0C021122F08D021A208025DE1E58124FDC0
:205AE000F88682088683A3A3A3A3A3E0FDBD01028004C3025DE1E58124FDF8740626F582AC
:205B0000E40836F583E0FDBDFF011D8A047A00C004C003C007C006C005C0027408C0E08AEB
:205B2000821263C2AB82AC831581D00274082BFBE43CFCC004C003C0027408C0E0E581243B
:205B4000F4F8E6C0E008E6C0E08B828C83125812158115811581D002D003D004D005D006C7
:205B6000D007E58124FBF88682088683E0D003D0046003025DD7C0058C828B83E0FDBD011C
:205B8000028005D005025DD7D005C004C0038F828E83E0FCBC0900D003D0045003025DD724
:205BA000E58124FDF8740426FEE40836FF8E828F83E0FEA3E0FF7424C0E0A8811818E6C0F0
:205BC000E008E6C0E08E828F83125812158115811581A881188682088683E0FFFE53060364
:205BE000BE01028003025DE0EF20E203025DE0A881188682088683A3A3E054066003025D53
:205C0000E0A881188682088683A3E0FD7003025DE0BDFF03025DE090163EEDF0A8811874A4
:205C20000726F582E40836F583E0FE30E703025DE08E07EFFE6010901567E4F0A3F07420F6
:205C4000A3F0E4A3F08042A88118740626F582E40836F583E0FE6010901567E4F07420A321
:205C6000F0E4A3F0A3F08021A881188682088683A3A3A3A3A3E0FE7003025DE090156774F0
:205C800020F0E4A3F0A3F0A3F0EE602E901567E0FFA3E0FCA3E0FBA3E0FAEF2FFFEC33FC3E
:205CA000EB33FBEA33FA901567EFF0ECA3F0EBA3F0EAA3F0EEC313FE80CF7C1C8C067F0095
:205CC0000EBE00010FA88118EE26F582EF0836F583E0FF6038BFFF028033A88118EC26F545
:205CE00082E40836F583E0FEBE0C02800ABE0F02800FBE10188011EDB507028010C3025D22
:205D0000E190163FEFF08005901640EFF08C0774022FFCBC240040A47493C0E074D3C0E00E
:205D200012351E1581158174A4C0E074D3C0E012351E1581158190163EE0FFE060177E000A
:205D4000C007C00674B4C0E074D3C0E012351EE58124FCF58190163FE0FFE060177E00C04D
:205D600007C00674C1C0E074D3C0E012351EE58124FCF581901640E0FFE060177E00C007D8
:205D8000C00674CEC0E074D3C0E012351EE58124FCF5817E677F15C006C00774DBC0E074AA
:205DA000D3C0E012351EE58124FCF581A8811886040886057F008C828D838FF0122F08E567
:205DC0008124FDF886060886077D008E828F838DF0122F08D3800A0AC3ED9A4003025B0F43
:205DE000C3A8D0E58124FCF58188D022C082C083C0F0C0E005810581E58124F7F886050805
:205E00008604E58124F5F8E608467003025ECAC005C004E58124F9F88602087B00E5812417
:205E2000FDF8E4C39AF674019B08F6E58124FDF8E58124F3F9C3E79609E70896D004D005BC
:205E4000500EE58124F5F8A98119E6F708E609F78D028C03C005C004E58124FDF8E6C0E0B3
:205E600008E6C0E0C002C003E58124F5F886820886830886F008E6125750AB82E58124FCA7
:205E8000F581D004D005EB7004F5828040A881188602088603E4FEFFE58124FBF8EA26F68F
:205EA000EB0836F6EE0836F6EF0836F6A88118E62DFD08E63CFCE58124F5F8A98119E6C3A4
:205EC00097F608E60997F6025E02758201E58124FAF58122C082C083C0F0C0E0E58124FDDF
:205EE000F88602088603EA7005EB540F601574ECC0E074D3C0E012351E1581158175820000
:205F0000026029E58124F9F8E608467003026026758206125724125655E58124F9F8860202
:205F2000088603C3EA9410EB9400401FE58124FDF88602088603EA4B7011901640E0FBE0B2
:205F400060098B821256497B108041E58124F9F88602088607C3EA9408EF94004023E581A1
:205F600024FDF88602088607EA7016EF547F701190163FE0FFE060098F821256497B088066
:205F80000B90163EE0F5821256497B01E58124FDF808088682C003125649D003E58124FD29
:205FA000F8088682C003125649D003E58124FDF88682C00312564912B12D12565912B12DF6
:205FC000125735E582D00370147400C0E074D4C0E012351E15811581758200804CC003C092
:205FE000039010001263D7AC82AD83AEF0FF1581D003E58124FDF8EC26F6ED0836F6EE08B0
:2060000036F6EF0836F6E58124F9F886060886077D00EEC39BFEEF9DFFE58124F9F8A6061C
:2060200008A607025F03758201E58124FCF581227582B10257247582C1025724AFF0AE8307
:20604000E582783EF2EE08F2EF08F2783CE2F50F08E2F510783CE2F5F008E245F0602A783B
:206060003EE2FA08E2FB08E2FC783BE2FFAD0FAE108A828B838CF0EF129F6EA3AA82AB838C
:206080001DBDFF011EED4E70E8783EE2F58208E2F58308E2F5F02243FF0143EC0475EB3EFF
:2060A00075ED8B2253FF0153A0FE22AF82C2AF53D8EF741055D8FEBE10F853A0FE7E00BE0D
:2060C0000800501E53D8EF741055D8FDBD10F8EF30E00543A001800353A0FEEFC313FF0E8F
:2060E00080DD53D8EF741055D8FFBF10F843A001D2AF229016417401F0901642E4F090167D
:2061000043F0901644F090164504F0901646F0901647F0901649E4F0901648F090164C74D3
:2061200023F0E4A3F090164EF090164A7492F07409A3F022AD82AE83AFF012B7B9FCBC019F
:20614000217A417B167C007833EDF2EE08F2EF08F27836740EF2E408F28A828B838CF01253
:2061600055CB901541E0901648F00262F090008012B178AE82AF838E048F05C007C0067433
:206180000EC0E0E4C0E0C004C005900004F5F01256A0E58124FCF581D006D0078E048F05F4
:2061A0007B0078817441F2741608F2E408F27884740EF2E408F28C828D838BF0C007C006EE
:2061C00012B49EE5828583F0D006D00745F070128E048F05FB8C828D838BF0122F0875829E
:2061E00001227D008E828F838DF0122F08758200222290008012B178AE82AF838E048F0509
:20620000C007C006740EC0E0E4C0E0C004C005900004F5F01256A0E58124FCF581D006D09F
:20622000078E048F057833ECF2ED08F2E408F27836740EF2E408F2901641F5F0C007C0068A
:206240001255CB90156CE4F0A3F0A3F0A3F07404C0E0E4C0E0746CC0E07415C0E090000099
:20626000E4F5F01256A0E58124FCF581D006D0078E048F058C098D0A7A417B168A828B83EC
:20628000C007C006740EC0E0E4C0E0C009C00A1265DEE58124FCF581D006D007901641E073
:2062A000FDBDFF028022C00590156CE0FAA3E0FBA3E0FCA3E0FDBAA50DBB5A0ABCBA07BD8F
:2062C000AB04D005800FD005C007C0061260F3D006D0078010BD0100500BC007C00612618E
:2062E000F1D006D0077D008E828F838DF0022F0812616DE5826001227401C0E0E4C0E090B8
:206300000000F5F0125ED41581158190157074A5F0F4A3F074BAA3F0C4A3F07404C0E0E46F
:20632000C0E07470C0E07415C0E0900000E4F5F0125DECE58124FCF581740EC0E0E4C0E0BA
:206340007441C0E07416C0E0900004E4F5F0125DECE58124FCF58122901574E4F0A3F0A3C5
:20636000F0A3F07404C0E0E4C0E07474C0E07415C0E0900000E4F5F0125DECE58124FCF51E
:206380008122858283D0F0D0E0D082C082C0E0C0F022C00074FB2581F8E58286820886830D
:2063A0000886F0D0002275F008C58213C58233D5F0F7C58222E583A2E713F583E58213F51C
:2063C0008222D083D0E0D0F0C0F0C0E0C083E582A4F58285F08322C000E58124FDF8E6F80A
:2063E0008582F0A4F582E8A8F08583F0A428F583E5F03400F5F0E4D00022C000C001C0E0EA
:20640000C0F074FA2581F88600E58288F0A4F582A9F0E58388F0A429F583E5F03400F9D0B0
:20642000E088F0A429C5F03400F9D0E0C0F088F0A429D0F0D001D00022C000C001C002E505
:206440008124FBF8E6F918E6F88582F0A4C0E0AAF0E58388F0A42AF8E5F03400FAE9858261
:20646000F0A428C0E0E5F03AFA74003400F8E98583F0A42AFAE5F0388AF0D083D082D00270
:20648000D001D00022D0E0D0F0C000C001C002C0F0C0E074F82581F9E7F809E7F922D0026F
:2064A000D001D00022C9C583C9C8C582C82212648575F0081264A5E0A31264A5F0A3D5F0CD
:2064C000F302649E12648575F0081264A5E493A31264A5F0A3D5F0F202649E126485C3758C
:2064E000F0081264A5E0A3F5021264A5E03AF0A3D5F0EF02649E12648575F0081264A5E02C
:20650000A3F5021264A5E05AF0A3D5F0EF02649E126485C375F0081264A5E0A3F50212640B
:20652000A5E09AF0A3D5F0EF02649E126485C375F0081264A5E0A3F5021264A5E0A39AD524
:20654000F0F002649E12648575F0081264A5E0A3F5021264A5E0A36A7007D5F0EED30264EF
:206560009EC302649EC8C0E075F008E038F0A3D5F0F9D00022D3E4026565C374FF02656501
:20658000C000C00174FA2581F8E6F5F0088601496015088600E8F0A374FF25F0F5F074FF6D
:2065A00039F50145F070EED001D00022C000C001C00274F92581F9E7D3601CF5F00987005C
:2065C000098701C3E0F502A31264A5E0A31264A56A7004D5F0EED3D002D001D00022C0007B
:2065E000C001C00274F82581F9E7F5F00987024A601F0987000987011264A5E0A31264A50C
:20660000F0A374FF25F0F5F074FF3AF50245F070E7D002D001D00022C000C001C00274F905
:206620002581F9E76015F5F00987000987011264A5E0A31264A5F0A3D5F0F3D002D001D0E2
:206640000022C083C082E06003A380FAC3E582D0F095F0F582E583D0F095F0F58322C00343
:20666000C002C001C000C0E0C0F0C083C082A98174F62581F886F0188600750201750300CC
:20668000758211A2F74014C3E833F8E5F033F5F0C3EA33FAEB33FB058280E8E4C003C002F7
:2066A000C0E0C0E0AA81C0F0C000C0E0C0E0A881C0E0C0E0C0E0C0E0AB81C000C001C37531
:2066C000830486F018E71995F0D583F6D001D000402BC000C001C375830486F018E795F08C
:2066E000F719D583F585020085030175830486F018E745F0F719D583F5D001D00074FC28F1
:20670000F8C375830408E613F6D583F9C00074FC2AF8C375830408E613F6D583F9D000D57C
:20672000829820D508D082D083D0F0D00074F42581F58130D508D082D083D0F0D000E8D08F
:2067400000D001D002D00322C2D502665ED2D502665EC003C002C001C000C0E0C0F0C0833E
:20676000C082A98174F62581F886F07401758219A2F7400A23C5F023C5F0058280F2C0E07E
:20678000E4C0E0C0E0C0E0AA81C0F0C0E0C0E0C0E0A881C0E0C0E0C0E0C0E0AB81C000C025
:2067A00001C375830486F018E71995F0D583F6D001D000402BC000C001C375830486F018DE
:2067C000E795F0F719D583F585020085030175830486F018E745F0F719D583F5D001D0003C
:2067E00074FC28F8C375830408E613F6D583F9C00074FC2AF8C375830408E613F6D583F9A9
:20680000D000D58298D082D083D0F0D00074F42581F581E8D000D001D002D00322C006C02A
:2068200005C004C003C002C001C00074F72581F886F074017C09A2F7400923C5F023C5F07E
:206840000C80F3FBE4FAA9F0F88582F0FDFEC3E58298E583994011C3E58298F582E583990F
:20686000F583EA4DFDEB4EFEC3E913F9E813F8C3EB13FBEA13FADCD620D5048D828E83D03C
:2068800000D001D002D003D004D005D00622C2D502681DD2D502681DE0C0E02401F0A3E07D
:2068A000C0E03400F0A3E0D083D0826014B4600AC000A882E2D000F582224009E493F582EE
:2068C00022E0F58222C000A882E6D000F5822212648575F004D31264A5E0FA3400F0EAA307
:2068E0001264A5F0A3D5F0EE02649E12648575F004C31264A5E0FAA31264A5E0A36A7004F8
:20690000D5F0EFD302649E126485C3E0A398E0A399E0A39400E0A3940002649E126485C307
:20692000E0A338E0A339E0A33400E0A3340002649E75F004E07004A3D5F0F9F58222A3A371
:20694000A3E033227F00BF050040030269C6EF75F008A42478FD741535F0FE74072DF58244
