:020000040000FA
:040000000200A43224
:01000B0032C2
:0100130032BA
:01001B0032B2
:0100230032AA
:03002B00022C297B
:01003300329A
:01003B003292
:01004300328A
:01004B003282
:01005300327A
:01005B003272
:01006300326A
:06006B00022C2D02072704
:08008B0004CBEFBED0D0ADDEC6
:2000A40075812112B81BE582600302006E79E2E94400601B7A0190D731781C759316E493C7
:2000C400F2A308B800020593D9F4DAF27593FFE478FFF6D8FD788AE84400600A790075934E
:2000E40000E4F309D8FC7892E84415600C791690008AE4F0A3D8FCD9FA7800E4F27820E400
:20010400F208F290156B7401F09015A0E4F09015A1F09015A2F09015A3F09015B4E4F0A3EC
:20012400F09015B6F0A3F002006EE5812407F5817F007E78BEC80040030201C38E047D0063
:200144008C82EDC42354E0C582C423C5826582C58254E0C5826582F583C007C00612B1BEFA
:20016400AC82AD83D006D0078D037D00EC4B604F8C828B838DF0C006122EFBD0068E078EEA
:2001840004E42354E0CCC423CC6CCC54E0CC6CFDC004C0057461C0E074BCC0E0123511E5F1
:2001A4008124FCF581EE24555011746BC0E074BCC0E01235111581158180FE0E020138E4DE
:2001C4002354E0CFC423CF6FCF54E0CF6FFE8F828E83C007C00612B1BEAC82AD83D006D05D
:2001E40007E58124FCF8A60408A605087600E58124FCF8E60846701274BDC0E074BCC0E0C6
:2002040012351115811581020311A88118E4F608F6A881188603088604E58124FAF8A607A2
:2002240008A606E58124FAF8C3EB96EC08965034C007C006E58124FAF8E58124FDF9E726A2
:20024400FD09E70836FE0886078D828E838FF0EB129FB4E58124FDF806B600020806D006CC
:20026400D00780AD7E007F00A88118E4F608F6A881188602088603E58124FAF8C3EA96EB5C
:2002840008965064C006C007E58124FAF8E58124FDF9E726FD09E70836FE0886078D828E17
:2002A400838FF012B7FFFDB50206D007D0068025D007D0068D047D00C004C005C002C00698
:2002C400C00774F4C0E074BCC0E0123511E58124F9F5818013A8811806B600020806A88161
:2002E4001886060886078087E58124FCF886030886040886058B828C838DF0122EFB741F27
:20030400C0E074BDC0E012351115811581E58124F9F58122AF82758240C00712295A783B52
:20032400E4F2783C7406F2E408F290151BF5F012602FD0077E00BE06005010EE241BF58282
:20034400E43415F5837481F00E80EB7E00C3EE9F505BC007C00612B173D006D0077D00BD73
:2003640006005046ED90086E93F582C007C006C005127156E582D005D006D0076029ED2432
:200384001BFBE43415FC8B828C83E0FA901562E0F508C3EA64808508F063F08095F0500783
:2003A4008B828C83E508F00D80B50E80A07582401229AA901521E4F0901522F0FFBF06009F
:2003C400502DEF241BF582E43415F583E0FE901521E0C364808EF063F08095F0500EEF9074
:2003E400086E93901522F0901521EEF00F80CE901521E0901562F0901522E0F582227E00DD
:200404007F00C3EE9408EF648094805021EE24A6FCEF3415FD740C2EFA74783FFB8A828B66
:2004240083E08C828D83F00EBE00D70F80D422901637E0FEA3E0FFC3742C9E74019F400F7E
:20044400901631E0700990161CE0700302052F901639E0FEA3E0FFBE200FBF010C122C31B6
:20046400901639E4F0A3F0800675820212295A901639E02401F0A3E03400F0901636E06087
:200484000C901525E07006901646E0700C901526E06036901647E06030901686E0FFBFFF7D
:2004A40002801775820C12295A901686E0F58212920B75820C1229AA800F75820812295ACA
:2004C400120F1B7582081229AA75824012295A12754AAE82AF83901523EEF0EFA3F07582DA
:2004E40040C007C0061229AAD006D007EE4F6023901637E4F0A3F090161CE0600590161CCC
:20050400E4F0901631E0600690161C7401F0901631E4F0901644E0602E758201120318E5B2
:2005240082FE602390165AEEF0801C75824012295A12754AE5828583F0901523F0E5F0A30E
:20054400F07582401229AA122DDD901523E0FEA3E0FF4E700990162FE4F0A3F08049740FF8
:200564002EF582E43FF583E0FCA3E0FD90162FECF0EDA3F0740D2EFCE43FFD8C828D83E0E1
:2005840060128E828F83129885E582700790162FE4F0A3F0901523E0FEA3E0FF7D008E82C5
:2005A4008F838DF0122EFB122E28AE82AF83901637E0FCA3E0FD901637EE2CF0EF3DA3F0C4
:2005C400BE580EBF020B901645E060057800E4F22290162FE0FEA3E0FF4E6039EF30E71E47
:2005E4008E048F0553057F7873ECF2ED08F2E408F208F29003E8F5F012B31F022BFE787318
:20060400EEF2EF08F2E408F208F290EA60F5F012B31F022BFE122E28AE82AF837873EEF2D2
:20062400EF08F2E408F208F29003E8F5F012B31F022BFE901632E0FF6004EF30E005EF2454
:20064400DB5003122C31758202120318AF8290165AEFF0EF700C901526E07006901647E06A
:20066400701A901636E0600C901525E07006901646E07008901632E0FFBF233F7582081277
:20068400295A901686E0FFBFFF02801775820412295A901686E0F58212920B758204122979
:2006A400AA8012901632E0FFBF230040051212FA8003120F1B7582081229AA90165AE0FF7C
:2006C400E0603A8F82123640901632E4F090163174FDF0900023122E79122E28AE82AF83E9
:1C06E4007873EEF2EF08F2E408F208F29003E8F5F012B31F122BFE78007401F210
:2007000022758201122DA4AC82AD83AEF0FF7873ECF2ED08F2EE08F2EF08F29003E8E4F50C
:20072000F012B31F022BFE43FE0143900175821112295A7424C0E074BDC0E0123511158110
:20074000158112B16F75820412295A900001125599129F98120402900023122E791261E58B
:200760007582041229AA122C3112012ED2AF12B173901541E0901648F090164EE0FF600754
:2007800090165AEFF0800C758204120318E58290165AF090165AE0600578007401F2539068
:2007A000FE120F1B75820412295A1262E37582041229AA90165AE0FFE060058F821236407B
:2007C00012B1737800E2600B7800E2B401F212043380ED12063780E8AF82BF00028024BF5B
:2007E00001028034BF0202801DBF03028037BF0502804DBF21028054BF30028064BF310257
:2008000080652202B17A75820412295A1260E61262E37582040229AA758204120318E58206
:2008200090165AF02275820812295A1212FA7582181229AA90FFFF74FFF5F0122BFE80F46B
:2008400075820412295A7582040229AA901637742DF07401A3F09016397420F07401A3F057
:200860002290163BE4F02290163B7401F0220B0F14191A1B8582C1E58620E0FB228582C183
:20088000E58620E0FB85C1822253807F22438080225380EF2243801022900001125599E5E0
:2008A0008020E10890000112559980F322AE82AF83900001C007C006125599D006D0075309
:2008C000C0DF5389FD43AB02538CFE43B8207D007C008E828F838DF0EC1229E3E59E20E68D
:2008E000FBE580A2BDE433F5F005F07401800225E0D5F0FBF452B853ABFD22900001125579
:20090000995380FE900001125599438001900000020899AF82C007120891120889D0078F39
:200920008212087412089575820012087DAF82C00712088DD0078F8222E58124FDFFC00774
:20094000120891120889D007A88118188682C007120874120895D0077E00E58124FDF8C376
:20096000EE965017EF24FEFDFF8D018782C007C006120874D006D0070E80DF02088D538643
:200980007F75C20043C51043C5204380014380805390FD5380F953FDF943FDB943F32843CB
:2009A000FE0290000102559912088D1208FB1208FB758271120913758270120913E4C0E036
:2009C000C0E07407C0E0E4C0E07402C0E014C0E0120939E58124FAF5817421C0E0E4C0E007
:2009E000742EC0E0E4C0E07422C0E0E4C0E07425C0E0E4C0E0742FC0E0E4C0E0740AC0E0D5
:200A0000E4C0E0740FC0E0E4C0E07407C0E014C0E0120939E58124F0F581E4C0E07404C0DC
:200A2000E0120939158115819003E8120899E4C0E0C0E004C0E07441C0E0120939E581242D
:200A4000FCF581E4C0E07440C0E0120939158115819003E8120899E4C0E0C0E004C0E07462
:200A600016C0E0120939E58124FCF5817449C0E0E4C0E0740FC0E0E4C0E07402C0E0E4C02E
:200A8000E0120939E58124FAF5817478C0E0E4C0E004C0E0744DC0E0120939E58124FCF544
:200AA000817444C0E0E4C0E07454C0E0E4C0E07410C0E0E4C0E07403C0E0C0E0120939E555
:200AC0008124F8F5817437C0E0E4C0E004C0E07450C0E0120939E58124FCF5817402C0E0C6
:200AE000E4C0E07402C0E0E4C0E07402C0E07460C0E0120939E58124FAF58174FAC0E0E40E
:200B0000C0E0C0E0C0E07480C0E0E4C0E0C0E0C0E07404C0E07461C0E0120939E58124F63C
:200B2000F581741CC0E0E4C0E004C0E074E7C0E0120939E58124FCF5817422C0E0E4C0E0E2
:200B400004C0E074E3C0E0120939E58124FCF58174D0C0E0E4C0E004C0E074B4C0E01209BB
:200B600039E58124FCF5817403C0E0E4C0E004C0E074B5C0E0120939E58124FCF581740173
:200B8000C0E0E4C0E004C0E074E9C0E0120939E58124FCF5817408C0E0E4C0E004C0E07488
:200BA00030C0E0120939E58124FCF5812274C7C0E0E4C0E004C0E07450C0E0120939E581D2
:200BC00024FCF581E4C0E07402C0E01209391581158174A5C0E0E4C0E004C0E07407C0E069
:200BE000120939E58124FCF58190001E12558443900253F3D775F30075FD0043F7207580F1
:200C00000043900290000112558453FEFD22E581240BF5811254ACE4C0E07410C0E0120933
:200C2000391581158190001012B1BEAE82AF83900010C007C00612B1BEAC82AD83D006D01A
:200C400007E58124F6F8A60408A605900010C007C00612B1BEAA82AB83D006D007E5812479
:200C6000F8F8A60208A603E58124FAF876F9087600E58124FAF88602088603C374FA9AE47E
:200C80009B5003020E9F8E028F039015A4E4F0784E7410F2E408F28A828B83C007C00612A5
:200CA0006D62D006D007E58124F6F886020886039015A4E4F0784E7410F2E408F28A828B59
:200CC00083C007C006126D62D006D007E58124F8F886020886039015A4E4F0784E7410F28A
:200CE000E408F28A828B83C007C006126D62D006D0078E028F037D00C007C006C002C00330
:200D0000C005E4C0E0E58124F4F88682088683123A54E58124FCF581D006D007E58124F632
:200D2000F886030886047D00C007C006C003C004C0057401C0E0E58124F4F88682088683A6
:200D4000123A54E58124FCF581D006D007E58124F8F886020886037D00C007C006C002C02B
:200D600003C0057402C0E0E58124F4F88682088683123A54E58124FCF58112B17312088991
:200D8000D006D007E58124FCF8E4F608F6E58124FCF88602088603C3EA9480EB9400400336
:200DA000020E81A88118187600E58124FCF88602088605A881187600A88118B60400400345
:200DC000020E6EC006C007E58124FCF88607E58124FCF8EF2FF6E625E0F68A068D078E03D5
:200DE000EFC423CBC423541F6BCB541FCB6BCB5306078EF005F0A88118187401800225E026
:200E0000D5F0FBF6E58124F4F8EB26F582E40836F583E0FFA8811818E65FD007D006600AF0
:200E2000A8811818E64403F68038E58124F8F8EB26F582E40836F583E0FCA881E65C600A31
:200E4000A8811818E64402F68018EB2EF582E43FF583E0FCA881E65C7008A8811818E64412
:200E600001F60ABA00010DA8811806020DB8E58124FCF8A60208A605A881181886C1020D13
:200E80008DE58620E0FBC007C00612088DD006D007E58124FAF816B6FF020816020C717D1B
:200EA000008E828F838DF0122EFBE58124F6F886040886057F008C828D838FF0122EFBE587
:200EC0008124F8F886020886037F008A828B838FF0122EFB7480C0E0E4C0E004C0E07411D0
:200EE000C0E0120939E58124FC24F5F58122120C0E124672E4C0E0C0E004C0E07412C0E0E3
:200F0000120939E58124FCF58190C3500208AD12097E1209A8120EEE020BAD1247C878303A
:200F20007401F2E408F2783204F290000112480F75820212483F74AEC0E074C5C0E012494A
:200F4000B7158115811247C8783074A0F2E408F2783204F290006812480F7582001248515E
:200F600074BDC0E074C5C0E01249B7158115811247C8783074CFF2E408F2783204F290007D
:200F80006812480F75820112485174C5C0E074C5C0E01249B7158115811247C8783074D6DA
:200FA000F2E408F2783204F290006812480F75820212485174C7C0E074C5C0E01249B715E1
:200FC0008115811247C878307402F2E408F2783204F290005612480F7582001248519015B5
:200FE000ABE0FF7E009015ACE0FD7C009015ADE0FB7A00C007C006C005C004C003C0027489
:20100000C9C0E074C5C0E07427C0E07415C0E012357AE58124F6F5819015A8E0FF7E009039
:2010200015A9E0FD7C009015AAE0FB7A00C007C006C005C004C003C00274C9C0E074C5C084
:20104000E07430C0E07415C0E012357AE58124F6F5819015A6E0FF7E009015A7E0FD7C003F
:20106000C007C006C005C00474D9C0E074C5C0E07439C0E07415C0E012357AE58124F8F5E6
:20108000817427C0E07415C0E0E4C0E074E3C0E074C5C0E01249B7E58124FBF58190C16E4B
:2010A00012486378307404F2E408F2783204F290006612480F75820112483F7582001248A2
:2010C0005190165AE070030212001247C878307401F2E408F2783204F290002012480F751C
:2010E000820212483F74EFC0E074C5C0E01249B71581158190C2B6124863783074C4F2E43E
:2011000008F2783204F290000F12480F75820112483F7582001248511247C878307401F2CA
:20112000E408F2783204F290004412480F75820112483F901654E0FF7E00901655E0FD7CB8
:2011400000901656E0FB7A00C007C006C005C004C003C00274C9C0E074C5C0E07427C0E0B2
:201160007415C0E012357AE58124F6F581901651E0FF7E00901652E0FD7C00901653E0FB16
:201180007A00C007C006C005C004C003C00274C9C0E074C5C0E07430C0E07415C0E01235D0
:2011A0007AE58124F6F58190164FE0FF7E00901650E0FD7C00C007C006C005C00474D9C0FB
:2011C000E074C5C0E07439C0E07415C0E012357AE58124F8F58190165AE0FF7E00C007C043
:2011E000067427C0E07415C0E0E4C0E074F8C0E074C5C0E01249B7E58124F9F5810212728B
:201200001247C878307414F2E408F2783204F290002612480F75820212483F7406C0E074CE
:20122000C6C0E01249B71581158190C2B6124863783074C2F2E408F2783204F290001C1239
:20124000480F75820112483F75820012485190C442124863783074C6F2E408F2783204F25F
:2012600090002412480F75820112483F758201124851020F0F901636E0602A90C596124872
:2012800063783074EAF2E408F2783204F290007612480F75820112483F7582001248519043
:2012A00015257401F090165AE0704E90C566124863783074EAF2E408F2783204F290000073
:2012C00012480F75820112483F75820012485190C58A124863783074F2F2E408F27832044A
:2012E000F290000812480F75820112483F7582011248519015267401F022020F0FAF82AE76
:2013000083ADF0FC7801EFF2EE08F2ED08F2EC08F27801E2F5F008E242F008E242F008E240
:2013200045F07004758220227805E4F208F208F2748008F27F0078017905E3F5F0E255F031
:20134000FB09E3F5F008E255F0FC09E3F5F008E255F0FD09E3F5F008E255F0FEEB4C4D4EC9
:2013600070150F7808E2C313F218E213F218E213F218E213F280BF8F8222C082C083E58155
:201380002406F58124F9F8E60846603DE58124F5F8C3E6940108E664809480402CE5812436
:2013A000F3F8C3E6940108E664809480401BE58124F1F8E608466011E58124EFF8C3E694FD
:2013C0000108E6648094805006900001021516E58124F9F8740826F582E40836F583E5817E
:2013E00024EFF8E6F008E6A3F0E58124F9F8741A26F582E40836F583E58124F1F8E6F008FA
:20140000E6A3F0E58124F9F8741226F582E40836F583E4F0A3F0A3F0A3F0E58124F9F8749F
:201420000626F582E40836F583E4F0A3F0E58124F9F8E58124FBF9741626F7E4083609F746
:20144000E58124F1F886020886038A828B83E0FCE4E58124FDF8080808A604181818760027
:201460000876000876008A828B83A3E0FF7E008E048F057F00E58124FDF8EF26F6EE0836FB
:20148000F6ED0836F6EC0836F68A828B83A3A3E0FF7E007D008D048E058F067F00E5812419
:2014A000FDF8EF26F6EE0836F6ED0836F6EC0836F68A828B83A3A3A3E0FAE4FBFEFFE581AA
:2014C00024FDF8EA26FAEB0836FBEE0836FEEF0836FFE58124FBF88682088683EAF0EBA371
:2014E000F0EEA3F0EFA3F0E58124F9F88682088683E58124F5F9E7F009E7A3F0E58124F910
:20150000F88682088683A3A3E58124F3F8E6F008E6A3F0900000E58124F8F581227812E094
:20152000F2A3E008F2780B7914E2F308E209F37812E22407FA08E23400C423CAC423541FB7
:201540006ACA541FCA6ACA30E40244E0FB7C007D00C3EC9AED64808BF063F08095F0501566
:201560007814E22CF58208E23DF58374FFF00CBC00DF0D80DC7C007D007812C3E2F5F0EC4F
:2015800095F008E2F5F0ED648063F08095F04001227809E2FA08E2FB8A828B83E0FEA3E0AE
:2015A000FF780974022AF2E43B08F28E048F057809E2FE08E2FF8E828F83E0FAA3E0FB789E
:2015C0000974022EF2E43F08F2EAC39CFEEB9DFF7812C3E2F5F0EC95F008E2F5F0ED64805C
:2015E00063F08095F0400122EE4F700122EE2CFAEF3DFBC3E49A74808BF063F08095F040DD
:2016000003021579ED30E70AEC2EFEED3FFF7C007D00EE2CFAEF3DFB7812C3E29A08E2649B
:20162000808BF063F08095F0500A7812E2C39CFE08E29DFF8C0374075BD39408F4F5F005FC
:20164000F0780D74FF800225E0D5F0FBF28C028E03EB2A5407FB8BF005F07BFFE4FA339252
:20166000D28008A2D2EA13FAEB13FBD5F0F5780EEBF2EE2CFEEF3DC423CEC423541F6ECE00
:20168000541FCE6ECE30E40244E0FF8C02EDC423CAC423541F6ACA541FCA6ACA30E402440F
:2016A000E0FBEEC39AFEEF9BFF7814E22AFA08E23BFBEE4F7027C004C005780D790EE2F58B
:2016C000F0E345F0F28A828B83E0FD780DE252058A828B83EDF0D005D004021579C004C0A7
:2016E000058A048B05780F74012AF2E43B08F28C828D83E0FB780DE252038C828D83EBF0E8
:20170000780FE2F50F08E2F5108E118F12D005D004C37401951174808512F063F08095F0D3
:20172000501A850F82851083E4F0A385820F858310151174FFB51102151280D5850F8285F4
:201740001083780EE2F0021579C082C083E581240EF58124F1F88682088683E58124FBF9D7
:20176000E0F7A3E009F7E58124F1F8A98119742226F77405083609F7E58124F1F8E58124F2
:20178000FDF9742226F7E4083609F7E58124F9F8E4F608F6E58124F9F8E626FE08E633FF86
:2017A000A88118EE26FAEF0836FBE58124FBF886040886058A828B83ECF0EDA3F0E5812418
:2017C000FDF8EE26F582EF0836F583ECF0EDA3F0E58124F9F806B600020806E58124F9F8C6
:2017E000C3E6947E08E66480948240A8E58124F9F8E626FC08E633FDE58124FDF8EC26FA32
:20180000ED0836FBA88118EC26F582ED0836F58374FFF0747FA3F08A828B8374FFF0747FDC
:20182000A3F0E58124F9F8740126FCE40836FDEC2CFCED33FDE58124FDF8EC26FAED0836FD
:20184000FBA88118EC26F582ED0836F58374FFF0747FA3F08A828B8374FFF0747FA3F0E54F
:201860008124F1F8741E26F582E40836F583E58124FDF8E6F008E6A3F0E58124F1F8742034
:2018800026F582E40836F583A88118E6F008E6A3F0E58124F1F8741C26FCE40836FDE581CF
:2018A00024F1F8741A26FAE40836FB8A828B83E0FEA3E0FF8C828D83EEF0EFA3F0E58124CE
:2018C000F1F8E58124F3F9741626F7E4083609F78A828B83E0FAA3E0FB8A828B83E0FCE494
:2018E000E58124F5F8080808A60418181876000876000876008A828B83A3E0FF7E008E0449
:201900008F057F00E58124F5F8EF26F6EE0836F6ED0836F6EC0836F68A828B83A3A3E0FF90
:201920007E007D008D048E058F067F00E58124F5F8EF26F6EE0836F6ED0836F6EC0836F68F
:201940008A828B83A3A3A3E0FAE4FBFEFFE58124F5F8EA26FAEB0836FBEE0836FEEF0836D2
:20196000FFE58124F3F88682088683EAF0EBA3F0EEA3F0EFA3F0E58124F1F8741226F582E9
:20198000E40836F583E4F0A3F0A3F0A3F0E58124F1F8740A26FEE40836FFE58124F1F886F1
:2019A00082088683E0FCA3E0FD3395E0FB8C828D838BF0C007C0061212FDAD82D006D00772
:2019C0007C007420C39DFDE49CFC8E828F83EDF0ECA3F0E58124F0F58122C082C083E581A3
:2019E000243AF58124DBF8E4F608F6E58124CDF8E4F608F6E58124C5F8741E26F582E408BB
:201A000036F583E58124C7F8E0F6A3E008F6E58124C5F8742026F582E40836F583E0FEA3E5
:201A2000E0FFE58124E7F8A60608A607E58124C9F8A60608A607E58124C5F8E58124CBF9BC
:201A4000741626F7E4083609F7E58124CBF88682088683E58124EFF9E0F7A3E009F7A3E008
:201A600009F7A3E009F7E58124C5F8E58124CFF9741226F7E4083609F7E58124CFF886822C
:201A8000088683E58124D1F9E0F7A3E009F7A3E009F7A3E009F7E58124C5F8E58124D5F9E2
:201AA000741C26F7E4083609F7E58124D5F88682088683E58124F7F9E0F7A3E009F7E581AD
:201AC00024C5F8740A26F582E40836F583E0FAA3E0FBE58124FDF8A60208A603EB3395E0AD
:201AE00008F608F6E58124FDF886F005F07E017F008006EE2EFEEF33FFD5F0F71EBEFF01A9
:201B00001FE58124F9F8A60608A6077AFF7BFFE58124C5F88682088683E58124E9F9E0F734
:201B2000A3E009F7E58124E9F8C3EA96EB64800886F063F08095F040030226A5E58124D164
:201B4000F8C3741896E40896E40896E408964003021C4BE58124D1F8860408E6C423CCC434
:201B600023541F6CCC541FCC6CCCFD08E6C42354E04DFD860608E6C423CEC423541F6ECE0B
:201B8000541FCE6ECEE58124F7F8EC26F6ED0836F6E58124D1F8E65407F6087600087600A0
:201BA000087600E58124F7F88682088683E0FFE4E58124D7F8080808A6071818187600086E
:201BC0007600087600E58124F7F88682088683A3E0FF7E008E048F057F00E58124D7F8EF92
:201BE00026F6EE0836F6ED0836F6EC0836F6E58124F7F88682088683A3A3E0FF7E007D00B4
:201C00008D048E058F067F00E58124D7F8EF26F6EE0836F6ED0836F6EC0836F6E58124F744
:201C2000F88682088683A3A3A3E0FCE4FDFEFFE58124D7F8E58124EFF9EC26F7ED083609E8
:201C4000F7EE083609F7EF083609F7E58124D1F886F005F0E58124EFF8860408860508865A
:201C600006088607800CEC2CFCED33FDEE33FEEF33FFD5F0F1EF30E74CE58124C9F8868271
:201C8000088683E0FEA3E0FFA318A68208A6838E028F03E58124D1F806B6000C0806B600BE
:201CA000070806B6000208068A068B07E58124C7F88682088683EEF0EFA3F0A318A682087A
:201CC000A683021B24E58124D1F886077418C39FFF8FF005F0E58124EFF8860408860508C3
:201CE0008606088607800DC3EF13FFEE13FEED13FDEC13FCD5F0F0E58124D7F874FE5CF6A9
:201D0000087600087600087600E58124D7F8E62413F58208E634C6F583E493FFE58124EB11
:201D2000F8A607E58124D7F8740126FCE40836FDE40836E40836EC2413F582ED34C6F583B2
:201D4000E493FFE4FEFDFCE58124D1F8EF26F6EE0836F6ED0836F6EC0836F6E58124EBF804
:201D6000B60102804EE58124EBF8B602028044E58124EBF8B60302803AE58124EBF8B611DB
:201D800003021E6BE58124EBF8B61203021E6BE58124EBF8B61303021E6BE58124EBF8B60B
:201DA0002003021F4DE58124EBF8B6300302266502268FE58124C9F88682088683E0FEA313
:201DC000E0FFE58124EBF886047D00EEC39CFAEF9DFB8A068B07E58124C7F886820886835E
:201DE000EEF0EFA3F0A318A68208A683E58124C9F8E58124E7F986F0E7B5F00A0886F00927
:201E0000E7B5F0028002800DE58124C9F8740426F6E40836F6E58124C9F8E624FEF608E6F7
:201E200034FFF6E58124C9F886060886078E828F83E58124D7F8E0F6A3E008F68A048B051D
:201E4000E58124D7F8C3EC96ED64800886F063F08095F05003021B2474042EFEE43FFFE5FE
:201E60008124C9F8A60608A60780C2E58124C9F88682088683E0FEA3E0FFA318A68208A604
:201E800083E58124E5F8A60608A607E58124EBF886045304077D00EC2EFAED3FFBE5812460
:201EA000E5F8E58124E9F986F0E7B5F00A0886F009E7B5F002805AE58124E9F8C3EA96EB45
:201EC00064800886F063F08095F05045E58124C9F886060886078E828F83E58124D7F8E0EC
:201EE000F6A3E008F68A048B05E58124D7F8C3EC96ED64800886F063F08095F04009740447
:201F00002EFEE43FFF80CFE58124C9F8A60608A607E58124E9F8C3E69A08E664808BF0631A
:201F2000F08095F0500AE58124E9F886020886038A068B07E58124C7F88682088683EEF06C
:201F4000EFA3F0A318A68208A683021B24E58124D1F8C3741096E40896E40896E4089640B4
:201F60000302205CE58124D1F8860408E6C423CCC423541F6CCC541FCC6CCCFD08E6C42387
:201F800054E04DFD860608E6C423CEC423541F6ECE541FCE6ECEE58124F7F8EC26F6ED080B
:201FA00036F6E58124D1F8E65407F6087600087600087600E58124F7F88682088683E0FF80
:201FC000E4E58124D7F8080808A6071818187600087600087600E58124F7F88682088683B3
:201FE000A3E0FF7E008E048F057F00E58124D7F8EF26F6EE0836F6ED0836F6EC0836F6E590
:202000008124F7F88682088683A3A3E0FF7E007D008D048E058F067F00E58124D7F8EF264D
:20202000F6EE0836F6ED0836F6EC0836F6E58124F7F88682088683A3A3A3E0FCE4FDFEFF12
:20204000E58124D7F8E58124EFF9EC26F7ED083609F7EE083609F7EF083609F78A06EBFFAE
:2020600030E7047E007F00C006C007E58124CFF88607741EC39FFF8FF005F0E58124EDF807
:202080008604088605088606088607800DC3EF13FFEE13FEED13FDEC13FCD5F0F074035C2A
:2020A000FCE4FDFBFAE58124CFF8740226F6E40836F6E40836F6E40836F6C374039CE49DCC
:2020C000E49BE49AD007D00650030225AEEC2C2C9020D4730220E00221A102228E02237BDB
:2020E000C006C007E58124CFF88605741DC39DFD8DF005F0E58124EDF886040886050886FD
:2021000006088607800DC3EF13FFEE13FEED13FDEC13FCD5F0F0E58124D9F874075CF608F7
:202120007600E58124CFF8E58124D5F9740326F7E4083609F7E4083609F7E4083609F7E5A1
:202140008124D5F88607741DC39FFF8FF005F0E58124EDF8860708860608860508860480E5
:202160000DC3EC13FCED13FDEE13FEEF13FFD5F0F0E58124CBF874075FF6087600E58124BD
:20218000D5F8E58124CFF9740326F7E4083609F7E4083609F7E4083609F7D007D006022552
:2021A000AEC006C007E58124CFF88605741DC39DFD8DF005F0E58124EDF886040886050814
:2021C0008606088607800DC3EF13FFEE13FEED13FDEC13FCD5F0F0E58124D9F874075CF6B9
:2021E000087600E58124CFF8E58124D5F9740326F7E4083609F7E4083609F7E4083609F7BE
:20220000E58124FBF886077420C39FFFE58124D5F88604EFC39CFF8FF005F0E58124EDF8AE
:202220008607088606088605088604800DC3EC13FCED13FDEE13FEEF13FFD5F0F0E58124D1
:20224000F7F88604088605E58124CBF8EC5FF6ED5E08F6E58124D5F8E58124FBF9E726C0F9
:20226000E009E70836C0E009E70836C0E009E70836C0E0E58124CEF8D0E0F618D0E0F61848
:20228000D0E0F618D0E0F6D007D0060225AEC006C007E58124FBF886057420C39DFDE5816C
:2022A00024CFF88604EDC39CFD8DF005F0E58124EDF88604088605088606088607800DC3E9
:2022C000EF13FFEE13FEED13FDEC13FCD5F0F0E58124F7F88606088607E58124D9F8EE5C12
:2022E000F6EF5D08F6E58124CFF8E58124FBF9E726C0E009E70836C0E009E70836C0E0097D
:20230000E70836C0E0E58124F0F8D0E0F618D0E0F618D0E0F618D0E0F6E58124F1F88607A6
:20232000741DC39FFF8FF005F0E58124EDF88607088606088605088604800DC3EC13FCED4A
:2023400013FDEE13FEEF13FFD5F0F0E58124CBF874075FF6087600E58124F1F8E58124CF51
:20236000F9740326F7E4083609F7E4083609F7E4083609F7D007D0060225AEC006C007E576
:202380008124FBF8E58124D5F9E6F7E58124D5F87420C396FCE58124CFF88607ECC39FFC08
:2023A0008CF005F0E58124EDF88604088605088606088607800DC3EF13FFEE13FEED13FDAA
:2023C000EC13FCD5F0F0E58124F7F88602088603E58124D9F8EA5CF6EB5D08F6E58124CF85
:2023E000F8E58124FBF9E726C0E009E70836C0E009E70836C0E009E70836C0E0E58124DAEC
:20240000F8D0E0F618D0E0F618D0E0F618D0E0F6E58124DBF8C3741096E40896E40896E4C2
:202420000896D007D006400302252BC006C007E58124DBF8860408E6C423CCC423541F6CE1
:20244000CC541FCC6CCCFD08E6C42354E04DFD860608E6C423CEC423541F6ECE541FCE6E75
:20246000CEE58124F5F8EC26F6ED0836F6E58124DBF8E65407F6087600087600087600E5FB
:202480008124F5F88682088683E0FFE4E58124DFF8080808A60718181876000876000876EE
:2024A00000E58124F5F88682088683A3E0FF7E008E048F057F00E58124DFF8EF26F6EE0885
:2024C00036F6ED0836F6EC0836F6E58124F5F88682088683A3A3E0FF7E007D008D048E05BB
:2024E0008F067F00E58124DFF8EF26F6EE0836F6ED0836F6EC0836F6E58124F5F886820872
:202500008683A3A3A3E0FCE4FDFEFFE58124DFF8E58124EDF9EC26F7ED083609F7EE0836DE
:2025200009F7EF083609F7D007D006C006C007E58124D5F87420C396FDE58124DBF886040C
:20254000EDC39CFD8DF005F0E58124EDF88604088605088606088607800DC3EF13FFEE13B9
:20256000FEED13FDEC13FCD5F0F0E58124CBF8EA5CF6EB5D08F6E58124DBF8E58124FBF906
:20258000E726C0E009E70836C0E009E70836C0E009E70836C0E0E58124CEF8D0E0F618D046
:2025A000E0F618D0E0F618D0E0F6D007D006E58124DBF8E62EFE08E63FFF8E048F05E581F5
:2025C00024C7F88682088683ECF0EDA3F0E58124C7F8740226FCE40836FDE58124CDF8E66E
:2025E0002EFA08E63FFBE58124E9F8C3EA96EB64800886F063F08095F0504DE58124C9F850
:202600008606088607C004C0058E828F83E58124DFF8E0F6A3E008F68A048B05E58124DFAF
:20262000F8C3EC96ED64800886F063F08095F0D005D004400974042EFEE43FFF80C7E58151
:2026400024C9F8A60608A6078A068B078C828D83EEF0EFA3F0E58124C7F874022CF6E43D92
:2026600008F6021B24E58124C9F8740226FEE40836FF8E828F83E0FCA3E0FDE58124C9F84C
:2026800074022EF6E43F08F68C028D03021B24E58124C5F88682088683A3A3A3A37402F0CE
:2026A000E4A3F0802AE58124E9F88606088607E58124C7F88682088683EEF0EFA3F0E58145
:2026C00024C7F88682088683A3A3EEF0EFA3F0E58124CBF88682088683E58124EFF9E7F0A9
:2026E00009E7A3F009E7A3F009E7A3F0E58124CFF88682088683E58124D1F9E7F009E7A329
:20270000F009E7A3F009E7A3F0E58124D5F88682088683E58124F7F9E7F009E7A3F0E58119
:2027200024C5F88682088683A3A3A3A3E0FEA3E0FF8E828F83E58124C4F58122C082C08326
:2027400005810581E58124FDF8E60846600AE58124F9F8E608467006900001022942E581C7
:2027600024FDF8740626FCE40836FD8C828D83E0FAA3E0FBE58124FDF88682088683A3A331
:20278000E0FEA3E0FFC3EA9EEB64808FF063F08095F04006900005022942E58124FDF8869B
:2027A00082088683A3A3A3A3E4F0A3F08C828D83E0FCA3E04C700DE58124FDF88682088638
:2027C00083121749E58124FDF8741A26F582E40836F583E0FCA3E0FDE58124FDF874082643
:2027E000F582E40836F583E0FAA3E0FBEA2CFCEB3DFDE58124FDF8741C26F582E40836F576
:2028000083E0FAA3E0FBC3EA9CEB9D401AE58124FDF88682088683A3A3A3A37402F0E4A3A1
:20282000F0900002022942E58124FDF886820886831219DAAC82AD838C028D03EC4D6003F4
:20284000022918E58124FDF8741E26F582E40836F5837809E0F2A3E008F2E58124F9F87929
:202860000BE6F308E609F3E58124FDF8868208868312151DE58124FDF8742026FCE4083657
:20288000FD8C828D83E0FBA3E0FAE58124FDF8A98119741E26F7E4083609F7A881188682E9
:2028A000088683E0FEA3E0FF8C828D83EEF0EFA3F0A881188682088683EBF0EAA3F0E58111
:2028C00024FDF8740626FEE40836FF8E828F83E0FCA3E0FD0CBC00010D8E828F83ECF0EDE1
:2028E000A3F0E58124FDF88682088683A3A3E0FEA3E0FFC3EC9EED64808FF063F08095F012
:202900004029E58124FDF88682088683A3A3A3A37405F0E4A3F08013E58124FDF886820828
:202920008683A3A3A3A3EAF0EBA3F0E58124FDF88682088683A3A3A3A3E0FEA3E0FF8E8216
:202940008F83E58124FCF5812275C6C0E59E30E6FB53C6BFE59E20E6FB22E582FF30E019AB
:20296000C0071229499062707404F0126937122E9CE582D007901631F0EF30E407C00712CC
:20298000608AD007EF30E20D758201C00712585412587BD007EF30E60AC00712383A12358E
:2029A000FFD00790163CE04FF022AF8290163CE05207EF30E407C007126097D007EF30E61C
:2029C00007C007123618D007EF30E20DC0071257F9758200125854D007EFF4FF90163CE08B
:2029E0005FF022AF82AE83ADF0FC901542EFF0EEA3F0EDA3F0ECA3F0AC957D007E007F006A
:202A0000A89679007A008A0389028801E42CF8E93DF9EA3EFAEB3FFBAC978D078C06E42801
:202A2000FCED39FDEE3AFEEF3BFF901542E0F8A3E0F9A3E0FAA3E0C42354E0CAC423CA6AED
:202A4000CA54E0CA6AFBE9C423541F4AFAE9C42354E0C8C423C868C854E0C868F9E82CFCAA
:162A6000E93DFDEA3EFEEB3FFF8E978D968C95D2AFD2AD43BE067E
:202A79007587010022AF8285951375140075150075160085960F751000751100751200AEB8
:202A990011AD10AC0FE42513F513EC3514F514ED3515F515EE3516F516AB977C008C068BD2
:202AB900057B007816EB2513F2EC351408F2ED351508F2EE351608F28F02EEC42354E0CAE3
:202AD900C423CA6ACA54E0CA6AFE3395E0FDFC7816E22AFA08E23EFE08E23DFD08E23CFCF1
:0D2AF9008D978E968A95D2AFD2AD43BE0563
:202B09007587010022AF82AE83ADF0FC901546EFF0EEA3F0EDA3F0ECA3F0901546E0FCA3DE
:202B2900E0FDA3E0FEA3E0FF901546E0F5F0A3E042F0A3E042F0A3E045F07003022BF3C384
:202B490074EE9C74029DE49EE49F502590163BE0601F90165AE06019439001900001E4F50A
:202B6900F01229E35390FE7CEE7D027E007F0080087CFF7DFF7E077F00901546E0F8A3E0AE
:202B8900F9A3E0FAA3E0FBC3EC98ED99EE9AEF9B50408C828D838EF0EFC007C006C005C02C
:202BA90004C003C002C001C0001229E3D000D001D002D003D004D005D006D007901546E875
:202BC900C39CF0E99DA3F0EA9EA3F0EB9FA3F0022B23888289838AF0EB1229E3901546E494
:202BE900F0A3F0A3F0A3F0022B23E59E20E6FB75821002295AAF82AE83ADF0FC90154AEFEA
:202C0900F0EEA3F0EDA3F0ECA3F090154AE0FCA3E0FDA3E0FEA3E08C828D838EF0022B0E15
:202C290053C07F3253C0DF329000141255847F007E047D04BD1F0050678D04EC2C90626400
:202C4900F0900064C007C006C005125584D005D006D007906264E020E62B906264E0FC53DC
:202C690004407B008E017A00C004C003C001C0027493C0E074C6C0E0123511E58124FAF527
:202C8900818E07801B906264E043E001F0900064C007C005125584D005D0070D8D06809465
:202CA900906264E043E001F0BF13005003022D7CEF24E15003022D7CEF24EDFF240A83F55A
:202CC90082EF241083F583E473EAF704111D2934404C5864702C2C2D2D2D2D2D2D2D2D2DDF
:202CE9002D90163474FCF07408A3F0022D86901634742EF07409A3F0022D869016347460C1
:202D0900F07409A3F0022D869016347492F07409A3F0806990163474C4F07409A3F0805D3D
:202D290090163474F6F0F4A3F080529016347428F0740AA3F08046901634748CF0740AA3D5
:202D4900F0803A90163474F0F0740AA3F0802E9016347486F0740BA3F08022901634741CF1
:202D6900F0740CA3F080169016347480F0740CA3F0800A90163474B9F0740BA3F090163473
:202D8900E0FEA3E0FFC3EE94F0EF940A50079016367401F022901636E4F022E58260109015
:202DA9001632E0FFBFFF005006901632EF04F0901632E0FFBF18005007900E10E4F5F02296
:202DC900BF24005007901C20E4F5F02290518075F001E42290162EE0786DF2E408F2900231
:202DE9003512B14F781A740AF2E408F2122EB0AE82AF8374232EFEE43FFF90162DE054075E
:202E09007D0025E0FCED33FDEC241DF582ED3416F583EEF0EFA3F090162DE02401F0227EF3
:202E2900007F007D00BD0800501DED75F002A4241DF582741635F0F583E0FBA3E0FCEB2E11
:202E4900FEEC3FFF0D80DEEFC423CEC423541F6ECE541FCE6ECEFF90164CE0FCA3E0FDC30F
:202E6900EE9CEF9D50058C828D83228E828F8322AE82AF837D00BD08005017ED75F002A457
:202E8900241DF582741635F0F583EEF0EFA3F00D80E422E59DFF70047582FC22BF02047513
:202EA90082FE227582FE22AE82AF837C007D007B10EF235401FAEE2EFEEF33FFEC2CFCEDCD
:202EC90033FDEA6003430401781AC3E2F5F0EC95F008E2F5F0ED95F04011781AD3E29CF42E
:202EE900B3FCB308E29DF4FD430601DBC48E828F8322AD82AE83AFF0ED4E7001227B007CFE
:202F09000090161AE0F513A3E0F514750F1A751016E513451460398D118E12C3E5139511B2
:202F2900E5149512502AC005C006C007AB13AC1474022513FAE43514FF8A0F8F108A828FF7
:202F490083E0F513A3E0F514D007D006D00580C1781CE513F2E51408F2ED24FEFDEE34FF10
:202F6900FE74022DFAE43EFF8A828F83781CE2F008E2A3F0850F82851083EDF0EEA3F08D72
:202F8900828E83E0F513A3E0F514781CE2B5130708E2B5140280028039C003C0048513824B
:202FA900851483A3A3E0FBA3E0FC8A828F83EBF0ECA3F08D828E83E0FBA3E0FC8B828C833E
:202FC900E0FBA3E0FC8D828E83EBF0ECA3F0D004D003EB4C604BC002C0078B828C83E0FA0C
:202FE900A3E0FFEAB50506EFB506028005D007D00222D007D0028D828E83E0FDA3E0FE8BEE
:20300900828C83EDF0EEA3F074022BFBE43CFC8A828F83E0FAA3E0FF8B828C83EAF0EFA3FE
:20302900F022AE82AF8374A7C0E074C6C0E0123511158115817D00BD1000501C8D037C0038
:20304900C003C00474B0C0E074C6C0E0123511E58124FCF5810D80DF74B6C0E074C6C0E0DE
:20306900123511158115817D00BD1000501274C0C0E074C6C0E0123511158115810D80E96F
:203089007C007D00E58124FDF8C3EC96ED089650488C028D03EA540F60028015C004C0055C
:2030A90074C4C0E074C6C0E0123511E58124FCF581EC2EF582ED3FF583E0FB7A00C003C0F4
:2030C9000274CFC0E074C6C0E0123511E58124FCF5810CBC00AE0D80AB74B6C0E074C6C062
:1730E900E0123511158115817F00BF1000501274C0C0E074C6C0E00E
:20310000123511158115810F80E974D5C0E074C6C0E01235111581158122C007C083C082FE
:20312000858107C004C003C002C001C00074F42581F8868318868218860018E493A3601445
:20314000B4250C7C007A00E493A36008B4251612344C80E7D000D001D002D003D004D082BE
:20316000D083D00722B4630518E61880E2FB4420B46D43EB542003F9C083C0821233B67C55
:2031800008C083C082EC142582F582E5833400F583E0FAC47B02540F2990347B9312344C65
:2031A000EADBF3D082D083DC06D082D083808C743A12344C80CBEBB42A09BA009274014CB5
:2031C000FC8084B43007BA0004740680F2FB24D0501224F6400E240AFB740A8AF0A42BFAB7
:2031E000740480DBBB6C0DEC54086004741080CF740880CBBB7343EC5408C083C0827005CF
:203200001233D48007C2D5C2D11233B6EC5404700A1233BD609312344C80F6BA0002808969
:203220001233BD600B12344CDAF60231A9023306742012344CDAF90231A9EB4420B478ED6B
:20324000C083C0821233FEC083C082E5F023F90324FF2582F582E5833400F5831233F1544E
:20326000F07013191233F1700D191582E582B4FF021583D5F0E6B9000109EC5420600B0969
:20328000EC54026005742D12344CEC54046018EAC39940136011FAEC5402C4032420F582D0
:2032A000E58212344CDAF9EC5420600B19EC54027005742D12344CEB542003FAD082D08373
:2032C000E904C313FC142582F582E5833400F583E9540160071233F1790180071233F1795E
:2032E00002FBC4540F2AC083C08290347B93D082D08312344CEBD9EB1582E582B4FF02157B
:2033000083DCD90231A9BB640674204CFC8008BB7502800302313BC083C0821233FEC0F075
:203320007408C395F0244EF9E43415FB1233F1A3123441F0A3123441D5F0F1123441F5F09A
:20334000EC54206028E5F054807006EC54DFFC801CD0F0C0F07408C395F0244EF582E4347A
:2033600015F583C3E0F9E499F0A3D5F0F775F00AE4F0A3D5F0FBD0E0C403FB90155675F0E0
:203380000AE0F9540F24FBE950022403F954F024B0E950022430F0A3D5F0E690154EC3755D
:2033A000F012E033F0A3D5F0F9DBD090155675F00AC2D50232478683188682182220D50622
:2033C00020D107E0A322E493A3228883A882E6A883058222C2D5C2D1E61860DA6480600D72
:2033E00064C0600585938380CFD2D180CBD2D580C530D508C000A882E6D00022E022EC546F
:20340000017021D2D575F000EC5418600E54106006D2F218181818D2F11818D2F018888283
:203420001805F022C2D5EC541860105410600675F0080233B675F0040233B675F0020233EC
:20344000B6C583CBC583C582C9C58222C083C082C001C0008F00868218868318181818863E
:2034600001188600123470D000D001D082D08322C082C083850082850183223031323334DE
:20348000353637383941424344454630313233343536373839616263646566C007C006C0D5
:2034A00005C004C001C000AC82AD83AEF0FFBF0A2A75820DC007C006C005C004C003C00235
:2034C000C001C000C02112609ED021D000D001D002D003D004D005D006D0078F82C007C055
:2034E00006C005C004C003C002C001C000C02112609ED021D000D001D002D003D004D00566
:20350000D006D007D000D001D004D005D006D00722C007C001C000E58124FAFFC007E581ED
:2035200024F9F8E6C0E008E6C0E0E4C0E0C0E090349B12311AE58124FBF581D000D001D016
:203540000722C007C006C005C004C003C001AC82FF8C018F0487060987071974012EFBE49C
:203560003FFDA70309A7058E828F83ECF0D001D003D004D005D006D00722C007C006C00544
:20358000C001C000E58124F6FFE58124F8FE7D00C007E58124F5F8E6C0E008E6C0E0C00616
:2035A000C00590354212311AE58124FBF58124F8F88682088683E4F0D000D001D005D0069A
:2035C000D00722C082C083AF811F7E00E58124FAF8E6C0E0E58124FAF8E6C0E008E6C0E00E
:2035E000C007C00690354212311AE58124FBF581A881188682088683E4F0158115812290D3
:203600001560E0FF20E71075E1ED75E1ED75E1E390156074804FF022901560E0FF30E7101B
:2036200075E1EF75E1ED75E1ED901560747F5FF022AE82AF83906172EEF0906173EFF0224E
:20364000AF82BF0B004005EF24E5500122C007123618D007EF24F575F005A490618F240BFC
:20366000F00235FF75E1ED75E1ED22AE82AF83906193E020E6047582FF22E5D9FD248050E5
:203680001974D7C0E074C6C0E01235111581158175E1ED75E1ED75820022ED24FB40197450
:2036A000E5C0E074C6C0E01235111581158175E1ED75E1ED758200221D1D78417403F275B7
:2036C0008203C007C006C005126A52D005D006D0078E038F048C03901592EBF0901593EED8
:2036E000F08D067F008F06901594EE541FF5F0E054E045F0F0901595EDF053D1F743D60828
:2037000043D708740855D1FFBF08F8E5D924B7901561F0E5D930E708901562740AF08004C2
:2037200075820022906193E054C0FFBF400C90619BE0700675E1ED75E1ED8D8222AE82AF76
:2037400083906193E020E1F9901560E020E70BC007C0061235FFD006D00775E1EE75E1EE89
:2037600078417402F2758202C007C006126A52D006D0078E048F058D04901588ECF08E05D4
:20378000901589EDF08E828F83E0FD7C000DBD00010C8C0590158CED541FF5F0E054E0456C
:2037A000F0F08E828F83E0FE0E90158DEEF053D1FB43D60443D704740455D1FFBF04F890C9
:2037C0006193E020E41074F4C0E074C6C0E01235111581158122906193E030E51074FFC0BD
:2037E000E074C6C0E0123511158115812275E1E97F00906193E020E112BF0300500D0F9076
:20380000003CC007125584D00780E7906193E020E11675E1EE75E1EE740FC0E074C7C0E07B
:203820001235111581158122906193E020E1F922E58260030235FF023618901560E030E01D
:20384000237F00BF0800501BEF246AFDE43461FEEF24A6F582E43415F583E08D828E83F0DE
:203860000F80E02278417403F2758203126A5275E1E37591007F00BF0800501BEF246AFD63
:20388000E43461FEEF24A6F582E43415F583E08D828E83F00F80E0906170E0906174F09057
:2038A0006171E0906175F09061AB743FF09061AC7455F090619674F8F09061FA7409F090A0
:2038C00061B27415F09061AEE4F09061897440F0906180E043E001F0906182E4F075E1EDDC
:2038E00075E1ED906194747FF090619074D5F0901560E043E001F090444712363190165AD6
:20390000E0F582023640AF83E5827824F2EF08F27822E2FC08E2C313CC13CCFD7826E4F274
:2039200008F27826C3E29C08E29D5062C004C00578247926E3C5F0E225F0FC09E3C5F0087D
:20394000E235F0FD8C828D83E0FA78227926E3F5F0C3E295F0FE09E3F5F008E295F0FF1EE5
:20396000BEFF011F7824E22EFE08E23FFF8E828F83E08C828D83F08E828F83EAF07826E20C
:203980002401F208E23400F2D005D004809422AF83E582782AF2EF08F27828E2FC08E2C3E0
:2039A00013CC13CCFD782CE4F208F2782CC3E29C08E29D5069C004C005782A792CE3C5F04B
:2039C000E225F0FC09E3C5F008E235F0FD8C828D83E0FA7828792CE3F5F0C3E295F0FE0911
:2039E000E3F5F008E295F0FF1EBEFF011F782AE22EFE08E23FFF8E828F83E0FB6303FF8CD0
:203A0000828D83EBF074FF6A8E828F83F0782CE22401F208E23400F2D005D004808D22AE17
:203A200082AF837D008D037C00782EC3E2F5F0EB95F008E2F5F0EC95F05018ED2EFBE43FC8
:203A4000FC8B828C83E0FA6302FF8B828C83EAF00D80D222C082C083E581243FF58124EAC7
:203A6000F9E58124D3F8740629F6E58124DDF8740A29F6E58124C0F8C001E58124D6F9E621
:203A8000F708E6C454F0C7C4C767C754F0C76709F7D001E58124DDF8C001E58124E8F9E605
:203AA000F7D001E58124D7F8C001E58124C1F9E6F708E609F7D001E58124BDF8C001E581DE
:203AC00024C3F9E4B6010104F7D001E58124DDF8C001E58124C4F9E6F7D001E58124D7F830
:203AE000C001E58124C5F9E6F708E609F7D001E58124DDF8C001E58124C7F9E6F7D001E524
:203B00008124D7F8C001E58124C8F9E6F708E609F7D001E58124BDF8C001E58124CAF9E458
:203B2000B6020104F7D001E58124CCF8740F29F6E58124CDF8740529F6E58124CEF8740E57
:203B400029F6E58124CFF8740229F6E58124CEF8C001E58124CFF9E6F7D001E58124D1F8FC
:203B6000740429F6E58124CFF8C001E58124D1F9E6F7D001E58124FAF8760090163DE0FEE7
:203B8000E58124FAF8C3E69E400302466B89057C007B40E58124FAF8E675F010A4FEAFF08F
:203BA0007820E22EFE08E23FFF7833EEF2EF08F2E408F278367410F2E408F28D828C838B3A
:203BC000F0C0011255BED001E58124D3F886008607E58124BDF8E6B5070280030240847436
:203BE0000729F8E67003023E00E58124D2F88600860608860718E58124C0F8C3E69E08E67A
:203C00009F5003024662E58124D0F8860086058D027C008A82ECC40354F8C582C403C5823A
:203C20006582C58254F8C5826582F583E58124D1F886008604786DECF2E408F2C007C006D3
:203C4000C005C00112B14FAB82AC83D001D005D006D007E58124DBF8A60608A607E58124D5
:203C6000DBF8EB26F6EC0836F6E58124C0F88602088604E58124DBF8C3EA96EC0896400381
:203C8000024662E58124C0F8E6C39EF58208E69FF583781AEDF2E408F2C001122EB0C8E5C8
:203CA0008124FAC8A68208A683D001E58124D4F8740829F6C001E58124CCF98700D001C05A
:203CC00000E58124FCF87600D0008602C000E58124CFF8860086048AF0ECA4FAAFF0E5816E
:203CE00024FCF8C001E58124D7F9E6F7097700D001E58124D8F8C3E69A08E664808FF06312
:203D0000F08095F0D0004003024662C000E58124D3F88600860608860718E58124FAF8861B
:203D200002088603E58124DEF8A602EBC423C6C423541F66C6541FC666C608F6E58124D00D
:203D4000F886008605E58124FCF88CF0E6848DF0A4FCADF0E58124DEF8EC26FCED0836FDA6
:203D6000D000EC2EF582ED3FF583E0FF5302077B008AF005F07A80E43392D28008A2D2EBBD
:203D800013FBEA13FAD5F0F57E00EF5202EE5203EA4B605F870609870719C000E58124D80D
:203DA000F88604088605EC2EFEED3F8E04C423CCC423541F6CCC541FCC6CCCFDE58124B91C
:203DC000F8EC26FCED0836FD088603D0008C828D838BF012B7FFFA5306078EF005F07401B1
:203DE000800225E0D5F0FB42028C828D838BF0EA129FB4C000E58124FCF806D000023CCA34
:203E0000E58124CFF88600860608860718E58124C0F8C3E69E08E69F5003024662E58124F5
:203E2000CDF886008605E58124CEF8860086048DF0ECA4FAABF0E58124DBF8A60608A607EC
:203E4000E58124DBF8C001E58124DEF9EA26F7EB083609F7D001E58124C0F8860208860387
:203E6000E58124DFF8C3EA96EB089640030246628DF0ECA4FD1DE58124C0F8E6C39EFCED8F
:203E8000C39CFDE58124FBF8A605E58124DEF8740829F6C001E58124D0F98700D001C00077
:203EA000E58124FBF8E4F608F6D00086038B027F008A82EFC40354F8C582C403C5826582FE
:203EC000C58254F8C5826582F583C000E58124CDF8C001E58124DDF98600E6F7D001E581DF
:203EE00024DEF8C001796DE6F3E409F3D001D000C003C001C00012B14FAA82AF83D000D073
:203F000001D003C000E58124FBF8C001E58124D9F9E6F708E609F7D001E58124DAF8C3E6D2
:203F20009A08E69FD0004003024662C000E58124DDF88600860208860718E58124DAF8C0A7
:203F400001E58124D7F9E6F708E6C423C7C423541F67C7541FC767C709F7D001E58124DE64
:203F6000F8C001791AE6F3E409F3D001E58124D8F88682088683D000C007C003C002C0011B
:203F8000C000122EB0AC82AD83D000D001D002D003D007C000E58124FAF8C001E58124DD92
:203FA000F987F0E684D001F5F0EBA4AEF02CFCEE3DFDEC2AF582ED3FF583E0FFE58124DE7C
:203FC000F8C001791AE6F3E409F3D001E58124FBF88682088683D000C007C001C000122E1D
:203FE000B0AD82D000D001D0075305077E008DF005F07D80E43392D28008A2D2EE13FEEDBB
:2040000013FDD5F0F57C00EF5205EC5206ED4E6061870609870719EFC423CEC423541F6E2B
:20402000CE541FCE6ECEFFC000E58124D8F8EE26FEEF0836FFE58124B9F8EE26FEEF083664
:20404000FF0886058E828F838DF012B7FFFCE58124DAF8740756FAD0008AF005F074018010
:204060000225E0D5F0FB42048E828F838DF0EC129FB4C000E58124FBF806B600020806D06A
:2040800000023EABE58124CCF88600E6FF7003024662BF020280030245A4E58124BDF8E609
:2040A0006003024249E58124DDF88600860308860408860508860618181874162BFFE43CCD
:2040C000FCE43DFDE43EFEE58124D7F8C001E58124E4F9E6F708E609F7097700097700D08A
:2040E00001E58124E5F8E62FFB08E63CFC08E63DFD08E63EFEE58124FBF874A02BF6740F9B
:204100003C08F6E43D08F6E43E08F6900010C00112B1BEAA82AE83D001A88118A60208A67F
:2041200006A881188605088606C0017410C0E0E4C0E0C005C006E58124F6F8868208868394
:204140000886F008E6125693E58124FCF581D001E58124DDF8860086030886040886050890
:20416000860618181874162BFBE43CFCE43DFDE43EFEE58124E5F8E62BFB08E63CFC08E6DA
:204180003DFD08E63EFFE58124BAF8C001E58124E4F9E6F708E609F7D001E58124E5F886CD
:2041A00002088606C0017410C0E0E4C0E0C002C0068B828C838DF0EF125693E58124FCF57A
:2041C00081D001782E7410F2E408F2A881188682088683C001123A1FD0017F00BF1000509E
:2041E00035E58124BAF8EF26FCE40836FD0886068C828D838EF012B7FFFBA88118EF26F5E0
:2042000082E40836F583E052038C828D838EF0EB129FB40F80C6A8811886040886057E0030
:204220008C828D838EF0C001122EFBD00178227410F2E408F2E58124E5F88682088683C0E7
:2042400001123906D001024662E58124C4F8E67003024406C001E58124E8F8860086030864
:20426000860408860508860618181874162BFFE43CFCE43DFDE43EFEE58124C1F8C001E54E
:204280008124DFF9E6F708E609F7097700097700D001E58124E0F8E62FFA08E63CFC08E680
:2042A0003DFD08E63EFEE58124FAF874A02AF6740F3C08F6E43D08F6E43E08F6900010C08E
:2042C0000112B1BEAB82AE83D001A8811818A60308A606A88118188605088606C0017410BA
:2042E000C0E0E4C0E0C005C006E58124F5F886820886830886F008E6125693E58124FCF59D
:2043000081D001E58124E8F88600860308860408860508860618181874162BFBE43CFCE421
:204320003DFDE43EFEE58124E0F8C001E58124E3F9E62BF708E63C09F708E63D09F708E64F
:204340003E09F7D001E58124B9F886020886068A048E05C006C002C0017410C0E0E4C0E0E5
:20436000C004C005E58124DDF886820886830886F008E6125693E58124FCF581D001D00236
:20438000D006782E7410F2E408F28A828E83C001123A1FD0017F00D001BF10005035E58129
:2043A00024BAF8EF26FCE40836FD0886068C828D838EF012B7FFFBA88118EF26F582E4084B
:2043C00036F583E052038C828D838EF0EB129FB40F80C6A8811886040886057E008C828D42
:2043E000838EF0C001122EFBD001E58124BAF8868208868378227410F2E408F2C0011239A0
:2044000006D001024662E58124CBF8E67003024662C001E58124C4F886008603088604081B
:20442000860508860618181874162BFFE43CFCE43DFDE43EFEE58124C5F8C001E58124DF96
:20444000F9E6F708E609F7097700097700D001E58124E0F8E62FFB08E63CFC08E63DFD08FF
:20446000E63EFEE58124FAF874A02BF6740F3C08F6E43D08F6E43E08F6900010C00112B149
:20448000BEAA82AE83D001A8811818A60208A606A88118188605088606C0017410C0E0E43A
:2044A000C0E0C005C006E58124F5F886820886830886F008E6125693E58124FCF581D0010D
:2044C000E58124C4F88600860308860408860508860618181874162BFBE43CFCE43DFDE4B8
:2044E0003EFEE58124E0F8E62BFB08E63CFC08E63DFD08E63EFFE58124B9F8C001E5812413
:20450000E3F9E6F708E609F7D001E58124E4F88602088606C0017410C0E0E4C0E0C002C0B6
:20452000068B828C838DF0EF125693E58124FCF581D0017F00D001BF10005035E58124BA3D
:20454000F8EF26FCE40836FD0886068C828D838EF012B7FFFBA88118EF26F582E40836F55C
:2045600083E052038C828D838EF0EB129FB40F80C6A8811886040886057E008C828D838EBA
:20458000F0C001122EFBD00178227410F2E408F2E58124E5F88682088683C001123906D00E
:2045A00001024662BF01028003024662E58124BDF8E66003024662C001E58124C7F886009F
:2045C0008604088605088606088607181818E58124FAF874162CF6E43D08F6E43E08F6E402
:2045E0003F08F6E58124C8F88602088603E4FEFFE58124FAF8C001E58124E3F9EA26F7EBA5
:20460000083609F7EE083609F7EF083609F7D001E58124B9F886040886058C068D07C005EF
:20462000C004C0017410C0E0E4C0E0C006C007E58124DDF886820886830886F008E6125674
:2046400093E58124FCF581D001D004D00578227410F2E408F28C828D83C001123906D00162
:20466000D001E58124FAF806023B7BE58124BFF581227F0090163DE0FEC3EF9E5034EF75D6
:20468000F010A4FDAEF07820E22DFD08E23EFE74082DF582E43EF583E0FDA3E0FE4D600F3D
:2046A0007C008D828E838CF0C007122EFBD0070F80C27820E2F5F008E245F060127820E24E
:2046C000FD08E2FE7F008D828E838FF0122EFB7820E4F208F290163DF0220581058178209B
:2046E000E2F5F008E245F0700302478690163DE02401F075F010A4F58285F08312B1BEAE03
:2047000082AF83A88118A60608A607A88118740F26F582E40836F583E4F0A88118860308A2
:204720008604FD78207933E2F308E209F3E409F390163DE0FA7F001ABAFF011F7836EAF25A
:204740008FF0E2C5F0C454F0C5F0C4C5F065F0C5F054F0C5F065F0C5F0F2E5F008F28B8232
:204760008C838DF01255BE7820E2FD08E2FE7F008D828E838FF0122EFBA881187920E6F31D
:2047800008E609F3801890001012B1BEAE82AF837820EEF2EF08F290163DE02401F0901635
:2047A0003DE0FF7E001FBFFF011EEEC454F0CFC4CF6FCF54F0CF6FFE7820E22FF58208E243
:2047C0003EF58315811581221246DAAE82AF83781EEEF2EF08F2740E2EF582E43FF58374AC
:2047E00001F074062EF582E43FF583E4F08E828F837408F0E4A3F08E828F83A3A37408F061
:20480000E4A3F074072EF582E43FF583E4F022AE82AF83781EE2FC08E2FD8C828D83EEF0B7
:20482000EFA3F08C828D83A3A37830E2F008E2A3F074072CF582E43DF5837832E2F022AF97
:2048400082781EE2240EF58208E23400F583EFF022AF82781EE22406F58208E23400F5833E
:20486000EFF022C082C083E5812405F5811246DAAC82AD83781EECF2ED08F2740E2CF5829D
:20488000E43DF5837402F074062CF582E43DF583E4F08C828D837440F0E4A3F08C828D8338
:2048A000A3A37404F0E4A3F074072CF582E43DF5837401F074042CFAE43DFBE58124FAF881
:2048C0008682088683E493FF7E0078867408F2E408F28F828E83C005C004C003C00212B58A
:2048E0009EAE82D002D003D004D0058A828B83EEF0E58124FCF874052CF6E43D08F6E58106
:2049000024FAF88682088683A3A3E493FFE58124FCF88682088683EFF074082CFCE43DFD74
:204920008A828B83E0FA8AF0EFA4F58285F083C005C00412B1BEAE82AF83D004D0058C82E4
:204940008D83EEF0EFA3F0781EE2FE08E2FF74082EF582E43FF583E0FCA3E0FDA881181817
:20496000A60408A605087600E58124FAF8740426FAE40836FD7833EAF2ED08F2748008F2CD
:204980008E828F83A3A3A3A3E0FD8E828F83A3A3A3A3A3E08DF0A4FDAEF07836EDF2EE081C
:2049A000F2A881181886820886830886F01255BEE58124F9F58122E581241CF581900030F9
:2049C00012B1BEAE82AF83E58124F5F8A60608A607087600E58124E1FCE58124F5F8860238
:2049E000088603C004E58124E0F8E6C0E008E6C0E08A828B831235C3158115811581900076
:204A00003012B1BEAB82AC83E58124F8F8A60308A60408E4F6FEFFE58124FBF87600C0061C
:204A2000C007E58124F3F8E58124F9F9E726FDE40836FE0886078D828E838FF012B7FFFD9B
:204A4000FCD007D006ED6070BC20118E048F0574042CFCE43DFD8C068D0780537D00786DC4
:204A6000EC24E0F2ED34FF08F2900021C007C00612B14FAC82AD83D006D007EC2419F5823F
:204A8000ED34C7F583E493FDFC53040F7410C39CFCEDC4540FFDECC39DFD8E038F047A0009
:204AA000ED2BFBEA3CFC0BBB00010C8B068C07E58124FBF806024A1E1EBEFF011F8E04EF61
:204AC000C423CCC423541F6CCC541FCC6CCCE58124FCF8A604EE54076006E58124FCF806BF
:204AE000781EE22408FE08E23400FFE58124FCF886047D008C03EDC454F0CBC4CB6BCB540A
:204B0000F0CB6BFA8B828A83C007C006C003C00212B1BEAC82AD83D002D003D006D0078E8A
:204B2000828F83ECF0EDA3F0781EE22408F58208E23400F583E0FEA3E0FF4E70127479C0F7
:204B4000E074D3C0E0123511158115810253C87D00783BE4F2783CEBF2EA08F28E828F8350
:204B60008DF012602F781EE2FE08E2FF8E828F83A3A3A3A3E58124FCF8E6F08E828F83A3F1
:204B8000A3A3A3A37410F0E4FEFFE58124FBF87600C006C007E58124F3F8E58124F9F9E7DC
:204BA00026FDE40836FE0886078D828E838FF012B7FFFDFCD007D006ED700302539CBC20E3
:204BC000128E048F0574042CFCE43DFD8C068D07025393C006C0078C057F00786DED24E05E
:204BE000F2EF34FF08F2900021C007C00512B14FAC82AE83D005D007EC2419F582EE34C7C4
:204C0000F583E493FEFC53040F7410C39CFCE58124FCF8EEC4540FF6E58124FCF8E58124D5
:204C2000FBF9ECC396F7786DED24E0F2EF34FF08F290002112B14FAE82AF83E58124E5F8D4
:204C4000EE2419F6EF34C708F6E58124FDF87600D007D006A88118B610004003024D10C040
:204C600006C007E58124FDF8E675F003A4FCADF0E58124F6F8E58124E7F9EC26F7ED083647
:204C800009F708E609F7E58124FDF8E626FE2402C8E58124E5C826F58208E436F583E493CA
:204CA000FFE58124E7F886820886830886F0EF129FB474012CFBE43DFFE58124F6F8EB265C
:204CC000FBEF0836FF088602EE04C8E58124E5C826F58208E436F583E4938B828F838AF0E5
:204CE000129FB474022CFCE43DFDE58124F6F8EC26FCED0836FD0886078C828D838FF0E4CF
:204D0000129FB4E58124FDF806D007D006024C548E048F055304077D00A881181886027BFD
:204D200000EAB50407EBB505030251BCC3EA9CEB9D4003024F768C03A8811818EBC396FD0E
:204D4000BD08005003024E125305077C00BC30004003024E12C006C007E58124E7F8A604CD
:204D6000087600E58124E7F8740226FAE40836FBE58124F6F8E58124EAF9EA26F7EB083684
:204D800009F708E609F7E58124E7F8740126FEE40836FFE58124F6F8E58124EDF9EE26F70F
:204DA000EF083609F708E609F7E58124EDF886820886830886F012B7FFFAE58124EAF8861E
:204DC000820886830886F0EA129FB4E58124F6F8E58124E7F9E726FA09E70836FE088607C9
:204DE0008A828E838FF012B7FFFBE58124EDF886820886830886F0EB129FB48A828E838F52
:204E0000F0E4129FB48C0274032AFCD007D006024D4D7C00BC300040030251BCC006C0079E
:204E2000E58124EDF8A604087600E58124EDF8740226FBE40836FEE58124F6F8E58124E7CC
:204E4000F9EB26F7EE083609F708E609F7E58124E7F886820886830886F012B7FFFA8DF0F8
:204E600005F0E58124EAF8EA8002C313D5F0FBF6E58124EDF8740126FAE40836FFE581242A
:204E8000F6F8E58124F0F9EA26F7EF083609F708E609F7E58124F0F886820886830886F086
:204EA00012B7FFFA8D03E58124E3F87408C39BF68A03E58124E3F886F005F0EB800225E09C
:204EC000D5F0FBFBE58124EAF8E64203E58124E7F886820886830886F0EB129FB4E58124A6
:204EE000F0F886820886830886F012B7FFFB8DF005F0E58124EAF8EB8002C313D5F0FBF699
:204F0000E58124F6F8E58124EDF9E726FB09E70836FE0886078B828E838FF012B7FFFAE59C
:204F20008124E3F886F005F0EA800225E0D5F0FBFAE58124EAF8E64202E58124F0F886824B
:204F40000886830886F0EA129FB48B828E838FF012B7FFFA8DF005F0EA8002C313D5F0FBA0
:204F60008B828E838FF0129FB48C0374032BFCD007D006024E14A8811818A98119E6C39C10
:204F8000F7A88118B608005003025050A88118E65407F6A8817600A881B63000400302506B
:204FA00050C006C007A881181886027B00E58124F6F8E58124F0F9EA26F7EB083609F70895
:204FC000E609F774012AFDE43BFFE58124F6F8ED26FDEF0836FF0886068D828F838EF01238
:204FE000B7FFFCE58124F0F886820886830886F0EC129FB474022AFAE43BFBE58124F6F879
:20500000E58124F0F9EA26F7EB083609F708E609F7E58124F0F886820886830886F012B72D
:20502000FF8D828F838EF0129FB4E58124F0F886820886830886F0E4129FB4A8811818863C
:2050400004A881181874032CF6D007D006024F97A8817600A88118E58124F2F97408C3969B
:20506000F7A881B6300040030251BCC006C007A881181886027B00E58124F6F8E58124EA03
:20508000F9EA26F7EB083609F708E609F7E58124EAF886820886830886F012B7FFFCE581CC
:2050A00024FDF886F005F0E58124EDF8EC800225E0D5F0FBF674012AFCE43BFFE58124F69B
:2050C000F8EC26FCEF0836FF0886068C828F838EF012B7FFFDE58124F0F886F005F0ED805D
:2050E00002C313D5F0FBFDE58124EDF8E64205E58124EAF886820886830886F0ED129FB42A
:205100008C828F838EF012B7FFFDE58124FDF886F005F0E58124EDF8ED800225E0D5F0FB9F
:20512000F674022AFAE43BFBE58124F6F8E58124EAF9EA26F7EB083609F708E609F7E5815C
:2051400024EAF886820886830886F012B7FFFDE58124F0F886F005F0ED8002C313D5F0FB0B
:20516000FDE58124EDF8E642058C828F838EF0ED129FB4E58124EAF886820886830886F0A3
:2051800012B7FFFFE58124FDF886F005F0EF800225E0D5F0FBFFE58124EAF88682088683A4
:2051A0000886F0EF129FB4A88118188605A881181874032DF6D007D006025061A88118762F
:2051C00000A88118B6100040030253778E038F04ECC423CBC423541F6BCB541FCB6BCB787B
:2051E0001EE22408FA08E23400FCC006C0078A828C83E58124F0F8E0F6A3E008F6E5812474
:20520000E5F8A603087600E58124E5F8740226FDE40836FBE58124FDF8E58124FAF986F0FB
:20522000E7A4C0E0C0F0E58124E9F8D0E0F618D0E0F6E58124EAF8E62DFE08E63BFFE581B9
:2052400024F0F8E58124F0F9EE26F7EF083609F7E58124F0F88682088683E0FBE58124FDAA
:20526000F8E58124E7F9E675F003A4F709A7F0E58124E7F8740226FEE40836FFE58124F69F
:20528000F8EE26FEEF0836FD0886078E828D838FF012B7FFFEEB4206E58124F0F88682082B
:2052A0008683EEF08A828C83E0FEA3E0FFE58124E5F8740126FBE40836FDE58124EAF8E61E
:2052C0002BFB08E63DFDE58124EDF8EB2EF6ED3F08F6E58124EDF88682088683E58124F0D6
:2052E000F9E0F7E58124E7F8740126FBE40836FDE58124F6F8EB26FBED0836FD0886078BF4
:20530000828D838FF012B7FFFBE58124F0F8E64203E58124EDF88682088683EBF08A828C21
:2053200083E0FAA3E0FCE58124E5F8E58124EAF9E726FE09E70836FFEE2AFAEF3CFC8A8240
:205340008C83E0FFE58124F6F8E58124E7F9E726FB09E70836FD0886068B828D838EF01209
:20536000B7FF42078A828C83EFF0E58124FDF806D007D0060251C1E58124FDF886058E0353
:205380008F047A00ED2BFBEA3CFC0BBB00010C8B068C07E58124FBF806024B91E58124F8F1
:2053A000F886020886030886048A828B838CF0122EFBE58124F5F886050886060886078DC1
:2053C000828E838FF0122EFBE58124E4F58122C082C083C0F0C0E01246DAE5828583F0789C
:2053E0001EF2E5F008F275820412295A90001612B1BEAA82AB838A068B07C003C00274168C
:20540000C0E0E4C0E0C006C007E58124F7F886820886830886F008E6125693E58124FCF567
:2054200081D002D00374102AF582E43BF583E0FFBF2012781EE2240FF58208E23400F58302
:205440007401F08013BF2110781EE2240FF58208E23400F5837402F07F008A828B838FF02E
:20546000122EFB781EE2FE08E2FF74082EF582E43FF583E4F0A3F0740A2EF582E43FF583B1
:20548000E58124FDF8E6F008E6A3F008E6A3F008E6A3F074062EF582E43FF58374FEF01206
:2054A0001275120F0FE58124FCF5812212554CAC82AD83AEF0FF901563ECF0EDA3F0EEA374
:2054C000F0EFA3F02212554CAC82AD83AEF0FF901563E0F8A3E0F9A3E0FAA3E0FBECC398EC
:2054E000F8ED99F9EE9AFAEF9BFBE9C403C8C403540768C85407C868C8F9EAC40354F849D2
:20550000F9EBC403CAC40354076ACA5407CA6ACAFBC000C001C002C0037489C0E074D3C0C2
:20552000E0123511E58124FAF581901563ECF0EDA3F0EEA3F0EFA3F022AE957F00AD967C2F
:2055400000EE4204EF42058C828D8322AC957D007E007F00A89679007A008A038902880114
:20556000E42CF8E93DF9EA3EFAEB3FFBAC978D078C06E428F8ED39F9EE3AFAEF3B88828952
:20558000838AF022AE82AF838E048F051EBEFF011FEC4D60030080F022AE82AF838E048FB8
:2055A000051EBEFF011FEC4D60109003E6C007C006125584D006D00780E322025599AD8200
:2055C000AE83AFF07838EDF2EE08F2EF08F27833E2F50F08E2F51008E2F5117836E2F51294
:2055E00008E2F513AB12AC13151274FFB512021513EB4C6025850F828510838511F012B779
:20560000FFFCA385820F8583108D828E838FF0EC129FB4A3AD82AE8380CA7838E2F5820870
:20562000E2F58308E2F5F022901567E0FCA3E0FDA3E0FEA3E08C828D838EF0228582F9E510
:20564000F820E0FB85F982225390EF2243901022AC82AD83AEF0FFC007C006C005C0041219
:20566000564875820312563CD004D005D0068E82C006C005C00412563CD004D0058D82C0F4
:2056800005C00412563CD004D005D006D0078C8202563CAC82AD83AEF0FFE58124FDF886A5
:2056A00002088603C007C006C005C004C003C00212564875820312563CD002D003D004D025
:2056C00005D0068E82C006C005C004C003C00212563CD002D003D004D0058D82C005C00481
:2056E000C003C00212563CD002D003D004D005D006D0078C82C003C00212563CD002D003AA
:20570000E58124FBF87950E6F308E609F38A828B83126DB802564CAF82C007125648D0070C
:205720008F8212563C02564C12564875820512563C75820012563CE58220E0F512564C75A0
:20574000820122AC82AD83AEF0FFE58124FDF88602088603758206C007C006C005C004C03E
:2057600003C00212571712564875820212563CD002D003D004D005D0068E82C006C005C018
:2057800004C003C00212563CD002D003D004D0058D82C005C004C003C00212563CD002D02B
:2057A00003D004D005D006D0078C82C003C00212563CD002D0038A068B07E58124FBF8868F
:2057C000040886058C028D031CBCFF011DEA4B60228E828F83E0FBA3AE82AF838B82C00792
:2057E000C006C005C00412563CD004D005D006D00780D112564C0257287582B90257177545
:2058000082AB025717AE82AF83C007C00612564875825A12563C75820012563CD006D0070F
:205820008F82C007C00612563CD006D0078E8212563C75820012563CE58124FCF87950E6FD
:20584000F3E409F3E58124FDF88682088683126DB802564CE582601953F87F75FA0043FCAA
:205860001043FC2043F10212564C43FE7043F4E02253FE8F53908F53F41F22E5812404F588
:205880008190156BE070071257FFD3025DD490156BE4F090000812B1BEAE82AF83E58124C9
:2058A000FDF8A60608A60790014012B1BEAC82AD83A88118A60408A6051257FF7408C0E0C0
:2058C000E58124FCF8E6C0E008E6C0E0900000125805158115811581E58124FDF8868208E6
:2058E0008683E0FBBB5367E58124FDF88682088683A3E0FBBB4657E58124FDF8740226FACC
:20590000E40836FB8A828B83E0FDBD4441C002C003E58124FBF8740326FFE40836FE8F8262
:205920008E83E0FBBB50028006D003D002801FE58124FBF8740726F582E40836F583E0FB9A
:20594000BBFF07D003D002025ACFD003D002C208C021125648D021758290C02112563CD0E9
:2059600021758200C02112563CD021758200C02112563CD021758200C02112563CD021754A
:205980008200C02112563CAD82D021BDC202800DBDC8028079BDEF028047025A4FD20890C8
:2059A000163E7420F0758200C02112563CAC82D021BC05028005BC12238010901567E4F0CB
:2059C000A3F004A3F0E4A3F0025AAC901567E4F0A3F07408A3F0E4A3F0025AACC208025AF7
:2059E000ACD20890163E7420F0758200C02112563CAC82D021BC1311901567E4F0A3F07457
:205A000008A3F0E4A3F0025AACC208025AACD20890163E7420F0758200C02112563CAC82AE
:205A2000D021BC12028008BC13028013025AAC901567E4F0A3F07408A3F0E4A3F0806D903B
:205A40001567E4F0A3F07410A3F0E4A3F0805D7C00C005C0047494C0E074D3C0E01235110C
:205A6000E58124FCF58190163E7420F0901567E4F0A3F07408A3F0E4A3F0758200C02112DF
:205A8000563CAD82D0217C00C005C00474B2C0E074D3C0E0123511E58124FCF58174BAC060
:205AA000E074D3C0E012351115811581C02112564CD021A8811886040886057F008C828D9D
:205AC000838FF0C021122EFBD021A208025DD4E58124FDF88682088683A3A3A3A3A3E0FD36
:205AE000BD01028004C3025DD4E58124FDF8740626F582E40836F583E0FDBDFF011D8A04F7
:205B00007A00C004C003C007C006C005C0027408C0E08A821263B5AB82AC831581D00274E6
:205B2000082BFBE43CFCC004C003C0027408C0E0E58124F4F8E6C0E008E6C0E08B828C8310
:205B4000125805158115811581D002D003D004D005D006D007E58124FBF88682088683E0A3
:205B6000D003D0046003025DCAC0058C828B83E0FDBD01028005D005025DCAD005C004C098
:205B8000038F828E83E0FCBC0900D003D0045003025DCAE58124FDF8740426FEE40836FFE0
:205BA0008E828F83E0FEA3E0FF7424C0E0A8811818E6C0E008E6C0E08E828F831258051518
:205BC0008115811581A881188682088683E0FFFE530603BE01028003025DD3EF20E2030219
:205BE0005DD3A881188682088683A3A3E054066003025DD3A881188682088683A3E0FD70BC
:205C000003025DD3BDFF03025DD390163EEDF0A88118740726F582E40836F583E0FE30E7B5
:205C200003025DD38E07EFFE6010901567E4F0A3F07420A3F0E4A3F08042A8811874062689
:205C4000F582E40836F583E0FE6010901567E4F07420A3F0E4A3F0A3F08021A881188682EA
:205C6000088683A3A3A3A3A3E0FE7003025DD39015677420F0E4A3F0A3F0A3F0EE602E9028
:205C80001567E0FFA3E0FCA3E0FBA3E0FAEF2FFFEC33FCEB33FBEA33FA901567EFF0ECA34D
:205CA000F0EBA3F0EAA3F0EEC313FE80CF7C1C8C067F000EBE00010FA88118EE26F582EFA8
:205CC0000836F583E0FF6038BFFF028033A88118EC26F582E40836F583E0FEBE0C02800A8C
:205CE000BE0F02800FBE10188011EDB507028010C3025DD490163FEFF08005901640EFF090
:205D00008C0774022FFCBC240040A474D9C0E074D3C0E01235111581158174EAC0E074D3EE
:205D2000C0E01235111581158190163EE0FFE060177E00C007C00674FAC0E074D3C0E01213
:205D40003511E58124FCF58190163FE0FFE060177E00C007C0067407C0E074D4C0E0123591
:205D600011E58124FCF581901640E0FFE060177E00C007C0067414C0E074D4C0E012351187
:205D8000E58124FCF5817E677F15C006C0077421C0E074D4C0E0123511E58124FCF581A8E8
:205DA000811886040886057F008C828D838FF0122EFBE58124FDF886060886077D008E82A9
:205DC0008F838DF0122EFBD3800A0AC3ED9A4003025B02C3A8D0E58124FCF58188D022C035
:205DE00082C083C0F0C0E005810581E58124F7F88605088604E58124F5F8E60846700302CC
:205E00005EBDC005C004E58124F9F88602087B00E58124FDF8E4C39AF674019B08F6E5812E
:205E200024FDF8E58124F3F9C3E79609E70896D004D005500EE58124F5F8A98119E6F7085F
:205E4000E609F78D028C03C005C004E58124FDF8E6C0E008E6C0E0C002C003E58124F5F826
:205E600086820886830886F008E6125743AB82E58124FCF581D004D005EB7004F582804089
:205E8000A881188602088603E4FEFFE58124FBF8EA26F6EB0836F6EE0836F6EF0836F6A838
:205EA0008118E62DFD08E63CFCE58124F5F8A98119E6C397F608E60997F6025DF575820153
:205EC000E58124FAF58122C082C083C0F0C0E0E58124FDF88602088603EA7005EB540F602C
:205EE000157432C0E074D4C0E01235111581158175820002601CE58124F9F8E60846700344
:205F0000026019758206125717125648E58124F9F88602088603C3EA9410EB9400401FE531
:205F20008124FDF88602088603EA4B7011901640E0FBE060098B8212563C7B108041E5818B
:205F400024F9F88602088607C3EA9408EF94004023E58124FDF88602088607EA7016EF5491
:205F60007F701190163FE0FFE060098F8212563C7B08800B90163EE0F58212563C7B01E511
:205F80008124FDF808088682C00312563CD003E58124FDF8088682C00312563CD003E581E6
:205FA00024FDF88682C00312563C12B17312564C12B173125728E582D00370147446C0E090
:205FC00074D4C0E012351115811581758200804CC003C0039010001263CAAC82AD83AEF031
:205FE000FF1581D003E58124FDF8EC26F6ED0836F6EE0836F6EF0836F6E58124F9F8860645
:206000000886077D00EEC39BFEEF9DFFE58124F9F8A60608A607025EF6758201E58124FCE9
:20602000F581227582B10257177582C1025717AFF0AE83E582783EF2EE08F2EF08F2783C24
:20604000E2F50F08E2F510783CE2F5F008E245F0602A783EE2FA08E2FB08E2FC783BE2FF56
:20606000AD0FAE108A828B838CF0EF129FB4A3AA82AB831DBDFF011EED4E70E8783EE2F5A7
:206080008208E2F58308E2F5F02243FF0143EC0475EB3E75ED8B2253FF0153A0FE22AF8271
:2060A000C2AF53D8EF741055D8FEBE10F853A0FE7E00BE0800501E53D8EF741055D8FDBDB8
:2060C00010F8EF30E00543A001800353A0FEEFC313FF0E80DD53D8EF741055D8FFBF10F89C
:2060E00043A001D2AF229016417401F0901642E4F0901643F0901644F090164504F09016D9
:2061000046F0901647F0901649E4F0901648F090164C7423F0E4A3F090164EF090164A7493
:2061200092F07409A3F022AD82AE83AFF012B7FFFCBC01217A417B167C007833EDF2EE08C2
:20614000F2EF08F27836740EF2E408F28A828B838CF01255BE901541E0901648F00262E3BE
:2061600090008012B1BEAE82AF838E048F05C007C006740EC0E0E4C0E0C004C005900004B6
:20618000F5F0125693E58124FCF581D006D0078E048F057B0078817441F2741608F2E408C5
:2061A000F27884740EF2E408F28C828D838BF0C007C00612B4E4E5828583F0D006D007457E
:2061C000F070128E048F05FB8C828D838BF0122EFB758201227D008E828F838DF0122EFBE7
:2061E000758200222290008012B1BEAE82AF838E048F05C007C006740EC0E0E4C0E0C00454
:20620000C005900004F5F0125693E58124FCF581D006D0078E048F057833ECF2ED08F2E422
:2062200008F27836740EF2E408F2901641F5F0C007C0061255BE90156CE4F0A3F0A3F0A338
:20624000F07404C0E0E4C0E0746CC0E07415C0E0900000E4F5F0125693E58124FCF581D0E9
:2062600006D0078E048F058C098D0A7A417B168A828B83C007C006740EC0E0E4C0E0C0098D
:20628000C00A1265D1E58124FCF581D006D007901641E0FDBDFF028022C00590156CE0FA6F
:2062A000A3E0FBA3E0FCA3E0FDBAA50DBB5A0ABCBA07BDAB04D005800FD005C007C0061215
:2062C00060E6D006D0078010BD0100500BC007C0061261E4D006D0077D008E828F838DF075
:2062E000022EFB126160E5826001227401C0E0E4C0E0900000F5F0125EC7158115819015A0
:206300007074A5F0F4A3F074BAA3F0C4A3F07404C0E0E4C0E07470C0E07415C0E09000008C
:20632000E4F5F0125DDFE58124FCF581740EC0E0E4C0E07441C0E07416C0E0900004E4F5B8
:20634000F0125DDFE58124FCF58122901574E4F0A3F0A3F0A3F07404C0E0E4C0E07474C0F7
:20636000E07415C0E0900000E4F5F0125DDFE58124FCF58122858283D0F0D0E0D082C082C1
:20638000C0E0C0F022C00074FB2581F8E58286820886830886F0D0002275F008C58213C542
:2063A0008233D5F0F7C58222E583A2E713F583E58213F58222D083D0E0D0F0C0F0C0E0C0A1
:2063C00083E582A4F58285F08322C000E58124FDF8E6F88582F0A4F582E8A8F08583F0A453
:2063E00028F583E5F03400F5F0E4D00022C000C001C0E0C0F074FA2581F88600E58288F0F7
:20640000A4F582A9F0E58388F0A429F583E5F03400F9D0E088F0A429C5F03400F9D0E0C05A
:20642000F088F0A429D0F0D001D00022C000C001C002E58124FBF8E6F918E6F88582F0A474
:20644000C0E0AAF0E58388F0A42AF8E5F03400FAE98582F0A428C0E0E5F03AFA740034005C
:20646000F8E98583F0A42AFAE5F0388AF0D083D082D002D001D00022D0E0D0F0C000C001C9
:20648000C002C0F0C0E074F82581F9E7F809E7F922D002D001D00022C9C583C9C8C582C8AF
:2064A0002212647875F008126498E0A3126498F0A3D5F0F302649112647875F00812649815
:2064C000E493A3126498F0A3D5F0F2026491126478C375F008126498E0A3F502126498E0BF
:2064E0003AF0A3D5F0EF02649112647875F008126498E0A3F502126498E05AF0A3D5F0EFB2
:20650000026491126478C375F008126498E0A3F502126498E09AF0A3D5F0EF0264911264A2
:2065200078C375F008126498E0A3F502126498E0A39AD5F0F002649112647875F008126483
:2065400098E0A3F502126498E0A36A7007D5F0EED3026491C3026491C8C0E075F008E03893
:20656000F0A3D5F0F9D00022D3E4026558C374FF026558C000C00174FA2581F8E6F5F0080D
:206580008601496015088600E8F0A374FF25F0F5F074FF39F50145F070EED001D00022C088
:2065A00000C001C00274F92581F9E7D3601CF5F0098700098701C3E0F502A3126498E0A342
:2065C0001264986A7004D5F0EED3D002D001D00022C000C001C00274F82581F9E7F5F00991
:2065E00087024A601F098700098701126498E0A3126498F0A374FF25F0F5F074FF3AF502E5
:2066000045F070E7D002D001D00022C000C001C00274F92581F9E76015F5F00987000987A9
:2066200001126498E0A3126498F0A3D5F0F3D002D001D00022C083C082E06003A380FAC332
:20664000E582D0F095F0F582E583D0F095F0F58322C003C002C001C000C0E0C0F0C083C077
:2066600082A98174F62581F886F0188600750201750300758211A2F74014C3E833F8E5F0C2
:2066800033F5F0C3EA33FAEB33FB058280E8E4C003C002C0E0C0E0AA81C0F0C000C0E0C05C
:2066A000E0A881C0E0C0E0C0E0C0E0AB81C000C001C375830486F018E71995F0D583F6D0B4
:2066C00001D000402BC000C001C375830486F018E795F0F719D583F58502008503017583DF
:2066E0000486F018E745F0F719D583F5D001D00074FC28F8C375830408E613F6D583F9C097
:206700000074FC2AF8C375830408E613F6D583F9D000D5829820D508D082D083D0F0D000EF
:2067200074F42581F58130D508D082D083D0F0D000E8D000D001D002D00322C2D5026651F3
:20674000D2D5026651C003C002C001C000C0E0C0F0C083C082A98174F62581F886F07401E1
:20676000758219A2F7400A23C5F023C5F0058280F2C0E0E4C0E0C0E0C0E0AA81C0F0C0E09E
:20678000C0E0C0E0A881C0E0C0E0C0E0C0E0AB81C000C001C375830486F018E71995F0D5BC
:2067A00083F6D001D000402BC000C001C375830486F018E795F0F719D583F58502008503AE
:2067C0000175830486F018E745F0F719D583F5D001D00074FC28F8C375830408E613F6D5F9
:2067E00083F9C00074FC2AF8C375830408E613F6D583F9D000D58298D082D083D0F0D000D0
:2068000074F42581F581E8D000D001D002D00322C006C005C004C003C002C001C00074F7E4
:206820002581F886F074017C09A2F7400923C5F023C5F00C80F3FBE4FAA9F0F88582F0FDDB
:20684000FEC3E58298E583994011C3E58298F582E58399F583EA4DFDEB4EFEC3E913F9E869
:2068600013F8C3EB13FBEA13FADCD620D5048D828E83D000D001D002D003D004D005D006CA
:2068800022C2D5026810D2D5026810E0C0E02401F0A3E0C0E03400F0A3E0D083D08260142C
:2068A000B4600AC000A882E2D000F582224009E493F58222E0F58222C000A882E6D000F51E
:2068C000822212647875F004D3126498E0FA3400F0EAA3126498F0A3D5F0EE026491126490
:2068E0007875F004C3126498E0FAA3126498E0A36A7004D5F0EFD3026491126478C3E0A348
:2069000098E0A399E0A39400E0A39400026491126478C3E0A338E0A339E0A33400E0A33408
:206920000002649175F004E07004A3D5F0F9F58222A3A3A3E033227F00BF0500400302699A
:20694000B9EF75F008A42478FD741535F0FE74072DF582E43EF583E054F7F074072DF58246
