:020000040000FA
:040000000200A43224
:01000B0032C2
:0100130032BA
:01001B0032B2
:0100230032AA
:03002B000215E5D6
:01003300329A
:01003B003292
:01004300328A
:01004B003282
:01005300327A
:01005B003272
:01006300326A
:06006B000215E90207770F
:08008B0007CBEFBED0D0ADDEC3
:2000A400758121129E5CE582600302006E79E1E94400601B7A0190C05C781A759316E4938F
:2000C400F2A308B800020593D9F4DAF27593FFE478FFF6D8FD7875E84400600A7900759363
:2000E40000E4F309D8FC78A5E84415600C7916900075E4F0A3D8FCD9FA7800E4F2780DE415
:20010400F208F29015607401F0901595E4F0901596F0901597F0901598F09015B2E4F0A325
:20012400F09015B4F0A3F002006EE5812407F5817F007E78BEC80040030201C38E047D0065
:200144008C82EDC42354E0C582C423C5826582C58254E0C5826582F583C007C0061297FFD3
:20016400AC82AD83D006D0078D037D00EC4B604F8C828B838DF0C0061218B7D0068E078E44
:2001840004E42354E0CCC423CC6CCC54E0CC6CFDC004C00574A2C0E074A2C0E0121ECDE525
:2001A4008124FCF581EE2455501174ACC0E074A2C0E0121ECD1581158180FE0E020138E412
:2001C4002354E0CFC423CF6FCF54E0CF6FFE8F828E83C007C0061297FFAC82AD83D006D036
:2001E40007E58124FCF8A60408A605087600E58124FCF8E60846701274FEC0E074A2C0E09F
:20020400121ECD15811581020311A88118E4F608F6A881188603088604E58124FAF8A607FD
:2002240008A606E58124FAF8C3EB96EC08965034C007C006E58124FAF8E58124FDF9E726A2
:20024400FD09E70836FE0886078D828E838FF0EB1285F5E58124FDF806B600020806D006A5
:20026400D00780AD7E007F00A88118E4F608F6A881188602088603E58124FAF8C3EA96EB5C
:2002840008965064C006C007E58124FAF8E58124FDF9E726FD09E70836FE0886078D828E17
:2002A400838FF0129E40FDB50206D007D0068025D007D0068D047D00C004C005C002C00670
:2002C400C0077435C0E074A3C0E0121ECDE58124F9F5818013A8811806B600020806A88194
:2002E4001886060886078087E58124FCF886030886040886058B828C838DF01218B7746040
:20030400C0E074A3C0E0121ECD15811581E58124F9F58122AF82758240C0071213747828D6
:20032400E4F278297406F2E408F2901510F5F01249E1D0077E00BE06005010EE2410F58210
:20034400E43415F5837481F00E80EB7801E4F27801C3E29F4003020401C0071297B4D00745
:200364007802E4F27802E2B4060040030203F87802E290089A93F582C007125C76E582D059
:200384000760687802E22410FBE43415FC8B828C83E0FA901557E0F508C3EA64808508F0F9
:2003A40063F08095F050078B828C83E508F0C007901556E0FC3395E0FB901557E0FA3395B2
:2003C400E0FF7802E290089A93FD7E00C004C003C002C007C005C0067465C0E074A3C0E0D3
:2003E400121ECDE58124F8F581D0077802E22401F20203687801E22401F20203537582404C
:200404001213C4901516E4F0901517F0FFBF0600502DEF2410F582E43415F583E0FE9015B1
:2004240016E0C364808EF063F08095F0500EEF90089A93901517F0901516EEF00F80CE9001
:200444001516E0901557F0901517E0F582227E007F00C3EE9408EF648094805021EE249B1D
:20046400FCEF3415FD740C2EFA74783FFB8A828B83E08C828D83F00EBE00D70F80D42290B9
:200484001635E0FEA3E0FFC3742C9E74019F400F90162FE0700990161AE0700302057F90F2
:2004A4001637E0FEA3E0FFBE200FBF010C1215ED901637E4F0A3F0800675820212137490D2
:2004C4001637E02401F0A3E03400F0901634E0600C90151AE07006901643E0700C90151BEF
:2004E400E06036901644E06030901683E0FFBFFF02801775820C121374901683E0F582129B
:20050400768375820C1213C4800F758208121374120F747582081213C4758240121374126C
:20052400608DAE82AF83901518EEF0EFA3F0758240C007C0061213C4D006D007EE4F602331
:20054400901635E4F0A3F090161AE0600590161AE4F090162FE0600690161A7401F09016D6
:200564002FE4F0901641E0602E758201120318E582FE6023901657EEF0801C75824012133F
:200584007412608DE5828583F0901518F0E5F0A3F07582401213C4121799901518E0FEA350
:2005A400E0FF4E700990162DE4F0A3F08049740F2EF582E43FF583E0FCA3E0FD90162DECB0
:2005C400F0EDA3F0740D2EFCE43FFD8C828D83E060128E828F83127ECCE582700790162D3D
:2005E400E4F0A3F0901518E0FEA3E0FF7D008E828F838DF01218B71217E4AE82AF83901661
:2006040035E0FCA3E0FD901635EE2CF0EF3DA3F0BE580EBF020B901642E060057800E4F236
:200624002290162DE0FEA3E0FF4E6039EF30E71E8E048F0553057F785EECF2ED08F2E408D2
:20064400F208F29003E8F5F01299600215BA785EEEF2EF08F2E408F208F290EA60F5F01226
:2006640099600215BA1217E4AE82AF83785EEEF2EF08F2E408F208F29003E8F5F01299605B
:200684000215BA901630E0FF6004EF30E005EF24DB50031215ED758202120318AF82901616
:2006A40057EFF0EF700C90151BE07006901644E0701A901634E0600C90151AE0700690164A
:2006C40043E07008901630E0FFBF233F758208121374901683E0FFBFFF02801775820412A1
:1C06E4001374901683E0F5821276837582041213C48012901630E0FFBF2300409B
:20070000051213608003120F747582081213C4901657E0FFE0603A8F82121FFC901630E401
:20072000F090162F74FDF09000231218351217E4AE82AF83785EEEF2EF08F2E408F208F29B
:200740009003E8F5F01299601215BA78007401F222758201121760AC82AD83AEF0FF785EFA
:20076000ECF2ED08F2EE08F2EF08F29003E8E4F5F01299600215BA758211121374748AC064
:20078000E074A3C0E0121ECD158115811297B0758204121374900001123F511285D91204F3
:2007A00052900023121835124BBD7582041213C41215ED12012ED2AF901536E0901645F06B
:2007C00090164BE0FF6007901657EFF0800C758204120318E582901657F0901657E06005BC
:2007E00078007401F2120F74758204121374124CEA7582041213C4901657E0FFE060058F15
:2008000082121FFC1297B47800E2600B7800E2B401F212048380ED12068780E8AF82BF0009
:20082000028019BF01028029BF02028012BF0302802CBF05028042BF215F80490297BB7594
:200840008204121374124A98124CEA7582040213C4758204120318E582901657F0227582D4
:20086000081213741213607582181213C490FFFF74FFF5F01215BA80F47582041213747516
:2008800082040213C4901635742DF07401A3F09016377420F07401A3F0220B0F14191A1B7E
:2008A0008582C1E58620E0FB228582C1E58620E0FB85C1822253807F22438080225380EF35
:2008C0002243801022AE82AF83900001C007C006123F51D006D007E58020E1281EBEFF01C8
:2008E0001F900001C007C006123F51D006D007EE4F70E474D4C0E074A7C0E0121ECD1581A5
:20090000158180D322AE82AF83900001C007C006123F51D006D00753C0DF5389FD43AB0242
:20092000538CFE43B8207D007C008E828F838DF0EC1213FDE59E20E6FBE58020E10F74D4D8
:20094000C0E074A7C0E0121ECD15811581A2BDE433F5F005F07401800225E0D5F0FBF452C1
:20096000B853ABFD22900001123F515380FE900001123F514380019003E80208C5AF82C06C
:20098000071208BD1208B5D0078F821208A01208C17582001208A9AF82C0071208B9D007D1
:2009A0008F8222E58124FDFFC0071208BD1208B5D007A88118188682C0071208A01208C17D
:2009C000D0077E00E58124FDF8C3EE965017EF24FEFDFF8D018782C007C0061208A0D006D4
:2009E000D0070E80DF0208B953867F75C20043C51043C5204380014380805380F953FDF905
:200A000043FDF943F328900001123F5153FEFD4390045390F743FE0C4390085390FB539024
:200A2000F7439004900001023F5174F3C0E074A7C0E0121ECD158115811208B91209651275
:200A40000965120965900001123F5143804075827112097DAF827E00C007C0067407C0E01B
:200A600074A8C0E0121ECDE58124FCF58175827012097DAF827E00C007C0067411C0E074ED
:200A8000A8C0E0121ECDE58124FCF581740BC0E0E4C0E0740BC0E0E4C0E0C0E0C0E07437E4
:200AA000C0E0E4C0E07404C0E07401C0E01209A3E58124F6F581742EC0E0E4C0E0742EC009
:200AC000E0E4C0E0742EC0E0E4C0E07403C0E023C0E01209A3E58124F8F581E4C0E0740460
:200AE000C0E01209A3158115819005DC1208C5E4C0E0C0E004C0E07441C0E01209A3E581DB
:200B000024FCF5817402C0E07440C0E01209A3158115819003E81208C51208B575820012B9
:200B200008A97582001208A91208B974CFC0E0E4C0E004C0E0E4C0E01209A3E58124FCF5AF
:200B400081E4C0E0C0E0C0E0C0E07402C0E0742AC0E01209A3E58124FAF5817403C0E0E4A9
:200B6000C0E004C0E074E5C0E01209A3E58124FCF5817407C0E0E4C0E004C0E07450C0E0D7
:200B80001209A3E58124FCF5817422C0E0E4C0E004C0E07460C0E01209A3E58124FCF5810F
:200BA0007480C0E0E4C0E004C0E0E4C0E07480C0E0E4C0E07402C0E0E4C0E07404C0E074B7
:200BC00061C0E01209A3E58124F6F581743EC0E0E4C0E004C0E07430C0E01209A3E581245A
:200BE000FCF5817424C0E0E4C0E004C0E07482C0E01209A3E58124FCF581741EC0E074A885
:200C0000C0E0121ECD15811581227432C0E074A8C0E0121ECD1581158174F7C0E0E4C0E02F
:200C200004C0E07450C0E01209A3E58124FCF581E4C0E07402C0E01209A3158115819000DE
:200C40001E123F3C9003E81208C574A5C0E0E4C0E004C0E07407C0E01209A3E58124FCF55A
:200C6000815380BF4390085390FB900003123F3C53FEF353F3D775F30075FD00438F064332
:200C8000F720758000900001123F3C5390FD43FE0222AF828F055305F0E4C4CDC4540F6DCF
:200CA000CD540FCD6DCD30E30244F053070FEFC454F0FFED42078F055305CCE4A2E713CD1A
:200CC00013CDA2E713CD13CD530733EF2F25E0FFED42078F055305AAE4A2E713CD13CD53F0
:200CE0000755EF2F4DF58222E5812407F581123E64E4C0E07410C0E01209A31581158190B7
:200D000000501297FFAE82AF83E58124FBF8A60608A6079000501297FFAC82AD83E581242B
:200D2000FDF8A60408A605A88118767F087601A881188604088605C374809C74019D500396
:200D4000020EDD1297B4E58124FBF88602088603901599E4F0783B7450F2E408F28A828BC3
:200D600083125796E58124FDF88602088603901599E4F0783B7450F2E408F28A828B8312D4
:200D80005796E58124FBF886020886037D00C002C003C005E4C0E0E58124FBF88682088672
:200DA00083122410E58124FCF58124FDF886030886047D00C003C004C0057401C0E0E581F6
:200DC00024FBF88682088683122410E58124FCF5811208B57C007D00C3EC9450ED94004085
:200DE00003020ECEE58124FDF8EC26F582ED0836F583E0F582C005C004120C92AB82D004D6
:200E0000D005E58124FBF8EC26F582ED0836F583E0F582C005C004C003120C92AA82D00302
:200E2000D004D0057F03EF30E703020EC6C0027E008F02E58124F9F8EA2AF6E58124F9F8D7
:200E400086F005F0EB8002C313D5F0FBD00230E0047E078016E58124FAF886F005F0EA80D2
:200E600002C313D5F0FB30E0027E03C0028F02E58124F9F8EA2AF6E58124F9F886F005F089
:200E8000EB8002C313D5F0FBD00230E1054306708017E58124FAF886F005F0EA8002C313EE
:200EA000D5F0FB30E1034306308E82C007C005C004C003C0021208A0D002D003D004D005F8
:200EC000D0071F020E260CBC00010D020DD81208B9A8811816B6FF020816020D2FE5812462
:200EE000FBF886050886067F008D828E838FF01218B7E58124FDF886040886057F008C82B8
:200F00008D838FF01218B775821112097D7447C0E074A8C0E0121ECD15811581123E7DE5CF
:200F20008124F9F58122120CE812302AE4C0E07413C0E01209A31581158190C350120905B1
:200F40001297B490001E023F511209E8120A2A120F267460C0E074A8C0E0121ECD1581158C
:200F600081120C0A7473C0E074A8C0E0121ECD1581158122123180781D7440F2740108F2CD
:200F8000781FE4F29000141231C77582031231F774C7C0E074ACC0E012336F158115811275
:200FA0003180781D7432F2E408F2781FF29001071231C775820012320974D6C0E074ACC03C
:200FC000E012336F15811581123180781D7432F2E408F2781FF29001371231C7758201121E
:200FE000320974DEC0E074ACC0E012336F15811581123180781D7432F2E408F2781FF2903D
:20100000014A1231C775820012320974E8C0E074ACC0E07480C0E07428C0E0E4C0E074E0D3
:20102000C0E074ACC0E012336FE58124F9F581123180781D7432F2E408F2781FF290001E9E
:201040001231C77582001232099015A0E0FF7E009015A1E0FD7C009015A2E0FB7A00C0079E
:20106000C006C005C004C003C00274EEC0E074ACC0E0741CC0E07415C0E0121F36E5812490
:20108000F6F58190159DE0FF7E0090159EE0FD7C0090159FE0FB7A00C007C006C005C004FA
:2010A000C003C00274EEC0E074ACC0E07425C0E07415C0E0121F36E58124F6F58190159BEA
:2010C000E0FF7E0090159CE0FD7C00C007C006C005C00474FEC0E074ACC0E0742EC0E0747B
:2010E00015C0E0121F36E58124F8F581741CC0E07415C0E0E4C0E07408C0E074ADC0E01210
:20110000336FE58124FBF58190A88712321B781D7404F2E408F2781FF29000041231C7759B
:2011200082021231F7758200123209901657E07003021267123180781D748CF2E408F27842
:201140001FF29000641231C77582021231F77414C0E074ADC0E012336F1581158190A9CF7C
:2011600012321B781D7480F2E408F2781FF29000E21231C77582011231F77582001232093C
:20118000123180781D7446F2E408F2781FF290001E1231C77582011231F7901651E0FF7EA6
:2011A00000901652E0FD7C00901653E0FB7A00C007C006C005C004C003C00274EEC0E0747F
:2011C000ACC0E0741CC0E07415C0E0121F36E58124F6F58190164EE0FF7E0090164FE0FDEA
:2011E0007C00901650E0FB7A00C007C006C005C004C003C00274EEC0E074ACC0E07425C072
:20120000E07415C0E0121F36E58124F6F58190164CE0FF7E0090164DE0FD7C00C007C00640
:20122000C005C00474FEC0E074ACC0E0742EC0E07415C0E0121F36E58124F8F5819016578C
:20124000E0FF7E00C007C006741CC0E07415C0E0E4C0E0741DC0E074ADC0E012336FE581BB
:2012600024F9F5810212D6123180781D748CF2E408F2781FF290004B1231C775820212311F
:20128000F7742FC0E074ADC0E012336F1581158190A9CF12321B781D7480F2E408F2781F1C
:2012A000F29001001231C77582011231F775820012320990AB5B12321B781D7480F2E408CF
:2012C000F2781FF29001061231C77582011231F77582011232091212DC020F49901634E067
:2012E000602790ACAF12321B781DE4F208F2781FF29002641231C77582021231F775820005
:2013000012320990151A7401F0901657E0705090AC7F12321B781D745CF2740108F2781F48
:20132000E4F29002601231C77582021231F775820012320990ACA312321B781D745CF2745B
:201340000108F2781FE4F29002701231C77582021231F775820112320990151B7401F0225A
:20136000020F4975C6C0E59E30E6FB53C6BFE59E20E6FB22E582FF30E019C0071213639098
:2013800062707404F012536B121858E582D00790162FF0EF30E407C007124A3CD007EF305F
:2013A000E20D758201C00712420C124233D007EF30E60AC0071221F6121FBBD00790163920
:2013C000E04FF022AF82901639E05207EF30E407C007124A49D007EF30E607C007121FD45E
:2013E000D007EF30E20DC0071241B175820012420CD007EFF4FF901639E05FF022AF82AE1E
:2014000083ADF0FC901537EFF0EEA3F0EDA3F0ECA3F0AC957D007E007F00A89679007A0089
:201420008A0389028801E42CF8E93DF9EA3EFAEB3FFBAC978D078C06E428FCED39FDEE3AE1
:20144000FEEF3BFF901537E0F8A3E0F9A3E0FAA3E0C42354E0CAC423CA6ACA54E0CA6AFB08
:20146000E9C423541F4AFAE9C42354E0C8C423C868C854E0C868F9E82CFCE93DFDEA3EFE84
:10148000EB3FFF8E978D968C95D2AFD2AD43BE06C3
:201493007587010022AF8285951375140075150075160085960F751000751100751200AEB4
:2014B30011AD10AC0FE42513F513EC3514F514ED3515F515EE3516F516AB977C008C068BCE
:2014D300057B007803EB2513F2EC351408F2ED351508F2EE351608F28F02EEC42354E0CAF2
:0D14F300C423CA6ACA54E0CA6AFE3395E0F9
:20150000FDFC7803E22AFA08E23EFE08E23DFD08E23CFC8D978E968A95D2AFD2AD43BE0578
:201523007587010022AF82AE83ADF0FC90153BEFF0EEA3F0EDA3F0ECA3F090153BE0FCA3F0
:20154300E0FDA3E0FEA3E0FFEC4D4E4F605EC374FF9C74FF9D74079EE49F503990FFFF750A
:20156300F007E4C007C006C005C0041213FDD004D005D006D007EC2401F8E43DF9EE34F8C2
:20158300FAEF34FFFB90153BE8F0E9A3F0EAA3F0EBA3F080A58C828D838EF0EF1213FD90A0
:2015A300153BE4F0A3F0A3F0A3F0808EE59E20E6FB758210021374AF82AE83ADF0FC901589
:2015C3003FEFF0EEA3F0EDA3F0ECA3F090153FE0FCA3E0FDA3E0FEA3E08C828D838EF00288
:2015E300152853C07F3253C0DF32900014123F3C7F007E047D04BD1F0050678D04EC2C9044
:201603006264F0900064C007C006C005123F3CD005D006D007906264E020E62B906264E01F
:20162300FC5304407B008E017A00C004C003C001C002743CC0E074ADC0E0121ECDE58124EE
:20164300FAF5818E07801B906264E043E001F0900064C007C005123F3CD005D0070D8D0644
:201663008094906264E043E001F0BF13005003021738EF24E15003021738EF24EDFF240ACE
:2016830083F582EF241083F583E473A6B3C0CDD9E5F0FC0814202C16161616161616161719
:2016A30017171790163274FCF07408A3F0021742901632742EF07409A3F002174290163293
:2016C3007460F07409A3F00217429016327492F07409A3F0806990163274C4F07409A3F001
:2016E300805D90163274F6F0F4A3F080529016327428F0740AA3F08046901632748CF07408
:201703000AA3F0803A90163274F0F0740AA3F0802E9016327486F0740BA3F0802290163236
:20172300741CF0740CA3F080169016327480F0740CA3F0800A90163274B9F0740BA3F0908D
:201743001632E0FEA3E0FFC3EE94F0EF940A50079016347401F022901634E4F022E58260CD
:2017630010901630E0FFBFFF005006901630EF04F0901630E0FFBF18005007900E10E4F56A
:20178300F022BF24005007901C20E4F5F02290518075F001E42290162CE07858F2E408F224
:2017A3009002351297907807740AF2E408F212186CAE82AF8374232EFEE43FFF90162BE0CB
:2017C30054077D0025E0FCED33FDEC241BF582ED3416F583EEF0EFA3F090162BE02401F099
:2017E300227E007F007D00BD0800501DED75F002A4241BF582741635F0F583E0FBA3E0FCE9
:20180300EB2EFEEC3FFF0D80DEEFC423CEC423541F6ECE541FCE6ECEFF901649E0FCA3E015
:20182300FDC3EE9CEF9D50058C828D83228E828F8322AE82AF837D00BD08005017ED75F099
:2018430002A4241BF582741635F0F583EEF0EFA3F00D80E422E59DFF70047582FC22BF0244
:20186300047582FE227582FE22AE82AF837C007D007B10EF235401FAEE2EFEEF33FFEC2C99
:20188300FCED33FDEA60034304017807C3E2F5F0EC95F008E2F5F0ED95F040117807D3E257
:2018A3009CF4B3FCB308E29DF4FD430601DBC48E828F8322AD82AE83AFF0ED4E7001227B46
:2018C300007C00901618E0F513A3E0F514750F18751016E513451460398D118E12C3E5133D
:2018E3009511E5149512502AC005C006C007AB13AC1474022513FAE43514FF8A0F8F108ABF
:20190300828F83E0F513A3E0F514D007D006D00580C17809E513F2E51408F2ED24FEFDEEA1
:2019230034FFFE74022DFAE43EFF8A828F837809E2F008E2A3F0850F82851083EDF0EEA32B
:20194300F08D828E83E0F513A3E0F5147809E2B5130708E2B5140280028039C003C00485D2
:201963001382851483A3A3E0FBA3E0FC8A828F83EBF0ECA3F08D828E83E0FBA3E0FC8B8214
:201983008C83E0FBA3E0FC8D828E83EBF0ECA3F0D004D003EB4C604BC002C0078B828C8333
:2019A300E0FAA3E0FFEAB50506EFB506028005D007D00222D007D0028D828E83E0FDA3E0F9
:2019C300FE8B828C83EDF0EEA3F074022BFBE43CFC8A828F83E0FAA3E0FF8B828C83EAF064
:2019E300EFA3F022AE82AF837450C0E074ADC0E0121ECD158115817D00BD1000501C8D034A
:201A03007C00C003C0047459C0E074ADC0E0121ECDE58124FCF5810D80DF745FC0E074AD99
:201A2300C0E0121ECD158115817D00BD100050127469C0E074ADC0E0121ECD158115810DBA
:201A430080E97C007D00E58124FDF8C3EC96ED089650488C028D03EA540F60028015C00414
:201A6300C005746DC0E074ADC0E0121ECDE58124FCF581EC2EF582ED3FF583E0FB7A00C019
:201A830003C0027478C0E074ADC0E0121ECDE58124FCF5810CBC00AE0D80AB745FC0E074A3
:201AA300ADC0E0121ECD158115817F00BF100050127469C0E074ADC0E0121ECD1581158196
:201AC3000F80E9747EC0E074ADC0E0121ECD1581158122C007C083C082858107C004C0030D
:201AE300C002C001C00074F42581F8868318868218860018E493A36014B4250C7C007A0052
:201B0300E493A36008B42516121E0880E7D000D001D002D003D004D082D083D00722B463E3
:201B23000518E61880E2FB4420B46D43EB542003F9C083C082121D727C08C083C082EC14D8
:201B43002582F582E5833400F583E0FAC47B02540F29901E3793121E08EADBF3D082D0839C
:201B6300DC06D082D083808C743A121E0880CBEBB42A09BA009274014CFC8084B43007BA1A
:201B83000004740680F2FB24D0501224F6400E240AFB740A8AF0A42BFA740480DBBB6C0DA8
:201BA300EC54086004741080CF740880CBBB7343EC5408C083C0827005121D908007C2D54C
:201BC300C2D1121D72EC5404700A121D796093121E0880F6BA00028089121D79600B121EBF
:1D1BE30008DAF6021B65021CC27420121E08DAF9021B65EB4420B478EDC083C0829D
:201C0000121DBAC083C082E5F023F90324FF2582F582E5833400F583121DAD54F070131951
:201C2000121DAD700D191582E582B4FF021583D5F0E6B9000109EC5420600B09EC54026003
:201C400005742D121E08EC54046018EAC39940136011FAEC5402C4032420F582E582121E8B
:201C600008DAF9EC5420600B19EC54027005742D121E08EB542003FAD082D083E904C31351
:201C8000FC142582F582E5833400F583E954016007121DAD79018007121DAD7902FBC45416
:201CA0000F2AC083C082901E3793D082D083121E08EBD9EB1582E582B4FF021583DCD90260
:201CC0001B65BB640674204CFC8008BB75028003021AF7C083C082121DBAC0F07408C39541
:201CE000F02443F9E43415FB121DADA3121DFDF0A3121DFDD5F0F1121DFDF5F0EC5420607B
:201D000028E5F054807006EC54DFFC801CD0F0C0F07408C395F02443F582E43415F583C34B
:201D2000E0F9E499F0A3D5F0F775F00AE4F0A3D5F0FBD0E0C403FB90154B75F00AE0F9545A
:201D40000F24FBE950022403F954F024B0E950022430F0A3D5F0E6901543C375F012E033E0
:201D6000F0A3D5F0F9DBD090154B75F00AC2D5021C038683188682182220D50620D107E01A
:201D8000A322E493A3228883A882E6A883058222C2D5C2D1E61860DA6480600D64C0600517
:201DA00085938380CFD2D180CBD2D580C530D508C000A882E6D00022E022EC54017021D2EA
:201DC000D575F000EC5418600E54106006D2F218181818D2F11818D2F01888821805F0220F
:201DE000C2D5EC541860105410600675F008021D7275F004021D7275F002021D72C583CBB7
:201E0000C583C582C9C58222C083C082C001C0008F008682188683181818188601188600BE
:201E2000121E2CD000D001D082D08322C082C0838500828501832230313233343536373853
:201E40003941424344454630313233343536373839616263646566C007C006C005C004C07C
:201E600001C000AC82AD83AEF0FFBF0A2A75820DC007C006C005C004C003C002C001C00093
:201E8000C021124A50D021D000D001D002D003D004D005D006D0078F82C007C006C005C005
:201EA00004C003C002C001C000C021124A50D021D000D001D002D003D004D005D006D007FE
:201EC000D000D001D004D005D006D00722C007C001C000E58124FAFFC007E58124F9F8E6F6
:201EE000C0E008E6C0E0E4C0E0C0E0901E57121AD6E58124FBF581D000D001D00722C0072D
:201F0000C006C005C004C003C001AC82FF8C018F0487060987071974012EFBE43FFDA703FC
:201F200009A7058E828F83ECF0D001D003D004D005D006D00722C007C006C005C001C000FF
:201F4000E58124F6FFE58124F8FE7D00C007E58124F5F8E6C0E008E6C0E0C006C005901E7A
:201F6000FE121AD6E58124FBF58124F8F88682088683E4F0D000D001D005D006D00722C060
:201F800082C083AF811F7E00E58124FAF8E6C0E0E58124FAF8E6C0E008E6C0E0C007C00690
:201FA000901EFE121AD6E58124FBF581A881188682088683E4F01581158122901555E0FF23
:201FC00020E71075E1ED75E1ED75E1E390155574804FF022901555E0FF30E71075E1EF7522
:201FE000E1ED75E1ED901555747F5FF022AE82AF83906172EEF0906173EFF022AF82BF0B6F
:20200000004005EF24E5500122C007121FD4D007EF24F575F005A490618F240BF0021FBBDC
:2020200075E1ED75E1ED22AE82AF83906193E020E6047582FF22E5D9FD248050197480C094
:20204000E074ADC0E0121ECD1581158175E1ED75E1ED75820022ED24FB4019748EC0E0749C
:20206000ADC0E0121ECD1581158175E1ED75E1ED758200221D1D782E7403F2758203C00741
:20208000C006C005125486D005D006D0078E038F048C03901587EBF0901588EEF08D067F70
:2020A000008F06901589EE541FF5F0E054E045F0F090158AEDF053D1F743D60843D7087400
:2020C0000855D1FFBF08F8E5D924B7901556F0E5D930E708901557740AF0800475820022AC
:2020E000906193E054C0FFBF400C90619BE0700675E1ED75E1ED8D8222AE82AF83906193DF
:20210000E020E1F9901555E020E70BC007C006121FBBD006D00775E1EE75E1EE782E74022F
:20212000F2758202C007C006125486D006D0078E048F058D0490157DECF08E0590157EED36
:20214000F08E828F83E0FD7C000DBD00010C8C05901581ED541FF5F0E054E045F0F08E82F8
:202160008F83E0FE0E901582EEF053D1FB43D60443D704740455D1FFBF04F8906193E02026
:20218000E410749DC0E074ADC0E0121ECD1581158122906193E030E51074A8C0E074ADC068
:2021A000E0121ECD158115812275E1E97F00906193E020E112BF0300500D0F90003CC007FE
:2021C000123F3CD00780E7906193E020E11675E1EE75E1EE74B8C0E074ADC0E0121ECD1592
:2021E00081158122906193E020E1F922E5826003021FBB021FD4901555E030E0237F00BF40
:202200000800501BEF246AFDE43461FEEF249BF582E43415F583E08D828E83F00F80E0220F
:20222000782E7403F275820312548675E1E37591007F00BF0800501BEF246AFDE43461FEC8
:20224000EF249BF582E43415F583E08D828E83F00F80E0906170E0906174F0906171E090ED
:202260006175F09061AB743FF09061AC7455F090619674F8F09061FA7409F09061B274159C
:20228000F09061AEE4F09061897440F0906180E043E001F0906182E4F075E1ED75E1ED90FB
:2022A0006194747FF090619074D5F0901555E043E001F0904447121FED901657E0F582020F
:2022C0001FFCAF83E5827811F2EF08F2780FE2FC08E2C313CC13CCFD7813E4F208F2781333
:2022E000C3E29C08E29D5062C004C00578117913E3C5F0E225F0FC09E3C5F008E235F0FD8E
:202300008C828D83E0FA780F7913E3F5F0C3E295F0FE09E3F5F008E295F0FF1EBEFF011F88
:202320007811E22EFE08E23FFF8E828F83E08C828D83F08E828F83EAF07813E22401F20846
:20234000E23400F2D005D004809422AF83E5827817F2EF08F27815E2FC08E2C313CC13CCBD
:20236000FD7819E4F208F27819C3E29C08E29D5069C004C00578177919E3C5F0E225F0FCB8
:2023800009E3C5F008E235F0FD8C828D83E0FA78157919E3F5F0C3E295F0FE09E3F5F008B0
:2023A000E295F0FF1EBEFF011F7817E22EFE08E23FFF8E828F83E0FB6303FF8C828D83EB8C
:2023C000F074FF6A8E828F83F07819E22401F208E23400F2D005D004808D22AE82AF837DCD
:2023E000008D037C00781BC3E2F5F0EB95F008E2F5F0EC95F05018ED2EFBE43FFC8B828CCE
:2024000083E0FA6302FF8B828C83EAF00D80D222C082C083E581243FF58124EAF9E581242F
:20242000D3F8740629F6E58124DDF8740A29F6E58124C0F8C0017958E6F308E609F3900015
:2024400050129790C8E58124D6C8A68208A683D001E58124DDF8C001E58124E8F9E6F7D0A1
:2024600001E58124D7F8C001E58124C1F9E6F708E609F7D001E58124BDF8C001E58124C314
:20248000F9E4B6010104F7D001E58124DDF8C001E58124C4F9E6F7D001E58124D7F8C001AC
:2024A000E58124C5F9E6F708E609F7D001E58124DDF8C001E58124C7F9E6F7D001E5812496
:2024C000D7F8C001E58124C8F9E6F708E609F7D001E58124BDF8C001E58124CAF9E4B6029C
:2024E0000104F7D001E58124CCF8740F29F6E58124CDF8740529F6E58124CEF8740E29F647
:20250000E58124CFF8740229F6E58124CEF8C001E58124CFF9E6F7D001E58124D1F87404F9
:2025200029F6E58124CFF8C001E58124D1F9E6F7D001E58124FAF8760090163AE0FEE58152
:2025400024FAF8C3E69E400302302389057C007B40E58124FAF8E675F010A4FEAFF0780D24
:20256000E22EFE08E23FFF7820EEF2EF08F2E408F278237410F2E408F28D828C838BF0C09E
:2025800001123F76D001E58124D3F886008607E58124BDF8E6B507028003022A42740729C2
:2025A000F8E670030227BEE58124D2F88600860608860718E58124C0F8C3E69E08E69F506A
:2025C0000302301AE58124D0F8860086058D027C008A82ECC40354F8C582C403C5826582F7
:2025E000C58254F8C5826582F583E58124D1F8860086047858ECF2E408F2C007C006C00561
:20260000C001129790AB82AC83D001D005D006D007E58124DBF8A60608A607E58124DBF8F6
:20262000EB26F6EC0836F6E58124C0F88602088604E58124DBF8C3EA96EC08964003023078
:202640001AE58124C0F8E6C39EF58208E69FF5837807EDF2E408F2C00112186CC8E5812476
:20266000FAC8A68208A683D001E58124D4F8740829F6C001E58124CCF98700D001C000E570
:202680008124FCF87600D0008602C000E58124CFF8860086048AF0ECA4FAAFF0E58124FC89
:2026A000F8C001E58124D7F9E6F7097700D001E58124D8F8C3E69A08E664808FF063F08018
:2026C00095F0D000400302301AC000E58124D3F88600860608860718E58124FAF886020836
:2026E0008603E58124DEF8A602EBC423C6C423541F66C6541FC666C608F6E58124D0F886F0
:20270000008605E58124FCF88CF0E6848DF0A4FCADF0E58124DEF8EC26FCED0836FDD000AA
:20272000EC2EF582ED3FF583E0FF5302077B008AF005F07A80E43392D28008A2D2EB13FBD5
:20274000EA13FAD5F0F57E00EF5202EE5203EA4B605F870609870719C000E58124D8F886F3
:2027600004088605EC2EFEED3F8E04C423CCC423541F6CCC541FCC6CCCFDE58124B9F8EC0C
:2027800026FCED0836FD088603D0008C828D838BF0129E40FA5306078EF005F07401800241
:2027A00025E0D5F0FB42028C828D838BF0EA1285F5C000E58124FCF806D000022688E581D7
:2027C00024CFF88600860608860718E58124C0F8C3E69E08E69F500302301AE58124CDF84B
:2027E00086008605E58124CEF8860086048DF0ECA4FAABF0E58124DBF8A60608A607E581A2
:2028000024DBF8C001E58124DEF9EA26F7EB083609F7D001E58124C0F88602088603E581DD
:2028200024DFF8C3EA96EB0896400302301A8DF0ECA4FD1DE58124C0F8E6C39EFCEDC39C4A
:20284000FDE58124FBF8A605E58124DEF8740829F6C001E58124D0F98700D001C000E581C6
:2028600024FBF8E4F608F6D00086038B027F008A82EFC40354F8C582C403C5826582C58273
:2028800054F8C5826582F583C000E58124CDF8C001E58124DDF98600E6F7D001E58124DE7A
:2028A000F8C0017958E6F3E409F3D001D000C003C001C000129790AA82AF83D000D001D0E8
:2028C00003C000E58124FBF8C001E58124D9F9E6F708E609F7D001E58124DAF8C3E69A0858
:2028E000E69FD000400302301AC000E58124DDF88600860208860718E58124DAF8C001E518
:202900008124D7F9E6F708E6C423C7C423541F67C7541FC767C709F7D001E58124DEF8C0E8
:20292000017907E6F3E409F3D001E58124D8F88682088683D000C007C003C002C001C0007C
:2029400012186CAC82AD83D000D001D002D003D007C000E58124FAF8C001E58124DDF98782
:20296000F0E684D001F5F0EBA4AEF02CFCEE3DFDEC2AF582ED3FF583E0FFE58124DEF8C09A
:20298000017907E6F3E409F3D001E58124FBF88682088683D000C007C001C00012186CAD3B
:2029A00082D000D001D0075305077E008DF005F07D80E43392D28008A2D2EE13FEED13FD5E
:2029C000D5F0F57C00EF5205EC5206ED4E6061870609870719EFC423CEC423541F6ECE5470
:2029E0001FCE6ECEFFC000E58124D8F8EE26FEEF0836FFE58124B9F8EE26FEEF0836FF08D6
:202A000086058E828F838DF0129E40FCE58124DAF8740756FAD0008AF005F074018002251E
:202A2000E0D5F0FB42048E828F838DF0EC1285F5C000E58124FBF806B600020806D00002BE
:202A40002869E58124CCF88600E6FF700302301ABF02028003022F5CE58124BDF8E6600312
:202A6000022C05E58124DDF88600860308860408860508860618181874162BFFE43CFCE400
:202A80003DFDE43EFEE58124D7F8C001E58124E4F9E6F708E609F7097700097700D001E5DA
:202AA0008124E5F8E62FFB08E63CFC08E63DFD08E63EFEE58124FBF8A60374782C08F6E4EC
:202AC0003D08F6E43E08F6900050C0011297FFAA82AE83D001A88118A60208A606A8811846
:202AE0008605088606C0017450C0E0E4C0E0C005C006E58124F6F886820886830886F0086C
:202B0000E612404BE58124FCF581D001E58124DDF88600860308860408860508860618180E
:202B20001874162BFBE43CFCE43DFDE43EFEE58124E5F8E62BFB08E63CFC08E63DFD08E6C4
:202B40003EFFE58124BAF8C001E58124E4F9E6F708E609F7D001E58124E5F88602088606B5
:202B6000C0017450C0E0E4C0E0C002C0068B828C838DF0EF12404BE58124FCF581D00178BA
:202B80001B7450F2E408F2A881188682088683C0011223DBD0017F00BF50005035E58124ED
:202BA000BAF8EF26FCE40836FD0886068C828D838EF0129E40FBA88118EF26F582E4083629
:202BC000F583E052038C828D838EF0EB1285F50F80C6A8811886040886057E008C828D83E6
:202BE0008EF0C0011218B7D001780F7450F2E408F2E58124E5F88682088683C0011222C292
:202C0000D00102301AE58124C4F8E67003022DC0C001E58124E8F8860086030886040886AF
:202C20000508860618181874162BFFE43CFCE43DFDE43EFEE58124C1F8C001E58124DFF93F
:202C4000E6F708E609F7097700097700D001E58124E0F8E62FFA08E63CFC08E63DFD08E62B
:202C60003EFEE58124FAF8A60274782C08F6E43D08F6E43E08F6900050C0011297FFAB8229
:202C8000AE83D001A8811818A60308A606A88118188605088606C0017450C0E0E4C0E0C09B
:202CA00005C006E58124F5F886820886830886F008E612404BE58124FCF581D001E5812459
:202CC000E8F88600860308860408860508860618181874162BFBE43CFCE43DFDE43EFEE515
:202CE0008124E0F8C001E58124E3F9E62BF708E63C09F708E63D09F708E63E09F7D001E5F1
:202D00008124B9F886020886068A048E05C006C002C0017450C0E0E4C0E0C004C005E58100
:202D200024DDF886820886830886F008E612404BE58124FCF581D001D002D006781B7450AC
:202D4000F2E408F28A828E83C0011223DBD0017F00D001BF50005035E58124BAF8EF26FCB3
:202D6000E40836FD0886068C828D838EF0129E40FBA88118EF26F582E40836F583E052037D
:202D80008C828D838EF0EB1285F50F80C6A8811886040886057E008C828D838EF0C0011280
:202DA00018B7D001E58124BAF88682088683780F7450F2E408F2C0011222C2D00102301A2F
:202DC000E58124CBF8E6700302301AC001E58124C4F886008603088604088605088606181A
:202DE000181874162BFFE43CFCE43DFDE43EFEE58124C5F8C001E58124DFF9E6F708E60957
:202E0000F7097700097700D001E58124E0F8E62FFB08E63CFC08E63DFD08E63EFEE5812476
:202E2000FAF8A60374782C08F6E43D08F6E43E08F6900050C0011297FFAA82AE83D001A883
:202E4000811818A60208A606A88118188605088606C0017450C0E0E4C0E0C005C006E58153
:202E600024F5F886820886830886F008E612404BE58124FCF581D001E58124C4F886008600
:202E80000308860408860508860618181874162BFBE43CFCE43DFDE43EFEE58124E0F8E6DC
:202EA0002BFB08E63CFC08E63DFD08E63EFFE58124B9F8C001E58124E3F9E6F708E609F746
:202EC000D001E58124E4F88602088606C0017450C0E0E4C0E0C002C0068B828C838DF0EFE6
:202EE00012404BE58124FCF581D0017F00D001BF50005035E58124BAF8EF26FCE40836FD18
:202F00000886068C828D838EF0129E40FBA88118EF26F582E40836F583E052038C828D83DC
:202F20008EF0EB1285F50F80C6A8811886040886057E008C828D838EF0C0011218B7D0015C
:202F4000780F7450F2E408F2E58124E5F88682088683C0011222C2D00102301ABF010280C0
:202F60000302301AE58124BDF8E6600302301AC001E58124C7F886008604088605088606ED
:202F8000088607181818E58124FAF874162CF6E43D08F6E43E08F6E43F08F6E58124C8F882
:202FA0008602088603E4FEFFE58124FAF8C001E58124E3F9EA26F7EB083609F7EE0836090F
:202FC000F7EF083609F7D001E58124B9F886040886058C068D07C005C004C0017450C0E0D0
:202FE000E4C0E0C006C007E58124DDF886820886830886F008E612404BE58124FCF581D073
:2030000001D004D005780F7450F2E408F28C828D83C0011222C2D001D001E58124FAF806F2
:20302000022539E58124BFF581227F0090163AE0FEC3EF9E5034EF75F010A4FDAEF0780D16
:20304000E22DFD08E23EFE74082DF582E43EF583E0FDA3E0FE4D600F7C008D828E838CF052
:20306000C0071218B7D0070F80C2780DE2F5F008E245F06012780DE2FD08E2FE7F008D82C9
:203080008E838FF01218B7780DE4F208F290163AF02205810581780DE2F5F008E245F07091
:2030A0000302313E90163AE02401F075F010A4F58285F0831297FFAE82AF83A88118A60648
:2030C00008A607A88118740F26F582E40836F583E4F0A881188603088604FD780D7920E213
:2030E000F308E209F3E409F390163AE0FA7F001ABAFF011F7823EAF28FF0E2C5F0C454F056
:20310000C5F0C4C5F065F0C5F054F0C5F065F0C5F0F2E5F008F28B828C838DF0123F7678DB
:203120000DE2FD08E2FE7F008D828E838FF01218B7A88118790DE6F308E609F3801890000A
:20314000101297FFAE82AF83780DEEF2EF08F290163AE02401F090163AE0FF7E001FBFFF18
:20316000011EEEC454F0CFC4CF6FCF54F0CF6FFE780DE22FF58208E23EF58315811581221F
:20318000123092AE82AF83780BEEF2EF08F2740E2EF582E43FF5837401F074062EF582E483
:2031A0003FF583E4F08E828F837408F0E4A3F08E828F83A3A37408F0E4A3F074072EF58214
:2031C000E43FF583E4F022AE82AF83780BE2FC08E2FD8C828D83EEF0EFA3F08C828D83A375
:2031E000A3781DE2F008E2A3F074072CF582E43DF583781FE2F022AF82780BE2240EF582C7
:2032000008E23400F583EFF022AF82780BE22406F58208E23400F583EFF022C082C083E5DF
:20322000812405F581123092AC82AD83780BECF2ED08F2740E2CF582E43DF5837402F0745C
:20324000062CF582E43DF583E4F08C828D837440F0E4A3F08C828D83A3A37404F0E4A3F0DC
:2032600074072CF582E43DF5837401F074042CFAE43DFBE58124FAF88682088683E493FF6D
:203280007E0078717408F2E408F28F828E83C005C004C003C002129BDFAE82D002D003D01A
:2032A00004D0058A828B83EEF0E58124FCF874052CF6E43D08F6E58124FAF8868208868370
:2032C000A3A3E493FFE58124FCF88682088683EFF074082CFCE43DFD8A828B83E0FA8AF08C
:2032E000EFA4F58285F083C005C0041297FFAE82AF83D004D0058C828D83EEF0EFA3F0789A
:203300000BE2FE08E2FF74082EF582E43FF583E0FCA3E0FDA8811818A60408A6050876008D
:20332000E58124FAF8740426FAE40836FD7820EAF2ED08F2748008F28E828F83A3A3A3A363
:20334000E0FD8E828F83A3A3A3A3A3E08DF0A4FDAEF07823EDF2EE08F2A8811818868208D8
:2033600086830886F0123F76E58124F9F58122E581241CF5819000301297FFAE82AF83E519
:203380008124F5F8A60608A607087600E58124E1FCE58124F5F88602088603C004E5812477
:2033A000E0F8E6C0E008E6C0E08A828B83121F7F1581158115819000301297FFAB82AC83D1
:2033C000E58124F8F8A60308A60408E4F6FEFFE58124FBF87600C006C007E58124F3F8E55F
:2033E0008124F9F9E726FDE40836FE0886078D828E838FF0129E40FDFCD007D006ED607085
:20340000BC20118E048F0574042CFCE43DFD8C068D0780537D007858EC24E0F2ED34FF088B
:20342000F2900021C007C006129790AC82AD83D006D007EC24C2F582ED34ADF583E493FD15
:20344000FC53040F7410C39CFCEDC4540FFDECC39DFD8E038F047A00ED2BFBEA3CFC0BBB38
:2034600000010C8B068C07E58124FBF8060233D61EBEFF011F8E04EFC423CCC423541F6C98
:20348000CC541FCC6CCCE58124FCF8A604EE54076006E58124FCF806780BE22408FE08E215
:2034A0003400FFE58124FCF886047D008C03EDC454F0CBC4CB6BCB54F0CB6BFA8B828A83B2
:2034C000C007C006C003C0021297FFAC82AD83D002D003D006D0078E828F83ECF0EDA3F004
:2034E000780BE22408F58208E23400F583E0FEA3E0FF4E70127422C0E074BAC0E0121ECDFD
:2035000015811581023D807D007828E4F27829EBF2EA08F28E828F838DF01249E1780BE22B
:20352000FE08E2FF8E828F83A3A3A3A3E58124FCF8E6F08E828F83A3A3A3A3A37410F0E4F9
:20354000FEFFE58124FBF87600C006C007E58124F3F8E58124F9F9E726FDE40836FE088645
:20356000078D828E838FF0129E40FDFCD007D006ED7003023D54BC20128E048F0574042C64
:20358000FCE43DFD8C068D07023D4BC006C0078C057F007858ED24E0F2EF34FF08F2900065
:2035A00021C007C005129790AC82AE83D005D007EC24C2F582EE34ADF583E493FEFC5304C2
:2035C0000F7410C39CFCE58124FCF8EEC4540FF6E58124FCF8E58124FBF9ECC396F778586C
:2035E000ED24E0F2EF34FF08F2900021129790AE82AF83E58124E5F8EE24C2F6EF34AD0877
:20360000F6E58124FDF87600D007D006A88118B6100040030236C8C006C007E58124FDF8BC
:20362000E675F003A4FCADF0E58124F6F8E58124E7F9EC26F7ED083609F708E609F7E58195
:2036400024FDF8E626FE2402C8E58124E5C826F58208E436F583E493FFE58124E7F8868204
:203660000886830886F0EF1285F574012CFBE43DFFE58124F6F8EB26FBEF0836FF08860244
:20368000EE04C8E58124E5C826F58208E436F583E4938B828F838AF01285F574022CFCE4E4
:2036A0003DFDE58124F6F8EC26FCED0836FD0886078C828D838FF0E41285F5E58124FDF801
:2036C00006D007D00602360C8E048F055304077D00A881181886027B00EAB50407EBB50547
:2036E00003023B74C3EA9CEB9D400302392E8C03A8811818EBC396FDBD080050030237CA55
:203700005305077C00BC300040030237CAC006C007E58124E7F8A604087600E58124E7F815
:20372000740226FAE40836FBE58124F6F8E58124EAF9EA26F7EB083609F708E609F7E5816D
:2037400024E7F8740126FEE40836FFE58124F6F8E58124EDF9EE26F7EF083609F708E60995
:20376000F7E58124EDF886820886830886F0129E40FAE58124EAF886820886830886F0EA75
:203780001285F5E58124F6F8E58124E7F9E726FA09E70836FE0886078A828E838FF0129EA7
:2037A00040FBE58124EDF886820886830886F0EB1285F58A828E838FF0E41285F58C027443
:2037C000032AFCD007D0060237057C00BC30004003023B74C006C007E58124EDF8A60408CB
:2037E0007600E58124EDF8740226FBE40836FEE58124F6F8E58124E7F9EB26F7EE0836090E
:20380000F708E609F7E58124E7F886820886830886F0129E40FA8DF005F0E58124EAF8EA11
:203820008002C313D5F0FBF6E58124EDF8740126FAE40836FFE58124F6F8E58124F0F9EA80
:2038400026F7EF083609F708E609F7E58124F0F886820886830886F0129E40FA8D03E58147
:2038600024E3F87408C39BF68A03E58124E3F886F005F0EB800225E0D5F0FBFBE58124EA7B
:20388000F8E64203E58124E7F886820886830886F0EB1285F5E58124F0F8868208868308FB
:2038A00086F0129E40FB8DF005F0E58124EAF8EB8002C313D5F0FBF6E58124F6F8E58124CE
:2038C000EDF9E726FB09E70836FE0886078B828E838FF0129E40FAE58124E3F886F005F0E2
:2038E000EA800225E0D5F0FBFAE58124EAF8E64202E58124F0F886820886830886F0EA1202
:2039000085F58B828E838FF0129E40FA8DF005F0EA8002C313D5F0FB8B828E838FF01285FE
:20392000F58C0374032BFCD007D0060237CCA8811818A98119E6C39CF7A88118B60800508C
:2039400003023A08A88118E65407F6A8817600A881B630004003023A08C006C007A88118A5
:203960001886027B00E58124F6F8E58124F0F9EA26F7EB083609F708E609F774012AFDE4A3
:203980003BFFE58124F6F8ED26FDEF0836FF0886068D828F838EF0129E40FCE58124F0F8A8
:2039A00086820886830886F0EC1285F574022AFAE43BFBE58124F6F8E58124F0F9EA26F752
:2039C000EB083609F708E609F7E58124F0F886820886830886F0129E408D828F838EF01226
:2039E00085F5E58124F0F886820886830886F0E41285F5A88118188604A881181874032CF5
:203A0000F6D007D00602394FA8817600A88118E58124F2F97408C396F7A881B63000400306
:203A2000023B74C006C007A881181886027B00E58124F6F8E58124EAF9EA26F7EB083609CE
:203A4000F708E609F7E58124EAF886820886830886F0129E40FCE58124FDF886F005F0E5C3
:203A60008124EDF8EC800225E0D5F0FBF674012AFCE43BFFE58124F6F8EC26FCEF0836FF28
:203A80000886068C828F838EF0129E40FDE58124F0F886F005F0ED8002C313D5F0FBFDE543
:203AA0008124EDF8E64205E58124EAF886820886830886F0ED1285F58C828F838EF0129E85
:203AC00040FDE58124FDF886F005F0E58124EDF8ED800225E0D5F0FBF674022AFAE43BFB72
:203AE000E58124F6F8E58124EAF9EA26F7EB083609F708E609F7E58124EAF886820886833E
:203B00000886F0129E40FDE58124F0F886F005F0ED8002C313D5F0FBFDE58124EDF8E642C4
:203B2000058C828F838EF0ED1285F5E58124EAF886820886830886F0129E40FFE58124FDF0
:203B4000F886F005F0EF800225E0D5F0FBFFE58124EAF886820886830886F0EF1285F5A8A7
:203B60008118188605A881181874032DF6D007D006023A19A881187600A88118B610004016
:203B800003023D2F8E038F04ECC423CBC423541F6BCB541FCB6BCB780BE22408FA08E23445
:203BA00000FCC006C0078A828C83E58124F0F8E0F6A3E008F6E58124E5F8A603087600E525
:203BC0008124E5F8740226FDE40836FBE58124FDF8E58124FAF986F0E7A4C0E0C0F0E581FA
:203BE00024E9F8D0E0F618D0E0F6E58124EAF8E62DFE08E63BFFE58124F0F8E58124F0F9D2
:203C0000EE26F7EF083609F7E58124F0F88682088683E0FBE58124FDF8E58124E7F9E675C2
:203C2000F003A4F709A7F0E58124E7F8740226FEE40836FFE58124F6F8EE26FEEF0836FD7E
:203C40000886078E828D838FF0129E40FEEB4206E58124F0F88682088683EEF08A828C838B
:203C6000E0FEA3E0FFE58124E5F8740126FBE40836FDE58124EAF8E62BFB08E63DFDE581C2
:203C800024EDF8EB2EF6ED3F08F6E58124EDF88682088683E58124F0F9E0F7E58124E7F8A7
:203CA000740126FBE40836FDE58124F6F8EB26FBED0836FD0886078B828D838FF0129E4082
:203CC000FBE58124F0F8E64203E58124EDF88682088683EBF08A828C83E0FAA3E0FCE5810F
:203CE00024E5F8E58124EAF9E726FE09E70836FFEE2AFAEF3CFC8A828C83E0FFE58124F66B
:203D0000F8E58124E7F9E726FB09E70836FD0886068B828D838EF0129E4042078A828C838B
:203D2000EFF0E58124FDF806D007D006023B79E58124FDF886058E038F047A00ED2BFBEA17
:203D40003CFC0BBB00010C8B068C07E58124FBF806023549E58124F8F88602088603088610
:203D6000048A828B838CF01218B7E58124F5F886050886060886078D828E838FF01218B71D
:203D8000E58124E4F58122C082C083C0F0C0E0123092E5828583F0780BF2E5F008F27582DA
:203DA000041213749000161297FFAA82AB838A068B07C003C0027416C0E0E4C0E0C006C0E3
:203DC00007E58124F7F886820886830886F008E612404BE58124FCF581D002D00374102AF2
:203DE000F582E43BF583E0FFBF2012780BE2240FF58208E23400F5837401F08013BF211058
:203E0000780BE2240FF58208E23400F5837402F07F008A828B838FF01218B7780BE2FE0833
:203E2000E2FF74082EF582E43FF583E4F0A3F0740A2EF582E43FF583E58124FDF8E6F00863
:203E4000E6A3F008E6A3F008E6A3F074062EF582E43FF58374FEF01212DC120F49E58124D7
:203E6000FCF58122123F04AC82AD83AEF0FF901558ECF0EDA3F0EEA3F0EFA3F022123F048B
:203E8000AC82AD83AEF0FF901558E0F8A3E0F9A3E0FAA3E0FBECC398F8ED99F9EE9AFAEFAC
:203EA0009BFBE9C403C8C403540768C85407C868C8F9EAC40354F849F9EBC403CAC4035480
:203EC000076ACA5407CA6ACAFBC000C001C002C0037432C0E074BAC0E0121ECDE58124FAB8
:203EE000F581901558ECF0EDA3F0EEA3F0EFA3F022AE957F00AD967C00EE4204EF42058C57
:203F0000828D8322AC957D007E007F00A89679007A008A0389028801E42CF8E93DF9EA3E11
:203F2000FAEB3FFBAC978D078C06E428F8ED39F9EE3AFAEF3B888289838AF022AE82AF8376
:203F40008E048F051EBEFF011FEC4D60030080F022AE82AF838E048F051EBEFF011FEC4D56
:203F600060109003E6C007C006123F3CD006D00780E322023F51AD82AE83AFF07825EDF2FF
:203F8000EE08F2EF08F27820E2F50F08E2F51008E2F5117823E2F51208E2F513AB12AC1301
:203FA000151274FFB512021513EB4C6025850F828510838511F0129E40FCA385820F858359
:203FC000108D828E838FF0EC1285F5A3AD82AE8380CA7825E2F58208E2F58308E2F5F02224
:203FE00090155CE0FCA3E0FDA3E0FEA3E08C828D838EF0228582F9E5F820E0FB85F98222A8
:204000005390EF2243901022AC82AD83AEF0FFC007C006C005C004124000758203123FF405
:20402000D004D005D0068E82C006C005C004123FF4D004D0058D82C005C004123FF4D00403
:20404000D005D006D0078C82023FF4AC82AD83AEF0FFE58124FDF88602088603C007C0067B
:20406000C005C004C003C002124000758203123FF4D002D003D004D005D0068E82C006C0E7
:2040800005C004C003C002123FF4D002D003D004D0058D82C005C004C003C002123FF4D00D
:2040A00002D003D004D005D006D0078C82C003C002123FF4D002D003E58124FBF8793DE63F
:2040C000F308E609F38A828B831257EC024004AF82C007124000D0078F82123FF402400491
:2040E000124000758205123FF4758200123FF4E58220E0F512400475820122AC82AD83AE19
:20410000F0FFE58124FDF88602088603758206C007C006C005C004C003C0021240CF12400D
:2041200000758202123FF4D002D003D004D005D0068E82C006C005C004C003C002123FF4F4
:20414000D002D003D004D0058D82C005C004C003C002123FF4D002D003D004D005D006D0BB
:20416000078C82C003C002123FF4D002D0038A068B07E58124FBF886040886058C028D03E1
:204180001CBCFF011DEA4B60228E828F83E0FBA3AE82AF838B82C007C006C005C004123FFD
:2041A000F4D004D005D006D00780D11240040240E07582B90240CF7582AB0240CFAE82AF99
:2041C00083C007C00612400075825A123FF4758200123FF4D006D0078F82C007C006123F0F
:2041E000F4D006D0078E82123FF4758200123FF4E58124FCF8793DE6F3E409F3E58124FD19
:20420000F886820886831257EC024004E582601953F87F75FA0043FC1043FC2043F10212E3
:20422000400443FE7043F4E02253FE8F53908F53F41F22E5812404F581901560E070071204
:2042400041B7D302478C901560E4F09000081297FFAE82AF83E58124FDF8A60608A60790D3
:2042600001401297FFAC82AD83A88118A60408A6051241B77408C0E0E58124FCF8E6C0E02F
:2042800008E6C0E09000001241BD158115811581E58124FDF88682088683E0FBBB5367E561
:2042A0008124FDF88682088683A3E0FBBB4657E58124FDF8740226FAE40836FB8A828B8329
:2042C000E0FDBD4441C002C003E58124FBF8740326FFE40836FE8F828E83E0FBBB50028077
:2042E00006D003D002801FE58124FBF8740726F582E40836F583E0FBBBFF07D003D0020202
:204300004487D003D002C208C021124000D021758290C021123FF4D021758200C021123F78
:20432000F4D021758200C021123FF4D021758200C021123FF4D021758200C021123FF4ADB2
:2043400082D021BDC202800DBDC8028079BDEF028047024407D20890163B7420F075820064
:20436000C021123FF4AC82D021BC05028005BC1223801090155CE4F0A3F004A3F0E4A3F0B9
:2043800002446490155CE4F0A3F07408A3F0E4A3F0024464C208024464D20890163B742018
:2043A000F0758200C021123FF4AC82D021BC131190155CE4F0A3F07408A3F0E4A3F00244BD
:2043C00064C208024464D20890163B7420F0758200C021123FF4AC82D021BC12028008BC76
:2043E0001302801302446490155CE4F0A3F07408A3F0E4A3F0806D90155CE4F0A3F07410A4
:20440000A3F0E4A3F0805D7C00C005C004743DC0E074BAC0E0121ECDE58124FCF5819016F2
:204420003B7420F090155CE4F0A3F07408A3F0E4A3F0758200C021123FF4AD82D0217C0016
:20444000C005C004745BC0E074BAC0E0121ECDE58124FCF5817463C0E074BAC0E0121ECD5B
:2044600015811581C021124004D021A8811886040886057F008C828D838FF0C0211218B7AC
:20448000D021A20802478CE58124FDF88682088683A3A3A3A3A3E0FDBD01028004C30247B8
:2044A0008CE58124FDF8740626F582E40836F583E0FDBDFF011D8A047A00C004C003C00733
:2044C000C006C005C0027408C0E08A82124DE9AB82AC831581D00274082BFBE43CFCC004D9
:2044E000C003C0027408C0E0E58124F4F8E6C0E008E6C0E08B828C831241BD158115811524
:2045000081D002D003D004D005D006D007E58124FBF88682088683E0D003D0046003024756
:2045200082C0058C828B83E0FDBD01028005D005024782D005C004C0038F828E83E0FCBC40
:204540000900D003D0045003024782E58124FDF8740426FEE40836FF8E828F83E0FEA3E0CE
:20456000FF7424C0E0A8811818E6C0E008E6C0E08E828F831241BD158115811581A8811862
:204580008682088683E0FFFE530603BE0102800302478BEF20E20302478BA8811886820898
:2045A0008683A3A3E05406600302478BA881188682088683A3E0FD700302478BBDFF030259
:2045C000478B90163BEDF0A88118740726F582E40836F583E0FE30E70302478B8E07EFFE0A
:2045E000601090155CE4F0A3F07420A3F0E4A3F08042A88118740626F582E40836F583E0B1
:20460000FE601090155CE4F07420A3F0E4A3F0A3F08021A881188682088683A3A3A3A3A3FC
:20462000E0FE700302478B90155C7420F0E4A3F0A3F0A3F0EE602E90155CE0FFA3E0FCA3B5
:20464000E0FBA3E0FAEF2FFFEC33FCEB33FBEA33FA90155CEFF0ECA3F0EBA3F0EAA3F0EE52
:20466000C313FE80CF7C1C8C067F000EBE00010FA88118EE26F582EF0836F583E0FF6038AA
:20468000BFFF028033A88118EC26F582E40836F583E0FEBE0C02800ABE0F02800FBE1018CB
:2046A0008011EDB507028010C302478C90163CEFF0800590163DEFF08C0774022FFCBC247A
:2046C0000040A47482C0E074BAC0E0121ECD158115817493C0E074BAC0E0121ECD1581154C
:2046E0008190163BE0FFE060177E00C007C00674A3C0E074BAC0E0121ECDE58124FCF58199
:2047000090163CE0FFE060177E00C007C00674B0C0E074BAC0E0121ECDE58124FCF581905B
:20472000163DE0FFE060177E00C007C00674BDC0E074BAC0E0121ECDE58124FCF5817E5C73
:204740007F15C006C00774CAC0E074BAC0E0121ECDE58124FCF581A8811886040886057FB6
:20476000008C828D838FF01218B7E58124FDF886060886077D008E828F838DF01218B7D34B
:20478000800A0AC3ED9A40030244BAC3A8D0E58124FCF58188D022C082C083C0F0C0E0056D
:2047A000810581E58124F7F88605088604E58124F5F8E608467003024875C005C004E58190
:2047C00024F9F88602087B00E58124FDF8E4C39AF674019B08F6E58124FDF8E58124F3F900
:2047E000C3E79609E70896D004D005500EE58124F5F8A98119E6F708E609F78D028C03C081
:2048000005C004E58124FDF8E6C0E008E6C0E0C002C003E58124F5F886820886830886F0A9
:2048200008E61240FBAB82E58124FCF581D004D005EB7004F5828040A8811886020886037B
:20484000E4FEFFE58124FBF8EA26F6EB0836F6EE0836F6EF0836F6A88118E62DFD08E63C15
:20486000FCE58124F5F8A98119E6C397F608E60997F60247AD758201E58124FAF58122C0FE
:2048800082C083C0F0C0E0E58124FDF88602088603EA7005EB540F601574DBC0E074BAC06C
:2048A000E0121ECD158115817582000249CEE58124F9F8E6084670030249CB758206124058
:2048C000CF124000E58124F9F88602088603C3EA9410EB9400401FE58124FDF8860208865F
:2048E00003EA4B701190163DE0FBE060098B82123FF47B108041E58124F9F88602088607C2
:20490000C3EA9408EF94004023E58124FDF88602088607EA7016EF547F701190163CE0FF58
:20492000E060098F82123FF47B08800B90163BE0F582123FF47B01E58124FDF8080886823A
:20494000C003123FF4D003E58124FDF8088682C003123FF4D003E58124FDF88682C00312B6
:204960003FF41240041240E0E582D003701474EFC0E074BAC0E0121ECD15811581758200CD
:20498000804CC003C003901000124DFEAC82AD83AEF0FF1581D003E58124FDF8EC26F6EDF0
:2049A0000836F6EE0836F6EF0836F6E58124F9F886060886077D00EEC39BFEEF9DFFE5812A
:2049C00024F9F8A60608A6070248AE758201E58124FCF581227582B10240CF7582C10240A0
:2049E000CFAFF0AE83E582782BF2EE08F2EF08F27829E2F50F08E2F5107829E2F5F008E283
:204A000045F0602A782BE2FA08E2FB08E2FC7828E2FFAD0FAE108A828B838CF0EF1285F581
:204A2000A3AA82AB831DBDFF011EED4E70E8782BE2F58208E2F58308E2F5F02243FF014319
:204A4000EC0475EB3E75ED8B2253FF0153A0FE22AF82C2AF53D8EF741055D8FEBE10F853CF
:204A6000A0FE7E00BE0800501E53D8EF741055D8FDBD10F8EF30E00543A001800353A0FEFD
:204A8000EFC313FF0E80DD53D8EF741055D8FFBF10F843A001D2AF2290163E7401F09016E0
:204AA0003FE4F0901640F0901641F090164204F0901643F0901644F0901646E4F0901645FC
:204AC000F09016497423F0E4A3F090164BF09016477492F07409A3F022AD82AE83AFF07490
:204AE00000C0E074BBC0E0121ECD158115818D828E838FF0129E40FCBC01237A3E7B167CEE
:204B0000007820EDF2EE08F2EF08F27823740EF2E408F28A828B838CF0123F76800F7425DB
:204B2000C0E074BBC0E0121ECD15811581901536E0901645F0024CEA9000801297FFAE8227
:204B4000AF838E048F05C007C006740EC0E0E4C0E0C004C005900004F5F012404BE58124A1
:204B6000FCF581D006D0078E048F057B00786C743EF2741608F2E408F2786F740EF2E40844
:204B8000F28C828D838BF0C007C006129B25E5828583F0D006D00745F070128E048F05FB47
:204BA0008C828D838BF01218B7758201227D008E828F838DF01218B7758200222290008019
:204BC0001297FFAE82AF838E048F05C007C006740EC0E0E4C0E0C004C005900004F5F0125E
:204BE000404BE58124FCF581D006D0078E048F057820ECF2ED08F2E408F27823740EF2E42D
:204C000008F290163EF5F0C007C006123F76901561E4F0A3F0A3F0A3F07404C0E0E4C0E04E
:204C20007461C0E07415C0E0900000E4F5F012404BE58124FCF581D006D0078E048F058C85
:204C4000098D0A7A3E7B168A828B83C007C006740EC0E0E4C0E0C009C00A125005E581249A
:204C6000FCF581D006D00790163EE0FDBDFF028022C005901561E0FAA3E0FBA3E0FCA3E0CF
:204C8000FDBAA50DBB5A0ABCBA07BDAB04D005801ED005C007C006124A98D006D007746A4F
:204CA000C0E074BBC0E0121ECD158115818030BD0100501CC007C006124BBCD006D00774BB
:204CC0008DC0E074BBC0E0121ECD15811581800F74B7C0E074BBC0E0121ECD158115817DE0
:204CE000008E828F838DF00218B7124B38E582601074D5C0E074BBC0E0121ECD15811581F7
:204D0000227401C0E0E4C0E0900000F5F012487F1581158190156574A5F0F4A3F074BAA3F3
:204D2000F0C4A3F07404C0E0E4C0E07465C0E07415C0E0900000E4F5F0124797E58124FC1F
:204D4000F581740EC0E0E4C0E0743EC0E07416C0E0900004E4F5F0124797E58124FCF58172
:204D60007402C0E074BCC0E0121ECD1581158122901569E4F0A3F0A3F0A3F07428C0E074B7
:204D8000BCC0E0121ECD158115817404C0E0E4C0E07469C0E07415C0E0900000E4F5F012E1
:204DA0004797E58124FCF58122858283D0F0D0E0D082C082C0E0C0F022C00074FB2581F82A
:204DC000E58286820886830886F0D0002275F008C58213C58233D5F0F7C58222E583A2E78C
:204DE00013F583E58213F58222D083D0E0D0F0C0F0C0E0C083E582A4F58285F08322C00063
:204E0000E58124FDF8E6F88582F0A4F582E8A8F08583F0A428F583E5F03400F5F0E4D000C5
:204E200022C000C001C0E0C0F074FA2581F88600E58288F0A4F582A9F0E58388F0A429F5B8
:204E400083E5F03400F9D0E088F0A429C5F03400F9D0E0C0F088F0A429D0F0D001D00022CE
:204E6000C000C001C002E58124FBF8E6F918E6F88582F0A4C0E0AAF0E58388F0A42AF8E53D
:204E8000F03400FAE98582F0A428C0E0E5F03AFA74003400F8E98583F0A42AFAE5F0388ABF
:204EA000F0D083D082D002D001D00022D0E0D0F0C000C001C002C0F0C0E074F82581F9E7D3
:204EC000F809E7F922D002D001D00022C9C583C9C8C582C822124EAC75F008124ECCE0A33F
:204EE000124ECCF0A3D5F0F3024EC5124EAC75F008124ECCE493A3124ECCF0A3D5F0F202EF
:204F00004EC5124EACC375F008124ECCE0A3F502124ECCE03AF0A3D5F0EF024EC5124EACEE
:204F200075F008124ECCE0A3F502124ECCE05AF0A3D5F0EF024EC5124EACC375F008124E00
:204F4000CCE0A3F502124ECCE09AF0A3D5F0EF024EC5124EACC375F008124ECCE0A3F50227
:204F6000124ECCE0A39AD5F0F0024EC5124EAC75F008124ECCE0A3F502124ECCE0A36A7076
:204F800007D5F0EED3024EC5C3024EC5C8C0E075F008E038F0A3D5F0F9D00022D3E4024F5F
:204FA0008CC374FF024F8CC000C00174FA2581F8E6F5F0088601496015088600E8F0A37430
:204FC000FF25F0F5F074FF39F50145F070EED001D00022C000C001C00274F92581F9E7D3D7
:204FE000601CF5F0098700098701C3E0F502A3124ECCE0A3124ECC6A7004D5F0EED3D002E1
:20500000D001D00022C000C001C00274F82581F9E7F5F00987024A601F0987000987011225
:205020004ECCE0A3124ECCF0A374FF25F0F5F074FF3AF50245F070E7D002D001D00022C022
:2050400000C001C00274F92581F9E76015F5F0098700098701124ECCE0A3124ECCF0A3D51C
:20506000F0F3D002D001D00022C083C082E06003A380FAC3E582D0F095F0F582E583D0F0C5
:2050800095F0F58322C003C002C001C000C0E0C0F0C083C082A98174F62581F886F01886D0
:2050A00000750201750300758211A2F74014C3E833F8E5F033F5F0C3EA33FAEB33FB0582CE
:2050C00080E8E4C003C002C0E0C0E0AA81C0F0C000C0E0C0E0A881C0E0C0E0C0E0C0E0AB90
:2050E00081C000C001C375830486F018E71995F0D583F6D001D000402BC000C001C3758346
:205100000486F018E795F0F719D583F585020085030175830486F018E745F0F719D583F521
:20512000D001D00074FC28F8C375830408E613F6D583F9C00074FC2AF8C375830408E61325
:20514000F6D583F9D000D5829820D508D082D083D0F0D00074F42581F58130D508D082D064
:2051600083D0F0D000E8D000D001D002D00322C2D5025085D2D5025085C003C002C001C0DA
:2051800000C0E0C0F0C083C082A98174F62581F886F07401758219A2F7400A23C5F023C56A
:2051A000F0058280F2C0E0E4C0E0C0E0C0E0AA81C0F0C0E0C0E0C0E0A881C0E0C0E0C0E0DE
:2051C000C0E0AB81C000C001C375830486F018E71995F0D583F6D001D000402BC000C001D5
:2051E000C375830486F018E795F0F719D583F585020085030175830486F018E745F0F719D3
:20520000D583F5D001D00074FC28F8C375830408E613F6D583F9C00074FC2AF8C3758304F8
:2052200008E613F6D583F9D000D58298D082D083D0F0D00074F42581F581E8D000D001D055
:2052400002D00322C006C005C004C003C002C001C00074F72581F886F074017C09A2F740B0
:205260000923C5F023C5F00C80F3FBE4FAA9F0F88582F0FDFEC3E58298E583994011C3E5DE
:205280008298F582E58399F583EA4DFDEB4EFEC3E913F9E813F8C3EB13FBEA13FADCD62069
:2052A000D5048D828E83D000D001D002D003D004D005D00622C2D5025244D2D5025244E0C0
:2052C000C0E02401F0A3E0C0E03400F0A3E0D083D0826014B4600AC000A882E2D000F58205
:2052E000224009E493F58222E0F58222C000A882E6D000F58222124EAC75F004D3124ECC0D
:20530000E0FA3400F0EAA3124ECCF0A3D5F0EE024EC5124EAC75F004C3124ECCE0FAA31288
:205320004ECCE0A36A7004D5F0EFD3024EC5124EACC3E0A398E0A399E0A39400E0A3940022
:20534000024EC5124EACC3E0A338E0A339E0A33400E0A33400024EC575F004E07004A3D53A
:20536000F0F9F58222A3A3A3E033227F00BF050040030253EDEF75F008A4246DFD74153579
:20538000F0FE74072DF582E43EF583E054F7F074072DF582E43EF583E054FBF074062DF5D7
:2053A00082E43EF583E0547FF074062DF582E43EF583E054E0F08D828E83A3A3A3A3E05492
:2053C0001FF074072DF582E43EF583E054FCF074072DF582E43EF583E0543FF074072DF52C
:2053E00082E43EF583E054CFF00F02536D901594E0543F4440F0901594E054CF4410F0909D
:205400001593E0549F4420F0901574E0543FF0901574E054CF4410F0901573E054E0441061
:20542000F0901573E0549FF0901574E054FC4402F07EF97F708F0690156DEEF07FF990151A
:205440006EEFF090157CE054CFF090157BE054E04411F090157BE0549FF090157CE054FC3E
:20546000F07EF97F708F06901577EEF07FF9901578EFF07E6D7F158FD575D46D7E757F15B3
:205480008FD375D27522E582FF2495FDE43415FE8D828E83E0FC782EE2B5040122782EE29D
:2054A000B402028015782EE2B40303025562782EE2B4040302560602568CC005C006EF7530
:2054C000F008A4246DFB741535F0FC74072BF582E43CF583E054F7F074072BF582E43CF5F8
:2054E00083E054FBF074062BF582E43CF583E0547FF08B828C83A3A3A3A3E0541FF074074D
:205500002BF582E43CF583E054FCF074072BF582E43CF583E0543F4440F074072BF582E494
:205520003CF583E054CFF074062BF582E43CF583E054E0F074062BF582E43CF583E0549F85
:205540004420F08B828C83A3A37AD97E708E02EAF08B828C83A3A3A374D9F0D006D00502FB
:20556000568CC005C006EF75F008A4246DFB741535F0FC74072BF582E43CF583E054F7F0B8
:2055800074072BF582E43CF583E054FBF074062BF582E43CF583E0547FF08B828C83A3A37E
:2055A000A3A3E0541FF074072BF582E43CF583E054FCF074072BF582E43CF583E0543FF075
:2055C00074072BF582E43CF583E054CF4410F074062BF582E43CF583E054E0F074062BF57D
:2055E00082E43CF583E0549F4420F07AD97E708E028B828C83EAF08B828C83A374D9F0D0D7
:2056000006D00502568CEF75F008A4246DFC741535F0FF74072CF582E43FF583E0543F4421
:2056200040F074072CF582E43FF583E054CFF074062CF582E43FF583E054E04412F0740602
:205640002CF582E43FF583E0549FF074072CF582E43FF583E054FC4402F074072CF582E428
:205660003FF583E054F7F074072CF582E43FF583E054FBF08C828F83A3A37A737B628B02C3
:20568000EAF08C828F83A3A3A37473F08D828E83782EE2F022AE82AF83782FE208E290151C
:2056A0008DF0782FE290158EF08E048F058D0490158FECF0901590EEF07832E290159154D1
:2056C0001FF5F0E054E045F0F07831E2901592F053D1EF43D61043D710741055D1FFBF10FD
:2056E000F822AE82AF837833E208E290158DF07833E290158EF08E048F058D0490158FEC0E
:20570000F0901590EEF07836E2901591541FF5F0E054E045F0F07835E2901592F053D1EF66
:2057200043D61043D71022AE82AF837837E208E2C39480500F53C7F87837E2C3F208E2346B
:2057400080F2800953C7F8E59F540742C77837E208E290158DF07837E290158EF08E048FE2
:20576000058D0490158FECF0901590EEF0783AE2901591541FF5F0E054E045F0F07839E282
:20578000901592F053D1EF43D61043D710741055D1FFBF10F822AE82AF83901594E0543FDC
:2057A000F07C997D158D0490158DECF07D9990158EEDF08E048F058D0490158FECF0901521
:2057C00090EEF0783CE2901591541FF5F0E054E045F0F0783BE2901592F053D1EF43D61006
:2057E00043D710741055D1FFBF10F822AE82AF838E048F058D0490156FECF0901570EEF0F1
:20580000783EE2FF901571541FF5F0E054E045F0F0783DE2FE901572F053D1FE90159AE469
:20582000F07C9A7D158D04901575ECF07D9A901576EDF090157CE0543FF0901579EF541F36
:20584000F5F0E054E045F0F090157AEEF053D1FD43D60143D60243D702E5D130E0FB22AE2A
:2058600082AF838E048F058D04901575ECF0901576EEF090157CE0543F4440F07840E2909C
:205880001579541FF5F0E054E045F0F0783FE290157AF053D1FD43D60243D70222AFF0AE7A
:2058A00083E5829015A3F0EEA3F0EFA3F09015A3E0F50FA3E0F510A3E0F511AA0FAB10AC66
:2058C000118A008B018C07888289838FF0129E405407F8B8015F74012AFDE43BFE8C078D45
:2058E000828E838FF0129E4003035403FDBD024574012AFDE43BFE8C078D828E838FF0124B
:205900009E4023235403FDBD032B8A058B068C078D828E838FF0129E4020E619AD0FAE1049
:20592000AF1174112DFDE43EFE8D828E838FF0129E40F582228A058B068C078D828E838F4E
:20594000F0129E405407FDBD016374012AFDE43BFE8C078D828E838FF0129E4003035403B6
:20596000FDBD034974012AFDE43BFE8C078D828E838FF0129E4023235403FDBD032F8A82B1
:205980008B838CF0129E4023235401FABA011E9015A3E0FDA3E0FEA3E0FF74152DFDE43E22
:2059A000FE8D828E838FF0129E40F5822275820022AFF0AE83E5829015A6F0EEA3F0EFA323
:2059C000F09015A6E0FDA3E0FEA3E0FF8D028E038F048A828B838CF0129E405407FABA0163
:2059E0004A74012DFAE43EFB8F048A828B838CF0129E4003035403FABA023074012DFAE4C8
:205A00003EFB8F048A828B838CF0129E4023235403FABA03168D028E038F048A828B838C71
:205A2000F0129E4020E604758200228D028E038F048A828B838CF0129E405407FABA0149D1
:205A400074012DFAE43EFB8F048A828B838CF0129E4003035403FABA032F74012DFAE43E73
:205A6000FB8F048A828B838CF0129E4023235403FABA03158D828E838FF0129E4023235480
:205A800001FDBD01047582012275820022AFF0AE83E5827842F2EE08F2EF08F27845E4F2CC
:205AA0007B017841C3E2F5F0EB95F050227842E2FA08E2FC08E2FFEB2AFAE43CFC8A828C1D
:205AC000838FF0129E40FA7845E22AF20B80D37842E2FD08E2FE08E2FF8D828E838FF012A6
:205AE0009E40FD7845E2B50503D38001C3E433F58222AFF0AE83E5827847F2EE08F2EF08E1
:205B0000F2784AE4F27B017846C3E2F5F0EB95F050227847E2FA08E2FC08E2FFEB2AFAE4F8
:205B20003CFC8A828C838FF0129E40FA784AE22AF20B80D37847E2FD08E2FE08E2FF8D820D
:205B40008E838FF0784AE20285F59000201297FFAE82AF8374012EFCE43FFD784BECF2ED8E
:205B600008F28E028F037D007828E4F278297417F2E408F28A828B838DF0C007C00612499B
:205B8000E1D006D0078E828F837414F074122EF582E43FF58374EDF0784BE22409FC08E20E
:205BA0003400FD7B007820749BF2741508F2E408F278237408F2E408F28C828D838BF0C0FF
:205BC00007C006123F76D006D007784BE2F58208E2F583E054F84401F0784BE2F58208E29F
:205BE000F583E054DFF0784BE22401F58208E23400F583E054F34408F0784BE22401F582AF
:205C000008E23400F583E044C0F0784BE22402FC08E23400FD901656E0FB04F08C828D834F
:205C2000EBF0784BE22403F58208E23400F5837447F07444A3F0784BE22405F58208E23457
:205C400000F58374FFF0A3F0784BE22407F58208E23400F5837447F07444A3F08E828F83E1
:205C6000C007C0061220F9D006D0077D008E828F838DF00218B7C08205810581058190006E
:205C8000801297FFAD82AE83E58124FDF88682C006C005121FFC122020D005D0067C01A81B
:205CA000817601A881E624EB5003025E11C006C005C004125B4A123EF1E5828583F0D00490
:205CC000D005D0069015A92440F0E435F0A3F0A881181874162DF6E43E08F6C004C006C06B
:205CE00005123EF1AA82AC83D005D0069015A9E0FBA3E0FFEAC39BFAEC9FFCC3E49A7480AF
:205D00009CD0044003025E078D828E83C006C005C004122027AF82D004D005D0069015ABA1
:205D2000EFF0C374818FF063F08095F050ADA88118188682088683E0FFE58124FDF8E6B58D
:205D400007998D028E037F008A828B838FF0C006C005C00412589DAF82D004D005D006BFA6
:205D6000EE028003025CDB8D028E037F008A828B838FF0C006C005C0041259B1E582D00499
:205D8000D005D0067003025CDB8D028E037F009015ACEAF0EBA3F0EFA3F0740D2AFAE43B1E
:205DA000FB7820EAF2EB08F2EF08F278237408F2E408F290164CF5F0C006C005C004123F48
:205DC00076D004D005D0069015ACE0FAA3E0FBA3E0FF74032AFAE43BFB8A828B838FF01243
:205DE0009E40FAA3129E40FB901654EAF0EBA3F08D028E037F008A828B838FF0C0041218C5
:205E0000B7D0048C828018A88106A8818604025CA37F008D828E838FF01218B7758200E593
:205E20008124FCF58122E5812404F5819000801297FFAE82AF83EE4F700F7452C0E074BCB9
:205E4000C0E0121ECD1581158174012EFCE43FFDE58124FDF8A60408A6058E028F037D003F
:205E60007828E4F27829742DF2E408F28A828B838DF0C007C0061249E1D006D00774132ED8
:205E8000FCE43FFDA88118A60408A6058E828F83742AF074122EF582E43FF58374E5F0E5A4
:205EA0008124FDF8740926FAE40836FB7D007820749BF2741508F2E408F278237408F2E42A
:205EC00008F28A828B838DF0C007C006123F76D006D007E58124FDF88682088683E054F86C
:205EE0004401F0E58124FDF88682088683E054DFF0E58124FDF88682088683A3E054F3442C
:205F000008F0E58124FDF88682088683A3E044C0F0E58124FDF8740226FCE40836FD90169E
:205F200056E0FB04F08C828D83EBF0E58124FDF88682088683A3A3A37447F07444A3F0E5E7
:205F40008124FDF88682088683A3A3A3A3A374FFF0A3F0E58124FDF8740726F582E40836B0
:205F6000F5837447F07444A3F0A88118740626F582E40836F5837409F0A8811826F582E492
:205F80000836F5837428F0E4A3F0A88118740B26FCE40836FD901657E08C828D83F0A88133
:205FA00018740426FCE40836FD901632E0FAA3E0FB8C828D83EAF0EBA3F0A8811874082687
:205FC000FCE40836FD901536E08C828D83F0A88118740226FCE40836FD901556E08C828D6F
:205FE00083F0A88118740126FCE40836FD901557E08C828D83F0A88118740726FCE408364D
:20600000FD90162FE08C828D83F0A881188682088683A3A3A37414F0A88118740C26FCE43E
:206020000836FD901646E08C828D83F0A88118740D26F582E40836F5837455F0A8811874E4
:206040001426F582E40836F58374ABF0A8811886030886047D0078467415F28B828C838D2B
:20606000F0C007C006125AF2D006D0078E828F83C007C0061220F9D006D0077D008E828FF5
:20608000838DF01218B7E58124FCF58122E5812407F5811220209000821297FFAE82AF838C
:2060A000E58124FAF8A60608A607E58124FAF8E60846700F7470C0E074BCC0E0121ECD156E
:2060C0008115817D007E00BE0A004003026253C006C005125E26123EF1AA82AB83D005D08B
:2060E00006E58124FCF874A02AF6E43B08F6C005C006123EF1AB82AD83D006E58124FBF84F
:20610000EBC396FBED0896FDC3E49B74809DD005400302624DE58124FAF88682088683C0C7
:2061200006C005122027AB82D005D006C374818BF063F08095F050B6C005E58124F9F8860C
:20614000020886037D008A828B838DF0C00612589DAD82D006BDE6028004D0058090E58152
:2061600024F9F8741626FAE40836FB8A048B057F0078417411F28C828D838FF0C006C0054E
:20618000C003C002125A8DE582D002D003D005D006D00570030260EEE58124FAF886060822
:2061A0008607A8811818A60608A607A8811818740D26FCE40836FF7820ECF2EF08F2E40830
:2061C000F278237408F2E408F290164CF5F0C005C003C002123F76D002D003D005A8811843
:2061E000188682088683A3A3A3E0FEA3E0FF901654EEF0EFA3F090162CEDF0900011C003B8
:20620000C0021297FFAE82AF83D002D0038E828F83C007C0067411C0E0C002C00312503F13
:20622000158115811581D006D007E58124FAF886020886037C008A828B838CF0C007C006BB
:206240001218B7D006D0078E828F8380240E8E050260C790162C740AF0E58124FAF88605D9
:206260000886067F008D828E838FF01218B7900000C8E58124F9F581C822C082C083C0F01B
:20628000E5812407F58124F7F8740226FAE40836FB0886048A828B838CF0E58124FAF8127B
:2062A0009E40F6E58124FAF87958E6F3E409F3900063C004C003C002129790AE82AF83D05D
:2062C00002D003D004A88118A60608A607E58124FBF87663087600E58124F7F8740126FD8E
:2062E000E40836FE0886078D828E838FF0129E40FD901661E0FFEDB507028006758200024D
:20630000642BA88118C3E6940308E69410400675820002642BE58124FAF8E624D5500675E7
:20632000820002642BA88118746326FEE40836FFC374049E74109F5013A88118E58124FBC8
:20634000F97404C396F77410089609F7E58124F7F8860508860608860778417466F28D8299
:206360008E838FF0C004C003C002125A8DE582D002D003D0047003026428E58124F7F8747D
:206380000326FDE40836FE088607E58124FDF8A60508A606E58124F3F8A98119E726FE0978
:2063A000E70836FFC004C003C002E58124F8F8E6C0E008E6C0E0E58124F8F8E6C0E008E6F4
:2063C000C0E08E828F83125005E58124FCF581D002D003D0048A828B838CF0129E40FA7F20
:2063E0000078717408F2E408F28A828F83C007C002129BDFAD82AE83D002D007ED2463FDBB
:20640000EE3416FE5302078AF005F07401800225E0D5F0FBF4FA8D828E83E052028D828EE0
:2064200083EAF07582018003758200E58124F6F58122C082C083E5812404F5817D009000DF
:2064400080C0051297FFAB82AC83D005A88118A60308A604758201C0051221EC123EF1AABB
:2064600082AF83D005E58124FBF8860408860674142CFCE43EC42354E0CCC423CC6CCC5400
:20648000E0CC6CFEEC2AFCEE3FFEE58124FDF8A60408A606A88118741626FBE40836FFC0FF
:2064A00005C007C003123EF1AA82AD83D003D007E58124FCF8EAC396FAED0896FDC3E49A82
:2064C00074809DD005400302654AA881188682088683C007C005C003122027AA82D003D091
:2064E00005D007C374818AF063F08095F050B0C005A881181886020886057E008A828D8363
:206500008EF0C007C005C00312589DAE82D003D005D007BEE8028004D0058083D0058B0490
:206520008F067A00C007C003E58124F5F8E6C0E008E6C0E08C828E838AF012627AAD82156C
:20654000811581D003D00702649F758200C0051221ECD005A8811886030886047F008B82DD
:206560008C838FF0C0051218B7D0058D82E58124FAF581229000031297FFAE82AF83A3E4C3
:20658000F0A3F08E828F8322C082E5812404F5819000801297FFAD82AE838D028E037C003A
:2065A0007828E4F27829742DF2E408F28A828B838CF0C006C0051249E1D005D00674012DA9
:2065C000FBE43EFCE58124FDF8A60308A60474172DFAE43EFFA88118A60208A6078D828EBA
:2065E00083742AF0E58124FCF8E6600E74162DF582E43EF58374E7F0800C74162DF582E407
:206600003EF58374E4F0E58124FDF8740D26FAE40836FC7F007820749BF2741508F2E408B7
:20662000F278237408F2E408F28A828C838FF0C006C005123F76D005D006E58124FDF874F7
:206640000526FCE40836FF7B007820744CF2741608F2E408F278237408F2E408F28C828F47
:20666000838BF0C006C005123F76D005D006E58124FDF88682088683E054F84401F0E581C0
:2066800024FDF88682088683E054F7F0E58124FDF88682088683E054EFF0E58124FDF886FD
:2066A00082088683E054DFF0E58124FDF88682088683E04440F0E58124FDF88682088683C0
:2066C000A3E0440CF0E58124FDF88682088683A3E054CFF0E58124FDF88682088683A3E0AE
:2066E00044C0F0E58124FDF8740226FCE40836FF901656E0FB04F08C828F83EBF0E581241E
:20670000FDF8740326FCE40836FF901654E0FAA3E0FB8C828F83EAF0EBA3F0A88118860237
:206720000886047F0078207458F2741608F2E408F278237411F2E408F28A828C838FF0C046
:2067400006C005123F76D005D006A8811886020886047F0078467411F28A828C838FF0C093
:2067600006C005125AF2D005D0068D828E83C006C0051220F9D005D0067F008D828E838F96
:20678000F01218B7E58124FBF58122058105810581AF82900080C0071297FFAD82AE83D099
:2067A00007A8811818A60508A606758201C0071221ECD007A8817600A881B60A0040030298
:2067C00069578F82C007126588123EF1AA82AB83D007A88186057E0078717405F2E408F24C
:2067E0008D828E83C007C003C002129BDFAD82AE83D002D003D007740B2DFDE43EC42354BF
:20680000E0CDC423CD6DCD54E0CD6DFE9015AFED2AF0EE3BA3F0A88118188682088683C028
:2068200007122027AB82D0079015B1EBF0C374818BF063F08095F0400302692CC007E58131
:2068400024FDF886020886037F008A828B838FF0C00712589DAE82D007BEE805D00702682D
:20686000FAD007BEE9028009BEEC0302691302692CC007E58124FDF8741626FAE40836FB46
:206880008A048B067F0078417403F28C828E838FF0C007C003C002125A8DE582D002D00349
:2068A000D007D007700302692C900003C003C0021297FFAD82AE83D002D0038D828E83C07B
:2068C00006C0057403C0E0C002C00312503F158115811581D005D006A881181886020886D4
:2068E000037C008A828B838CF0C006C0051218B7D005D0068D828E838074A8811818860475
:206900000886057E008C828D838EF01218B7126574805BA881181886040886057E008C8221
:206920008D838EF01218B79000008042C007123EF1AD82AE83D0079015AFE0FBA3E0FCEDBC
:20694000C39BFDEE9CFEC3E49D74809E5003026816A881060267B8A88118188605088606E3
