:020000040000FA
:040000000200A43224
:01000B0032C2
:0100130032BA
:01001B0032B2
:0100230032AA
:03002B000215DFDC
:01003300329A
:01003B003292
:01004300328A
:01004B003282
:01005300327A
:01005B003272
:01006300326A
:06006B000215E302077715
:08008B0007CBEFBED0D0ADDEC3
:2000A400758121129E52E582600302006E79E1E94400601B7A0190C052781A759316E493A3
:2000C400F2A308B800020593D9F4DAF27593FFE478FFF6D8FD7875E84400600A7900759363
:2000E40000E4F309D8FC78A5E84415600C7916900075E4F0A3D8FCD9FA7800E4F2780DE415
:20010400F208F29015607401F0901595E4F0901596F0901597F0901598F09015B2E4F0A325
:20012400F09015B4F0A3F002006EE5812407F5817F007E78BEC80040030201C38E047D0065
:200144008C82EDC42354E0C582C423C5826582C58254E0C5826582F583C007C0061297F5DD
:20016400AC82AD83D006D0078D037D00EC4B604F8C828B838DF0C0061218B1D0068E078E4A
:2001840004E42354E0CCC423CC6CCC54E0CC6CFDC004C0057498C0E074A2C0E0121EC7E535
:2001A4008124FCF581EE2455501174A2C0E074A2C0E0121EC71581158180FE0E020138E422
:2001C4002354E0CFC423CF6FCF54E0CF6FFE8F828E83C007C0061297F5AC82AD83D006D040
:2001E40007E58124FCF8A60408A605087600E58124FCF8E60846701274F4C0E074A2C0E0A9
:20020400121EC715811581020311A88118E4F608F6A881188603088604E58124FAF8A60703
:2002240008A606E58124FAF8C3EB96EC08965034C007C006E58124FAF8E58124FDF9E726A2
:20024400FD09E70836FE0886078D828E838FF0EB1285EFE58124FDF806B600020806D006AB
:20026400D00780AD7E007F00A88118E4F608F6A881188602088603E58124FAF8C3EA96EB5C
:2002840008965064C006C007E58124FAF8E58124FDF9E726FD09E70836FE0886078D828E17
:2002A400838FF0129E36FDB50206D007D0068025D007D0068D047D00C004C005C002C0067A
:2002C400C007742BC0E074A3C0E0121EC7E58124F9F5818013A8811806B600020806A881A4
:2002E4001886060886078087E58124FCF886030886040886058B828C838DF01218B1745650
:20030400C0E074A3C0E0121EC715811581E58124F9F58122AF82758240C00712136E7828E2
:20032400E4F278297406F2E408F2901510F5F01249DBD0077E00BE06005010EE2410F58216
:20034400E43415F5837481F00E80EB7801E4F27801C3E29F4003020401C0071297AED0074B
:200364007802E4F27802E2B4060040030203F87802E290089A93F582C007125C70E582D05F
:200384000760687802E22410FBE43415FC8B828C83E0FA901557E0F508C3EA64808508F0F9
:2003A40063F08095F050078B828C83E508F0C007901556E0FC3395E0FB901557E0FA3395B2
:2003C400E0FF7802E290089A93FD7E00C004C003C002C007C005C006745BC0E074A3C0E0DD
:2003E400121EC7E58124F8F581D0077802E22401F20203687801E22401F202035375824052
:200404001213BE901516E4F0901517F0FFBF0600502DEF2410F582E43415F583E0FE9015B7
:2004240016E0C364808EF063F08095F0500EEF90089A93901517F0901516EEF00F80CE9001
:200444001516E0901557F0901517E0F582227E007F00C3EE9408EF648094805021EE249B1D
:20046400FCEF3415FD740C2EFA74783FFB8A828B83E08C828D83F00EBE00D70F80D42290B9
:200484001635E0FEA3E0FFC3742C9E74019F400F90162FE0700990161AE0700302057F90F2
:2004A4001637E0FEA3E0FFBE200FBF010C1215E7901637E4F0A3F0800675820212136E90DE
:2004C4001637E02401F0A3E03400F0901634E0600C90151AE07006901643E0700C90151BEF
:2004E400E06036901644E06030901683E0FFBFFF02801775820C12136E901683E0F58212A1
:20050400767D75820C1213BE800F75820812136E120F6E7582081213BE75824012136E1290
:200524006087AE82AF83901518EEF0EFA3F0758240C007C0061213BED006D007EE4F60233D
:20054400901635E4F0A3F090161AE0600590161AE4F090162FE0600690161A7401F09016D6
:200564002FE4F0901641E0602E758201120318E582FE6023901657EEF0801C75824012133F
:200584006E126087E5828583F0901518F0E5F0A3F07582401213BE121793901518E0FEA368
:2005A400E0FF4E700990162DE4F0A3F08049740F2EF582E43FF583E0FCA3E0FD90162DECB0
:2005C400F0EDA3F0740D2EFCE43FFD8C828D83E060128E828F83127EC6E582700790162D43
:2005E400E4F0A3F0901518E0FEA3E0FF7D008E828F838DF01218B11217DEAE82AF8390166D
:2006040035E0FCA3E0FD901635EE2CF0EF3DA3F0BE580EBF020B901642E060057800E4F236
:200624002290162DE0FEA3E0FF4E6039EF30E71E8E048F0553057F785EECF2ED08F2E408D2
:20064400F208F29003E8F5F01299560215B4785EEEF2EF08F2E408F208F290EA60F5F01236
:2006640099560215B41217DEAE82AF83785EEEF2EF08F2E408F208F29003E8F5F01299567B
:200684000215B4901630E0FF6004EF30E005EF24DB50031215E7758202120318AF82901622
:2006A40057EFF0EF700C90151BE07006901644E0701A901634E0600C90151AE0700690164A
:2006C40043E07008901630E0FFBF233F75820812136E901683E0FFBFFF02801775820412A7
:1C06E400136E901683E0F58212767D7582041213BE8012901630E0FFBF230040AD
:200700000512135A8003120F6E7582081213BE901657E0FFE0603A8F82121FF6901630E419
:20072000F090162F74FDF090002312182F1217DEAE82AF83785EEEF2EF08F2E408F208F2A7
:200740009003E8F5F01299561215B478007401F22275820112175AAC82AD83AEF0FF785E10
:20076000ECF2ED08F2EE08F2EF08F29003E8E4F5F01299560215B475821112136E7480C084
:20078000E074A3C0E0121EC7158115811297AA75820412136E900001123F4B1285D3120411
:2007A0005290002312182F124BB77582041213BE1215E712012ED2AF901536E0901645F083
:2007C00090164BE0FF6007901657EFF0800C758204120318E582901657F0901657E06005BC
:2007E00078007401F2120F6E75820412136E124CE47582041213BE901657E0FFE060058F2D
:2008000082121FF61297AE7800E2600B7800E2B401F212048380ED12068780E8AF82BF0015
:20082000028019BF01028029BF02028012BF0302802CBF05028042BF215F80490297B5759A
:20084000820412136E124A92124CE47582040213BE758204120318E582901657F0227582EC
:200860000812136E12135A7582181213BE90FFFF74FFF5F01215B480F475820412136E7534
:2008800082040213BE901635742DF07401A3F09016377420F07401A3F0220B0F14191A1B84
:2008A0008582C1E58620E0FB228582C1E58620E0FB85C1822253807F22438080225380EF35
:2008C0002243801022AE82AF83900001C007C006123F4BD006D007E58020E1281EBEFF01CE
:2008E0001F900001C007C006123F4BD006D007EE4F70E474CAC0E074A7C0E0121EC71581BB
:20090000158180D322AE82AF83900001C007C006123F4BD006D00753C0DF5389FD43AB0248
:20092000538CFE43B8207D007C008E828F838DF0EC1213F7E59E20E6FBE58020E10F74CAE8
:20094000C0E074A7C0E0121EC715811581A2BDE433F5F005F07401800225E0D5F0FBF452C7
:20096000B853ABFD22900001123F4B5380FE900001123F4B4380019003E80208C5AF82C078
:20098000071208BD1208B5D0078F821208A01208C17582001208A9AF82C0071208B9D007D1
:2009A0008F8222E58124FDFFC0071208BD1208B5D007A88118188682C0071208A01208C17D
:2009C000D0077E00E58124FDF8C3EE965017EF24FEFDFF8D018782C007C0061208A0D006D4
:2009E000D0070E80DF0208B953867F75C20043C51043C5204380014380805380F953FDF905
:200A000043FDF943F328900001123F4B4390045390F743FE0C4390085390FB5390F74390AE
:200A200004900001023F4B74E9C0E074A7C0E0121EC7158115811208B912096512096512D5
:200A40000965900001123F4B43804075827112097DAF827E00C007C00674FDC0E074A7C0D0
:200A6000E0121EC7E58124FCF58175827012097DAF827E00C007C0067407C0E074A8C0E091
:200A8000121EC7E58124FCF581740BC0E0E4C0E0740BC0E0E4C0E0C0E0C0E07437C0E0E4AE
:200AA000C0E07404C0E07401C0E01209A3E58124F6F581742EC0E0E4C0E0742EC0E0E4C009
:200AC000E0742EC0E0E4C0E07403C0E023C0E01209A3E58124F8F581E4C0E07404C0E01232
:200AE00009A3158115819005DC1208C5E4C0E0C0E004C0E07441C0E01209A3E58124FCF578
:200B0000817402C0E07440C0E01209A3158115819003E81208C51208B57582001208A975A8
:200B200082001208A91208B974CFC0E0E4C0E004C0E0E4C0E01209A3E58124FCF581E4C0B0
:200B4000E0C0E0C0E0C0E07402C0E0742AC0E01209A3E58124FAF5817403C0E0E4C0E0042A
:200B6000C0E074E5C0E01209A3E58124FCF5817407C0E0E4C0E004C0E07450C0E01209A3BD
:200B8000E58124FCF5817422C0E0E4C0E004C0E07460C0E01209A3E58124FCF5817480C019
:200BA000E0E4C0E004C0E0E4C0E07480C0E0E4C0E07402C0E0E4C0E07404C0E07461C0E06A
:200BC0001209A3E58124F6F581743EC0E0E4C0E004C0E07430C0E01209A3E58124FCF581E9
:200BE0007424C0E0E4C0E004C0E07482C0E01209A3E58124FCF5817414C0E074A8C0E0124F
:200C00001EC715811581227428C0E074A8C0E0121EC71581158174F7C0E0E4C0E004C0E053
:200C20007450C0E01209A3E58124FCF581E4C0E07402C0E01209A31581158190001E123F13
:200C4000369003E81208C574A5C0E0E4C0E004C0E07407C0E01209A3E58124FCF58153807B
:200C6000BF4390085390FB900003123F3653FEF353F3D775F30075FD00438F0643F7207500
:200C80008000900001123F365390FD43FE0222AF828F055305F0E4C4CDC4540F6DCD540F31
:200CA000CD6DCD30E30244F053070FEFC454F0FFED42078F055305CCE4A2E713CD13CDA2C8
:200CC000E713CD13CD530733EF2F25E0FFED42078F055305AAE4A2E713CD13CD530755EF27
:200CE0002F4DF58222E5812407F581123E5EE4C0E07410C0E01209A31581158190005012A6
:200D000097F5AE82AF83E58124FBF8A60608A6079000501297F5AC82AD83E58124FDF8A606
:200D20000408A605A88118767F087601A881188604088605C374809C74019D5003020EDA47
:200D40001297AEE58124FBF88602088603901599E4F0783B7450F2E408F28A828B831257CA
:200D600090E58124FDF88602088603901599E4F0783B7450F2E408F28A828B83125790E5FA
:200D80008124FBF886020886037D00C002C003C005E4C0E0E58124FBF8868208868312248B
:200DA0000AE58124FCF58124FDF886030886047D00C003C004C0057401C0E0E58124FBF89E
:200DC000868208868312240AE58124FCF5811208B57C007D00C3EC9450ED94004003020E8F
:200DE000CBE58124FDF8EC26F582ED0836F583E0F582C005C004120C8FAB82D004D005E535
:200E00008124FBF8EC26F582ED0836F583E0F582C005C004C003120C8FAA82D003D004D01B
:200E2000057F03EF30E703020EC3C0027E008F02E58124F9F8EA2AF6E58124F9F886F00503
:200E4000F0EB8002C313D5F0FBD00230E0047E078016E58124FAF886F005F0EA8002C31375
:200E6000D5F0FB30E0027E03C0028F02E58124F9F8EA2AF6E58124F9F886F005F0EB8002F4
:200E8000C313D5F0FBD00230E1054306708017E58124FAF886F005F0EA8002C313D5F0FB9B
:200EA00030E1034306308E82C007C005C004C003C0021208A0D002D003D004D005D0071FC2
:200EC000020E230CBC00010D020DD51208B9A8811816B6FF020816020D2CE58124FBF886E8
:200EE000050886067F008D828E838FF01218B1E58124FDF886040886057F008C828D838F98
:200F0000F01218B175821112097D743DC0E074A8C0E0121EC715811581123E77E58124F9EC
:200F2000F58122120CE5123024E4C0E07413C0E01209A31581158190C35012090590001EAA
:200F4000023F4B1209E8120A27120F237456C0E074A8C0E0121EC715811581120C07746930
:200F6000C0E074A8C0E0121EC7158115812212317A781D7440F2740108F2781FE4F290006C
:200F8000141231C17582031231F174BDC0E074ACC0E01233691581158112317A781D7432A8
:200FA000F2E408F2781FF29001071231C175820012320374CCC0E074ACC0E012336915811A
:200FC000158112317A781D7432F2E408F2781FF29001371231C175820112320374D4C0E037
:200FE00074ACC0E01233691581158112317A781D7432F2E408F2781FF290014A1231C175B2
:20100000820012320374DEC0E074ACC0E07480C0E07428C0E0E4C0E074D6C0E074ACC0E057
:20102000123369E58124F9F58112317A781D7432F2E408F2781FF290001E1231C17582000F
:201040001232039015A0E0FF7E009015A1E0FD7C009015A2E0FB7A00C007C006C005C00456
:20106000C003C00274E4C0E074ACC0E0741CC0E07415C0E0121F30E58124F6F58190159D41
:20108000E0FF7E0090159EE0FD7C0090159FE0FB7A00C007C006C005C004C003C00274E4CB
:2010A000C0E074ACC0E07425C0E07415C0E0121F30E58124F6F58190159BE0FF7E009015D5
:2010C0009CE0FD7C00C007C006C005C00474F4C0E074ACC0E0742EC0E07415C0E0121F3071
:2010E000E58124F8F581741CC0E07415C0E0E4C0E074FEC0E074ACC0E0123369E58124FB16
:20110000F58190A87D123215781D7404F2E408F2781FF29000041231C17582021231F175AB
:201120008200123203901657E0700302126112317A781D748CF2E408F2781FF29000641270
:2011400031C17582021231F1740AC0E074ADC0E01233691581158190A9C5123215781D7457
:2011600080F2E408F2781FF29000E21231C17582011231F175820012320312317A781D74F0
:2011800046F2E408F2781FF290001E1231C17582011231F1901651E0FF7E00901652E0FDA9
:2011A0007C00901653E0FB7A00C007C006C005C004C003C00274E4C0E074ACC0E0741CC0C2
:2011C000E07415C0E0121F30E58124F6F58190164EE0FF7E0090164FE0FD7C00901650E03A
:2011E000FB7A00C007C006C005C004C003C00274E4C0E074ACC0E07425C0E07415C0E012B3
:201200001F30E58124F6F58190164CE0FF7E0090164DE0FD7C00C007C006C005C00474F470
:20122000C0E074ACC0E0742EC0E07415C0E0121F30E58124F8F581901657E0FF7E00C00769
:20124000C006741CC0E07415C0E0E4C0E07413C0E074ADC0E0123369E58124F9F581021248
:20126000D012317A781D748CF2E408F2781FF290004B1231C17582021231F17425C0E0743A
:20128000ADC0E01233691581158190A9C5123215781D7480F2E408F2781FF290010012311A
:2012A000C17582011231F175820012320390AB51123215781D7480F2E408F2781FF29001AB
:2012C000061231C17582011231F17582011232031212D6020F43901634E0602790ACA51217
:2012E0003215781DE4F208F2781FF29002641231C17582021231F175820012320390151A95
:201300007401F0901657E0705090AC75123215781D745CF2740108F2781FE4F2900260128A
:2013200031C17582021231F175820012320390AC99123215781D745CF2740108F2781FE4E1
:20134000F29002701231C17582021231F175820112320390151B7401F022020F4375C6C093
:20136000E59E30E6FB53C6BFE59E20E6FB22E582FF30E019C00712135D9062707404F012A7
:201380005365121852E582D00790162FF0EF30E407C007124A36D007EF30E20D758201C016
:2013A0000712420612422DD007EF30E60AC0071221F0121FB5D007901639E04FF022AF826D
:2013C000901639E05207EF30E407C007124A43D007EF30E607C007121FCED007EF30E20DF7
:2013E000C0071241AB758200124206D007EFF4FF901639E05FF022AF82AE83ADF0FC90154E
:2014000037EFF0EEA3F0EDA3F0ECA3F0AC957D007E007F00A89679007A008A0389028801A9
:20142000E42CF8E93DF9EA3EFAEB3FFBAC978D078C06E428FCED39FDEE3AFEEF3BFF9015B6
:2014400037E0F8A3E0F9A3E0FAA3E0C42354E0CAC423CA6ACA54E0CA6AFBE9C423541F4A47
:20146000FAE9C42354E0C8C423C868C854E0C868F9E82CFCE93DFDEA3EFEEB3FFF8E978D36
:0A148000968C95D2AFD2AD43BE06A4
:20148D007587010022AF8285951375140075150075160085960F751000751100751200AEBA
:2014AD0011AD10AC0FE42513F513EC3514F514ED3515F515EE3516F516AB977C008C068BD4
:2014CD00057B007803EB2513F2EC351408F2ED351508F2EE351608F28F02EEC42354E0CAF8
:1314ED00C423CA6ACA54E0CA6AFE3395E0FDFC7803E22A79
:1A150000FA08E23EFE08E23DFD08E23CFC8D978E968A95D2AFD2AD43BE05FE
:20151D007587010022AF82AE83ADF0FC90153BEFF0EEA3F0EDA3F0ECA3F090153BE0FCA3F6
:20153D00E0FDA3E0FEA3E0FFEC4D4E4F605EC374FF9C74FF9D74079EE49F503990FFFF7510
:20155D00F007E4C007C006C005C0041213F7D004D005D006D007EC2401F8E43DF9EE34F8CE
:20157D00FAEF34FFFB90153BE8F0E9A3F0EAA3F0EBA3F080A58C828D838EF0EF1213F790AC
:20159D00153BE4F0A3F0A3F0A3F0808EE59E20E6FB75821002136EAF82AE83ADF0FC901595
:2015BD003FEFF0EEA3F0EDA3F0ECA3F090153FE0FCA3E0FDA3E0FEA3E08C828D838EF0028E
:2015DD00152253C07F3253C0DF32900014123F367F007E047D04BD1F0050678D04EC2C9056
:2015FD006264F0900064C007C006C005123F36D005D006D007906264E020E62B906264E02C
:20161D00FC5304407B008E017A00C004C003C001C0027432C0E074ADC0E0121EC7E5812404
:20163D00FAF5818E07801B906264E043E001F0900064C007C005123F36D005D0070D8D0650
:20165D008094906264E043E001F0BF13005003021732EF24E15003021732EF24EDFF240AE0
:20167D0083F582EF241083F583E473A0ADBAC7D3DFEAF6020E1A2616161616161616161767
:20169D0017171790163274FCF07408A3F002173C901632742EF07409A3F002173C901632A5
:2016BD007460F07409A3F002173C9016327492F07409A3F0806990163274C4F07409A3F00D
:2016DD00805D90163274F6F0F4A3F080529016327428F0740AA3F08046901632748CF0740E
:2016FD000AA3F0803A90163274F0F0740AA3F0802E9016327486F0740BA3F080229016323D
:20171D00741CF0740CA3F080169016327480F0740CA3F0800A90163274B9F0740BA3F09093
:20173D001632E0FEA3E0FFC3EE94F0EF940A50079016347401F022901634E4F022E58260D3
:20175D0010901630E0FFBFFF005006901630EF04F0901630E0FFBF18005007900E10E4F570
:20177D00F022BF24005007901C20E4F5F02290518075F001E42290162CE07858F2E408F22A
:20179D0090023512978A7807740AF2E408F2121866AE82AF8374232EFEE43FFF90162BE0DD
:2017BD0054077D0025E0FCED33FDEC241BF582ED3416F583EEF0EFA3F090162BE02401F09F
:2017DD00227E007F007D00BD0800501DED75F002A4241BF582741635F0F583E0FBA3E0FCEF
:2017FD00EB2EFEEC3FFF0D80DEEFC423CEC423541F6ECE541FCE6ECEFF901649E0FCA3E01C
:20181D00FDC3EE9CEF9D50058C828D83228E828F8322AE82AF837D00BD08005017ED75F09F
:20183D0002A4241BF582741635F0F583EEF0EFA3F00D80E422E59DFF70047582FC22BF024A
:20185D00047582FE227582FE22AE82AF837C007D007B10EF235401FAEE2EFEEF33FFEC2C9F
:20187D00FCED33FDEA60034304017807C3E2F5F0EC95F008E2F5F0ED95F040117807D3E25D
:20189D009CF4B3FCB308E29DF4FD430601DBC48E828F8322AD82AE83AFF0ED4E7001227B4C
:2018BD00007C00901618E0F513A3E0F514750F18751016E513451460398D118E12C3E51343
:2018DD009511E5149512502AC005C006C007AB13AC1474022513FAE43514FF8A0F8F108AC5
:2018FD00828F83E0F513A3E0F514D007D006D00580C17809E513F2E51408F2ED24FEFDEEA8
:20191D0034FFFE74022DFAE43EFF8A828F837809E2F008E2A3F0850F82851083EDF0EEA331
:20193D00F08D828E83E0F513A3E0F5147809E2B5130708E2B5140280028039C003C00485D8
:20195D001382851483A3A3E0FBA3E0FC8A828F83EBF0ECA3F08D828E83E0FBA3E0FC8B821A
:20197D008C83E0FBA3E0FC8D828E83EBF0ECA3F0D004D003EB4C604BC002C0078B828C8339
:20199D00E0FAA3E0FFEAB50506EFB506028005D007D00222D007D0028D828E83E0FDA3E0FF
:2019BD00FE8B828C83EDF0EEA3F074022BFBE43CFC8A828F83E0FAA3E0FF8B828C83EAF06A
:2019DD00EFA3F022AE82AF837446C0E074ADC0E0121EC7158115817D00BD1000501C8D0360
:2019FD007C00C003C004744FC0E074ADC0E0121EC7E58124FCF5810D80DF7455C0E074ADBA
:201A1D00C0E0121EC7158115817D00BD10005012745FC0E074ADC0E0121EC7158115810DD6
:201A3D0080E97C007D00E58124FDF8C3EC96ED089650488C028D03EA540F60028015C0041A
:201A5D00C0057463C0E074ADC0E0121EC7E58124FCF581EC2EF582ED3FF583E0FB7A00C02F
:201A7D0003C002746EC0E074ADC0E0121EC7E58124FCF5810CBC00AE0D80AB7455C0E074C3
:201A9D00ADC0E0121EC7158115817F00BF10005012745FC0E074ADC0E0121EC715811581B2
:201ABD000F80E97474C0E074ADC0E0121EC71581158122C007C083C082858107C004C00323
:201ADD00C002C001C00074F42581F8868318868218860018E493A36014B4250C7C007A0058
:201AFD00E493A36008B42516121E0280E7D000D001D002D003D004D082D083D00722B463F0
:201B1D000518E61880E2FB4420B46D43EB542003F9C083C082121D6C7C08C083C082EC14E4
:201B3D002582F582E5833400F583E0FAC47B02540F29901E3193121E02EADBF3D082D083AE
:201B5D00DC06D082D083808C743A121E0280CBEBB42A09BA009274014CFC8084B43007BA26
:201B7D000004740680F2FB24D0501224F6400E240AFB740A8AF0A42BFA740480DBBB6C0DAE
:201B9D00EC54086004741080CF740880CBBB7343EC5408C083C0827005121D8A8007C2D558
:201BBD00C2D1121D6CEC5404700A121D736093121E0280F6BA00028089121D73600B121EDD
:201BDD0002DAF6021B5F021CBC7420121E02DAF9021B5FEB4420B478EDC083C082121DB4DB
:031BFD00C083C0E2
:201C000082E5F023F90324FF2582F582E5833400F583121DA754F0701319121DA7700D19D7
:201C20001582E582B4FF021583D5F0E6B9000109EC5420600B09EC54026005742D121E029D
:201C4000EC54046018EAC39940136011FAEC5402C4032420F582E582121E02DAF9EC542034
:201C6000600B19EC54027005742D121E02EB542003FAD082D083E904C313FC142582F58264
:201C8000E5833400F583E954016007121DA779018007121DA77902FBC4540F2AC083C08292
:201CA000901E3193D082D083121E02EBD9EB1582E582B4FF021583DCD9021B5FBB64067417
:201CC000204CFC8008BB75028003021AF1C083C082121DB4C0F07408C395F02443F9E434FE
:201CE00015FB121DA7A3121DF7F0A3121DF7D5F0F1121DF7F5F0EC54206028E5F0548070BA
:201D000006EC54DFFC801CD0F0C0F07408C395F02443F582E43415F583C3E0F9E499F0A3A3
:201D2000D5F0F775F00AE4F0A3D5F0FBD0E0C403FB90154B75F00AE0F9540F24FBE95002DA
:201D40002403F954F024B0E950022430F0A3D5F0E6901543C375F012E033F0A3D5F0F9DB1D
:201D6000D090154B75F00AC2D5021BFD8683188682182220D50620D107E0A322E493A3224C
:201D80008883A882E6A883058222C2D5C2D1E61860DA6480600D64C0600585938380CFD25C
:201DA000D180CBD2D580C530D508C000A882E6D00022E022EC54017021D2D575F000EC542C
:201DC00018600E54106006D2F218181818D2F11818D2F01888821805F022C2D5EC5418603A
:201DE000105410600675F008021D6C75F004021D6C75F002021D6CC583CBC583C582C9C5FB
:201E00008222C083C082C001C0008F008682188683181818188601188600121E26D000D0E5
:201E200001D082D08322C082C08385008285018322303132333435363738394142434445C7
:201E40004630313233343536373839616263646566C007C006C005C004C001C000AC82AD68
:201E600083AEF0FFBF0A2A75820DC007C006C005C004C003C002C001C000C021124A4AD0D8
:201E800021D000D001D002D003D004D005D006D0078F82C007C006C005C004C003C002C019
:201EA00001C000C021124A4AD021D000D001D002D003D004D005D006D007D000D001D004D8
:201EC000D005D006D00722C007C001C000E58124FAFFC007E58124F9F8E6C0E008E6C0E03D
:201EE000E4C0E0C0E0901E51121AD0E58124FBF581D000D001D00722C007C006C005C00418
:201F0000C003C001AC82FF8C018F0487060987071974012EFBE43FFDA70309A7058E828FF7
:201F200083ECF0D001D003D004D005D006D00722C007C006C005C001C000E58124F6FFE5EF
:201F40008124F8FE7D00C007E58124F5F8E6C0E008E6C0E0C006C005901EF8121AD0E58184
:201F600024FBF58124F8F88682088683E4F0D000D001D005D006D00722C082C083AF811FB2
:201F80007E00E58124FAF8E6C0E0E58124FAF8E6C0E008E6C0E0C007C006901EF8121AD002
:201FA000E58124FBF581A881188682088683E4F01581158122901555E0FF20E71075E1ED77
:201FC00075E1ED75E1E390155574804FF022901555E0FF30E71075E1EF75E1ED75E1ED90DB
:201FE0001555747F5FF022AE82AF83906172EEF0906173EFF022AF82BF0B004005EF24E5D3
:20200000500122C007121FCED007EF24F575F005A490618F240BF0021FB575E1ED75E1ED9F
:2020200022AE82AF83906193E020E6047582FF22E5D9FD248050197476C0E074ADC0E01271
:202040001EC71581158175E1ED75E1ED75820022ED24FB40197484C0E074ADC0E0121EC71B
:202060001581158175E1ED75E1ED758200221D1D782E7403F2758203C007C006C00512549A
:2020800080D005D006D0078E038F048C03901587EBF0901588EEF08D067F008F06901589A4
:2020A000EE541FF5F0E054E045F0F090158AEDF053D1F743D60843D708740855D1FFBF08CF
:2020C000F8E5D924B7901556F0E5D930E708901557740AF0800475820022906193E054C028
:2020E000FFBF400C90619BE0700675E1ED75E1ED8D8222AE82AF83906193E020E1F99015D8
:2021000055E020E70BC007C006121FB5D006D00775E1EE75E1EE782E7402F2758202C00702
:20212000C006125480D006D0078E048F058D0490157DECF08E0590157EEDF08E828F83E0FC
:20214000FD7C000DBD00010C8C05901581ED541FF5F0E054E045F0F08E828F83E0FE0E905C
:202160001582EEF053D1FB43D60443D704740455D1FFBF04F8906193E020E4107493C0E019
:2021800074ADC0E0121EC71581158122906193E030E510749EC0E074ADC0E0121EC71581B0
:2021A00015812275E1E97F00906193E020E112BF0300500D0F90003CC007123F36D0078093
:2021C000E7906193E020E11675E1EE75E1EE74AEC0E074ADC0E0121EC7158115812290615C
:2021E00093E020E1F922E5826003021FB5021FCE901555E030E0237F00BF0800501BEF24F0
:202200006AFDE43461FEEF249BF582E43415F583E08D828E83F00F80E022782E7403F27511
:20222000820312548075E1E37591007F00BF0800501BEF246AFDE43461FEEF249BF582E449
:202240003415F583E08D828E83F00F80E0906170E0906174F0906171E0906175F09061AB94
:20226000743FF09061AC7455F090619674F8F09061FA7409F09061B27415F09061AEE4F09B
:202280009061897440F0906180E043E001F0906182E4F075E1ED75E1ED906194747FF090F6
:2022A000619074D5F0901555E043E001F0904447121FE7901657E0F582021FF6AF83E582CF
:2022C0007811F2EF08F2780FE2FC08E2C313CC13CCFD7813E4F208F27813C3E29C08E29D1F
:2022E0005062C004C00578117913E3C5F0E225F0FC09E3C5F008E235F0FD8C828D83E0FA5E
:20230000780F7913E3F5F0C3E295F0FE09E3F5F008E295F0FF1EBEFF011F7811E22EFE08E1
:20232000E23FFF8E828F83E08C828D83F08E828F83EAF07813E22401F208E23400F2D00508
:20234000D004809422AF83E5827817F2EF08F27815E2FC08E2C313CC13CCFD7819E4F2082E
:20236000F27819C3E29C08E29D5069C004C00578177919E3C5F0E225F0FC09E3C5F008E299
:2023800035F0FD8C828D83E0FA78157919E3F5F0C3E295F0FE09E3F5F008E295F0FF1EBEF9
:2023A000FF011F7817E22EFE08E23FFF8E828F83E0FB6303FF8C828D83EBF074FF6A8E82F1
:2023C0008F83F07819E22401F208E23400F2D005D004808D22AE82AF837D008D037C007826
:2023E0001BC3E2F5F0EB95F008E2F5F0EC95F05018ED2EFBE43FFC8B828C83E0FA6302FF91
:202400008B828C83EAF00D80D222C082C083E581243FF58124EAF9E58124D3F8740629F68C
:20242000E58124DDF8740A29F6E58124C0F8C0017958E6F308E609F390005012978AC8E549
:202440008124D6C8A68208A683D001E58124DDF8C001E58124E8F9E6F7D001E58124D7F87D
:20246000C001E58124C1F9E6F708E609F7D001E58124BDF8C001E58124C3F9E4B6010104D5
:20248000F7D001E58124DDF8C001E58124C4F9E6F7D001E58124D7F8C001E58124C5F9E617
:2024A000F708E609F7D001E58124DDF8C001E58124C7F9E6F7D001E58124D7F8C001E581CE
:2024C00024C8F9E6F708E609F7D001E58124BDF8C001E58124CAF9E4B6020104F7D001E5E0
:2024E0008124CCF8740F29F6E58124CDF8740529F6E58124CEF8740E29F6E58124CFF87434
:202500000229F6E58124CEF8C001E58124CFF9E6F7D001E58124D1F8740429F6E58124CF46
:20252000F8C001E58124D1F9E6F7D001E58124FAF8760090163AE0FEE58124FAF8C3E69E6D
:20254000400302301D89057C007B40E58124FAF8E675F010A4FEAFF0780DE22EFE08E23F50
:20256000FF7820EEF2EF08F2E408F278237410F2E408F28D828C838BF0C001123F70D00142
:20258000E58124D3F886008607E58124BDF8E6B507028003022A3C740729F8E670030227E7
:2025A000B8E58124D2F88600860608860718E58124C0F8C3E69E08E69F5003023014E5813B
:2025C00024D0F8860086058D027C008A82ECC40354F8C582C403C5826582C58254F8C582D2
:2025E0006582F583E58124D1F8860086047858ECF2E408F2C007C006C005C00112978AAB9C
:2026000082AC83D001D005D006D007E58124DBF8A60608A607E58124DBF8EB26F6EC08366A
:20262000F6E58124C0F88602088604E58124DBF8C3EA96EC08964003023014E58124C0F853
:20264000E6C39EF58208E69FF5837807EDF2E408F2C001121866C8E58124FAC8A68208A640
:2026600083D001E58124D4F8740829F6C001E58124CCF98700D001C000E58124FCF87600F9
:20268000D0008602C000E58124CFF8860086048AF0ECA4FAAFF0E58124FCF8C001E5812455
:2026A000D7F9E6F7097700D001E58124D8F8C3E69A08E664808FF063F08095F0D0004003C3
:2026C000023014C000E58124D3F88600860608860718E58124FAF88602088603E58124DEE3
:2026E000F8A602EBC423C6C423541F66C6541FC666C608F6E58124D0F886008605E58124CC
:20270000FCF88CF0E6848DF0A4FCADF0E58124DEF8EC26FCED0836FDD000EC2EF582ED3F02
:20272000F583E0FF5302077B008AF005F07A80E43392D28008A2D2EB13FBEA13FAD5F0F5E1
:202740007E00EF5202EE5203EA4B605F870609870719C000E58124D8F88604088605EC2EF3
:20276000FEED3F8E04C423CCC423541F6CCC541FCC6CCCFDE58124B9F8EC26FCED0836FD73
:20278000088603D0008C828D838BF0129E36FA5306078EF005F07401800225E0D5F0FB428E
:2027A000028C828D838BF0EA1285EFC000E58124FCF806D000022682E58124CFF8860086F3
:2027C0000608860718E58124C0F8C3E69E08E69F5003023014E58124CDF886008605E581D1
:2027E00024CEF8860086048DF0ECA4FAABF0E58124DBF8A60608A607E58124DBF8C001E57C
:202800008124DEF9EA26F7EB083609F7D001E58124C0F88602088603E58124DFF8C3EA963C
:20282000EB089640030230148DF0ECA4FD1DE58124C0F8E6C39EFCEDC39CFDE58124FBF814
:20284000A605E58124DEF8740829F6C001E58124D0F98700D001C000E58124FBF8E4F60847
:20286000F6D00086038B027F008A82EFC40354F8C582C403C5826582C58254F8C5826582F2
:20288000F583C000E58124CDF8C001E58124DDF98600E6F7D001E58124DEF8C0017958E684
:2028A000F3E409F3D001D000C003C001C00012978AAA82AF83D000D001D003C000E5812411
:2028C000FBF8C001E58124D9F9E6F708E609F7D001E58124DAF8C3E69A08E69FD00040030D
:2028E000023014C000E58124DDF88600860208860718E58124DAF8C001E58124D7F9E6F764
:2029000008E6C423C7C423541F67C7541FC767C709F7D001E58124DEF8C0017907E6F3E4FC
:2029200009F3D001E58124D8F88682088683D000C007C003C002C001C000121866AC82AD4F
:2029400083D000D001D002D003D007C000E58124FAF8C001E58124DDF987F0E684D001F5D3
:20296000F0EBA4AEF02CFCEE3DFDEC2AF582ED3FF583E0FFE58124DEF8C0017907E6F3E47C
:2029800009F3D001E58124FBF88682088683D000C007C001C000121866AD82D000D001D08C
:2029A000075305077E008DF005F07D80E43392D28008A2D2EE13FEED13FDD5F0F57C00EF2C
:2029C0005205EC5206ED4E6061870609870719EFC423CEC423541F6ECE541FCE6ECEFFC0AD
:2029E00000E58124D8F8EE26FEEF0836FFE58124B9F8EE26FEEF0836FF0886058E828F8311
:202A00008DF0129E36FCE58124DAF8740756FAD0008AF005F07401800225E0D5F0FB4204EF
:202A20008E828F838DF0EC1285EFC000E58124FBF806B600020806D000022863E58124CCC9
:202A4000F88600E6FF7003023014BF02028003022F56E58124BDF8E66003022BFFE581244F
:202A6000DDF88600860308860408860508860618181874162BFFE43CFCE43DFDE43EFEE57E
:202A80008124D7F8C001E58124E4F9E6F708E609F7097700097700D001E58124E5F8E62F82
:202AA000FB08E63CFC08E63DFD08E63EFEE58124FBF8A60374782C08F6E43D08F6E43E081E
:202AC000F6900050C0011297F5AA82AE83D001A88118A60208A606A881188605088606C0D6
:202AE000017450C0E0E4C0E0C005C006E58124F6F886820886830886F008E6124045E58168
:202B000024FCF581D001E58124DDF88600860308860408860508860618181874162BFBE44B
:202B20003CFCE43DFDE43EFEE58124E5F8E62BFB08E63CFC08E63DFD08E63EFFE58124BAEF
:202B4000F8C001E58124E4F9E6F708E609F7D001E58124E5F88602088606C0017450C0E011
:202B6000E4C0E0C002C0068B828C838DF0EF124045E58124FCF581D001781B7450F2E40828
:202B8000F2A881188682088683C0011223D5D0017F00BF50005035E58124BAF8EF26FCE409
:202BA0000836FD0886068C828D838EF0129E36FBA88118EF26F582E40836F583E052038CA1
:202BC000828D838EF0EB1285EF0F80C6A8811886040886057E008C828D838EF0C0011218BC
:202BE000B1D001780F7450F2E408F2E58124E5F88682088683C0011222BCD001023014E50B
:202C00008124C4F8E67003022DBAC001E58124E8F8860086030886040886050886061818EE
:202C20001874162BFFE43CFCE43DFDE43EFEE58124C1F8C001E58124DFF9E6F708E609F73D
:202C4000097700097700D001E58124E0F8E62FFA08E63CFC08E63DFD08E63EFEE58124FA36
:202C6000F8A60274782C08F6E43D08F6E43E08F6900050C0011297F5AB82AE83D001A881C8
:202C80001818A60308A606A88118188605088606C0017450C0E0E4C0E0C005C006E5812471
:202CA000F5F886820886830886F008E6124045E58124FCF581D001E58124E8F886008603C5
:202CC00008860408860508860618181874162BFBE43CFCE43DFDE43EFEE58124E0F8C001C6
:202CE000E58124E3F9E62BF708E63C09F708E63D09F708E63E09F7D001E58124B9F8860251
:202D00000886068A048E05C006C002C0017450C0E0E4C0E0C004C005E58124DDF8868208D5
:202D200086830886F008E6124045E58124FCF581D001D002D006781B7450F2E408F28A82DF
:202D40008E83C0011223D5D0017F00D001BF50005035E58124BAF8EF26FCE40836FD0886E8
:202D6000068C828D838EF0129E36FBA88118EF26F582E40836F583E052038C828D838EF098
:202D8000EB1285EF0F80C6A8811886040886057E008C828D838EF0C0011218B1D001E58122
:202DA00024BAF88682088683780F7450F2E408F2C0011222BCD001023014E58124CBF8E60E
:202DC0007003023014C001E58124C4F88600860308860408860508860618181874162BFF6F
:202DE000E43CFCE43DFDE43EFEE58124C5F8C001E58124DFF9E6F708E609F7097700097744
:202E000000D001E58124E0F8E62FFB08E63CFC08E63DFD08E63EFEE58124FAF8A6037478E6
:202E20002C08F6E43D08F6E43E08F6900050C0011297F5AA82AE83D001A8811818A60208B3
:202E4000A606A88118188605088606C0017450C0E0E4C0E0C005C006E58124F5F886820893
:202E600086830886F008E6124045E58124FCF581D001E58124C4F886008603088604088604
:202E80000508860618181874162BFBE43CFCE43DFDE43EFEE58124E0F8E62BFB08E63CFCB3
:202EA00008E63DFD08E63EFFE58124B9F8C001E58124E3F9E6F708E609F7D001E58124E453
:202EC000F88602088606C0017450C0E0E4C0E0C002C0068B828C838DF0EF124045E5812404
:202EE000FCF581D0017F00D001BF50005035E58124BAF8EF26FCE40836FD0886068C828D10
:202F0000838EF0129E36FBA88118EF26F582E40836F583E052038C828D838EF0EB1285EF26
:202F20000F80C6A8811886040886057E008C828D838EF0C0011218B1D001780F7450F2E436
:202F400008F2E58124E5F88682088683C0011222BCD001023014BF01028003023014E5813E
:202F600024BDF8E66003023014C001E58124C7F886008604088605088606088607181818CB
:202F8000E58124FAF874162CF6E43D08F6E43E08F6E43F08F6E58124C8F88602088603E462
:202FA000FEFFE58124FAF8C001E58124E3F9EA26F7EB083609F7EE083609F7EF083609F7E8
:202FC000D001E58124B9F886040886058C068D07C005C004C0017450C0E0E4C0E0C006C0EA
:202FE00007E58124DDF886820886830886F008E6124045E58124FCF581D001D004D0057861
:203000000F7450F2E408F28C828D83C0011222BCD001D001E58124FAF806022533E5812436
:20302000BFF581227F0090163AE0FEC3EF9E5034EF75F010A4FDAEF0780DE22DFD08E23ECC
:20304000FE74082DF582E43EF583E0FDA3E0FE4D600F7C008D828E838CF0C0071218B1D014
:20306000070F80C2780DE2F5F008E245F06012780DE2FD08E2FE7F008D828E838FF0121887
:20308000B1780DE4F208F290163AF02205810581780DE2F5F008E245F0700302313890163D
:2030A0003AE02401F075F010A4F58285F0831297F5AE82AF83A88118A60608A607A8811876
:2030C000740F26F582E40836F583E4F0A881188603088604FD780D7920E2F308E209F3E44C
:2030E00009F390163AE0FA7F001ABAFF011F7823EAF28FF0E2C5F0C454F0C5F0C4C5F06580
:20310000F0C5F054F0C5F065F0C5F0F2E5F008F28B828C838DF0123F70780DE2FD08E2FEA0
:203120007F008D828E838FF01218B1A88118790DE6F308E609F380189000101297F5AE8206
:20314000AF83780DEEF2EF08F290163AE02401F090163AE0FF7E001FBFFF011EEEC454F0EB
:20316000CFC4CF6FCF54F0CF6FFE780DE22FF58208E23EF583158115812212308CAE82AF87
:2031800083780BEEF2EF08F2740E2EF582E43FF5837401F074062EF582E43FF583E4F08E1D
:2031A000828F837408F0E4A3F08E828F83A3A37408F0E4A3F074072EF582E43FF583E4F0BE
:2031C00022AE82AF83780BE2FC08E2FD8C828D83EEF0EFA3F08C828D83A3A3781DE2F008D2
:2031E000E2A3F074072CF582E43DF583781FE2F022AF82780BE2240EF58208E23400F58343
:20320000EFF022AF82780BE22406F58208E23400F583EFF022C082C083E5812405F5811243
:20322000308CAC82AD83780BECF2ED08F2740E2CF582E43DF5837402F074062CF582E43DCA
:20324000F583E4F08C828D837440F0E4A3F08C828D83A3A37404F0E4A3F074072CF582E4A4
:203260003DF5837401F074042CFAE43DFBE58124FAF88682088683E493FF7E00787174088C
:20328000F2E408F28F828E83C005C004C003C002129BD5AE82D002D003D004D0058A828B97
:2032A00083EEF0E58124FCF874052CF6E43D08F6E58124FAF88682088683A3A3E493FFE53F
:2032C0008124FCF88682088683EFF074082CFCE43DFD8A828B83E0FA8AF0EFA4F58285F0AE
:2032E00083C005C0041297F5AE82AF83D004D0058C828D83EEF0EFA3F0780BE2FE08E2FF4F
:2033000074082EF582E43FF583E0FCA3E0FDA8811818A60408A605087600E58124FAF87471
:203320000426FAE40836FD7820EAF2ED08F2748008F28E828F83A3A3A3A3E0FD8E828F8354
:20334000A3A3A3A3A3E08DF0A4FDAEF07823EDF2EE08F2A881181886820886830886F0123E
:203360003F70E58124F9F58122E581241CF5819000301297F5AE82AF83E58124F5F8A60684
:2033800008A607087600E58124E1FCE58124F5F88602088603C004E58124E0F8E6C0E0084F
:2033A000E6C0E08A828B83121F791581158115819000301297F5AB82AC83E58124F8F8A627
:2033C0000308A60408E4F6FEFFE58124FBF87600C006C007E58124F3F8E58124F9F9E726DB
:2033E000FDE40836FE0886078D828E838FF0129E36FDFCD007D006ED6070BC20118E048F25
:203400000574042CFCE43DFD8C068D0780537D007858EC24E0F2ED34FF08F2900021C0072F
:20342000C00612978AAC82AD83D006D007EC24B8F582ED34ADF583E493FDFC53040F7410A9
:20344000C39CFCEDC4540FFDECC39DFD8E038F047A00ED2BFBEA3CFC0BBB00010C8B068CF4
:2034600007E58124FBF8060233D01EBEFF011F8E04EFC423CCC423541F6CCC541FCC6CCC85
:20348000E58124FCF8A604EE54076006E58124FCF806780BE22408FE08E23400FFE581249B
:2034A000FCF886047D008C03EDC454F0CBC4CB6BCB54F0CB6BFA8B828A83C007C006C0031F
:2034C000C0021297F5AC82AD83D002D003D006D0078E828F83ECF0EDA3F0780BE22408F5D8
:2034E0008208E23400F583E0FEA3E0FF4E70127418C0E074BAC0E0121EC715811581023D28
:203500007A7D007828E4F27829EBF2EA08F28E828F838DF01249DB780BE2FE08E2FF8E82AB
:203520008F83A3A3A3A3E58124FCF8E6F08E828F83A3A3A3A3A37410F0E4FEFFE58124FB6E
:20354000F87600C006C007E58124F3F8E58124F9F9E726FDE40836FE0886078D828E838F11
:20356000F0129E36FDFCD007D006ED7003023D4EBC20128E048F0574042CFCE43DFD8C067E
:203580008D07023D45C006C0078C057F007858ED24E0F2EF34FF08F2900021C007C0051258
:2035A000978AAC82AE83D005D007EC24B8F582EE34ADF583E493FEFC53040F7410C39CFCA3
:2035C000E58124FCF8EEC4540FF6E58124FCF8E58124FBF9ECC396F77858ED24E0F2EF3454
:2035E000FF08F290002112978AAE82AF83E58124E5F8EE24B8F6EF34AD08F6E58124FDF818
:203600007600D007D006A88118B6100040030236C2C006C007E58124FDF8E675F003A4FC49
:20362000ADF0E58124F6F8E58124E7F9EC26F7ED083609F708E609F7E58124FDF8E626FE60
:203640002402C8E58124E5C826F58208E436F583E493FFE58124E7F886820886830886F098
:20366000EF1285EF74012CFBE43DFFE58124F6F8EB26FBEF0836FF088602EE04C8E5812495
:20368000E5C826F58208E436F583E4938B828F838AF01285EF74022CFCE43DFDE58124F674
:2036A000F8EC26FCED0836FD0886078C828D838FF0E41285EFE58124FDF806D007D006020C
:2036C00036068E048F055304077D00A881181886027B00EAB50407EBB50503023B6EC3EAA7
:2036E0009CEB9D40030239288C03A8811818EBC396FDBD080050030237C45305077C00BC2B
:20370000300040030237C4C006C007E58124E7F8A604087600E58124E7F8740226FAE40830
:2037200036FBE58124F6F8E58124EAF9EA26F7EB083609F708E609F7E58124E7F874012651
:20374000FEE40836FFE58124F6F8E58124EDF9EE26F7EF083609F708E609F7E58124EDF8CD
:2037600086820886830886F0129E36FAE58124EAF886820886830886F0EA1285EFE58124D5
:20378000F6F8E58124E7F9E726FA09E70836FE0886078A828E838FF0129E36FBE58124ED15
:2037A000F886820886830886F0EB1285EF8A828E838FF0E41285EF8C0274032AFCD007D031
:2037C000060236FF7C00BC30004003023B6EC006C007E58124EDF8A604087600E58124EDBB
:2037E000F8740226FBE40836FEE58124F6F8E58124E7F9EB26F7EE083609F708E609F7E531
:203800008124E7F886820886830886F0129E36FA8DF005F0E58124EAF8EA8002C313D5F0C8
:20382000FBF6E58124EDF8740126FAE40836FFE58124F6F8E58124F0F9EA26F7EF0836094A
:20384000F708E609F7E58124F0F886820886830886F0129E36FA8D03E58124E3F87408C366
:203860009BF68A03E58124E3F886F005F0EB800225E0D5F0FBFBE58124EAF8E64203E58130
:2038800024E7F886820886830886F0EB1285EFE58124F0F886820886830886F0129E36FB33
:2038A0008DF005F0E58124EAF8EB8002C313D5F0FBF6E58124F6F8E58124EDF9E726FB0938
:2038C000E70836FE0886078B828E838FF0129E36FAE58124E3F886F005F0EA800225E0D59D
:2038E000F0FBFAE58124EAF8E64202E58124F0F886820886830886F0EA1285EF8B828E83B6
:203900008FF0129E36FA8DF005F0EA8002C313D5F0FB8B828E838FF01285EF8C0374032B80
:20392000FCD007D0060237C6A8811818A98119E6C39CF7A88118B608005003023A02A8814E
:2039400018E65407F6A8817600A881B630004003023A02C006C007A881181886027B00E51B
:203960008124F6F8E58124F0F9EA26F7EB083609F708E609F774012AFDE43BFFE58124F6E9
:20398000F8ED26FDEF0836FF0886068D828F838EF0129E36FCE58124F0F88682088683084B
:2039A00086F0EC1285EF74022AFAE43BFBE58124F6F8E58124F0F9EA26F7EB083609F70848
:2039C000E609F7E58124F0F886820886830886F0129E368D828F838EF01285EFE58124F073
:2039E000F886820886830886F0E41285EFA88118188604A881181874032CF6D007D006024A
:203A00003949A8817600A88118E58124F2F97408C396F7A881B630004003023B6EC006C080
:203A200007A881181886027B00E58124F6F8E58124EAF9EA26F7EB083609F708E609F7E53B
:203A40008124EAF886820886830886F0129E36FCE58124FDF886F005F0E58124EDF8EC80A1
:203A60000225E0D5F0FBF674012AFCE43BFFE58124F6F8EC26FCEF0836FF0886068C828FED
:203A8000838EF0129E36FDE58124F0F886F005F0ED8002C313D5F0FBFDE58124EDF8E642CC
:203AA00005E58124EAF886820886830886F0ED1285EF8C828F838EF0129E36FDE58124FD83
:203AC000F886F005F0E58124EDF8ED800225E0D5F0FBF674022AFAE43BFBE58124F6F8E5D9
:203AE0008124EAF9EA26F7EB083609F708E609F7E58124EAF886820886830886F0129E3637
:203B0000FDE58124F0F886F005F0ED8002C313D5F0FBFDE58124EDF8E642058C828F838E7F
:203B2000F0ED1285EFE58124EAF886820886830886F0129E36FFE58124FDF886F005F0EF61
:203B4000800225E0D5F0FBFFE58124EAF886820886830886F0EF1285EFA88118188605A81B
:203B600081181874032DF6D007D006023A13A881187600A88118B610004003023D298E0304
:203B80008F04ECC423CBC423541F6BCB541FCB6BCB780BE22408FA08E23400FCC006C007BE
:203BA0008A828C83E58124F0F8E0F6A3E008F6E58124E5F8A603087600E58124E5F87402B6
:203BC00026FDE40836FBE58124FDF8E58124FAF986F0E7A4C0E0C0F0E58124E9F8D0E0F647
:203BE00018D0E0F6E58124EAF8E62DFE08E63BFFE58124F0F8E58124F0F9EE26F7EF083645
:203C000009F7E58124F0F88682088683E0FBE58124FDF8E58124E7F9E675F003A4F709A7BC
:203C2000F0E58124E7F8740226FEE40836FFE58124F6F8EE26FEEF0836FD0886078E828D8A
:203C4000838FF0129E36FEEB4206E58124F0F88682088683EEF08A828C83E0FEA3E0FFE582
:203C60008124E5F8740126FBE40836FDE58124EAF8E62BFB08E63DFDE58124EDF8EB2EF6EF
:203C8000ED3F08F6E58124EDF88682088683E58124F0F9E0F7E58124E7F8740126FBE4083D
:203CA00036FDE58124F6F8EB26FBED0836FD0886078B828D838FF0129E36FBE58124F0F8A1
:203CC000E64203E58124EDF88682088683EBF08A828C83E0FAA3E0FCE58124E5F8E58124F1
:203CE000EAF9E726FE09E70836FFEE2AFAEF3CFC8A828C83E0FFE58124F6F8E58124E7F994
:203D0000E726FB09E70836FD0886068B828D838EF0129E3642078A828C83EFF0E58124FD91
:203D2000F806D007D006023B73E58124FDF886058E038F047A00ED2BFBEA3CFC0BBB000184
:203D40000C8B068C07E58124FBF806023543E58124F8F886020886030886048A828B838C6B
:203D6000F01218B1E58124F5F886050886060886078D828E838FF01218B1E58124E4F581EF
:203D800022C082C083C0F0C0E012308CE5828583F0780BF2E5F008F275820412136E90009D
:203DA000161297F5AA82AB838A068B07C003C0027416C0E0E4C0E0C006C007E58124F7F89A
:203DC00086820886830886F008E6124045E58124FCF581D002D00374102AF582E43BF5836A
:203DE000E0FFBF2012780BE2240FF58208E23400F5837401F08013BF2110780BE2240FF5D9
:203E00008208E23400F5837402F07F008A828B838FF01218B1780BE2FE08E2FF74082EF546
:203E200082E43FF583E4F0A3F0740A2EF582E43FF583E58124FDF8E6F008E6A3F008E6A3D9
:203E4000F008E6A3F074062EF582E43FF58374FEF01212D6120F43E58124FCF58122123E09
:203E6000FEAC82AD83AEF0FF901558ECF0EDA3F0EEA3F0EFA3F022123EFEAC82AD83AEF081
:203E8000FF901558E0F8A3E0F9A3E0FAA3E0FBECC398F8ED99F9EE9AFAEF9BFBE9C403C89A
:203EA000C403540768C85407C868C8F9EAC40354F849F9EBC403CAC40354076ACA5407CA2E
:203EC0006ACAFBC000C001C002C0037428C0E074BAC0E0121EC7E58124FAF581901558ECC9
:203EE000F0EDA3F0EEA3F0EFA3F022AE957F00AD967C00EE4204EF42058C828D8322AC95C1
:203F00007D007E007F00A89679007A008A0389028801E42CF8E93DF9EA3EFAEB3FFBAC97A4
:203F20008D078C06E428F8ED39F9EE3AFAEF3B888289838AF022AE82AF838E048F051EBED6
:203F4000FF011FEC4D60030080F022AE82AF838E048F051EBEFF011FEC4D60109003E6C0AF
:203F600007C006123F36D006D00780E322023F4BAD82AE83AFF07825EDF2EE08F2EF08F2E3
:203F80007820E2F50F08E2F51008E2F5117823E2F51208E2F513AB12AC13151274FFB51271
:203FA000021513EB4C6025850F828510838511F0129E36FCA385820F8583108D828E838F05
:203FC000F0EC1285EFA3AD82AE8380CA7825E2F58208E2F58308E2F5F02290155CE0FCA369
:203FE000E0FDA3E0FEA3E08C828D838EF0228582F9E5F820E0FB85F982225390EF22439061
:204000001022AC82AD83AEF0FFC007C006C005C004123FFA758203123FEED004D005D0065A
:204020008E82C006C005C004123FEED004D0058D82C005C004123FEED004D005D006D0070C
:204040008C82023FEEAC82AD83AEF0FFE58124FDF88602088603C007C006C005C004C003B7
:20406000C002123FFA758203123FEED002D003D004D005D0068E82C006C005C004C003C0F4
:2040800002123FEED002D003D004D0058D82C005C004C003C002123FEED002D003D004D0EC
:2040A00005D006D0078C82C003C002123FEED002D003E58124FBF8793DE6F308E609F38A57
:2040C000828B831257E6023FFEAF82C007123FFAD0078F82123FEE023FFE123FFA758205D2
:2040E000123FEE758200123FEEE58220E0F5123FFE75820122AC82AD83AEF0FFE58124FD04
:20410000F88602088603758206C007C006C005C004C003C0021240C9123FFA758202123F46
:20412000EED002D003D004D005D0068E82C006C005C004C003C002123FEED002D003D004D1
:20414000D0058D82C005C004C003C002123FEED002D003D004D005D006D0078C82C003C0A2
:2041600002123FEED002D0038A068B07E58124FBF886040886058C028D031CBCFF011DEAA0
:204180004B60228E828F83E0FBA3AE82AF838B82C007C006C005C004123FEED004D005D075
:2041A00006D00780D1123FFE0240DA7582B90240C97582AB0240C9AE82AF83C007C00612FD
:2041C0003FFA75825A123FEE758200123FEED006D0078F82C007C006123FEED006D0078E1B
:2041E00082123FEE758200123FEEE58124FCF8793DE6F3E409F3E58124FDF8868208868343
:204200001257E6023FFEE582601953F87F75FA0043FC1043FC2043F102123FFE43FE7043D0
:20422000F4E02253FE8F53908F53F41F22E5812404F581901560E070071241B1D3024786A8
:20424000901560E4F09000081297F5AE82AF83E58124FDF8A60608A6079001401297F5ACF2
:2042600082AD83A88118A60408A6051241B17408C0E0E58124FCF8E6C0E008E6C0E09000AC
:20428000001241B7158115811581E58124FDF88682088683E0FBBB5367E58124FDF88682E3
:2042A000088683A3E0FBBB4657E58124FDF8740226FAE40836FB8A828B83E0FDBD4441C0EC
:2042C00002C003E58124FBF8740326FFE40836FE8F828E83E0FBBB50028006D003D002802B
:2042E0001FE58124FBF8740726F582E40836F583E0FBBBFF07D003D002024481D003D002C3
:20430000C208C021123FFAD021758290C021123FEED021758200C021123FEED0217582001F
:20432000C021123FEED021758200C021123FEED021758200C021123FEEAD82D021BDC202AC
:20434000800DBDC8028079BDEF028047024401D20890163B7420F0758200C021123FEEAC92
:2043600082D021BC05028005BC1223801090155CE4F0A3F004A3F0E4A3F002445E90155CE6
:20438000E4F0A3F07408A3F0E4A3F002445EC20802445ED20890163B7420F0758200C02107
:2043A000123FEEAC82D021BC131190155CE4F0A3F07408A3F0E4A3F002445EC20802445EBF
:2043C000D20890163B7420F0758200C021123FEEAC82D021BC12028008BC13028013024466
:2043E0005E90155CE4F0A3F07408A3F0E4A3F0806D90155CE4F0A3F07410A3F0E4A3F0800E
:204400005D7C00C005C0047433C0E074BAC0E0121EC7E58124FCF58190163B7420F0901528
:204420005CE4F0A3F07408A3F0E4A3F0758200C021123FEEAD82D0217C00C005C004745132
:20444000C0E074BAC0E0121EC7E58124FCF5817459C0E074BAC0E0121EC715811581C021BC
:20446000123FFED021A8811886040886057F008C828D838FF0C0211218B1D021A2080247E2
:2044800086E58124FDF88682088683A3A3A3A3A3E0FDBD01028004C3024786E58124FDF89D
:2044A000740626F582E40836F583E0FDBDFF011D8A047A00C004C003C007C006C005C002F1
:2044C0007408C0E08A82124DE3AB82AC831581D00274082BFBE43CFCC004C003C00274082B
:2044E000C0E0E58124F4F8E6C0E008E6C0E08B828C831241B7158115811581D002D003D035
:2045000004D005D006D007E58124FBF88682088683E0D003D004600302477CC0058C828B72
:2045200083E0FDBD01028005D00502477CD005C004C0038F828E83E0FCBC0900D003D00476
:20454000500302477CE58124FDF8740426FEE40836FF8E828F83E0FEA3E0FF7424C0E0A8A5
:20456000811818E6C0E008E6C0E08E828F831241B7158115811581A881188682088683E04E
:20458000FFFE530603BE01028003024785EF20E203024785A881188682088683A3A3E0541A
:2045A000066003024785A881188682088683A3E0FD7003024785BDFF0302478590163BED4E
:2045C000F0A88118740726F582E40836F583E0FE30E7030247858E07EFFE601090155CE45B
:2045E000F0A3F07420A3F0E4A3F08042A88118740626F582E40836F583E0FE601090155C97
:20460000E4F07420A3F0E4A3F0A3F08021A881188682088683A3A3A3A3A3E0FE70030247D1
:204620008590155C7420F0E4A3F0A3F0A3F0EE602E90155CE0FFA3E0FCA3E0FBA3E0FAEF0E
:204640002FFFEC33FCEB33FBEA33FA90155CEFF0ECA3F0EBA3F0EAA3F0EEC313FE80CF7CFA
:204660001C8C067F000EBE00010FA88118EE26F582EF0836F583E0FF6038BFFF028033A82E
:204680008118EC26F582E40836F583E0FEBE0C02800ABE0F02800FBE10188011EDB50702AA
:2046A0008010C302478690163CEFF0800590163DEFF08C0774022FFCBC240040A47478C02C
:2046C000E074BAC0E0121EC7158115817489C0E074BAC0E0121EC71581158190163BE0FFBB
:2046E000E060177E00C007C0067499C0E074BAC0E0121EC7E58124FCF58190163CE0FFE049
:2047000060177E00C007C00674A6C0E074BAC0E0121EC7E58124FCF58190163DE0FFE0609A
:20472000177E00C007C00674B3C0E074BAC0E0121EC7E58124FCF5817E5C7F15C006C007D4
:2047400074C0C0E074BAC0E0121EC7E58124FCF581A8811886040886057F008C828D838F3A
:20476000F01218B1E58124FDF886060886077D008E828F838DF01218B1D3800A0AC3ED9A26
:2047800040030244B4C3A8D0E58124FCF58188D022C082C083C0F0C0E005810581E58124C0
:2047A000F7F88605088604E58124F5F8E60846700302486FC005C004E58124F9F886020882
:2047C0007B00E58124FDF8E4C39AF674019B08F6E58124FDF8E58124F3F9C3E79609E7086D
:2047E00096D004D005500EE58124F5F8A98119E6F708E609F78D028C03C005C004E5812466
:20480000FDF8E6C0E008E6C0E0C002C003E58124F5F886820886830886F008E61240F5AB1C
:2048200082E58124FCF581D004D005EB7004F5828040A881188602088603E4FEFFE58124F6
:20484000FBF8EA26F6EB0836F6EE0836F6EF0836F6A88118E62DFD08E63CFCE58124F5F80D
:20486000A98119E6C397F608E60997F60247A7758201E58124FAF58122C082C083C0F0C042
:20488000E0E58124FDF88602088603EA7005EB540F601574D1C0E074BAC0E0121EC715813E
:2048A00015817582000249C8E58124F9F8E6084670030249C57582061240C9123FFAE5815D
:2048C00024F9F88602088603C3EA9410EB9400401FE58124FDF88602088603EA4B7011909D
:2048E000163DE0FBE060098B82123FEE7B108041E58124F9F88602088607C3EA9408EF9445
:20490000004023E58124FDF88602088607EA7016EF547F701190163CE0FFE060098F8212B8
:204920003FEE7B08800B90163BE0F582123FEE7B01E58124FDF808088682C003123FEED0E0
:2049400003E58124FDF8088682C003123FEED003E58124FDF88682C003123FEE123FFE1206
:2049600040DAE582D003701474E5C0E074BAC0E0121EC715811581758200804CC003C0032C
:20498000901000124DF8AC82AD83AEF0FF1581D003E58124FDF8EC26F6ED0836F6EE0836E8
:2049A000F6EF0836F6E58124F9F886060886077D00EEC39BFEEF9DFFE58124F9F8A60608C1
:2049C000A6070248A8758201E58124FCF581227582B10240C97582C10240C9AFF0AE83E5F7
:2049E00082782BF2EE08F2EF08F27829E2F50F08E2F5107829E2F5F008E245F0602A782BA5
:204A0000E2FA08E2FB08E2FC7828E2FFAD0FAE108A828B838CF0EF1285EFA3AA82AB831DCF
:204A2000BDFF011EED4E70E8782BE2F58208E2F58308E2F5F02243FF0143EC0475EB3E7530
:204A4000ED8B2253FF0153A0FE22AF82C2AF53D8EF741055D8FEBE10F853A0FE7E00BE08F0
:204A600000501E53D8EF741055D8FDBD10F8EF30E00543A001800353A0FEEFC313FF0E808D
:204A8000DD53D8EF741055D8FFBF10F843A001D2AF2290163E7401F090163FE4F090164039
:204AA000F0901641F090164204F0901643F0901644F0901646E4F0901645F090164974237F
:204AC000F0E4A3F090164BF09016477492F07409A3F022AD82AE83AFF074F6C0E074BAC082
:204AE000E0121EC7158115818D828E838FF0129E36FCBC01237A3E7B167C007820EDF2EE28
:204B000008F2EF08F27823740EF2E408F28A828B838CF0123F70800F741BC0E074BBC0E0E1
:204B2000121EC715811581901536E0901645F0024CE49000801297F5AE82AF838E048F0554
:204B4000C007C006740EC0E0E4C0E0C004C005900004F5F0124045E58124FCF581D006D0E7
:204B6000078E048F057B00786C743EF2741608F2E408F2786F740EF2E408F28C828D838BC1
:204B8000F0C007C006129B1BE5828583F0D006D00745F070128E048F05FB8C828D838BF053
:204BA0001218B1758201227D008E828F838DF01218B175820022229000801297F5AE82AF41
:204BC000838E048F05C007C006740EC0E0E4C0E0C004C005900004F5F0124045E58124FCDA
:204BE000F581D006D0078E048F057820ECF2ED08F2E408F27823740EF2E408F290163EF56B
:204C0000F0C007C006123F70901561E4F0A3F0A3F0A3F07404C0E0E4C0E07461C0E0741529
:204C2000C0E0900000E4F5F0124045E58124FCF581D006D0078E048F058C098D0A7A3E7BB6
:204C4000168A828B83C007C006740EC0E0E4C0E0C009C00A124FFFE58124FCF581D006D05C
:204C60000790163EE0FDBDFF028022C005901561E0FAA3E0FBA3E0FCA3E0FDBAA50DBB5A69
:204C80000ABCBA07BDAB04D005801ED005C007C006124A92D006D0077460C0E074BBC0E06E
:204CA000121EC7158115818030BD0100501CC007C006124BB6D006D0077483C0E074BBC024
:204CC000E0121EC715811581800F74ADC0E074BBC0E0121EC7158115817D008E828F838D63
:204CE000F00218B1124B32E582601074CBC0E074BBC0E0121EC715811581227401C0E0E4A7
:204D0000C0E0900000F5F01248791581158190156574A5F0F4A3F074BAA3F0C4A3F0740455
:204D2000C0E0E4C0E07465C0E07415C0E0900000E4F5F0124791E58124FCF581740EC0E04C
:204D4000E4C0E0743EC0E07416C0E0900004E4F5F0124791E58124FCF58174F8C0E074BBD5
:204D6000C0E0121EC71581158122901569E4F0A3F0A3F0A3F0741EC0E074BCC0E0121EC7BA
:204D8000158115817404C0E0E4C0E07469C0E07415C0E0900000E4F5F0124791E58124FCDC
:204DA000F58122858283D0F0D0E0D082C082C0E0C0F022C00074FB2581F8E5828682088691
:204DC000830886F0D0002275F008C58213C58233D5F0F7C58222E583A2E713F583E5821384
:204DE000F58222D083D0E0D0F0C0F0C0E0C083E582A4F58285F08322C000E58124FDF8E603
:204E0000F88582F0A4F582E8A8F08583F0A428F583E5F03400F5F0E4D00022C000C001C0C7
:204E2000E0C0F074FA2581F88600E58288F0A4F582A9F0E58388F0A429F583E5F03400F996
:204E4000D0E088F0A429C5F03400F9D0E0C0F088F0A429D0F0D001D00022C000C001C00210
:204E6000E58124FBF8E6F918E6F88582F0A4C0E0AAF0E58388F0A42AF8E5F03400FAE985F4
:204E800082F0A428C0E0E5F03AFA74003400F8E98583F0A42AFAE5F0388AF0D083D082D0E6
:204EA00002D001D00022D0E0D0F0C000C001C002C0F0C0E074F82581F9E7F809E7F922D065
:204EC00002D001D00022C9C583C9C8C582C822124EA675F008124EC6E0A3124EC6F0A3D590
:204EE000F0F3024EBF124EA675F008124EC6E493A3124EC6F0A3D5F0F2024EBF124EA6C3C5
:204F000075F008124EC6E0A3F502124EC6E03AF0A3D5F0EF024EBF124EA675F008124EC655
:204F2000E0A3F502124EC6E05AF0A3D5F0EF024EBF124EA6C375F008124EC6E0A3F5021259
:204F40004EC6E09AF0A3D5F0EF024EBF124EA6C375F008124EC6E0A3F502124EC6E0A39A54
:204F6000D5F0F0024EBF124EA675F008124EC6E0A3F502124EC6E0A36A7007D5F0EED30248
:204F80004EBFC3024EBFC8C0E075F008E038F0A3D5F0F9D00022D3E4024F86C374FF024FED
:204FA00086C000C00174FA2581F8E6F5F0088601496015088600E8F0A374FF25F0F5F074DC
:204FC000FF39F50145F070EED001D00022C000C001C00274F92581F9E7D3601CF5F0098753
:204FE00000098701C3E0F502A3124EC6E0A3124EC66A7004D5F0EED3D002D001D00022C05B
:2050000000C001C00274F82581F9E7F5F00987024A601F098700098701124EC6E0A3124EB1
:20502000C6F0A374FF25F0F5F074FF3AF50245F070E7D002D001D00022C000C001C002742E
:20504000F92581F9E76015F5F0098700098701124EC6E0A3124EC6F0A3D5F0F3D002D00199
:20506000D00022C083C082E06003A380FAC3E582D0F095F0F582E583D0F095F0F58322C06C
:2050800003C002C001C000C0E0C0F0C083C082A98174F62581F886F01886007502017503BF
:2050A00000758211A2F74014C3E833F8E5F033F5F0C3EA33FAEB33FB058280E8E4C003C0EF
:2050C00002C0E0C0E0AA81C0F0C000C0E0C0E0A881C0E0C0E0C0E0C0E0AB81C000C001C39A
:2050E00075830486F018E71995F0D583F6D001D000402BC000C001C375830486F018E795FD
:20510000F0F719D583F585020085030175830486F018E745F0F719D583F5D001D00074FC1E
:2051200028F8C375830408E613F6D583F9C00074FC2AF8C375830408E613F6D583F9D0001F
:20514000D5829820D508D082D083D0F0D00074F42581F58130D508D082D083D0F0D000E880
:20516000D000D001D002D00322C2D502507FD2D502507FC003C002C001C000C0E0C0F0C0D1
:2051800083C082A98174F62581F886F07401758219A2F7400A23C5F023C5F0058280F2C0D1
:2051A000E0E4C0E0C0E0C0E0AA81C0F0C0E0C0E0C0E0A881C0E0C0E0C0E0C0E0AB81C000FB
:2051C000C001C375830486F018E71995F0D583F6D001D000402BC000C001C375830486F02C
:2051E00018E795F0F719D583F585020085030175830486F018E745F0F719D583F5D001D01A
:205200000074FC28F8C375830408E613F6D583F9C00074FC2AF8C375830408E613F6D58397
:20522000F9D000D58298D082D083D0F0D00074F42581F581E8D000D001D002D00322C006E7
:20524000C005C004C003C002C001C00074F72581F886F074017C09A2F7400923C5F023C5A4
:20526000F00C80F3FBE4FAA9F0F88582F0FDFEC3E58298E583994011C3E58298F582E583AE
:2052800099F583EA4DFDEB4EFEC3E913F9E813F8C3EB13FBEA13FADCD620D5048D828E8369
:2052A000D000D001D002D003D004D005D00622C2D502523ED2D502523EE0C0E02401F0A36D
:2052C000E0C0E03400F0A3E0D083D0826014B4600AC000A882E2D000F582224009E493F586
:2052E0008222E0F58222C000A882E6D000F58222124EA675F004D3124EC6E0FA3400F0EA08
:20530000A3124EC6F0A3D5F0EE024EBF124EA675F004C3124EC6E0FAA3124EC6E0A36A7017
:2053200004D5F0EFD3024EBF124EA6C3E0A398E0A399E0A39400E0A39400024EBF124EA690
:20534000C3E0A338E0A339E0A33400E0A33400024EBF75F004E07004A3D5F0F9F58222A33C
:20536000A3A3E033227F00BF050040030253E7EF75F008A4246DFD741535F0FE74072DF519
:2053800082E43EF583E054F7F074072DF582E43EF583E054FBF074062DF582E43EF583E066
:2053A000547FF074062DF582E43EF583E054E0F08D828E83A3A3A3A3E0541FF074072DF5E2
:2053C00082E43EF583E054FCF074072DF582E43EF583E0543FF074072DF582E43EF583E0DC
:2053E00054CFF00F025367901594E0543F4440F0901594E054CF4410F0901593E0549F44E0
:2054000020F0901574E0543FF0901574E054CF4410F0901573E054E04410F0901573E054E4
:205420009FF0901574E054FC4402F07EF97F708F0690156DEEF07FF990156EEFF090157CE8
:20544000E054CFF090157BE054E04411F090157BE0549FF090157CE054FCF07EF97F708FC7
:2054600006901577EEF07FF9901578EFF07E6D7F158FD575D46D7E757F158FD375D2752258
:20548000E582FF2495FDE43415FE8D828E83E0FC782EE2B5040122782EE2B4020280157818
:2054A0002EE2B4030302555C782EE2B40403025600025686C005C006EF75F008A4246DFBDF
:2054C000741535F0FC74072BF582E43CF583E054F7F074072BF582E43CF583E054FBF0740A
:2054E000062BF582E43CF583E0547FF08B828C83A3A3A3A3E0541FF074072BF582E43CF5AC
:2055000083E054FCF074072BF582E43CF583E0543F4440F074072BF582E43CF583E054CF94
:20552000F074062BF582E43CF583E054E0F074062BF582E43CF583E0549F4420F08B828C4F
:2055400083A3A37AD97E708E02EAF08B828C83A3A3A374D9F0D006D005025686C005C00681
:20556000EF75F008A4246DFB741535F0FC74072BF582E43CF583E054F7F074072BF582E424
:205580003CF583E054FBF074062BF582E43CF583E0547FF08B828C83A3A3A3A3E0541FF0F6
:2055A00074072BF582E43CF583E054FCF074072BF582E43CF583E0543FF074072BF582E4FD
:2055C0003CF583E054CF4410F074062BF582E43CF583E054E0F074062BF582E43CF583E084
:2055E000549F4420F07AD97E708E028B828C83EAF08B828C83A374D9F0D006D00502568618
:20560000EF75F008A4246DFC741535F0FF74072CF582E43FF583E0543F4440F074072CF514
:2056200082E43FF583E054CFF074062CF582E43FF583E054E04412F074062CF582E43FF513
:2056400083E0549FF074072CF582E43FF583E054FC4402F074072CF582E43FF583E054F701
:20566000F074072CF582E43FF583E054FBF08C828F83A3A37A737B628B02EAF08C828F83AB
:20568000A3A3A37473F08D828E83782EE2F022AE82AF83782FE208E290158DF0782FE29080
:2056A000158EF08E048F058D0490158FECF0901590EEF07832E2901591541FF5F0E054E04F
:2056C00045F0F07831E2901592F053D1EF43D61043D710741055D1FFBF10F822AE82AF8399
:2056E0007833E208E290158DF07833E290158EF08E048F058D0490158FECF0901590EEF087
:205700007836E2901591541FF5F0E054E045F0F07835E2901592F053D1EF43D61043D71016
:2057200022AE82AF837837E208E2C39480500F53C7F87837E2C3F208E23480F2800953C7A9
:20574000F8E59F540742C77837E208E290158DF07837E290158EF08E048F058D0490158F2D
:20576000ECF0901590EEF0783AE2901591541FF5F0E054E045F0F07839E2901592F053D101
:20578000EF43D61043D710741055D1FFBF10F822AE82AF83901594E0543FF07C997D158D03
:2057A0000490158DECF07D9990158EEDF08E048F058D0490158FECF0901590EEF0783CE241
:2057C000901591541FF5F0E054E045F0F0783BE2901592F053D1EF43D61043D71074105507
:2057E000D1FFBF10F822AE82AF838E048F058D0490156FECF0901570EEF0783EE2FF9015B8
:2058000071541FF5F0E054E045F0F0783DE2FE901572F053D1FE90159AE4F07C9A7D158D80
:2058200004901575ECF07D9A901576EDF090157CE0543FF0901579EF541FF5F0E054E0451D
:20584000F0F090157AEEF053D1FD43D60143D60243D702E5D130E0FB22AE82AF838E048F93
:20586000058D04901575ECF0901576EEF090157CE0543F4440F07840E2901579541FF5F08B
:20588000E054E045F0F0783FE290157AF053D1FD43D60243D70222AFF0AE83E5829015A32E
:2058A000F0EEA3F0EFA3F09015A3E0F50FA3E0F510A3E0F511AA0FAB10AC118A008B018CE5
:2058C00007888289838FF0129E365407F8B8015F74012AFDE43BFE8C078D828E838FF012DE
:2058E0009E3603035403FDBD024574012AFDE43BFE8C078D828E838FF0129E362323540308
:20590000FDBD032B8A058B068C078D828E838FF0129E3620E619AD0FAE10AF1174112DFD5F
:20592000E43EFE8D828E838FF0129E36F582228A058B068C078D828E838FF0129E36540796
:20594000FDBD016374012AFDE43BFE8C078D828E838FF0129E3603035403FDBD0349740180
:205960002AFDE43BFE8C078D828E838FF0129E3623235403FDBD032F8A828B838CF0129EFC
:205980003623235401FABA011E9015A3E0FDA3E0FEA3E0FF74152DFDE43EFE8D828E838FB9
:2059A000F0129E36F5822275820022AFF0AE83E5829015A6F0EEA3F0EFA3F09015A6E0FDC2
:2059C000A3E0FEA3E0FF8D028E038F048A828B838CF0129E365407FABA014A74012DFAE4BB
:2059E0003EFB8F048A828B838CF0129E3603035403FABA023074012DFAE43EFB8F048A82C4
:205A00008B838CF0129E3623235403FABA03168D028E038F048A828B838CF0129E3620E677
:205A200004758200228D028E038F048A828B838CF0129E365407FABA014974012DFAE43E03
:205A4000FB8F048A828B838CF0129E3603035403FABA032F74012DFAE43EFB8F048A828B16
:205A6000838CF0129E3623235403FABA03158D828E838FF0129E3623235401FDBD01047584
:205A800082012275820022AFF0AE83E5827842F2EE08F2EF08F27845E4F27B017841C3E227
:205AA000F5F0EB95F050227842E2FA08E2FC08E2FFEB2AFAE43CFC8A828C838FF0129E360F
:205AC000FA7845E22AF20B80D37842E2FD08E2FE08E2FF8D828E838FF0129E36FD7845E228
:205AE000B50503D38001C3E433F58222AFF0AE83E5827847F2EE08F2EF08F2784AE4F27B56
:205B0000017846C3E2F5F0EB95F050227847E2FA08E2FC08E2FFEB2AFAE43CFC8A828C83AA
:205B20008FF0129E36FA784AE22AF20B80D37847E2FD08E2FE08E2FF8D828E838FF0784A18
:205B4000E20285EF9000201297F5AE82AF8374012EFCE43FFD784BECF2ED08F28E028F03D4
:205B60007D007828E4F278297417F2E408F28A828B838DF0C007C0061249DBD006D0078EA1
:205B8000828F837414F074122EF582E43FF58374EDF0784BE22409FC08E23400FD7B007806
:205BA00020749BF2741508F2E408F278237408F2E408F28C828D838BF0C007C006123F7095
:205BC000D006D007784BE2F58208E2F583E054F84401F0784BE2F58208E2F583E054DFF0B8
:205BE000784BE22401F58208E23400F583E054F34408F0784BE22401F58208E23400F58394
:205C0000E044C0F0784BE22402FC08E23400FD901656E0FB04F08C828D83EBF0784BE22441
:205C200003F58208E23400F5837447F07444A3F0784BE22405F58208E23400F58374FFF020
:205C4000A3F0784BE22407F58208E23400F5837447F07444A3F08E828F83C007C0061220FD
:205C6000F3D006D0077D008E828F838DF00218B1C0820581058105819000801297F5AD82EC
:205C8000AE83E58124FDF88682C006C005121FF612201AD005D0067C01A8817601A881E677
:205CA00024EB5003025E0BC006C005C004125B44123EEBE5828583F0D004D005D006901559
:205CC000A92440F0E435F0A3F0A881181874162DF6E43E08F6C004C006C005123EEBAA824F
:205CE000AC83D005D0069015A9E0FBA3E0FFEAC39BFAEC9FFCC3E49A74809CD0044003026C
:205D00005E018D828E83C006C005C004122021AF82D004D005D0069015ABEFF0C374818F3C
:205D2000F063F08095F050ADA88118188682088683E0FFE58124FDF8E6B507998D028E03F3
:205D40007F008A828B838FF0C006C005C004125897AF82D004D005D006BFEE028003025C9B
:205D6000D58D028E037F008A828B838FF0C006C005C0041259ABE582D004D005D006700358
:205D8000025CD58D028E037F009015ACEAF0EBA3F0EFA3F0740D2AFAE43BFB7820EAF2EBE8
:205DA00008F2EF08F278237408F2E408F290164CF5F0C006C005C004123F70D004D005D0B9
:205DC000069015ACE0FAA3E0FBA3E0FF74032AFAE43BFB8A828B838FF0129E36FAA3129E11
:205DE00036FB901654EAF0EBA3F08D028E037F008A828B838FF0C0041218B1D0048C8280E7
:205E000018A88106A8818604025C9D7F008D828E838FF01218B1758200E58124FCF581227F
:205E2000E5812404F5819000801297F5AE82AF83EE4F700F7448C0E074BCC0E0121EC7155A
:205E400081158174012EFCE43FFDE58124FDF8A60408A6058E028F037D007828E4F27829DA
:205E6000742DF2E408F28A828B838DF0C007C0061249DBD006D00774132EFCE43FFDA881B0
:205E800018A60408A6058E828F83742AF074122EF582E43FF58374E5F0E58124FDF87409D2
:205EA00026FAE40836FB7D007820749BF2741508F2E408F278237408F2E408F28A828B832D
:205EC0008DF0C007C006123F70D006D007E58124FDF88682088683E054F84401F0E58124C7
:205EE000FDF88682088683E054DFF0E58124FDF88682088683A3E054F34408F0E58124FD6C
:205F0000F88682088683A3E044C0F0E58124FDF8740226FCE40836FD901656E0FB04F08C6C
:205F2000828D83EBF0E58124FDF88682088683A3A3A37447F07444A3F0E58124FDF88682F6
:205F4000088683A3A3A3A3A374FFF0A3F0E58124FDF8740726F582E40836F5837447F074BB
:205F600044A3F0A88118740626F582E40836F5837409F0A8811826F582E40836F5837428D7
:205F8000F0E4A3F0A88118740B26FCE40836FD901657E08C828D83F0A88118740426FCE4EF
:205FA0000836FD901632E0FAA3E0FB8C828D83EAF0EBA3F0A88118740826FCE40836FD9072
:205FC0001536E08C828D83F0A88118740226FCE40836FD901556E08C828D83F0A8811874F2
:205FE0000126FCE40836FD901557E08C828D83F0A88118740726FCE40836FD90162FE08C37
:20600000828D83F0A881188682088683A3A3A37414F0A88118740C26FCE40836FD90164655
:20602000E08C828D83F0A88118740D26F582E40836F5837455F0A88118741426F582E4086E
:2060400036F58374ABF0A8811886030886047D0078467415F28B828C838DF0C007C0061239
:206060005AECD006D0078E828F83C007C0061220F3D006D0077D008E828F838DF01218B1B5
:20608000E58124FCF58122E5812407F58112201A9000821297F5AE82AF83E58124FAF8A65B
:2060A0000608A607E58124FAF8E60846700F7466C0E074BCC0E0121EC7158115817D007E8E
:2060C00000BE0A00400302624DC006C005125E20123EEBAA82AB83D005D006E58124FCF82B
:2060E00074A02AF6E43B08F6C005C006123EEBAB82AD83D006E58124FBF8EBC396FBED08A5
:2061000096FDC3E49B74809DD0054003026247E58124FAF88682088683C006C005122021E3
:20612000AB82D005D006C374818BF063F08095F050B6C005E58124F9F886020886037D0020
:206140008A828B838DF0C006125897AD82D006BDE6028004D0058090E58124F9F8741626A3
:20616000FAE40836FB8A048B057F0078417411F28C828D838FF0C006C005C003C002125A22
:2061800087E582D002D003D005D006D00570030260E8E58124FAF88606088607A881181839
:2061A000A60608A607A8811818740D26FCE40836FF7820ECF2EF08F2E408F278237408F21B
:2061C000E408F290164CF5F0C005C003C002123F70D002D003D005A8811818868208868313
:2061E000A3A3A3E0FEA3E0FF901654EEF0EFA3F090162CEDF0900011C003C0021297F5AEDB
:2062000082AF83D002D0038E828F83C007C0067411C0E0C002C0031250391581158115816F
:20622000D006D007E58124FAF886020886037C008A828B838CF0C007C0061218B1D006D0FC
:20624000078E828F8380240E8E050260C190162C740AF0E58124FAF886050886067F008DC6
:20626000828E838FF01218B1900000C8E58124F9F581C822C082C083C0F0E5812407F581BA
:2062800024F7F8740226FAE40836FB0886048A828B838CF0E58124FAF8129E36F6E581242E
:2062A000FAF87958E6F3E409F3900063C004C003C00212978AAE82AF83D002D003D004A870
:2062C0008118A60608A607E58124FBF87663087600E58124F7F8740126FDE40836FE088631
:2062E000078D828E838FF0129E36FD901661E0FFEDB507028006758200026425A88118C378
:20630000E6940308E694104006758200026425E58124FAF8E624D55006758200026425A8CB
:206320008118746326FEE40836FFC374049E74109F5013A88118E58124FBF97404C396F7C2
:206340007410089609F7E58124F7F8860508860608860778417466F28D828E838FF0C00406
:20636000C003C002125A87E582D002D003D0047003026422E58124F7F8740326FDE4083695
:20638000FE088607E58124FDF8A60508A606E58124F3F8A98119E726FE09E70836FFC004D8
:2063A000C003C002E58124F8F8E6C0E008E6C0E0E58124F8F8E6C0E008E6C0E08E828F831A
:2063C000124FFFE58124FCF581D002D003D0048A828B838CF0129E36FA7F0078717408F29C
:2063E000E408F28A828F83C007C002129BD5AD82AE83D002D007ED2463FDEE3416FE530291
:20640000078AF005F07401800225E0D5F0FBF4FA8D828E83E052028D828E83EAF075820116
:206420008003758200E58124F6F58122C082C083E5812404F5817D00900080C0051297F551
:20644000AB82AC83D005A88118A60308A604758201C0051221E6123EEBAA82AF83D005E546
:206460008124FBF8860408860674142CFCE43EC42354E0CCC423CC6CCC54E0CC6CFEEC2A42
:20648000FCEE3FFEE58124FDF8A60408A606A88118741626FBE40836FFC005C007C003128A
:2064A0003EEBAA82AD83D003D007E58124FCF8EAC396FAED0896FDC3E49A74809DD0054083
:2064C00003026544A881188682088683C007C005C003122021AA82D003D005D007C37481AF
:2064E0008AF063F08095F050B0C005A881181886020886057E008A828D838EF0C007C005ED
:20650000C003125897AE82D003D005D007BEE8028004D0058083D0058B048F067A00C007CA
:20652000C003E58124F5F8E6C0E008E6C0E08C828E838AF0126274AD8215811581D003D08E
:2065400007026499758200C0051221E6D005A8811886030886047F008B828C838FF0C00550
:206560001218B1D0058D82E58124FAF581229000031297F5AE82AF83A3E4F0A3F08E828F04
:206580008322C082E5812404F5819000801297F5AD82AE838D028E037C007828E4F278294F
:2065A000742DF2E408F28A828B838CF0C006C0051249DBD005D00674012DFBE43EFCE58147
:2065C00024FDF8A60308A60474172DFAE43EFFA88118A60208A6078D828E83742AF0E581C2
:2065E00024FCF8E6600E74162DF582E43EF58374E7F0800C74162DF582E43EF58374E4F080
:20660000E58124FDF8740D26FAE40836FC7F007820749BF2741508F2E408F278237408F2BA
:20662000E408F28A828C838FF0C006C005123F70D005D006E58124FDF8740526FCE40836AF
:20664000FF7B007820744CF2741608F2E408F278237408F2E408F28C828F838BF0C006C00C
:2066600005123F70D005D006E58124FDF88682088683E054F84401F0E58124FDF886820821
:206680008683E054F7F0E58124FDF88682088683E054EFF0E58124FDF88682088683E0545F
:2066A000DFF0E58124FDF88682088683E04440F0E58124FDF88682088683A3E0440CF0E5DF
:2066C0008124FDF88682088683A3E054CFF0E58124FDF88682088683A3E044C0F0E58124D8
:2066E000FDF8740226FCE40836FF901656E0FB04F08C828F83EBF0E58124FDF8740326FC0E
:20670000E40836FF901654E0FAA3E0FB8C828F83EAF0EBA3F0A8811886020886047F00783C
:20672000207458F2741608F2E408F278237411F2E408F28A828C838FF0C006C005123F7043
:20674000D005D006A8811886020886047F0078467411F28A828C838FF0C006C005125AEC02
:20676000D005D0068D828E83C006C0051220F3D005D0067F008D828E838FF01218B1E58194
:2067800024FBF58122058105810581AF82900080C0071297F5AD82AE83D007A8811818A6D4
:2067A0000508A606758201C0071221E6D007A8817600A881B60A0040030269518F82C00712
:2067C000126582123EEBAA82AB83D007A88186057E0078717405F2E408F28D828E83C00709
:2067E000C003C002129BD5AD82AE83D002D003D007740B2DFDE43EC42354E0CDC423CD6DE2
:20680000CD54E0CD6DFE9015AFED2AF0EE3BA3F0A88118188682088683C007122021AB826F
:20682000D0079015B1EBF0C374818BF063F08095F04003026926C007E58124FDF88602081B
:2068400086037F008A828B838FF0C007125897AE82D007BEE805D0070268F4D007BEE90268
:206860008009BEEC0302690D026926C007E58124FDF8741626FAE40836FB8A048B067F002E
:2068800078417403F28C828E838FF0C007C003C002125A87E582D002D003D007D0077003CC
:2068A000026926900003C003C0021297F5AD82AE83D002D0038D828E83C006C0057403C0AA
:2068C000E0C002C003125039158115811581D005D006A881181886020886037C008A828BC6
:2068E000838CF0C006C0051218B1D005D0068D828E838074A881181886040886057E008CF4
:20690000828D838EF01218B112656E805BA881181886040886057E008C828D838EF0121812
:20692000B19000008042C007123EEBAD82AE83D0079015AFE0FBA3E0FCEDC39BFDEE9CFE9D
:20694000C3E49D74809E5003026810A881060267B2A881181886050886067F008D828E8333
