:020000040000FA
:040000000200A43224
:01000B0032C2
:0100130032BA
:01001B0032B2
:0100230032AA
:03002B00021608B2
:01003300329A
:01003B003292
:01004300328A
:01004B003282
:01005300327A
:01005B003272
:01006300326A
:06006B0002160C02071C46
:08008B0005CBEFBED0D0ADDEC5
:2000A400758121129DB4E582600302006E79E2E94400601B7A0190BEE37816759316E493B6
:2000C400F2A308B800020593D9F4DAF27593FFE478FFF6D8FD7873E84400600A7900759365
:2000E40000E4F309D8FC78A3E84415600C7916900073E4F0A3D8FCD9FA7800E4F2780BE41B
:20010400F208F290155C7401F0901591E4F0901592F0901593F0901594F09015AEE4F0A33D
:20012400F09015B0F0A3F002006EE5812407F5817F007E78BEC80040030201C38E047D0069
:200144008C82EDC42354E0C582C423C5826582C58254E0C5826582F583C007C006129701D1
:20016400AC82AD83D006D0078D037D00EC4B604F8C828B838DF0C0061218DAD0068E078E21
:2001840004E42354E0CCC423CC6CCC54E0CC6CFDC004C00574FAC0E074A1C0E0121EF0E5AB
:2001A4008124FCF581EE245550117404C0E074A2C0E0121EF01581158180FE0E020138E497
:2001C4002354E0CFC423CF6FCF54E0CF6FFE8F828E83C007C006129701AC82AD83D006D034
:2001E40007E58124FCF8A60408A605087600E58124FCF8E6084670127456C0E074A2C0E047
:20020400121EF015811581020311A88118E4F608F6A881188603088604E58124FAF8A607DA
:2002240008A606E58124FAF8C3EB96EC08965034C007C006E58124FAF8E58124FDF9E726A2
:20024400FD09E70836FE0886078D828E838FF0EB12850AE58124FDF806B600020806D00690
:20026400D00780AD7E007F00A88118E4F608F6A881188602088603E58124FAF8C3EA96EB5C
:2002840008965064C006C007E58124FAF8E58124FDF9E726FD09E70836FE0886078D828E17
:2002A400838FF0129D98FDB50206D007D0068025D007D0068D047D00C004C005C002C00619
:2002C400C007748DC0E074A2C0E0121EF0E58124F9F5818013A8811806B600020806A8811A
:2002E4001886060886078087E58124FCF886030886040886058B828C838DF01218DA74B8C5
:20030400C0E074A2C0E0121EF015811581E58124F9F58122AF82758240C0071213397826F1
:20032400E4F278277406F2E408F290150EF5F01248F1D0077E00BE06005010EE240EF58207
:20034400E43415F5837481F00E80EB7E00C3EE9F50507D00BD06005046ED90085A93F58269
:20036400C007C006C005125B86E582D005D006D0076029ED240EFBE43415FC8B828C83E083
:20038400FA901555E0F508C3EA64808508F063F08095F050078B828C83E508F00D80B50E82
:2003A40080AB758240121389901514E4F0901515F0FFBF0600502DEF240EF582E43415F5F7
:2003C40083E0FE901514E0C364808EF063F08095F0500EEF90085A93901515F0901514EE7F
:2003E400F00F80CE901514E0901555F0901515E0F582227E007F00C3EE9408EF64809480C5
:200404005021EE2497FCEF3415FD740C2EFA74783FFB8A828B83E08C828D83F00EBE00D714
:200424000F80D422901631E0FEA3E0FFC3742C9E74019F400F90162BE07009901616E07062
:2004440003020524901633E0FEA3E0FFBE200FBF010C121610901633E4F0A3F08006758283
:2004640002121339901633E02401F0A3E03400F0901630E0600C901518E07006901640E0A8
:20048400700C901519E06036901641E06030901680E0FFBFFF02801775820C1213399016EE
:2004A40080E0F58212759A75820C121389800F758208121339120F077582081213897582D7
:2004C40040121339125F9FAE82AF83901516EEF0EFA3F0758240C007C006121389D006D0D5
:2004E40007EE4F6023901631E4F0A3F0901616E06005901616E4F090162BE060069016168F
:200504007401F090162BE4F090163EE0602E758201120318E582FE6023901654EEF0801CFA
:20052400758240121339125F9FE5828583F0901516F0E5F0A3F07582401213891217BC9046
:200544001516E0FEA3E0FF4E7009901629E4F0A3F08049740F2EF582E43FF583E0FCA3E024
:20056400FD901629ECF0EDA3F0740D2EFCE43FFD8C828D83E060128E828F83127DE3E58219
:200584007007901629E4F0A3F0901516E0FEA3E0FF7D008E828F838DF01218DA121807AE90
:2005A40082AF83901631E0FCA3E0FD901631EE2CF0EF3DA3F0BE580EBF020B90163FE0609B
:2005C400057800E4F222901629E0FEA3E0FF4E6039EF30E71E8E048F0553057F785CECF2B9
:2005E400ED08F2E408F208F29003E8F5F01298620215DD785CEEF2EF08F2E408F208F290D3
:20060400EA60F5F01298620215DD121807AE82AF83785CEEF2EF08F2E408F208F29003E824
:20062400F5F01298620215DD90162CE0FF6004EF30E005EF24DB5003121610758202120331
:2006440018AF82901654EFF0EF700C901519E07006901641E0701A901630E0600C901518C5
:20066400E07006901640E0700890162CE0FFBF233F758208121339901680E0FFBFFF02806E
:2006840017758204121339901680E0F58212759A758204121389801290162CE0FFBF23007A
:2006A40040051213258003120F07758208121389901654E0FFE0603A8F8212201F90162CC8
:2006C400E4F090162B74FDF0900023121858121807AE82AF83785CEEF2EF08F2E408F208C5
:1C06E400F29003E8F5F01298621215DD78007401F222758201121783AC82AD8395
:20070000AEF0FF785CECF2ED08F2EE08F2EF08F29003E8E4F5F01298620215DD43FE014309
:20072000900175821112133974BDC0E074A2C0E0121EF01581158175820412133990000105
:20074000123F0E1284EE1203F7900023121858124ACD75820412138912161012012ED2AFA9
:20076000901534E0901642F0901648E0FF6007901654EFF0800C758204120318E58290161A
:2007800054F0901654E0600578007401F25390FE120F07758204121339124BFA7582041231
:2007A0001389901654E0FFE060058F8212201F7800E2600B7800E2B401F512042880F01294
:2007C000062C80EBAF82BF00028024BF01028034BF0202801DBF03028037BF0502804DBF43
:2007E00021028054BF30028064BF3102806522029D947582041213391249A8124BFA758257
:2008000004021389758204120318E582901654F02275820812133912132575821812138937
:2008200090FFFF74FFF5F01215DD80F4758204121339758204021389901631742DF074018B
:20084000A3F09016337420F07401A3F022901635E4F0229016357401F0220B0F14191A1BCF
:200860008582C1E58620E0FB228582C1E58620E0FB85C1822253807F22438080225380EF75
:200880002243801022900001123F0EE58020E108900001123F0E80F322AE82AF839000016B
:2008A000C007C006123F0ED006D00753C0DF5389FD43AB02538CFE43B8207D007C008E82E3
:2008C0008F838DF0EC1213C2E59E20E6FBE580A2BDE433F5F005F07401800225E0D5F0FBC1
:2008E000F452B853ABFD22900001123F0E5380FE900001123F0E438001900000020885AF9A
:2009000082C00712087D120875D0078F82120860120881758200120869AF82C00712087966
:20092000D0078F8222E58124FDFFC00712087D120875D007A88118188682C00712086012AF
:200940000881D0077E00E58124FDF8C3EE965017EF24FEFDFF8D018782C007C006120860E1
:20096000D006D0070E80DF02087953867F75C20043C51043C5204380014380805390FD53D1
:2009800080F953FDF943FDB943F32843FE02900001023F0E1208791208E71208E77582711E
:2009A0001208FF7582701208FFE4C0E0C0E07407C0E0E4C0E07402C0E014C0E0120925E5EC
:2009C0008124FAF5817421C0E0E4C0E0742EC0E0E4C0E07422C0E0E4C0E07425C0E0E4C0EC
:2009E000E0742FC0E0E4C0E0740AC0E0E4C0E0740FC0E0E4C0E07407C0E014C0E0120925F8
:200A0000E58124F0F581E4C0E07404C0E0120925158115819003E8120885E4C0E0C0E0049C
:200A2000C0E07441C0E0120925E58124FCF581E4C0E07440C0E0120925158115819003E8C6
:200A4000120885E4C0E0C0E004C0E07416C0E0120925E58124FCF5817449C0E0E4C0E07474
:200A60000FC0E0E4C0E07402C0E0E4C0E0120925E58124FAF5817478C0E0E4C0E004C0E0BB
:200A8000744DC0E0120925E58124FCF5817444C0E0E4C0E07454C0E0E4C0E07410C0E0E4E9
:200AA000C0E07403C0E0C0E0120925E58124F8F5817437C0E0E4C0E004C0E07450C0E012BE
:200AC0000925E58124FCF5817402C0E0E4C0E07402C0E0E4C0E07402C0E07460C0E0120913
:200AE00025E58124FAF5817428C0E0E4C0E004C0E0E4C0E07480C0E0E4C0E0C0E0C0E07423
:200B000004C0E07461C0E0120925E58124F6F581741CC0E0E4C0E004C0E074E7C0E0120918
:200B200025E58124FCF5817422C0E0E4C0E004C0E074E3C0E0120925E58124FCF58174D0BF
:200B4000C0E0E4C0E004C0E074B4C0E0120925E58124FCF5817403C0E0E4C0E004C0E07416
:200B6000B5C0E0120925E58124FCF5817401C0E0E4C0E004C0E074E9C0E0120925E58124E0
:200B8000FCF5817408C0E0E4C0E004C0E07430C0E0120925E58124FCF5812274C7C0E0E43E
:200BA000C0E004C0E07450C0E0120925E58124FCF581E4C0E07402C0E0120925158115814B
:200BC00074A5C0E0E4C0E004C0E07407C0E0120925E58124FCF58190001E123EF943900211
:200BE00053F3D775F30075FD0043F720758000439002900001123EF953FEFD22E581240BFB
:200C0000F581123E8BE4C0E07410C0E012092515811581900010129701AE82AF8390001023
:200C2000C007C006129701AC82AD83D006D007E58124F6F8A60408A605900010C007C00670
:200C4000129701AA82AB83D006D007E58124F8F8A60208A603E58124FAF87627087601E593
:200C60008124FAF88602088603C374289A74019B5003020E8B8E028F03901595E4F07839EC
:200C80007410F2E408F28A828B83C007C0061256A6D006D007E58124F6F88602088603907D
:200CA0001595E4F078397410F2E408F28A828B83C007C0061256A6D006D007E58124F8F8D5
:200CC0008602088603901595E4F078397410F2E408F28A828B83C007C0061256A6D006D08D
:200CE000078E028F037D00C007C006C002C003C005E4C0E0E58124F4F8868208868312242E
:200D000033E58124FCF581D006D007E58124F6F886030886047D00C007C006C003C004C013
:200D2000057401C0E0E58124F4F88682088683122433E58124FCF581D006D007E58124F876
:200D4000F886020886037D00C007C006C002C003C0057402C0E0E58124F4F8868208868389
:200D6000122433E58124FCF581120875D006D007E58124FCF8E4F608F6E58124FCF8860276
:200D8000088603C3EA9480EB94004003020E6DA88118187600E58124FCF88602088605A8B2
:200DA00081187600A88118B604004003020E5AC006C007E58124FCF88607E58124FCF8EF77
:200DC0002FF6E625E0F68A068D078E03EFC423CBC423541F6BCB541FCB6BCB5306078EF0D5
:200DE00005F0A88118187401800225E0D5F0FBF6E58124F4F8EB26F582E40836F583E0FF7C
:200E0000A8811818E65FD007D006600AA8811818E64403F68038E58124F8F8EB26F582E403
:200E20000836F583E0FCA881E65C600AA8811818E64402F68018EB2EF582E43FF583E0FC31
:200E4000A881E65C7008A8811818E64401F60ABA00010DA8811806020DA4E58124FCF8A645
:200E60000208A605A881181886C1020D79E58620E0FBC007C006120879D006D007E58124D8
:200E8000FAF816B6FF020816020C5F7D008E828F838DF01218DAE58124F6F8860408860553
:200EA0007F008C828D838FF01218DAE58124F8F886020886037F008A828B838FF01218DA63
:200EC0007480C0E0E4C0E004C0E07411C0E0120925E58124FC24F5F58122120BFC1230510E
:200EE000E4C0E0C0E004C0E07412C0E0120925E58124FCF58190C35002089912096A1209E2
:200F000094120EDA020B9B1231A7781B7401F2E408F2781D04F29000011231EE7582021281
:200F2000321E7447C0E074ABC0E0123396158115811231A7781B74A0F2E408F2781D04F254
:200F40009000681231EE7582001232307456C0E074ABC0E0123396158115811231A7781B50
:200F600074CFF2E408F2781D04F29000681231EE758201123230745EC0E074ABC0E01233C8
:200F800096158115811231A7781B74D6F2E408F2781D04F29000681231EE758202123230D7
:200FA0007460C0E074ABC0E0123396158115811231A7781B74E2F2E408F2781D04F2900039
:200FC000681231EE758200123230746AC0E074ABC0E07480C0E07428C0E0E4C0E07462C0E6
:200FE000E074ABC0E0123396E58124F9F5811231A7781B7402F2E408F2781D04F29000564A
:201000001231EE75820012323090159CE0FF7E0090159DE0FD7C0090159EE0FB7A00C0079C
:20102000C006C005C004C003C0027470C0E074ABC0E0741AC0E07415C0E0121F59E581242E
:20104000F6F581901599E0FF7E0090159AE0FD7C0090159BE0FB7A00C007C006C005C00446
:20106000C003C0027470C0E074ABC0E07423C0E07415C0E0121F59E58124F6F5819015978C
:20108000E0FF7E00901598E0FD7C00C007C006C005C0047480C0E074ABC0E0742CC0E07440
:2010A00015C0E0121F59E58124F8F581741AC0E07415C0E0E4C0E0748AC0E074ABC0E012AF
:2010C0003396E58124FBF58190A707123242781B7404F2E408F2781D04F29000661231EEFB
:2010E00075820112321E758200123230901654E0700302122B1231A7781B7410F2E408F2CE
:20110000781D04F29000201231EE75820212321E7496C0E074ABC0E0123396158115819008
:20112000A84F123242781B74F0F2E408F2781D04F29000021231EE75820112321E758200CC
:201140001232301231A7781B7410F2E408F2781D04F290003C1231EE75820112321E9016C2
:201160004EE0FF7E0090164FE0FD7C00901650E0FB7A00C007C006C005C004C003C002741C
:2011800070C0E074ABC0E0741AC0E07415C0E0121F59E58124F6F58190164BE0FF7E0090CB
:2011A000164CE0FD7C0090164DE0FB7A00C007C006C005C004C003C0027470C0E074ABC02E
:2011C000E07423C0E07415C0E0121F59E58124F6F581901649E0FF7E0090164AE0FD7C00BA
:2011E000C007C006C005C0047480C0E074ABC0E0742CC0E07415C0E0121F59E58124F8F51C
:2012000081901654E0FF7E00C007C006741AC0E07415C0E0E4C0E0749FC0E074ABC0E0120A
:201220003396E58124F9F58102129D1231A7781B7418F2E408F2781D04F29000301231EEE6
:2012400075820212321E74B1C0E074ABC0E01233961581158190A84F123242781B74E0F2C2
:20126000E408F2781D04F29000201231EE75820112321E75820012323090A9DB123242784D
:201280001B74E4F2E408F2781D04F29000281231EE75820112321E758201123230020EFBC6
:2012A000901630E0602A90AB2F123242781B7418F2740108F2781DF29000761231EE7582C9
:2012C0000112321E7582001232309015187401F0901654E0704E90AAFF123242781B7418A8
:2012E000F2740108F2781DF29000001231EE75820112321E75820012323090AB231232429C
:20130000781B7420F2740108F2781DF29000081231EE75820112321E75820112323090158A
:20132000197401F022020EFB75C6C0E59E30E6FB53C6BFE59E20E6FB22E582FF30E019C0A6
:20134000071213289062707404F012527B12187BE582D00790162BF0EF30E407C0071249C0
:201360004CD007EF30E20D758201C0071241C91241F0D007EF30E60AC007122219121FDE15
:20138000D007901636E04FF022AF82901636E05207EF30E407C007124959D007EF30E607AB
:2013A000C007121FF7D007EF30E20DC00712416E7582001241C9D007EFF4FF901636E05FEA
:2013C000F022AF82AE83ADF0FC901535EFF0EEA3F0EDA3F0ECA3F0AC957D007E007F00A864
:2013E0009679007A008A0389028801E42CF8E93DF9EA3EFAEB3FFBAC978D078C06E428FCE4
:20140000ED39FDEE3AFEEF3BFF901535E0F8A3E0F9A3E0FAA3E0C42354E0CAC423CA6ACA62
:2014200054E0CA6AFBE9C423541F4AFAE9C42354E0C8C423C868C854E0C868F9E82CFCE9C1
:151440003DFDEA3EFEEB3FFF8E978D968C95D2AFD2AD43BE069E
:201458007587010022AF8285951375140075150075160085960F751000751100751200AEEF
:2014780011AD10AC0FE42513F513EC3514F514ED3515F515EE3516F516AB977C008C068B09
:20149800057B007801EB2513F2EC351408F2ED351508F2EE351608F28F02EEC42354E0CA2F
:2014B800C423CA6ACA54E0CA6AFE3395E0FDFC7801E22AFA08E23EFE08E23DFD08E23CFC3D
:0D14D8008D978E968A95D2AFD2AD43BE059A
:1814E8007587010022AF82AE83ADF0FC901539EFF0EEA3F0EDA3F0EC28
:20150000A3F0901539E0FCA3E0FDA3E0FEA3E0FF901539E0F5F0A3E042F0A3E042F0A3E06B
:2015200045F070030215D2C374EE9C74029DE49EE49F5025901635E0601F901654E060193F
:20154000439001900001E4F5F01213C25390FE7CEE7D027E007F0080087CFF7DFF7E077F2C
:2015600000901539E0F8A3E0F9A3E0FAA3E0FBC3EC98ED99EE9AEF9B50408C828D838EF033
:20158000EFC007C006C005C004C003C002C001C0001213C2D000D001D002D003D004D0056A
:2015A000D006D007901539E8C39CF0E99DA3F0EA9EA3F0EB9FA3F0021502888289838AF06F
:2015C000EB1213C2901539E4F0A3F0A3F0A3F0021502E59E20E6FB758210021339AF82AEFD
:2015E00083ADF0FC90153DEFF0EEA3F0EDA3F0ECA3F090153DE0FCA3E0FDA3E0FEA3E08CC0
:20160000828D838EF00214ED53C07F3253C0DF32900014123EF97F007E047D04BD1F005034
:20162000678D04EC2C906264F0900064C007C006C005123EF9D005D006D007906264E020ED
:20164000E62B906264E0FC5304407B008E017A00C004C003C001C00274BEC0E074ABC0E091
:20166000121EF0E58124FAF5818E07801B906264E043E001F0900064C007C005123EF9D03D
:2016800005D0070D8D068094906264E043E001F0BF1300500302175BEF24E1500302175B1C
:2016A000EF24EDFF240A83F582EF241083F583E473C9D6E3F0FC08131F2B37434F161616B0
:2016C00016161717171717171790162E74FCF07408A3F002176590162E742EF07409A3F006
:2016E00002176590162E7460F07409A3F002176590162E7492F07409A3F0806990162E743B
:20170000C4F07409A3F0805D90162E74F6F0F4A3F0805290162E7428F0740AA3F0804690DA
:20172000162E748CF0740AA3F0803A90162E74F0F0740AA3F0802E90162E7486F0740BA3E3
:20174000F0802290162E741CF0740CA3F0801690162E7480F0740CA3F0800A90162E74B9A4
:20176000F0740BA3F090162EE0FEA3E0FFC3EE94F0EF940A50079016307401F022901630E7
:20178000E4F022E582601090162CE0FFBFFF00500690162CEF04F090162CE0FFBF1800502A
:2017A00007900E10E4F5F022BF24005007901C20E4F5F02290518075F001E422901628E01D
:2017C0007856F2E408F29002351296A57805740AF2E408F212188FAE82AF8374232EFEE4CA
:2017E0003FFF901627E054077D0025E0FCED33FDEC2417F582ED3416F583EEF0EFA3F090CB
:201800001627E02401F0227E007F007D00BD0800501DED75F002A42417F582741635F0F57A
:2018200083E0FBA3E0FCEB2EFEEC3FFF0D80DEEFC423CEC423541F6ECE541FCE6ECEFF90D9
:201840001646E0FCA3E0FDC3EE9CEF9D50058C828D83228E828F8322AE82AF837D00BD087A
:20186000005017ED75F002A42417F582741635F0F583EEF0EFA3F00D80E422E59DFF700448
:201880007582FC22BF02047582FE227582FE22AE82AF837C007D007B10EF235401FAEE2EDD
:2018A000FEEF33FFEC2CFCED33FDEA60034304017805C3E2F5F0EC95F008E2F5F0ED95F08A
:2018C00040117805D3E29CF4B3FCB308E29DF4FD430601DBC48E828F8322AD82AE83AFF0EF
:2018E000ED4E7001227B007C00901614E0F513A3E0F514750F14751016E513451460398D4B
:20190000118E12C3E5139511E5149512502AC005C006C007AB13AC1474022513FAE43514F6
:20192000FF8A0F8F108A828F83E0F513A3E0F514D007D006D00580C17807E513F2E51408B1
:20194000F2ED24FEFDEE34FFFE74022DFAE43EFF8A828F837807E2F008E2A3F0850F828525
:201960001083EDF0EEA3F08D828E83E0F513A3E0F5147807E2B5130708E2B51402800280FB
:2019800039C003C004851382851483A3A3E0FBA3E0FC8A828F83EBF0ECA3F08D828E83E039
:2019A000FBA3E0FC8B828C83E0FBA3E0FC8D828E83EBF0ECA3F0D004D003EB4C604BC00272
:2019C000C0078B828C83E0FAA3E0FFEAB50506EFB506028005D007D00222D007D0028D826A
:2019E0008E83E0FDA3E0FE8B828C83EDF0EEA3F074022BFBE43CFC8A828F83E0FAA3E0FFCC
:201A00008B828C83EAF0EFA3F022AE82AF8374D2C0E074ABC0E0121EF0158115817D00BD9F
:201A20001000501C8D037C00C003C00474DBC0E074ABC0E0121EF0E58124FCF5810D80DF61
:201A400074E1C0E074ABC0E0121EF0158115817D00BD1000501274EBC0E074ABC0E0121EEC
:201A6000F0158115810D80E97C007D00E58124FDF8C3EC96ED089650488C028D03EA540F89
:201A800060028015C004C00574EFC0E074ABC0E0121EF0E58124FCF581EC2EF582ED3FF536
:201AA00083E0FB7A00C003C00274FAC0E074ABC0E0121EF0E58124FCF5810CBC00AE0D80DD
:201AC000AB74E1C0E074ABC0E0121EF0158115817F00BF1000501274EBC0E074ABC0E012DB
:201AE0001EF0158115810F80E97400C0E074ACC0E0121EF01581158122C007C083C0828521
:201B00008107C004C003C002C001C00074F42581F8868318868218860018E493A36014B44C
:201B2000250C7C007A00E493A36008B42516121E2B80E7D000D001D002D003D004D082D00F
:201B400083D00722B4630518E61880E2FB4420B46D43EB542003F9C083C082121D957C088A
:201B6000C083C082EC142582F582E5833400F583E0FAC47B02540F29901E5A93121E2BEA27
:201B8000DBF3D082D083DC06D082D083808C743A121E2B80CBEBB42A09BA009274014CFC10
:201BA0008084B43007BA0004740680F2FB24D0501224F6400E240AFB740A8AF0A42BFA7475
:201BC0000480DBBB6C0DEC54086004741080CF740880CBBB7343EC5408C083C08270051267
:201BE0001DB38007C2D5C2D1121D95EC5404700A121D9C6093121E2B80F6BA00028089127C
:201C00001D9C600B121E2BDAF6021B88021CE57420121E2BDAF9021B88EB4420B478EDC03E
:201C200083C082121DDDC083C082E5F023F90324FF2582F582E5833400F583121DD054F0C2
:201C4000701319121DD0700D191582E582B4FF021583D5F0E6B9000109EC5420600B09ECDA
:201C600054026005742D121E2BEC54046018EAC39940136011FAEC5402C4032420F582E544
:201C800082121E2BDAF9EC5420600B19EC54027005742D121E2BEB542003FAD082D083E913
:201CA00004C313FC142582F582E5833400F583E954016007121DD079018007121DD07902E9
:201CC000FBC4540F2AC083C082901E5A93D082D083121E2BEBD9EB1582E582B4FF0215839E
:201CE000DCD9021B88BB640674204CFC8008BB75028003021B1AC083C082121DDDC0F07460
:201D000008C395F02441F9E43415FB121DD0A3121E20F0A3121E20D5F0F1121E20F5F0EC41
:201D200054206028E5F054807006EC54DFFC801CD0F0C0F07408C395F02441F582E4341594
:201D4000F583C3E0F9E499F0A3D5F0F775F00AE4F0A3D5F0FBD0E0C403FB90154975F00A2E
:201D6000E0F9540F24FBE950022403F954F024B0E950022430F0A3D5F0E6901541C375F0BA
:201D800012E033F0A3D5F0F9DBD090154975F00AC2D5021C268683188682182220D506206C
:201DA000D107E0A322E493A3228883A882E6A883058222C2D5C2D1E61860DA6480600D6464
:201DC000C0600585938380CFD2D180CBD2D580C530D508C000A882E6D00022E022EC540108
:201DE0007021D2D575F000EC5418600E54106006D2F218181818D2F11818D2F018888218A3
:201E000005F022C2D5EC541860105410600675F008021D9575F004021D9575F002021D9529
:201E2000C583CBC583C582C9C58222C083C082C001C0008F00868218868318181818860129
:201E4000188600121E4FD000D001D082D08322C082C0838500828501832230313233343517
:201E60003637383941424344454630313233343536373839616263646566C007C006C0053B
:201E8000C004C001C000AC82AD83AEF0FFBF0A2A75820DC007C006C005C004C003C002C0B0
:201EA00001C000C021124960D021D000D001D002D003D004D005D006D0078F82C007C0069A
:201EC000C005C004C003C002C001C000C021124960D021D000D001D002D003D004D005D027
:201EE00006D007D000D001D004D005D006D00722C007C001C000E58124FAFFC007E58124D0
:201F0000F9F8E6C0E008E6C0E0E4C0E0C0E0901E7A121AF9E58124FBF581D000D001D007D8
:201F200022C007C006C005C004C003C001AC82FF8C018F0487060987071974012EFBE43F9A
:201F4000FDA70309A7058E828F83ECF0D001D003D004D005D006D00722C007C006C005C0F9
:201F600001C000E58124F6FFE58124F8FE7D00C007E58124F5F8E6C0E008E6C0E0C006C04C
:201F800005901F21121AF9E58124FBF58124F8F88682088683E4F0D000D001D005D006D02F
:201FA0000722C082C083AF811F7E00E58124FAF8E6C0E0E58124FAF8E6C0E008E6C0E0C054
:201FC00007C006901F21121AF9E58124FBF581A881188682088683E4F01581158122901523
:201FE00053E0FF20E71075E1ED75E1ED75E1E390155374804FF022901553E0FF30E7107519
:20200000E1EF75E1ED75E1ED901553747F5FF022AE82AF83906172EEF0906173EFF022AF57
:2020200082BF0B004005EF24E5500122C007121FF7D007EF24F575F005A490618F240BF029
:20204000021FDE75E1ED75E1ED22AE82AF83906193E020E6047582FF22E5D9FD2480501929
:202060007402C0E074ACC0E0121EF01581158175E1ED75E1ED75820022ED24FB40197410B6
:20208000C0E074ACC0E0121EF01581158175E1ED75E1ED758200221D1D782C7403F27582B7
:2020A00003C007C006C005125396D005D006D0078E038F048C03901583EBF0901584EEF091
:2020C0008D067F008F06901585EE541FF5F0E054E045F0F0901586EDF053D1F743D6084329
:2020E000D708740855D1FFBF08F8E5D924B7901554F0E5D930E708901555740AF0800475E1
:20210000820022906193E054C0FFBF400C90619BE0700675E1ED75E1ED8D8222AE82AF839E
:20212000906193E020E1F9901553E020E70BC007C006121FDED006D00775E1EE75E1EE780E
:202140002C7402F2758202C007C006125396D006D0078E048F058D04901579ECF08E0590E9
:20216000157AEDF08E828F83E0FD7C000DBD00010C8C0590157DED541FF5F0E054E045F060
:20218000F08E828F83E0FE0E90157EEEF053D1FB43D60443D704740455D1FFBF04F890619D
:2021A00093E020E410741FC0E074ACC0E0121EF01581158122906193E030E510742AC0E070
:2021C00074ACC0E0121EF0158115812275E1E97F00906193E020E112BF0300500D0F9000DE
:2021E0003CC007123EF9D00780E7906193E020E11675E1EE75E1EE743AC0E074ACC0E01232
:202200001EF01581158122906193E020E1F922E5826003021FDE021FF7901553E030E023F6
:202220007F00BF0800501BEF246AFDE43461FEEF2497F582E43415F583E08D828E83F00F37
:2022400080E022782C7403F275820312539675E1E37591007F00BF0800501BEF246AFDE4AC
:202260003461FEEF2497F582E43415F583E08D828E83F00F80E0906170E0906174F090611F
:2022800071E0906175F09061AB743FF09061AC7455F090619674F8F09061FA7409F09061D6
:2022A000B27415F09061AEE4F09061897440F0906180E043E001F0906182E4F075E1ED75FE
:2022C000E1ED906194747FF090619074D5F0901553E043E001F0904447122010901654E0EB
:2022E000F58202201FAF83E582780FF2EF08F2780DE2FC08E2C313CC13CCFD7811E4F208F9
:20230000F27811C3E29C08E29D5062C004C005780F7911E3C5F0E225F0FC09E3C5F008E218
:2023200035F0FD8C828D83E0FA780D7911E3F5F0C3E295F0FE09E3F5F008E295F0FF1EBE69
:20234000FF011F780FE22EFE08E23FFF8E828F83E08C828D83F08E828F83EAF07811E22406
:2023600001F208E23400F2D005D004809422AF83E5827815F2EF08F27813E2FC08E2C31351
:20238000CC13CCFD7817E4F208F27817C3E29C08E29D5069C004C00578157917E3C5F0E206
:2023A00025F0FC09E3C5F008E235F0FD8C828D83E0FA78137917E3F5F0C3E295F0FE09E370
:2023C000F5F008E295F0FF1EBEFF011F7815E22EFE08E23FFF8E828F83E0FB6303FF8C827C
:2023E0008D83EBF074FF6A8E828F83F07817E22401F208E23400F2D005D004808D22AE8263
:20240000AF837D008D037C007819C3E2F5F0EB95F008E2F5F0EC95F05018ED2EFBE43FFC99
:202420008B828C83E0FA6302FF8B828C83EAF00D80D222C082C083E581243FF58124EAF900
:20244000E58124D3F8740629F6E58124DDF8740A29F6E58124C0F8C001E58124D6F9E6F759
:2024600008E6C454F0C7C4C767C754F0C76709F7D001E58124DDF8C001E58124E8F9E6F73B
:20248000D001E58124D7F8C001E58124C1F9E6F708E609F7D001E58124BDF8C001E58124E7
:2024A000C3F9E4B6010104F7D001E58124DDF8C001E58124C4F9E6F7D001E58124D7F8C0CA
:2024C00001E58124C5F9E6F708E609F7D001E58124DDF8C001E58124C7F9E6F7D001E58199
:2024E00024D7F8C001E58124C8F9E6F708E609F7D001E58124BDF8C001E58124CAF9E4B65A
:20250000020104F7D001E58124CCF8740F29F6E58124CDF8740529F6E58124CEF8740E291A
:20252000F6E58124CFF8740229F6E58124CEF8C001E58124CFF9E6F7D001E58124D1F874E7
:202540000429F6E58124CFF8C001E58124D1F9E6F7D001E58124FAF87600901637E0FEE5B2
:202560008124FAF8C3E69E400302304A89057C007B40E58124FAF8E675F010A4FEAFF07869
:202580000BE22EFE08E23FFF781EEEF2EF08F2E408F278217410F2E408F28D828C838BF037
:2025A000C001123F33D001E58124D3F886008607E58124BDF8E6B507028003022A6374072D
:2025C00029F8E670030227DFE58124D2F88600860608860718E58124C0F8C3E69E08E69F50
:2025E0005003023041E58124D0F8860086058D027C008A82ECC40354F8C582C403C58265E2
:2026000082C58254F8C5826582F583E58124D1F8860086047856ECF2E408F2C007C006C0C5
:2026200005C0011296A5AB82AC83D001D005D006D007E58124DBF8A60608A607E58124DBB5
:20264000F8EB26F6EC0836F6E58124C0F88602088604E58124DBF8C3EA96EC089640030290
:202660003041E58124C0F8E6C39EF58208E69FF5837805EDF2E408F2C00112188FC8E58102
:2026800024FAC8A68208A683D001E58124D4F8740829F6C001E58124CCF98700D001C00011
:2026A000E58124FCF87600D0008602C000E58124CFF8860086048AF0ECA4FAAFF0E5812480
:2026C000FCF8C001E58124D7F9E6F7097700D001E58124D8F8C3E69A08E664808FF063F07C
:2026E0008095F0D0004003023041C000E58124D3F88600860608860718E58124FAF8860277
:20270000088603E58124DEF8A602EBC423C6C423541F66C6541FC666C608F6E58124D0F84D
:2027200086008605E58124FCF88CF0E6848DF0A4FCADF0E58124DEF8EC26FCED0836FDD004
:2027400000EC2EF582ED3FF583E0FF5302077B008AF005F07A80E43392D28008A2D2EB13B0
:20276000FBEA13FAD5F0F57E00EF5202EE5203EA4B605F870609870719C000E58124D8F85E
:202780008604088605EC2EFEED3F8E04C423CCC423541F6CCC541FCC6CCCFDE58124B9F852
:2027A000EC26FCED0836FD088603D0008C828D838BF0129D98FA5306078EF005F0740180E0
:2027C0000225E0D5F0FB42028C828D838BF0EA12850AC000E58124FCF806D0000226A9E500
:2027E0008124CFF88600860608860718E58124C0F8C3E69E08E69F5003023041E58124CD7B
:20280000F886008605E58124CEF8860086048DF0ECA4FAABF0E58124DBF8A60608A607E50A
:202820008124DBF8C001E58124DEF9EA26F7EB083609F7D001E58124C0F88602088603E5BD
:202840008124DFF8C3EA96EB089640030230418DF0ECA4FD1DE58124C0F8E6C39EFCEDC31E
:202860009CFDE58124FBF8A605E58124DEF8740829F6C001E58124D0F98700D001C000E58B
:202880008124FBF8E4F608F6D00086038B027F008A82EFC40354F8C582C403C5826582C554
:2028A0008254F8C5826582F583C000E58124CDF8C001E58124DDF98600E6F7D001E58124B6
:2028C000DEF8C0017956E6F3E409F3D001D000C003C001C0001296A5AA82AF83D000D001A8
:2028E000D003C000E58124FBF8C001E58124D9F9E6F708E609F7D001E58124DAF8C3E69A70
:2029000008E69FD0004003023041C000E58124DDF88600860208860718E58124DAF8C001AD
:20292000E58124D7F9E6F708E6C423C7C423541F67C7541FC767C709F7D001E58124DEF8A3
:20294000C0017905E6F3E409F3D001E58124D8F88682088683D000C007C003C002C001C09E
:202960000012188FAC82AD83D000D001D002D003D007C000E58124FAF8C001E58124DDF9C6
:2029800087F0E684D001F5F0EBA4AEF02CFCEE3DFDEC2AF582ED3FF583E0FFE58124DEF8B3
:2029A000C0017905E6F3E409F3D001E58124FBF88682088683D000C007C001C00012188FE7
:2029C000AD82D000D001D0075305077E008DF005F07D80E43392D28008A2D2EE13FEED138E
:2029E000FDD5F0F57C00EF5205EC5206ED4E6061870609870719EFC423CEC423541F6ECEA7
:202A0000541FCE6ECEFFC000E58124D8F8EE26FEEF0836FFE58124B9F8EE26FEEF0836FF69
:202A20000886058E828F838DF0129D98FCE58124DAF8740756FAD0008AF005F074018002C4
:202A400025E0D5F0FB42048E828F838DF0EC12850AC000E58124FBF806B600020806D00066
:202A600002288AE58124CCF88600E6FF7003023041BF02028003022F83E58124BDF8E66084
:202A800003022C28E58124DDF88600860308860408860508860618181874162BFFE43CFC9E
:202AA000E43DFDE43EFEE58124D7F8C001E58124E4F9E6F708E609F7097700097700D001BB
:202AC000E58124E5F8E62FFB08E63CFC08E63DFD08E63EFEE58124FBF874802BF674123CB3
:202AE00008F6E43D08F6E43E08F6900010C001129701AA82AE83D001A88118A60208A606C3
:202B0000A881188605088606C0017410C0E0E4C0E0C005C006E58124F6F8868208868308C8
:202B200086F008E6124008E58124FCF581D001E58124DDF8860086030886040886050886E9
:202B40000618181874162BFBE43CFCE43DFDE43EFEE58124E5F8E62BFB08E63CFC08E63D59
:202B6000FD08E63EFFE58124BAF8C001E58124E4F9E6F708E609F7D001E58124E5F886023E
:202B8000088606C0017410C0E0E4C0E0C002C0068B828C838DF0EF124008E58124FCF581D2
:202BA000D00178197410F2E408F2A881188682088683C0011223FED0017F00BF100050356D
:202BC000E58124BAF8EF26FCE40836FD0886068C828D838EF0129D98FBA88118EF26F5824A
:202BE000E40836F583E052038C828D838EF0EB12850A0F80C6A8811886040886057E008C21
:202C0000828D838EF0C0011218DAD001780D7410F2E408F2E58124E5F88682088683C001F4
:202C20001222E5D001023041E58124C4F8E67003022DE5C001E58124E8F8860086030886BC
:202C40000408860508860618181874162BFFE43CFCE43DFDE43EFEE58124C1F8C001E58189
:202C600024DFF9E6F708E609F7097700097700D001E58124E0F8E62FFA08E63CFC08E63DFA
:202C8000FD08E63EFEE58124FAF874802AF674123C08F6E43D08F6E43E08F6900010C0011D
:202CA000129701AB82AE83D001A8811818A60308A606A88118188605088606C0017410C008
:202CC000E0E4C0E0C005C006E58124F5F886820886830886F008E6124008E58124FCF581B3
:202CE000D001E58124E8F88600860308860408860508860618181874162BFBE43CFCE43D9C
:202D0000FDE43EFEE58124E0F8C001E58124E3F9E62BF708E63C09F708E63D09F708E63E84
:202D200009F7D001E58124B9F886020886068A048E05C006C002C0017410C0E0E4C0E0C099
:202D400004C005E58124DDF886820886830886F008E6124008E58124FCF581D001D002D0FD
:202D60000678197410F2E408F28A828E83C0011223FED0017F00D001BF10005035E5812458
:202D8000BAF8EF26FCE40836FD0886068C828D838EF0129D98FBA88118EF26F582E40836F0
:202DA000F583E052038C828D838EF0EB12850A0F80C6A8811886040886057E008C828D83EF
:202DC0008EF0C0011218DAD001E58124BAF88682088683780D7410F2E408F2C0011222E5D7
:202DE000D001023041E58124CBF8E67003023041C001E58124C4F886008603088604088640
:202E00000508860618181874162BFFE43CFCE43DFDE43EFEE58124C5F8C001E58124DFF959
:202E2000E6F708E609F7097700097700D001E58124E0F8E62FFB08E63CFC08E63DFD08E648
:202E40003EFEE58124FAF874802BF674123C08F6E43D08F6E43E08F6900010C0011297019B
:202E6000AA82AE83D001A8811818A60208A606A88118188605088606C0017410C0E0E4C06E
:202E8000E0C005C006E58124F5F886820886830886F008E6124008E58124FCF581D001E5BF
:202EA0008124C4F88600860308860408860508860618181874162BFBE43CFCE43DFDE43E95
:202EC000FEE58124E0F8E62BFB08E63CFC08E63DFD08E63EFFE58124B9F8C001E58124E3A4
:202EE000F9E6F708E609F7D001E58124E4F88602088606C0017410C0E0E4C0E0C002C006CA
:202F00008B828C838DF0EF124008E58124FCF581D0017F00D001BF10005035E58124BAF822
:202F2000EF26FCE40836FD0886068C828D838EF0129D98FBA88118EF26F582E40836F58388
:202F4000E052038C828D838EF0EB12850A0F80C6A8811886040886057E008C828D838EF047
:202F6000C0011218DAD001780D7410F2E408F2E58124E5F88682088683C0011222E5D001B7
:202F8000023041BF01028003023041E58124BDF8E66003023041C001E58124C7F8860086F5
:202FA00004088605088606088607181818E58124FAF874162CF6E43D08F6E43E08F6E43F7F
:202FC00008F6E58124C8F88602088603E4FEFFE58124FAF8C001E58124E3F9EA26F7EB0812
:202FE0003609F7EE083609F7EF083609F7D001E58124B9F886040886058C068D07C005C06E
:2030000004C0017410C0E0E4C0E0C006C007E58124DDF886820886830886F008E612400878
:20302000E58124FCF581D001D004D005780D7410F2E408F28C828D83C0011222E5D001D0A8
:2030400001E58124FAF80602255AE58124BFF581227F00901637E0FEC3EF9E5034EF75F029
:2030600010A4FDAEF0780BE22DFD08E23EFE74082DF582E43EF583E0FDA3E0FE4D600F7CFC
:20308000008D828E838CF0C0071218DAD0070F80C2780BE2F5F008E245F06012780BE2FD64
:2030A00008E2FE7F008D828E838FF01218DA780BE4F208F2901637F02205810581780BE253
:2030C000F5F008E245F07003023165901637E02401F075F010A4F58285F083129701AE82AD
:2030E000AF83A88118A60608A607A88118740F26F582E40836F583E4F0A8811886030886D5
:2031000004FD780B791EE2F308E209F3E409F3901637E0FA7F001ABAFF011F7821EAF28FCC
:20312000F0E2C5F0C454F0C5F0C4C5F065F0C5F054F0C5F065F0C5F0F2E5F008F28B828C6B
:20314000838DF0123F33780BE2FD08E2FE7F008D828E838FF01218DAA88118790BE6F308D9
:20316000E609F38018900010129701AE82AF83780BEEF2EF08F2901637E02401F09016372E
:20318000E0FF7E001FBFFF011EEEC454F0CFC4CF6FCF54F0CF6FFE780BE22FF58208E23E8D
:2031A000F58315811581221230B9AE82AF837809EEF2EF08F2740E2EF582E43FF58374016B
:2031C000F074062EF582E43FF583E4F08E828F837408F0E4A3F08E828F83A3A37408F0E4B4
:2031E000A3F074072EF582E43FF583E4F022AE82AF837809E2FC08E2FD8C828D83EEF0EFF8
:20320000A3F08C828D83A3A3781BE2F008E2A3F074072CF582E43DF583781DE2F022AF8264
:203220007809E2240EF58208E23400F583EFF022AF827809E22406F58208E23400F583EF31
:20324000F022C082C083E5812405F5811230B9AC82AD837809ECF2ED08F2740E2CF582E42A
:203260003DF5837402F074062CF582E43DF583E4F08C828D837440F0E4A3F08C828D83A3AF
:20328000A37404F0E4A3F074072CF582E43DF5837401F074042CFAE43DFBE58124FAF886D4
:2032A00082088683E493FF7E00786F7408F2E408F28F828E83C005C004C003C002129AE197
:2032C000AE82D002D003D004D0058A828B83EEF0E58124FCF874052CF6E43D08F6E58124B6
:2032E000FAF88682088683A3A3E493FFE58124FCF88682088683EFF074082CFCE43DFD8A45
:20330000828B83E0FA8AF0EFA4F58285F083C005C004129701AE82AF83D004D0058C828DEE
:2033200083EEF0EFA3F07809E2FE08E2FF74082EF582E43FF583E0FCA3E0FDA8811818A649
:203340000408A605087600E58124FAF8740426FAE40836FD781EEAF2ED08F2748008F28E30
:20336000828F83A3A3A3A3E0FD8E828F83A3A3A3A3A3E08DF0A4FDAEF07821EDF2EE08F203
:20338000A881181886820886830886F0123F33E58124F9F58122E581241CF58190003012B0
:2033A0009701AE82AF83E58124F5F8A60608A607087600E58124E1FCE58124F5F88602084F
:2033C0008603C004E58124E0F8E6C0E008E6C0E08A828B83121FA2158115811581900030BB
:2033E000129701AB82AC83E58124F8F8A60308A60408E4F6FEFFE58124FBF87600C006C09A
:2034000007E58124F3F8E58124F9F9E726FDE40836FE0886078D828E838FF0129D98FDFC16
:20342000D007D006ED6070BC20118E048F0574042CFCE43DFD8C068D0780537D007856EC21
:2034400024E0F2ED34FF08F2900021C007C0061296A5AC82AD83D006D007EC2444F582ED0E
:2034600034ACF583E493FDFC53040F7410C39CFCEDC4540FFDECC39DFD8E038F047A00ED5A
:203480002BFBEA3CFC0BBB00010C8B068C07E58124FBF8060233FD1EBEFF011F8E04EFC4F8
:2034A00023CCC423541F6CCC541FCC6CCCE58124FCF8A604EE54076006E58124FCF8067841
:2034C00009E22408FE08E23400FFE58124FCF886047D008C03EDC454F0CBC4CB6BCB54F0DD
:2034E000CB6BFA8B828A83C007C006C003C002129701AC82AD83D002D003D006D0078E8206
:203500008F83ECF0EDA3F07809E22408F58208E23400F583E0FEA3E0FF4E701274A4C0E0B9
:2035200074B8C0E0121EF015811581023DA77D007826E4F27827EBF2EA08F28E828F838D8D
:20354000F01248F17809E2FE08E2FF8E828F83A3A3A3A3E58124FCF8E6F08E828F83A3A37C
:20356000A3A3A37410F0E4FEFFE58124FBF87600C006C007E58124F3F8E58124F9F9E7268F
:20358000FDE40836FE0886078D828E838FF0129D98FDFCD007D006ED7003023D7BBC2012E5
:2035A0008E048F0574042CFCE43DFD8C068D07023D72C006C0078C057F007856ED24E0F202
:2035C000EF34FF08F2900021C007C0051296A5AC82AE83D005D007EC2444F582EE34ACF5AC
:2035E00083E493FEFC53040F7410C39CFCE58124FCF8EEC4540FF6E58124FCF8E58124FB06
:20360000F9ECC396F77856ED24E0F2EF34FF08F29000211296A5AE82AF83E58124E5F8EEF3
:203620002444F6EF34AC08F6E58124FDF87600D007D006A88118B6100040030236EFC00686
:20364000C007E58124FDF8E675F003A4FCADF0E58124F6F8E58124E7F9EC26F7ED0836097A
:20366000F708E609F7E58124FDF8E626FE2402C8E58124E5C826F58208E436F583E493FF0A
:20368000E58124E7F886820886830886F0EF12850A74012CFBE43DFFE58124F6F8EB26FB5A
:2036A000EF0836FF088602EE04C8E58124E5C826F58208E436F583E4938B828F838AF01204
:2036C000850A74022CFCE43DFDE58124F6F8EC26FCED0836FD0886078C828D838FF0E412C9
:2036E000850AE58124FDF806D007D0060236338E048F055304077D00A881181886027B0041
:20370000EAB50407EBB50503023B9BC3EA9CEB9D40030239558C03A8811818EBC396FDBDF5
:20372000080050030237F15305077C00BC300040030237F1C006C007E58124E7F8A6040828
:203740007600E58124E7F8740226FAE40836FBE58124F6F8E58124EAF9EA26F7EB083609B9
:20376000F708E609F7E58124E7F8740126FEE40836FFE58124F6F8E58124EDF9EE26F7EF5F
:20378000083609F708E609F7E58124EDF886820886830886F0129D98FAE58124EAF8868242
:2037A0000886830886F0EA12850AE58124F6F8E58124E7F9E726FA09E70836FE0886078ABB
:2037C000828E838FF0129D98FBE58124EDF886820886830886F0EB12850A8A828E838FF067
:2037E000E412850A8C0274032AFCD007D00602372C7C00BC30004003023B9BC006C007E512
:203800008124EDF8A604087600E58124EDF8740226FBE40836FEE58124F6F8E58124E7F9EE
:20382000EB26F7EE083609F708E609F7E58124E7F886820886830886F0129D98FA8DF005A3
:20384000F0E58124EAF8EA8002C313D5F0FBF6E58124EDF8740126FAE40836FFE58124F66F
:20386000F8E58124F0F9EA26F7EF083609F708E609F7E58124F0F886820886830886F012A0
:203880009D98FA8D03E58124E3F87408C39BF68A03E58124E3F886F005F0EB800225E0D590
:2038A000F0FBFBE58124EAF8E64203E58124E7F886820886830886F0EB12850AE58124F085
:2038C000F886820886830886F0129D98FB8DF005F0E58124EAF8EB8002C313D5F0FBF6E55B
:2038E0008124F6F8E58124EDF9E726FB09E70836FE0886078B828E838FF0129D98FAE581B8
:2039000024E3F886F005F0EA800225E0D5F0FBFAE58124EAF8E64202E58124F0F8868208FA
:2039200086830886F0EA12850A8B828E838FF0129D98FA8DF005F0EA8002C313D5F0FB8B98
:20394000828E838FF012850A8C0374032BFCD007D0060237F3A8811818A98119E6C39CF7D6
:20396000A88118B608005003023A2FA88118E65407F6A8817600A881B630004003023A2FB6
:20398000C006C007A881181886027B00E58124F6F8E58124F0F9EA26F7EB083609F708E635
:2039A00009F774012AFDE43BFFE58124F6F8ED26FDEF0836FF0886068D828F838EF0129DB7
:2039C00098FCE58124F0F886820886830886F0EC12850A74022AFAE43BFBE58124F6F8E5AC
:2039E0008124F0F9EA26F7EB083609F708E609F7E58124F0F886820886830886F0129D98CB
:203A00008D828F838EF012850AE58124F0F886820886830886F0E412850AA88118188604F5
:203A2000A881181874032CF6D007D006023976A8817600A88118E58124F2F97408C396F715
:203A4000A881B630004003023B9BC006C007A881181886027B00E58124F6F8E58124EAF96E
:203A6000EA26F7EB083609F708E609F7E58124EAF886820886830886F0129D98FCE5812458
:203A8000FDF886F005F0E58124EDF8EC800225E0D5F0FBF674012AFCE43BFFE58124F6F8FD
:203AA000EC26FCEF0836FF0886068C828F838EF0129D98FDE58124F0F886F005F0ED80020A
:203AC000C313D5F0FBFDE58124EDF8E64205E58124EAF886820886830886F0ED12850A8C9A
:203AE000828F838EF0129D98FDE58124FDF886F005F0E58124EDF8ED800225E0D5F0FBF6ED
:203B000074022AFAE43BFBE58124F6F8E58124EAF9EA26F7EB083609F708E609F7E5812464
:203B2000EAF886820886830886F0129D98FDE58124F0F886F005F0ED8002C313D5F0FBFDE9
:203B4000E58124EDF8E642058C828F838EF0ED12850AE58124EAF886820886830886F01288
:203B60009D98FFE58124FDF886F005F0EF800225E0D5F0FBFFE58124EAF886820886830865
:203B800086F0EF12850AA88118188605A881181874032DF6D007D006023A40A88118760068
:203BA000A88118B610004003023D568E038F04ECC423CBC423541F6BCB541FCB6BCB7809DF
:203BC000E22408FA08E23400FCC006C0078A828C83E58124F0F8E0F6A3E008F6E58124E5E3
:203BE000F8A603087600E58124E5F8740226FDE40836FBE58124FDF8E58124FAF986F0E730
:203C0000A4C0E0C0F0E58124E9F8D0E0F618D0E0F6E58124EAF8E62DFE08E63BFFE58124B2
:203C2000F0F8E58124F0F9EE26F7EF083609F7E58124F0F88682088683E0FBE58124FDF80C
:203C4000E58124E7F9E675F003A4F709A7F0E58124E7F8740226FEE40836FFE58124F6F8D5
:203C6000EE26FEEF0836FD0886078E828D838FF0129D98FEEB4206E58124F0F88682088654
:203C800083EEF08A828C83E0FEA3E0FFE58124E5F8740126FBE40836FDE58124EAF8E62BAF
:203CA000FB08E63DFDE58124EDF8EB2EF6ED3F08F6E58124EDF88682088683E58124F0F93E
:203CC000E0F7E58124E7F8740126FBE40836FDE58124F6F8EB26FBED0836FD0886078B82A1
:203CE0008D838FF0129D98FBE58124F0F8E64203E58124EDF88682088683EBF08A828C83D8
:203D0000E0FAA3E0FCE58124E5F8E58124EAF9E726FE09E70836FFEE2AFAEF3CFC8A828C6D
:203D200083E0FFE58124F6F8E58124E7F9E726FB09E70836FD0886068B828D838EF0129D2E
:203D40009842078A828C83EFF0E58124FDF806D007D006023BA0E58124FDF886058E038F4F
:203D6000047A00ED2BFBEA3CFC0BBB00010C8B068C07E58124FBF806023570E58124F8F8F5
:203D800086020886030886048A828B838CF01218DAE58124F5F886050886060886078D82A4
:203DA0008E838FF01218DAE58124E4F58122C082C083C0F0C0E01230B9E5828583F07809B9
:203DC000F2E5F008F2758204121339900016129701AA82AB838A068B07C003C0027416C02E
:203DE000E0E4C0E0C006C007E58124F7F886820886830886F008E6124008E58124FCF5817E
:203E0000D002D00374102AF582E43BF583E0FFBF20127809E2240FF58208E23400F583745A
:203E200001F08013BF21107809E2240FF58208E23400F5837402F07F008A828B838FF012DB
:203E400018DA7809E2FE08E2FF74082EF582E43FF583E4F0A3F0740A2EF582E43FF583E560
:203E60008124FDF8E6F008E6A3F008E6A3F008E6A3F074062EF582E43FF58374FEF012120F
:203E8000A0120EFBE58124FCF58122123EE6E5828583F0901556F0E5F0A3F022123EE6AE5B
:203EA00082AF83901556E0FCA3E0FDEEC39CFCEF9DC403CCC40354076CCC5407CC6CCCFDD9
:203EC0007B007A00C004C005C003C00274B4C0E074B8C0E0121EF0E58124FAF58190155636
:203EE000EEF0EFA3F022AE957F00AD967C00EE4204EF42058C828D8322AE82AF838E048F92
:203F0000051EBEFF011FEC4D60030080F022AE82AF838E048F051EBEFF011FEC4D601090B7
:203F200003E6C007C006123EF9D006D00780E322023F0EAD82AE83AFF07823EDF2EE08F2E0
:203F4000EF08F2781EE2F50F08E2F51008E2F5117821E2F51208E2F513AB12AC1315127492
:203F6000FFB512021513EB4C6025850F828510838511F0129D98FCA385820F8583108D82BE
:203F80008E838FF0EC12850AA3AD82AE8380CA7823E2F58208E2F58308E2F5F02290155873
:203FA000E0FCA3E0FDA3E0FEA3E08C828D838EF0228582F9E5F820E0FB85F982225390EF17
:203FC0002243901022AC82AD83AEF0FFC007C006C005C004123FBD758203123FB1D004D0FB
:203FE00005D0068E82C006C005C004123FB1D004D0058D82C005C004123FB1D004D005D0C9
:2040000006D0078C82023FB1AC82AD83AEF0FFE58124FDF88602088603C007C006C005C01E
:2040200004C003C002123FBD758203123FB1D002D003D004D005D0068E82C006C005C0046A
:20404000C003C002123FB1D002D003D004D0058D82C005C004C003C002123FB1D002D003C7
:20406000D004D005D006D0078C82C003C002123FB1D002D003E58124FBF8793BE6F308E6B8
:2040800009F38A828B831256FC023FC1AF82C007123FBDD0078F82123FB1023FC1123FBDA4
:2040A000758205123FB1758200123FB1E58220E0F5123FC175820122AC82AD83AEF0FFE5A1
:2040C0008124FDF88602088603758206C007C006C005C004C003C00212408C123FBD7582B2
:2040E00002123FB1D002D003D004D005D0068E82C006C005C004C003C002123FB1D002D010
:2041000003D004D0058D82C005C004C003C002123FB1D002D003D004D005D006D0078C82CB
:20412000C003C002123FB1D002D0038A068B07E58124FBF886040886058C028D031CBCFFA2
:20414000011DEA4B60228E828F83E0FBA3AE82AF838B82C007C006C005C004123FB1D0048F
:20416000D005D006D00780D1123FC102409D7582B902408C7582AB02408CAE82AF83C00764
:20418000C006123FBD75825A123FB1758200123FB1D006D0078F82C007C006123FB1D006DC
:2041A000D0078E82123FB1758200123FB1E58124FCF8793BE6F3E409F3E58124FDF88682AB
:2041C0000886831256FC023FC1E582601953F87F75FA0043FC1043FC2043F102123FC14316
:2041E000FE7043F4E02253FE8F53908F53F41F22E5812404F58190155CE07007124174D348
:2042000002469C90155CE4F0900008129701AE82AF83E58124FDF8A60608A607900140127E
:204220009701AC82AD83A88118A60408A6051241747408C0E0E58124FCF8E6C0E008E6C055
:20424000E090000012417A158115811581E58124FDF88682088683E0FBBB5367E58124FDF0
:20426000F88682088683A3E0FBBB4657E58124FDF8740226FAE40836FB8A828B83E0FDBD71
:204280004441C002C003E58124FBF8740326FFE40836FE8F828E83E0FBBB50028006D00378
:2042A000D002801FE58124FBF8740726F582E40836F583E0FBBBFF07D003D002024397D071
:2042C00003D002C208C021123FBDD021758290C021123FB1D021758200C021123FB1D02139
:2042E000758200C021123FB1D021758200C021123FB1D021758200C021123FB1AD82D0212E
:20430000BDC2028005BDEF6C8041D2089016387420F0758200C021123FB1AD82D021BD05C6
:20432000028005BD1221800F901558E4F0A3F004A3F0E4A3F0803D901558E4F0A3F0740868
:20434000A3F0E4A3F0802DC2088029D2089016387420F0758200C021123FB1AD82D021BD40
:204360001310901558E4F0A3F07408A3F0E4A3F08002C208C021123FC1D021A88118860435
:204380000886057F008C828D838FF0C0211218DAD021A20802469CE58124FDF886820886F5
:2043A00083A3A3A3A3A3E0FDBD01028004C302469CE58124FDF8740626F582E40836F58353
:2043C000E0FDBDFF011D8A047A00C004C003C007C006C005C0027408C0E08A82124CF9AB59
:2043E00082AC831581D00274082BFBE43CFCC004C003C0027408C0E0E58124F4F8E6C0E085
:2044000008E6C0E08B828C8312417A158115811581D002D003D004D005D006D007E58124DE
:20442000FBF88682088683E0D003D0046003024692C0058C828B83E0FDBD01028005D005D4
:20444000024692D005C004C0038F828E83E0FCBC0900D003D0045003024692E58124FDF810
:20446000740426FEE40836FF8E828F83E0FEA3E0FF7424C0E0A8811818E6C0E008E6C0E058
:204480008E828F8312417A158115811581A881188682088683E0FFFE530603BE0102800394
:2044A00002469BEF20E20302469BA881188682088683A3A3E05406600302469BA88118865B
:2044C00082088683A3E0FD700302469BBDFF0302469B901638EDF0A88118740726F582E4D9
:2044E0000836F583E0FE30E70302469B8E07EFFE6010901558E4F0A3F07420A3F0E4A3F037
:204500008042A88118740626F582E40836F583E0FE6010901558E4F07420A3F0E4A3F0A387
:20452000F08021A881188682088683A3A3A3A3A3E0FE700302469B9015587420F0E4A3F035
:20454000A3F0A3F0EE602E901558E0FFA3E0FCA3E0FBA3E0FAEF2FFFEC33FCEB33FBEA33F5
:20456000FA901558EFF0ECA3F0EBA3F0EAA3F0EEC313FE80CF7C1C8C067F000EBE00010F55
:20458000A88118EE26F582EF0836F583E0FF6038BFFF028033A88118EC26F582E40836F5DF
:2045A00083E0FEBE0C02800ABE0F02800FBE10188011EDB507028010C302469C901639EFBF
:2045C000F0800590163AEFF08C0774022FFCBC240040A474BFC0E074B8C0E0121EF015815A
:2045E000158174D0C0E074B8C0E0121EF015811581901638E0FFE060177E00C007C0067496
:20460000E0C0E074B8C0E0121EF0E58124FCF581901639E0FFE060177E00C007C00674EDB1
:20462000C0E074B8C0E0121EF0E58124FCF58190163AE0FFE060177E00C007C00674FAC0A3
:20464000E074B8C0E0121EF0E58124FCF5817E587F15C006C0077407C0E074B9C0E0121E83
:20466000F0E58124FCF581A8811886040886057F008C828D838FF01218DAE58124FDF886CB
:20468000060886077D008E828F838DF01218DAD3800A0AC3ED9A40030243CAC3A8D0E581BB
:2046A00024FCF58188D022C082C083C0F0C0E005810581E58124F7F88605088604E58124E9
:2046C000F5F8E608467003024785C005C004E58124F9F88602087B00E58124FDF8E4C39AA9
:2046E000F674019B08F6E58124FDF8E58124F3F9C3E79609E70896D004D005500EE5812462
:20470000F5F8A98119E6F708E609F78D028C03C005C004E58124FDF8E6C0E008E6C0E0C0A4
:2047200002C003E58124F5F886820886830886F008E61240B8AB82E58124FCF581D004D0E1
:2047400005EB7004F5828040A881188602088603E4FEFFE58124FBF8EA26F6EB0836F6EEF3
:204760000836F6EF0836F6A88118E62DFD08E63CFCE58124F5F8A98119E6C397F608E60984
:2047800097F60246BD758201E58124FAF58122C082C083C0F0C0E0E58124FDF88602088609
:2047A00003EA7005EB540F60157418C0E074B9C0E0121EF0158115817582000248DEE5810A
:2047C00024F9F8E6084670030248DB75820612408C123FBDE58124F9F88602088603C3EACE
:2047E0009410EB9400401FE58124FDF88602088603EA4B701190163AE0FBE060098B8212C6
:204800003FB17B108041E58124F9F88602088607C3EA9408EF94004023E58124FDF886028E
:20482000088607EA7016EF547F7011901639E0FFE060098F82123FB17B08800B901638E04A
:20484000F582123FB17B01E58124FDF808088682C003123FB1D003E58124FDF8088682C0E5
:2048600003123FB1D003E58124FDF88682C003123FB1123FC112409DE582D0037014742CB5
:20488000C0E074B9C0E0121EF015811581758200804CC003C003901000124D0EAC82AD83AB
:2048A000AEF0FF1581D003E58124FDF8EC26F6ED0836F6EE0836F6EF0836F6E58124F9F88A
:2048C00086060886077D00EEC39BFEEF9DFFE58124F9F8A60608A6070247BE758201E58124
:2048E00024FCF581227582B102408C7582C102408CAFF0AE83E5827829F2EE08F2EF08F269
:204900007827E2F50F08E2F5107827E2F5F008E245F0602A7829E2FA08E2FB08E2FC78262E
:20492000E2FFAD0FAE108A828B838CF0EF12850AA3AA82AB831DBDFF011EED4E70E87829CD
:20494000E2F58208E2F58308E2F5F02243FF0143EC0475EB3E75ED8B2253FF0153A0FE2222
:20496000AF82C2AF53D8EF741055D8FEBE10F853A0FE7E00BE0800501E53D8EF741055D898
:20498000FDBD10F8EF30E00543A001800353A0FEEFC313FF0E80DD53D8EF741055D8FFBF41
:2049A00010F843A001D2AF2290163B7401F090163CE4F090163DF090163EF090163F04F0EC
:2049C000901640F0901641F0901643E4F0901642F09016467423F0E4A3F0901648F0901627
:2049E000447492F07409A3F022AD82AE83AFF0743DC0E074B9C0E0121EF0158115818D82D3
:204A00008E838FF0129D98FCBC01237A3B7B167C00781EEDF2EE08F2EF08F27821740EF2CE
:204A2000E408F28A828B838CF0123F33800F7462C0E074B9C0E0121EF01581158190153487
:204A4000E0901642F0024BFA900080129701AE82AF838E048F05C007C006740EC0E0E4C0C2
:204A6000E0C004C005900004F5F0124008E58124FCF581D006D0078E048F057B00786A745A
:204A80003BF2741608F2E408F2786D740EF2E408F28C828D838BF0C007C006129A27E582F0
:204AA0008583F0D006D00745F070128E048F05FB8C828D838BF01218DA758201227D008EB7
:204AC000828F838DF01218DA7582002222900080129701AE82AF838E048F05C007C0067443
:204AE0000EC0E0E4C0E0C004C005900004F5F0124008E58124FCF581D006D0078E048F0559
:204B0000781EECF2ED08F2E408F27821740EF2E408F290163BF5F0C007C006123F339015F5
:204B20005DE4F0A3F0A3F0A3F07404C0E0E4C0E0745DC0E07415C0E0900000E4F5F01240AA
:204B400008E58124FCF581D006D0078E048F058C098D0A7A3B7B168A828B83C007C00674F1
:204B60000EC0E0E4C0E0C009C00A124F15E58124FCF581D006D00790163BE0FDBDFF028055
:204B800022C00590155DE0FAA3E0FBA3E0FCA3E0FDBAA50DBB5A0ABCBA07BDAB04D005800C
:204BA0001ED005C007C0061249A8D006D00774A7C0E074B9C0E0121EF0158115818030BD84
:204BC0000100501CC007C006124ACCD006D00774CAC0E074B9C0E0121EF015811581800F80
:204BE00074F4C0E074B9C0E0121EF0158115817D008E828F838DF00218DA124A48E5826019
:204C0000107412C0E074BAC0E0121EF015811581227401C0E0E4C0E0900000F5F012478F2C
:204C20001581158190156174A5F0F4A3F074BAA3F0C4A3F07404C0E0E4C0E07461C0E07415
:204C400015C0E0900000E4F5F01246A7E58124FCF581740EC0E0E4C0E0743BC0E07416C00C
:204C6000E0900004E4F5F01246A7E58124FCF581743FC0E074BAC0E0121EF015811581226D
:204C8000901565E4F0A3F0A3F0A3F07465C0E074BAC0E0121EF0158115817404C0E0E4C02E
:204CA000E07465C0E07415C0E0900000E4F5F01246A7E58124FCF58122858283D0F0D0E002
:204CC000D082C082C0E0C0F022C00074FB2581F8E58286820886830886F0D0002275F008A4
:204CE000C58213C58233D5F0F7C58222E583A2E713F583E58213F58222D083D0E0D0F0C0A9
:204D0000F0C0E0C083E582A4F58285F08322C000E58124FDF8E6F88582F0A4F582E8A8F075
:204D20008583F0A428F583E5F03400F5F0E4D00022C000C001C0E0C0F074FA2581F8860010
:204D4000E58288F0A4F582A9F0E58388F0A429F583E5F03400F9D0E088F0A429C5F03400BB
:204D6000F9D0E0C0F088F0A429D0F0D001D00022C000C001C002E58124FBF8E6F918E6F87D
:204D80008582F0A4C0E0AAF0E58388F0A42AF8E5F03400FAE98582F0A428C0E0E5F03AFA40
:204DA00074003400F8E98583F0A42AFAE5F0388AF0D083D082D002D001D00022D0E0D0F079
:204DC000C000C001C002C0F0C0E074F82581F9E7F809E7F922D002D001D00022C9C583C9DC
:204DE000C8C582C822124DBC75F008124DDCE0A3124DDCF0A3D5F0F3024DD5124DBC75F04A
:204E000008124DDCE493A3124DDCF0A3D5F0F2024DD5124DBCC375F008124DDCE0A3F5028C
:204E2000124DDCE03AF0A3D5F0EF024DD5124DBC75F008124DDCE0A3F502124DDCE05AF010
:204E4000A3D5F0EF024DD5124DBCC375F008124DDCE0A3F502124DDCE09AF0A3D5F0EF02D9
:204E60004DD5124DBCC375F008124DDCE0A3F502124DDCE0A39AD5F0F0024DD5124DBC754F
:204E8000F008124DDCE0A3F502124DDCE0A36A7007D5F0EED3024DD5C3024DD5C8C0E07558
:204EA000F008E038F0A3D5F0F9D00022D3E4024E9CC374FF024E9CC000C00174FA2581F84D
:204EC000E6F5F0088601496015088600E8F0A374FF25F0F5F074FF39F50145F070EED0013E
:204EE000D00022C000C001C00274F92581F9E7D3601CF5F0098700098701C3E0F502A312E6
:204F00004DDCE0A3124DDC6A7004D5F0EED3D002D001D00022C000C001C00274F82581F963
:204F2000E7F5F00987024A601F098700098701124DDCE0A3124DDCF0A374FF25F0F5F074BC
:204F4000FF3AF50245F070E7D002D001D00022C000C001C00274F92581F9E76015F5F00967
:204F60008700098701124DDCE0A3124DDCF0A3D5F0F3D002D001D00022C083C082E0600378
:204F8000A380FAC3E582D0F095F0F582E583D0F095F0F58322C003C002C001C000C0E0C061
:204FA000F0C083C082A98174F62581F886F0188600750201750300758211A2F74014C3E8A6
:204FC00033F8E5F033F5F0C3EA33FAEB33FB058280E8E4C003C002C0E0C0E0AA81C0F0C093
:204FE00000C0E0C0E0A881C0E0C0E0C0E0C0E0AB81C000C001C375830486F018E71995F049
:20500000D583F6D001D000402BC000C001C375830486F018E795F0F719D583F58502008593
:20502000030175830486F018E745F0F719D583F5D001D00074FC28F8C375830408E613F682
:20504000D583F9C00074FC2AF8C375830408E613F6D583F9D000D5829820D508D082D08345
:20506000D0F0D00074F42581F58130D508D082D083D0F0D000E8D000D001D002D00322C2C8
:20508000D5024F95D2D5024F95C003C002C001C000C0E0C0F0C083C082A98174F62581F8BB
:2050A00086F07401758219A2F7400A23C5F023C5F0058280F2C0E0E4C0E0C0E0C0E0AA81DA
:2050C000C0F0C0E0C0E0C0E0A881C0E0C0E0C0E0C0E0AB81C000C001C375830486F018E7B6
:2050E0001995F0D583F6D001D000402BC000C001C375830486F018E795F0F719D583F5859C
:20510000020085030175830486F018E745F0F719D583F5D001D00074FC28F8C37583040809
:20512000E613F6D583F9C00074FC2AF8C375830408E613F6D583F9D000D58298D082D08372
:20514000D0F0D00074F42581F581E8D000D001D002D00322C006C005C004C003C002C00156
:20516000C00074F72581F886F074017C09A2F7400923C5F023C5F00C80F3FBE4FAA9F0F87B
:205180008582F0FDFEC3E58298E583994011C3E58298F582E58399F583EA4DFDEB4EFEC329
:2051A000E913F9E813F8C3EB13FBEA13FADCD620D5048D828E83D000D001D002D003D0046F
:2051C000D005D00622C2D5025154D2D5025154E0C0E02401F0A3E0C0E03400F0A3E0D083C4
:2051E000D0826014B4600AC000A882E2D000F582224009E493F58222E0F58222C000A882DA
:20520000E6D000F58222124DBC75F004D3124DDCE0FA3400F0EAA3124DDCF0A3D5F0EE029F
:205220004DD5124DBC75F004C3124DDCE0FAA3124DDCE0A36A7004D5F0EFD3024DD5124DA7
:20524000BCC3E0A398E0A399E0A39400E0A39400024DD5124DBCC3E0A338E0A339E0A3343A
:2052600000E0A33400024DD575F004E07004A3D5F0F9F58222A3A3A3E033227F00BF05003B
:2052800040030252FDEF75F008A42469FD741535F0FE74072DF582E43EF583E054F7F074FC
:2052A000072DF582E43EF583E054FBF074062DF582E43EF583E0547FF074062DF582E43EEF
:2052C000F583E054E0F08D828E83A3A3A3A3E0541FF074072DF582E43EF583E054FCF07416
:2052E000072DF582E43EF583E0543FF074072DF582E43EF583E054CFF00F02527D90159045
:20530000E0543F4440F0901590E054CF4410F090158FE0549F4420F0901570E0543FF090C7
:205320001570E054CF4410F090156FE054E04410F090156FE0549FF0901570E054FC4402D3
:20534000F07EF97F708F06901569EEF07FF990156AEFF0901578E054CFF0901577E054E0D0
:205360004411F0901577E0549FF0901578E054FCF07EF97F708F06901573EEF07FF99015BE
:2053800074EFF07E697F158FD575D4697E717F158FD375D27122E582FF2491FDE43415FE27
:2053A0008D828E83E0FC782CE2B5040122782CE2B402028015782CE2B40303025472782C10
:2053C000E2B4040302551602559CC005C006EF75F008A42469FB741535F0FC74072BF582F6
:2053E000E43CF583E054F7F074072BF582E43CF583E054FBF074062BF582E43CF583E0543E
:205400007FF08B828C83A3A3A3A3E0541FF074072BF582E43CF583E054FCF074072BF58240
:20542000E43CF583E0543F4440F074072BF582E43CF583E054CFF074062BF582E43CF58391
:20544000E054E0F074062BF582E43CF583E0549F4420F08B828C83A3A37AD97E708E02EA50
:20546000F08B828C83A3A3A374D9F0D006D00502559CC005C006EF75F008A42469FB7415C0
:2054800035F0FC74072BF582E43CF583E054F7F074072BF582E43CF583E054FBF074062BA2
:2054A000F582E43CF583E0547FF08B828C83A3A3A3A3E0541FF074072BF582E43CF583E0BA
:2054C00054FCF074072BF582E43CF583E0543FF074072BF582E43CF583E054CF4410F07404
:2054E000062BF582E43CF583E054E0F074062BF582E43CF583E0549F4420F07AD97E708EBE
:20550000028B828C83EAF08B828C83A374D9F0D006D00502559CEF75F008A42469FC7415E7
:2055200035F0FF74072CF582E43FF583E0543F4440F074072CF582E43FF583E054CFF07487
:20554000062CF582E43FF583E054E04412F074062CF582E43FF583E0549FF074072CF58214
:20556000E43FF583E054FC4402F074072CF582E43FF583E054F7F074072CF582E43FF5839D
:20558000E054FBF08C828F83A3A37A737B628B02EAF08C828F83A3A3A37473F08D828E8355
:2055A000782CE2F022AE82AF83782DE208E2901589F0782DE290158AF08E048F058D049075
:2055C000158BECF090158CEEF07830E290158D541FF5F0E054E045F0F0782FE290158EF047
:2055E00053D1EF43D61043D710741055D1FFBF10F822AE82AF837831E208E2901589F07846
:2056000031E290158AF08E048F058D0490158BECF090158CEEF07834E290158D541FF5F06E
:20562000E054E045F0F07833E290158EF053D1EF43D61043D71022AE82AF837835E208E21E
:20564000C39480500F53C7F87835E2C3F208E23480F2800953C7F8E59F540742C77835E21C
:2056600008E2901589F07835E290158AF08E048F058D0490158BECF090158CEEF07838E210
:2056800090158D541FF5F0E054E045F0F07837E290158EF053D1EF43D61043D71074105554
:2056A000D1FFBF10F822AE82AF83901590E0543FF07C957D158D04901589ECF07D95901542
:2056C0008AEDF08E048F058D0490158BECF090158CEEF0783AE290158D541FF5F0E054E05F
:2056E00045F0F07839E290158EF053D1EF43D61043D710741055D1FFBF10F822AE82AF8375
:205700008E048F058D0490156BECF090156CEEF0783CE2FF90156D541FF5F0E054E045F0AF
:20572000F0783BE2FE90156EF053D1FE901596E4F07C967D158D04901571ECF07D969015D3
:2057400072EDF0901578E0543FF0901575EF541FF5F0E054E045F0F0901576EEF053D1FDC6
:2057600043D60143D60243D702E5D130E0FB22AE82AF838E048F058D04901571ECF0901545
:2057800072EEF0901578E0543F4440F0783EE2901575541FF5F0E054E045F0F0783DE2904B
:2057A0001576F053D1FD43D60243D70222AFF0AE83E58290159FF0EEA3F0EFA3F090159F42
:2057C000E0F50FA3E0F510A3E0F511AA0FAB10AC118A008B018C07888289838FF0129D981E
:2057E0005407F8B8015F74012AFDE43BFE8C078D828E838FF0129D9803035403FDBD0245AE
:2058000074012AFDE43BFE8C078D828E838FF0129D9823235403FDBD032B8A058B068C071E
:205820008D828E838FF0129D9820E619AD0FAE10AF1174112DFDE43EFE8D828E838FF012A9
:205840009D98F582228A058B068C078D828E838FF0129D985407FDBD016374012AFDE43BAD
:20586000FE8C078D828E838FF0129D9803035403FDBD034974012AFDE43BFE8C078D828E65
:20588000838FF0129D9823235403FDBD032F8A828B838CF0129D9823235401FABA011E905B
:2058A000159FE0FDA3E0FEA3E0FF74152DFDE43EFE8D828E838FF0129D98F582227582000B
:2058C00022AFF0AE83E5829015A2F0EEA3F0EFA3F09015A2E0FDA3E0FEA3E0FF8D028E03EE
:2058E0008F048A828B838CF0129D985407FABA014A74012DFAE43EFB8F048A828B838CF0FC
:20590000129D9803035403FABA023074012DFAE43EFB8F048A828B838CF0129D982323543A
:2059200003FABA03168D028E038F048A828B838CF0129D9820E604758200228D028E038F35
:20594000048A828B838CF0129D985407FABA014974012DFAE43EFB8F048A828B838CF01219
:205960009D9803035403FABA032F74012DFAE43EFB8F048A828B838CF0129D9823235403E9
:20598000FABA03158D828E838FF0129D9823235401FDBD01047582012275820022AFF0AE7B
:2059A00083E5827840F2EE08F2EF08F27843E4F27B01783FC3E2F5F0EB95F050227840E2B8
:2059C000FA08E2FC08E2FFEB2AFAE43CFC8A828C838FF0129D98FA7843E22AF20B80D37869
:2059E00040E2FD08E2FE08E2FF8D828E838FF0129D98FD7843E2B50503D38001C3E433F557
:205A00008222AFF0AE83E5827845F2EE08F2EF08F27848E4F27B017844C3E2F5F0EB95F063
:205A200050227845E2FA08E2FC08E2FFEB2AFAE43CFC8A828C838FF0129D98FA7848E22ABA
:205A4000F20B80D37845E2FD08E2FE08E2FF8D828E838FF07848E202850A9000201297015D
:205A6000AE82AF8374012EFCE43FFD7849ECF2ED08F28E028F037D007826E4F27827741742
:205A8000F2E408F28A828B838DF0C007C0061248F1D006D0078E828F837414F074122EF5D7
:205AA00082E43FF58374EDF07849E22409FC08E23400FD7B00781E7497F2741508F2E40814
:205AC000F278217408F2E408F28C828D838BF0C007C006123F33D006D0077849E2F5820876
:205AE000E2F583E054F84401F07849E2F58208E2F583E054DFF07849E22401F58208E2340F
:205B000000F583E054F34408F07849E22401F58208E23400F583E044C0F07849E22402FC3C
:205B200008E23400FD901653E0FB04F08C828D83EBF07849E22403F58208E23400F583743E
:205B400047F07444A3F07849E22405F58208E23400F58374FFF0A3F07849E22407F58208A7
:205B6000E23400F5837447F07444A3F08E828F83C007C00612211CD006D0077D008E828FDA
:205B8000838DF00218DAC082058105810581900080129701AD82AE83E58124FDF88682C0DC
:205BA00006C00512201F122043D005D0067C01A8817601A881E624EB5003025D21C006C015
:205BC00005C004125A5A123EE6E5828583F0D004D005D0069015A52440F0E435F0A3F0A840
:205BE00081181874162DF6E43E08F6C004C006C005123EE6AA82AC83D005D0069015A5E072
:205C0000FBA3E0FFEAC39BFAEC9FFCC3E49A74809CD0044003025D178D828E83C006C00535
:205C2000C00412204AAF82D004D005D0069015A7EFF0C374818FF063F08095F050ADA88194
:205C400018188682088683E0FFE58124FDF8E6B507998D028E037F008A828B838FF0C00664
:205C6000C005C0041257ADAF82D004D005D006BFEE028003025BEB8D028E037F008A828B25
:205C8000838FF0C006C005C0041258C1E582D004D005D0067003025BEB8D028E037F0090B8
:205CA00015A8EAF0EBA3F0EFA3F0740D2AFAE43BFB781EEAF2EB08F2EF08F278217408F247
:205CC000E408F2901649F5F0C006C005C004123F33D004D005D0069015A8E0FAA3E0FBA378
:205CE000E0FF74032AFAE43BFB8A828B838FF0129D98FAA3129D98FB901651EAF0EBA3F002
:205D00008D028E037F008A828B838FF0C0041218DAD0048C828018A88106A8818604025BCA
:205D2000B37F008D828E838FF01218DA758200E58124FCF58122E5812404F5819000801253
:205D40009701AE82AF83EE4F700F748FC0E074BAC0E0121EF01581158174012EFCE43FFD11
:205D6000E58124FDF8A60408A6058E028F037D007826E4F27827742DF2E408F28A828B830A
:205D80008DF0C007C0061248F1D006D00774132EFCE43FFDA88118A60408A6058E828F8370
:205DA000742AF074122EF582E43FF58374E5F0E58124FDF8740926FAE40836FB7D00781EFA
:205DC0007497F2741508F2E408F278217408F2E408F28A828B838DF0C007C006123F33D008
:205DE00006D007E58124FDF88682088683E054F84401F0E58124FDF88682088683E054DF22
:205E0000F0E58124FDF88682088683A3E054F34408F0E58124FDF88682088683A3E044C0D5
:205E2000F0E58124FDF8740226FCE40836FD901653E0FB04F08C828D83EBF0E58124FDF8FC
:205E40008682088683A3A3A37447F07444A3F0E58124FDF88682088683A3A3A3A3A374FF10
:205E6000F0A3F0E58124FDF8740726F582E40836F5837447F07444A3F0A88118740626F5A2
:205E800082E40836F5837407F0A88118740926F582E40836F5837428F0E4A3F0A8811874CE
:205EA0000B26FCE40836FD901654E08C828D83F0A88118740426FCE40836FD90162EE0FA06
:205EC000A3E0FB8C828D83EAF0EBA3F0A88118740826FCE40836FD901534E08C828D83F009
:205EE000A88118740226FCE40836FD901554E08C828D83F0A88118740126FCE40836FD903C
:205F00001555E08C828D83F0A88118740726FCE40836FD90162BE08C828D83F0A8811886A6
:205F200082088683A3A3A37414F0A88118740C26FCE40836FD901643E08C828D83F0A8816B
:205F400018740D26F582E40836F5837455F0A88118741426F582E40836F58374ABF0A88180
:205F60001886030886047D0078447415F28B828C838DF0C007C006125A02D006D0078E82E9
:205F80008F83C007C00612211CD006D0077D008E828F838DF01218DAE58124FCF58122E543
:205FA000812407F581122043900082129701AE82AF83E58124FAF8A60608A607E58124FACB
:205FC000F8E60846700F74ADC0E074BAC0E0121EF0158115817D007E00BE0A0040030261D2
:205FE00065C006C005125D36123EE6AA82AB83D005D006E58124FCF874A02AF6E43B08F602
:20600000C005C006123EE6AB82AD83D006E58124FBF8EBC396FBED0896FDC3E49B74809D75
:20602000D005400302615FE58124FAF88682088683C006C00512204AAB82D005D006C374DB
:20604000818BF063F08095F050B6C005E58124F9F886020886037D008A828B838DF0C006B3
:206060001257ADAD82D006BDE6028004D0058090E58124F9F8741626FAE40836FB8A048B9C
:20608000057F00783F7411F28C828D838FF0C006C005C003C00212599DE582D002D003D0BD
:2060A00005D006D0057003026000E58124FAF88606088607A8811818A60608A607A88118C3
:2060C00018740D26FCE40836FF781EECF2EF08F2E408F278217408F2E408F2901649F5F0F0
:2060E000C005C003C002123F33D002D003D005A88118188682088683A3A3A3E0FEA3E0FF9D
:20610000901651EEF0EFA3F0901628EDF0900011C003C002129701AE82AF83D002D0038E18
:20612000828F83C007C0067411C0E0C002C003124F4F158115811581D006D007E58124FAF1
:20614000F886020886037C008A828B838CF0C007C0061218DAD006D0078E828F8380240E0A
:206160008E05025FD9901628740AF0E58124FAF886050886067F008D828E838FF01218DA59
:20618000900000C8E58124F9F581C822C082C083C0F0E5812407F58124F7F8740226FAE4FB
:2061A0000836FB0886048A828B838CF0E58124FAF8129D98F6E58124FAF87956E6F3E409B4
:2061C000F3900063C004C003C0021296A5AE82AF83D002D003D004A88118A60608A607E5E1
:2061E0008124FBF87663087600E58124F7F8740126FDE40836FE0886078D828E838FF01239
:206200009D98FD90165EE0FFEDB50702800675820002633DA88118C3E6940308E69410404C
:206220000675820002633DE58124FAF8E624D5500675820002633DA88118746326FEE4084D
:2062400036FFC374049E74109F5013A88118E58124FBF97404C396F77410089609F7E5819B
:2062600024F7F88605088606088607783F7466F28D828E838FF0C004C003C00212599DE5FF
:2062800082D002D003D004700302633AE58124F7F8740326FDE40836FE088607E58124FDA2
:2062A000F8A60508A606E58124F3F8A98119E726FE09E70836FFC004C003C002E58124F8CC
:2062C000F8E6C0E008E6C0E0E58124F8F8E6C0E008E6C0E08E828F83124F15E58124FCF511
:2062E00081D002D003D0048A828B838CF0129D98FA7F00786F7408F2E408F28A828F83C03D
:2063000007C002129AE1AD82AE83D002D007ED2460FDEE3416FE5302078AF005F0740180BA
:206320000225E0D5F0FBF4FA8D828E83E052028D828E83EAF07582018003758200E581245E
:20634000F6F58122C082C083E5812404F5817D00900080C005129701AB82AC83D005A881D0
:2063600018A60308A604758201C00512220F123EE6AA82AF83D005E58124FBF886040886AC
:206380000674142CFCE43EC42354E0CCC423CC6CCC54E0CC6CFEEC2AFCEE3FFEE58124FD25
:2063A000F8A60408A606A88118741626FBE40836FFC005C007C003123EE6AA82AD83D003C6
:2063C000D007E58124FCF8EAC396FAED0896FDC3E49A74809DD005400302645CA881188630
:2063E00082088683C007C005C00312204AAA82D003D005D007C374818AF063F08095F050BA
:20640000B0C005A881181886020886057E008A828D838EF0C007C005C0031257ADAE82D016
:2064200003D005D007BEE8028004D0058083D0058B048F067A00C007C003E58124F5F8E64F
:20644000C0E008E6C0E08C828E838AF012618CAD8215811581D003D0070263B1758200C0A4
:206460000512220FD005A8811886030886047F008B828C838FF0C0051218DAD0058D82E5F7
:206480008124FAF58122900003129701AE82AF83A3E4F0A3F08E828F8322C082E581240408
:2064A000F581900080129701AD82AE838D028E037C007826E4F27827742DF2E408F28A8220
:2064C0008B838CF0C006C0051248F1D005D00674012DFBE43EFCE58124FDF8A60308A6041C
:2064E00074172DFAE43EFFA88118A60208A6078D828E83742AF0E58124FCF8E6600E741621
:206500002DF582E43EF58374E7F0800C74162DF582E43EF58374E4F0E58124FDF8740D2630
:20652000FAE40836FC7F00781E7497F2741508F2E408F278217408F2E408F28A828C838F41
:20654000F0C006C005123F33D005D006E58124FDF8740526FCE40836FF7B00781E7449F296
:20656000741608F2E408F278217408F2E408F28C828F838BF0C006C005123F33D005D0067F
:20658000E58124FDF88682088683E054F84401F0E58124FDF88682088683E054F7F0E581E9
:2065A00024FDF88682088683E054EFF0E58124FDF88682088683E054DFF0E58124FDF886F6
:2065C00082088683E04440F0E58124FDF88682088683A3E0440CF0E58124FDF88682088664
:2065E00083A3E054CFF0E58124FDF88682088683A3E044C0F0E58124FDF8740226FCE40870
:2066000036FF901653E0FB04F08C828F83EBF0E58124FDF8740326FCE40836FF901651E072
:20662000FAA3E0FB8C828F83EAF0EBA3F0A8811886020886047F00781E7455F2741608F2BB
:20664000E408F278217411F2E408F28A828C838FF0C006C005123F33D005D006A881188653
:20666000020886047F0078447411F28A828C838FF0C006C005125A02D005D0068D828E8376
:20668000C006C00512211CD005D0067F008D828E838FF01218DAE58124FBF58122058105AB
:2066A000810581AF82900080C007129701AD82AE83D007A8811818A60508A606758201C07A
:2066C0000712220FD007A8817600A881B60A0040030268698F82C00712649A123EE6AA82B1
:2066E000AB83D007A88186057E00786F7405F2E408F28D828E83C007C003C002129AE1AD8D
:2067000082AE83D002D003D007740B2DFDE43EC42354E0CDC423CD6DCD54E0CD6DFE901598
:20672000ABED2AF0EE3BA3F0A88118188682088683C00712204AAB82D0079015ADEBF0C342
:2067400074818BF063F08095F0400302683EC007E58124FDF886020886037F008A828B838E
:206760008FF0C0071257ADAE82D007BEE805D00702680CD007BEE9028009BEEC0302682579
:2067800002683EC007E58124FDF8741626FAE40836FB8A048B067F00783F7403F28C828EEA
:2067A000838FF0C007C003C00212599DE582D002D003D007D007700302683E900003C00358
:2067C000C002129701AD82AE83D002D0038D828E83C006C0057403C0E0C002C003124F4F51
:2067E000158115811581D005D006A881181886020886037C008A828B838CF0C006C005120B
:2068000018DAD005D0068D828E838074A881181886040886057E008C828D838EF01218DA33
:20682000126486805BA881181886040886057E008C828D838EF01218DA9000008042C007D4
:20684000123EE6AD82AE83D0079015ABE0FBA3E0FCEDC39BFDEE9CFEC3E49D74809E500328
:20686000026728A881060266CAA881181886050886067F008D828E838FF01218DA12648690
:2068800015811581158122900020129701AE82AF838E038F047D007826E4F27827741BF223
:2068A000E408F28B828C838DF0C007C0061248F1D006D00774012EFCE43FFD784BECF2ED8F
:2068C00008F28E828F837419F074162EF582E43FF58374EAF0784BE2240DFA08E23400FB1E
:2068E0007D00781E7497F2741508F2E408F278217408F2E408F28A828B838DF0C007C0061E
:20690000123F33784BE22405FC08E23400FD7B00781E7449F2741608F2E408F278217408D7
:20692000F2E408F28C828D838BF0123F33D006D007784BE2F58208E2F583E054F84401F0DE
:20694000784BE2F58208E2F583E054F7F0784BE2F58208E2F583E054EFF0784BE2F58208E9
