:020000040000FA
:040000000200A43224
:01000B0032C2
:0100130032BA
:01001B0032B2
:0100230032AA
:03002B000214E1DB
:01003300329A
:01003B003292
:01004300328A
:01004B003282
:01005300327A
:01005B003272
:01006300326A
:06006B000214E502077714
:08008B0006CBEFBED0D0ADDEC4
:2000A400758121129D6EE582600302006E79E1E94400601B7A0190BF57781A759316E49384
:2000C400F2A308B800020593D9F4DAF27593FFE478FFF6D8FD7875E84400600A7900759363
:2000E40000E4F309D8FC78A5E84415600C7916900075E4F0A3D8FCD9FA7800E4F2780DE415
:20010400F208F29015607401F0901595E4F0901596F0901597F0901598F09015B2E4F0A325
:20012400F09015B4F0A3F002006EE5812407F5817F007E78BEC80040030201C38E047D0065
:200144008C82EDC42354E0C582C423C5826582C58254E0C5826582F583C007C006129711C1
:20016400AC82AD83D006D0078D037D00EC4B604F8C828B838DF0C0061217B3D0068E078E49
:2001840004E42354E0CCC423CC6CCC54E0CC6CFDC004C00574B4C0E074A1C0E0121DC9E519
:2001A4008124FCF581EE2455501174BEC0E074A1C0E0121DC91581158180FE0E020138E406
:2001C4002354E0CFC423CF6FCF54E0CF6FFE8F828E83C007C006129711AC82AD83D006D024
:2001E40007E58124FCF8A60408A605087600E58124FCF8E6084670127410C0E074A2C0E08D
:20020400121DC915811581020311A88118E4F608F6A881188603088604E58124FAF8A60702
:2002240008A606E58124FAF8C3EB96EC08965034C007C006E58124FAF8E58124FDF9E726A2
:20024400FD09E70836FE0886078D828E838FF0EB12850BE58124FDF806B600020806D0068F
:20026400D00780AD7E007F00A88118E4F608F6A881188602088603E58124FAF8C3EA96EB5C
:2002840008965064C006C007E58124FAF8E58124FDF9E726FD09E70836FE0886078D828E17
:2002A400838FF0129D52FDB50206D007D0068025D007D0068D047D00C004C005C002C0065F
:2002C400C0077447C0E074A2C0E0121DC9E58124F9F5818013A8811806B600020806A88188
:2002E4001886060886078087E58124FCF886030886040886058B828C838DF01217B3747233
:20030400C0E074A2C0E0121DC915811581E58124F9F58122AF82758240C0071212707828E1
:20032400E4F278297406F2E408F2901510F5F01248E3D0077E00BE06005010EE2410F5820F
:20034400E43415F5837481F00E80EB7801E4F27801C3E29F4003020401C0071296CAD00730
:200364007802E4F27802E2B4060040030203F87802E290089A93F582C007125B78E582D058
:200384000760687802E22410FBE43415FC8B828C83E0FA901557E0F508C3EA64808508F0F9
:2003A40063F08095F050078B828C83E508F0C007901556E0FC3395E0FB901557E0FA3395B2
:2003C400E0FF7802E290089A93FD7E00C004C003C002C007C005C0067477C0E074A2C0E0C2
:2003E400121DC9E58124F8F581D0077802E22401F20203687801E22401F202035375824051
:200404001212C0901516E4F0901517F0FFBF0600502DEF2410F582E43415F583E0FE9015B6
:2004240016E0C364808EF063F08095F0500EEF90089A93901517F0901516EEF00F80CE9001
:200444001516E0901557F0901517E0F582227E007F00C3EE9408EF648094805021EE249B1D
:20046400FCEF3415FD740C2EFA74783FFB8A828B83E08C828D83F00EBE00D70F80D42290B9
:200484001635E0FEA3E0FFC3742C9E74019F400F90162FE0700990161AE0700302057F90F2
:2004A4001637E0FEA3E0FFBE200FBF010C1214E9901637E4F0A3F0800675820212127090DC
:2004C4001637E02401F0A3E03400F0901634E0600C90151AE07006901643E0700C90151BEF
:2004E400E06036901644E06030901683E0FFBFFF02801775820C121270901683E0F58212A0
:20050400759975820C1212C0800F758208121270120E757582081212C0758240121270126B
:200524005F90AE82AF83901518EEF0EFA3F0758240C007C0061212C0D006D007EE4F602334
:20054400901635E4F0A3F090161AE0600590161AE4F090162FE0600690161A7401F09016D6
:200564002FE4F0901641E0602E758201120318E582FE6023901657EEF0801C758240121240
:2005840070125F90E5828583F0901518F0E5F0A3F07582401212C0121695901518E0FEA35C
:2005A400E0FF4E700990162DE4F0A3F08049740F2EF582E43FF583E0FCA3E0FD90162DECB0
:2005C400F0EDA3F0740D2EFCE43FFD8C828D83E060128E828F83127DE2E582700790162D28
:2005E400E4F0A3F0901518E0FEA3E0FF7D008E828F838DF01217B31216E0AE82AF8390166B
:2006040035E0FCA3E0FD901635EE2CF0EF3DA3F0BE580EBF020B901642E060057800E4F236
:200624002290162DE0FEA3E0FF4E6039EF30E71E8E048F0553057F785EECF2ED08F2E408D2
:20064400F208F29003E8F5F01298720214B6785EEEF2EF08F2E408F208F290EA60F5F0121A
:2006640098720214B61216E0AE82AF83785EEEF2EF08F2E408F208F29003E8F5F012987243
:200684000214B6901630E0FF6004EF30E005EF24DB50031214E9758202120318AF82901620
:2006A40057EFF0EF700C90151BE07006901644E0701A901634E0600C90151AE0700690164A
:2006C40043E07008901630E0FFBF233F758208121270901683E0FFBFFF02801775820412A6
:1C06E4001270901683E0F5821275997582041212C08012901630E0FFBF23004090
:200700000512125C8003120E757582081212C0901657E0FFE0603A8F82121EF8901630E410
:20072000F090162F74FDF09000231217311216E0AE82AF83785EEEF2EF08F2E408F208F2A5
:200740009003E8F5F01298721214B678007401F22275820112165CAC82AD83AEF0FF785EF3
:20076000ECF2ED08F2EE08F2EF08F29003E8E4F5F01298720214B6758211121270749CC04B
:20078000E074A2C0E0121DC9158115811296C6758204121270900001123E531284EF1204D3
:2007A00052900023121731124ABF7582041212C01214E912012ED2AF901536E0901645F079
:2007C00090164BE0FF6007901657EFF0800C758204120318E582901657F0901657E06005BC
:2007E00078007401F2120E75758204121270124BEC7582041212C0901657E0FFE060058F1E
:2008000082121EF81296CA7800E2600B7800E2B401F212048380ED12068780E8AF82BF00F9
:20082000028019BF01028029BF02028012BF0302802CBF05028042BF215F80490296D1757F
:20084000820412127012499A124BEC7582040212C0758204120318E582901657F0227582DC
:200860000812127012125C7582181212C090FFFF74FFF5F01214B680F4758204121270752F
:2008800082040212C0901635742DF07401A3F09016377420F07401A3F0220B0F14191A1B83
:2008A0008582C1E58620E0FB228582C1E58620E0FB85C1822253807F22438080225380EF35
:2008C0002243801022AE82AF83900001C007C006123E53D006D007E58030E1281EBEFF01B7
:2008E0001F900001C007C006123E53D006D007EE4F70E474E6C0E074A6C0E0121DC9158198
:20090000158180D322AE82AF83900001C007C006123E53D006D00753C0DF5389FD43AB0241
:20092000438C0143B8207D007C008E828F838DF0EC1212F9E59E20E6FBE58030E10F74E6C8
:20094000C0E074A6C0E0121DC915811581A2BDE433F5F005F07401800225E0D5F0FBF452C7
:20096000B853ABFD22900001123E535380FE900001123E5343800190000A0208C5AF82C04B
:20098000071208BD1208B5D0078F821208A01208C17582001208A9AF82C0071208B9D007D1
:2009A0008F8222E58124FDFFC0071208BD1208B5D007A88118188682C0071208A01208C17D
:2009C000D0077E00E58124FDF8C3EE965017EF24FEFDFF8D018782C007C0061208A0D006D4
:2009E000D0070E80DF0208B953867F75C20043C51043C5204380014380805380F953FDF905
:200A000043FDB943F328900001123E534390045390F743FE0C4390085390FB5390F74390E7
:200A200004900001023E537405C0E074A7C0E0121DC9158115811208B91209651209659033
:200A40000001123E53E4C0E07412C0E01209A3158115819003E81208C5747FC0E0E4C0E0ED
:200A600004C0E0741BC0E01209A3E58124FCF5817454C0E0E4C0E004C0E07474C0E01209B6
:200A8000A3E58124FCF581743BC0E0E4C0E004C0E0747EC0E01209A3E58124FCF58174631D
:200AA000C0E0E4C0E07404C0E0E4C0E07402C0E0742BC0E01209A3E58124FAF581743FC0F6
:200AC000E0E4C0E07485C0E0E4C0E0748CC0E0E4C0E0748EC0E0E4C0E07404C0E0740CC0F3
:200AE000E01209A3E58124F6F581E4C0E0C0E004C0E0E4C0E0742BC0E0E4C0E07403C0E03C
:200B00007401C0E01209A3E58124F8F5817480C0E0E4C0E004C0E07418C0E01209A3E581FE
:200B200024FCF5817480C0E0E4C0E07408C0E0E4C0E07402C0E07421C0E01209A3E58124D4
:200B4000FAF58174B1C0E0E4C0E004C0E07422C0E01209A3E58124FCF581E4C0E07420C070
:200B6000E01209A3158115819000641208C5E4C0E0C0E07415C0E0E4C0E07402C0E0741B62
:200B8000C0E01209A3E58124FAF5817419C0E074A7C0E0121DC91581158122742DC0E0741A
:200BA000A7C0E0121DC9158115817401C0E0E4C0E004C0E0C4C0E01209A3E58124FCF5816F
:200BC00090001E123E3E4390085390FB900003123E3E53FEF353F3D775F30075FD0043F78A
:200BE000A0758000900001023E3EAF828F055305F0E4C4CDC4540F6DCD540FCD6DCD30E3F1
:200C00000244F053070FEFC454F0FFED42078F055305CCE4A2E713CD13CDA2E713CD13CDDB
:200C2000530733EF2F25E0FFED42078F055305AAE4A2E713CD13CD530755EF2F4DF5822259
:200C4000058105810581123D66900032129711AE82AF83A88118187600A8811818B602008F
:200C60004003020DE9C007C0067403C0E0E4C0E004C0E07411C0E01209A3E58124FCF5818E
:200C80007431C0E0E4C0E0C0E0C0E07402C0E07444C0E01209A3E58124FAF5817401C0E010
:200CA000E4C0E0742BC0E0E4C0E0C0E0C0E0C0E0C0E07404C0E07445C0E01209A3E58124B4
:200CC000F6F581E4C0E0C0E0C0E0C0E07402C0E0744EC0E01209A3E58124FAF581E4C0E090
:200CE000C0E0C0E0C0E0C0E0C0E07403C0E0744FC0E01209A3E58124F8F581D006D007A84F
:200D0000811818E6262424FCC007C006E4C0E0C0041209A315811581D006D007A8811876AF
:200D20002B087601A881188602088605C3742C9A74019D5003020DE1C007C0061296CAD08C
:200D400006D0078E028F05901599E4F0783B7432F2E408F28A828D83C007C006125698D0DE
:200D600006D0078E028F047D00C007C006C002C004C005E58124F9F8E6C0E0E58124F9F8A2
:200D8000868208868312230CE58124FCF5811208B5D006D0077C007D00C3EC9432ED940092
:200DA0005028EC2EF582ED3FF583E0F582C007C006C005C004120BEA1208A0D004D005D0DF
:200DC00006D0070CBC00D20D80CFC007C0061208B9D006D007A8811816B6FF020816020DF8
:200DE00024A881181806020C597D008E828F838DF01217B37442C0E074A7C0E0121DC915F3
:200E0000811581123D7F15811581158122120C401296CA122F2C74C7C0E0E4C0E004C0E0C9
:200E20007422C0E01209A3E58124FCF581E4C0E07420C0E01209A31581158190C350120962
:200E40000590001E123E530296CA1209E8120A27120E0D745BC0E074A7C0E0121DC91581AF
:200E60001581120B9B746EC0E074A7C0E0121DC91581158122123082781D74FAF2E408F20A
:200E8000781FF29000011230C97582031230F974C2C0E074ABC0E012327115811581123040
:200EA00082781D7432F2E408F2781FF29001071230C975820012310B74D1C0E074ABC0E090
:200EC00012327115811581123082781D7432F2E408F2781FF29001361230C97582011231CC
:200EE0000B74D9C0E074ABC0E012327115811581123082781D7432F2E408F2781FF2900171
:200F00004A1230C975820012310B74E3C0E074ABC0E07480C0E07428C0E0E4C0E074DBC01E
:200F2000E074ABC0E0123271E58124F9F581123082781D7432F2E408F2781FF290001E124C
:200F400030C975820012310B9015A0E0FF7E009015A1E0FD7C009015A2E0FB7A00C007C0EF
:200F600006C005C004C003C00274E9C0E074ABC0E0741CC0E07415C0E0121E32E58124F666
:200F8000F58190159DE0FF7E0090159EE0FD7C0090159FE0FB7A00C007C006C005C004C031
:200FA00003C00274E9C0E074ABC0E07425C0E07415C0E0121E32E58124F6F58190159BE0D6
:200FC000FF7E0090159CE0FD7C00C007C006C005C00474F9C0E074ABC0E0742EC0E074154D
:200FE000C0E0121E32E58124F8F581741CC0E07415C0E0E4C0E07403C0E074ACC0E01232FF
:2010000071E58124FBF58190A78212311D781D7404F2E408F2781FF29000661230C97582ED
:20102000021230F975820012310B901657E06003021166123082781D748CF2E408F2781FB5
:20104000F29000641230C97582021230F9740FC0E074ACC0E01232711581158190A8CA1293
:20106000311D781D7480F2E408F2781FF29000E21230C97582011230F975820012310B1239
:201080003082781D7446F2E408F2781FF290001E1230C97582011230F9901651E0FF7E00B6
:2010A000901652E0FD7C00901653E0FB7A00C007C006C005C004C003C00274E9C0E074ABDA
:2010C000C0E0741CC0E07415C0E0121E32E58124F6F58190164EE0FF7E0090164FE0FD7C20
:2010E00000901650E0FB7A00C007C006C005C004C003C00274E9C0E074ABC0E07425C0E015
:201100007415C0E0121E32E58124F6F58190164CE0FF7E0090164DE0FD7C00C007C006C066
:2011200005C00474F9C0E074ABC0E0742EC0E07415C0E0121E32E58124F8F581901657E078
:20114000FF7E00C007C006741CC0E07415C0E0E4C0E07418C0E074ACC0E0123271E581247D
:20116000F9F5810211D5123082781D748CF2E408F2781FF290004B1230C97582021230F94C
:20118000742AC0E074ACC0E01232711581158190A8CA12311D781D7480F2E408F2781FF22C
:2011A0009001001230C97582011230F975820012310B90AA5612311D781D7480F2E408F2D2
:2011C000781FF29001061230C97582011230F975820112310B020E4A901634E0602790AB95
:2011E000AA12311D781DE4F208F2781FF29001861230C97582011230F975820012310B90CD
:20120000151A7401F0901657E0705090AB7A12311D781D741AF2740108F2781FE4F2900106
:20122000801230C97582011230F975820012310B90AB9E12311D781D741AF2740108F27876
:201240001FE4F29001881230C97582011230F975820112310B90151B7401F022020E4A75E6
:20126000C6C0E59E30E6FB53C6BFE59E20E6FB22E582FF30E019C00712125F906270740423
:20128000F012526D121754E582D00790162FF0EF30E407C00712493ED007EF30E20D7582C7
:2012A00001C00712410E124135D007EF30E60AC0071220F2121EB7D007901639E04FF022CE
:2012C000AF82901639E05207EF30E407C00712494BD007EF30E607C007121ED0D007EF30AE
:2012E000E20DC0071240B375820012410ED007EFF4FF901639E05FF022AF82AE83ADF0FCF7
:20130000901537EFF0EEA3F0EDA3F0ECA3F0AC957D007E007F00A89679007A008A0389028E
:201320008801E42CF8E93DF9EA3EFAEB3FFBAC978D078C06E428FCED39FDEE3AFEEF3BFFD3
:20134000901537E0F8A3E0F9A3E0FAA3E0C42354E0CAC423CA6ACA54E0CA6AFBE9C423540C
:201360001F4AFAE9C42354E0C8C423C868C854E0C868F9E82CFCE93DFDEA3EFEEB3FFF8EF2
:0C138000978D968C95D2AFD2AD43BE067F
:20138F007587010022AF8285951375140075150075160085960F751000751100751200AEB9
:2013AF0011AD10AC0FE42513F513EC3514F514ED3515F515EE3516F516AB977C008C068BD3
:2013CF00057B007803EB2513F2EC351408F2ED351508F2EE351608F28F02EEC42354E0CAF7
:2013EF00C423CA6ACA54E0CA6AFE3395E0FDFC7803E22AFA08E23EFE08E23DFD08E23CFC05
:0D140F008D978E968A95D2AFD2AD43BE0563
:20141F007587010022AF82AE83ADF0FC90153BEFF0EEA3F0EDA3F0ECA3F090153BE0FCA3F5
:20143F00E0FDA3E0FEA3E0FFEC4D4E4F605EC374FF9C74FF9D74079EE49F503990FFFF750F
:20145F00F007E4C007C006C005C0041212F9D004D005D006D007EC2401F8E43DF9EE34F8CC
:20147F00FAEF34FFFB90153BE8F0E9A3F0EAA3F0EBA3F080A58C828D838EF0EF1212F990AA
:20149F00153BE4F0A3F0A3F0A3F0808EE59E20E6FB758210021270AF82AE83ADF0FC901593
:2014BF003FEFF0EEA3F0EDA3F0ECA3F090153FE0FCA3E0FDA3E0FEA3E08C828D838EF0028D
:2014DF00142453C07F3253C0DF32900014123E3E7F007E047D04BD1F0050678D04EC2C904D
:0114FF00628A
:2015000064F0900064C007C006C005123E3ED005D006D007906264E020E62B906264E0FC88
:201520005304407B008E017A00C004C003C001C0027437C0E074ACC0E0121DC9E58124FAFF
:20154000F5818E07801B906264E043E001F0900064C007C005123E3ED005D0070D8D0680C1
:2015600094906264E043E001F0BF13005003021634EF24E15003021634EF24EDFF240A83D9
:20158000F582EF241083F583E473A2AFBCC9D5E1ECF804101C2815151515151515151616C3
:2015A000161690163274FCF07408A3F002163E901632742EF07409A3F002163E9016327446
:2015C00060F07409A3F002163E9016327492F07409A3F0806990163274C4F07409A3F080FE
:2015E0005D90163274F6F0F4A3F080529016327428F0740AA3F08046901632748CF0740A82
:20160000A3F0803A90163274F0F0740AA3F0802E9016327486F0740BA3F0802290163274D0
:201620001CF0740CA3F080169016327480F0740CA3F0800A90163274B9F0740BA3F09016EF
:2016400032E0FEA3E0FFC3EE94F0EF940A50079016347401F022901634E4F022E5826010D7
:20166000901630E0FFBFFF005006901630EF04F0901630E0FFBF18005007900E10E4F5F08E
:2016800022BF24005007901C20E4F5F02290518075F001E42290162CE07858F2E408F29088
:2016A00002351296A67807740AF2E408F2121768AE82AF8374232EFEE43FFF90162BE054FB
:2016C000077D0025E0FCED33FDEC241BF582ED3416F583EEF0EFA3F090162BE02401F022CF
:2016E0007E007F007D00BD0800501DED75F002A4241BF582741635F0F583E0FBA3E0FCEB24
:201700002EFEEC3FFF0D80DEEFC423CEC423541F6ECE541FCE6ECEFF901649E0FCA3E0FD07
:20172000C3EE9CEF9D50058C828D83228E828F8322AE82AF837D00BD08005017ED75F00298
:20174000A4241BF582741635F0F583EEF0EFA3F00D80E422E59DFF70047582FC22BF020446
:201760007582FE227582FE22AE82AF837C007D007B10EF235401FAEE2EFEEF33FFEC2CFCA5
:20178000ED33FDEA60034304017807C3E2F5F0EC95F008E2F5F0ED95F040117807D3E29CBB
:2017A000F4B3FCB308E29DF4FD430601DBC48E828F8322AD82AE83AFF0ED4E7001227B00E6
:2017C0007C00901618E0F513A3E0F514750F18751016E513451460398D118E12C3E51395AC
:2017E00011E5149512502AC005C006C007AB13AC1474022513FAE43514FF8A0F8F108A82D6
:201800008F83E0F513A3E0F514D007D006D00580C17809E513F2E51408F2ED24FEFDEE34F3
:20182000FFFE74022DFAE43EFF8A828F837809E2F008E2A3F0850F82851083EDF0EEA3F073
:201840008D828E83E0F513A3E0F5147809E2B5130708E2B5140280028039C003C0048513B3
:2018600082851483A3A3E0FBA3E0FC8A828F83EBF0ECA3F08D828E83E0FBA3E0FC8B828C9F
:2018800083E0FBA3E0FC8D828E83EBF0ECA3F0D004D003EB4C604BC002C0078B828C83E0E3
:2018A000FAA3E0FFEAB50506EFB506028005D007D00222D007D0028D828E83E0FDA3E0FEDF
:2018C0008B828C83EDF0EEA3F074022BFBE43CFC8A828F83E0FAA3E0FF8B828C83EAF0EF77
:2018E000A3F022AE82AF83744BC0E074ACC0E0121DC9158115817D00BD1000501C8D037CCC
:2019000000C003C0047454C0E074ACC0E0121DC9E58124FCF5810D80DF745AC0E074ACC06A
:20192000E0121DC9158115817D00BD100050127464C0E074ACC0E0121DC9158115810D800E
:20194000E97C007D00E58124FDF8C3EC96ED089650488C028D03EA540F60028015C004C0D8
:20196000057468C0E074ACC0E0121DC9E58124FCF581EC2EF582ED3FF583E0FB7A00C003E5
:20198000C0027473C0E074ACC0E0121DC9E58124FCF5810CBC00AE0D80AB745AC0E074AC0E
:2019A000C0E0121DC9158115817F00BF100050127464C0E074ACC0E0121DC9158115810F48
:2019C00080E97479C0E074ACC0E0121DC91581158122C007C083C082858107C004C003C06B
:2019E00002C001C00074F42581F8868318868218860018E493A36014B4250C7C007A00E432
:201A000093A36008B42516121D0480E7D000D001D002D003D004D082D083D00722B46305CB
:201A200018E61880E2FB4420B46D43EB542003F9C083C082121C6E7C08C083C082EC1425C1
:201A400082F582E5833400F583E0FAC47B02540F29901D3393121D04EADBF3D082D083DCF3
:201A600006D082D083808C743A121D0480CBEBB42A09BA009274014CFC8084B43007BA00FF
:201A800004740680F2FB24D0501224F6400E240AFB740A8AF0A42BFA740480DBBB6C0DECC0
:201AA00054086004741080CF740880CBBB7343EC5408C083C0827005121C8C8007C2D5C27F
:201AC000D1121C6EEC5404700A121C756093121D0480F6BA00028089121C75600B121D0496
:201AE000DAF6021A61021BBE7420121D04DAF9021A61EB4420B478EDC083C082121CB6C016
:201B000083C082E5F023F90324FF2582F582E5833400F583121CA954F0701319121CA970B9
:201B20000D191582E582B4FF021583D5F0E6B9000109EC5420600B09EC54026005742D1298
:201B40001D04EC54046018EAC39940136011FAEC5402C4032420F582E582121D04DAF9EC87
:201B60005420600B19EC54027005742D121D04EB542003FAD082D083E904C313FC14258267
:201B8000F582E5833400F583E954016007121CA979018007121CA97902FBC4540F2AC0835C
:201BA000C082901D3393D082D083121D04EBD9EB1582E582B4FF021583DCD9021A61BB644D
:201BC0000674204CFC8008BB750280030219F3C083C082121CB6C0F07408C395F02443F99B
:201BE000E43415FB121CA9A3121CF9F0A3121CF9D5F0F1121CF9F5F0EC54206028E5F0548F
:201C0000807006EC54DFFC801CD0F0C0F07408C395F02443F582E43415F583C3E0F9E49947
:201C2000F0A3D5F0F775F00AE4F0A3D5F0FBD0E0C403FB90154B75F00AE0F9540F24FBE99A
:201C400050022403F954F024B0E950022430F0A3D5F0E6901543C375F012E033F0A3D5F0A0
:201C6000F9DBD090154B75F00AC2D5021AFF8683188682182220D50620D107E0A322E4933D
:201C8000A3228883A882E6A883058222C2D5C2D1E61860DA6480600D64C060058593838039
:201CA000CFD2D180CBD2D580C530D508C000A882E6D00022E022EC54017021D2D575F000CC
:201CC000EC5418600E54106006D2F218181818D2F11818D2F01888821805F022C2D5EC5473
:201CE0001860105410600675F008021C6E75F004021C6E75F002021C6EC583CBC583C5820F
:201D0000C9C58222C083C082C001C0008F008682188683181818188601188600121D28D027
:201D200000D001D082D08322C082C083850082850183223031323334353637383941424381
:201D400044454630313233343536373839616263646566C007C006C005C004C001C000AC0F
:201D600082AD83AEF0FFBF0A2A75820DC007C006C005C004C003C002C001C000C0211249C5
:201D800052D021D000D001D002D003D004D005D006D0078F82C007C006C005C004C003C0BA
:201DA00002C001C000C021124952D021D000D001D002D003D004D005D006D007D000D001E4
:201DC000D004D005D006D00722C007C001C000E58124FAFFC007E58124F9F8E6C0E008E60A
:201DE000C0E0E4C0E0C0E0901D531219D2E58124FBF581D000D001D00722C007C006C0053B
:201E0000C004C003C001AC82FF8C018F0487060987071974012EFBE43FFDA70309A7058E45
:201E2000828F83ECF0D001D003D004D005D006D00722C007C006C005C001C000E58124F6C3
:201E4000FFE58124F8FE7D00C007E58124F5F8E6C0E008E6C0E0C006C005901DFA1219D205
:201E6000E58124FBF58124F8F88682088683E4F0D000D001D005D006D00722C082C083AFED
:201E8000811F7E00E58124FAF8E6C0E0E58124FAF8E6C0E008E6C0E0C007C006901DFA124C
:201EA00019D2E58124FBF581A881188682088683E4F01581158122901555E0FF20E710755B
:201EC000E1ED75E1ED75E1E390155574804FF022901555E0FF30E71075E1EF75E1ED75E18B
:201EE000ED901555747F5FF022AE82AF83906172EEF0906173EFF022AF82BF0B004005EF60
:201F000024E5500122C007121ED0D007EF24F575F005A490618F240BF0021EB775E1ED7563
:201F2000E1ED22AE82AF83906193E020E6047582FF22E5D9FD24805019747BC0E074ACC092
:201F4000E0121DC91581158175E1ED75E1ED75820022ED24FB40197489C0E074ACC0E0120A
:201F60001DC91581158175E1ED75E1ED758200221D1D782E7403F2758203C007C006C0051B
:201F8000125388D005D006D0078E038F048C03901587EBF0901588EEF08D067F008F0690D6
:201FA0001589EE541FF5F0E054E045F0F090158AEDF053D1F743D60843D708740855D1FFF9
:201FC000BF08F8E5D924B7901556F0E5D930E708901557740AF0800475820022906193E076
:201FE00054C0FFBF400C90619BE0700675E1ED75E1ED8D8222AE82AF83906193E020E1F96A
:20200000901555E020E70BC007C006121EB7D006D00775E1EE75E1EE782E7402F275820224
:20202000C007C006125388D006D0078E048F058D0490157DECF08E0590157EEDF08E828F92
:2020400083E0FD7C000DBD00010C8C05901581ED541FF5F0E054E045F0F08E828F83E0FE98
:202060000E901582EEF053D1FB43D60443D704740455D1FFBF04F8906193E020E410749817
:20208000C0E074ACC0E0121DC91581158122906193E030E51074A3C0E074ACC0E0121DC9A2
:2020A000158115812275E1E97F00906193E020E112BF0300500D0F90003CC007123E3ED07E
:2020C0000780E7906193E020E11675E1EE75E1EE74B3C0E074ACC0E0121DC91581158122C2
:2020E000906193E020E1F922E5826003021EB7021ED0901555E030E0237F00BF0800501B11
:20210000EF246AFDE43461FEEF249BF582E43415F583E08D828E83F00F80E022782E740366
:20212000F275820312538875E1E37591007F00BF0800501BEF246AFDE43461FEEF249BF542
:2021400082E43415F583E08D828E83F00F80E0906170E0906174F0906171E0906175F0903B
:2021600061AB743FF09061AC7455F090619674F8F09061FA7409F09061B27415F09061AE64
:20218000E4F09061897440F0906180E043E001F0906182E4F075E1ED75E1ED906194747FA3
:2021A000F090619074D5F0901555E043E001F0904447121EE9901657E0F582021EF8AF83B5
:2021C000E5827811F2EF08F2780FE2FC08E2C313CC13CCFD7813E4F208F27813C3E29C0838
:2021E000E29D5062C004C00578117913E3C5F0E225F0FC09E3C5F008E235F0FD8C828D83BA
:20220000E0FA780F7913E3F5F0C3E295F0FE09E3F5F008E295F0FF1EBEFF011F7811E22E0E
:20222000FE08E23FFF8E828F83E08C828D83F08E828F83EAF07813E22401F208E23400F2D8
:20224000D005D004809422AF83E5827817F2EF08F27815E2FC08E2C313CC13CCFD7819E454
:20226000F208F27819C3E29C08E29D5069C004C00578177919E3C5F0E225F0FC09E3C5F08A
:2022800008E235F0FD8C828D83E0FA78157919E3F5F0C3E295F0FE09E3F5F008E295F0FFEC
:2022A0001EBEFF011F7817E22EFE08E23FFF8E828F83E0FB6303FF8C828D83EBF074FF6A26
:2022C0008E828F83F07819E22401F208E23400F2D005D004808D22AE82AF837D008D037C8F
:2022E00000781BC3E2F5F0EB95F008E2F5F0EC95F05018ED2EFBE43FFC8B828C83E0FA631B
:2023000002FF8B828C83EAF00D80D222C082C083E581243FF58124EAF9E58124D3F87406AB
:2023200029F6E58124DDF8740A29F6E58124C0F8C0017958E6F308E609F39000321296A6DB
:20234000C8E58124D6C8A68208A683D001E58124DDF8C001E58124E8F9E6F7D001E58124A0
:20236000D7F8C001E58124C1F9E6F708E609F7D001E58124BDF8C001E58124C3F9E4B6010C
:202380000104F7D001E58124DDF8C001E58124C4F9E6F7D001E58124D7F8C001E58124C5F2
:2023A000F9E6F708E609F7D001E58124DDF8C001E58124C7F9E6F7D001E58124D7F8C00156
:2023C000E58124C8F9E6F708E609F7D001E58124BDF8C001E58124CAF9E4B6020104F7D061
:2023E00001E58124CCF8740F29F6E58124CDF8740529F6E58124CEF8740E29F6E58124CFBB
:20240000F8740229F6E58124CEF8C001E58124CFF9E6F7D001E58124D1F8740429F6E581CE
:2024200024CFF8C001E58124D1F9E6F7D001E58124FAF8760090163AE0FEE58124FAF8C3FF
:20244000E69E4003022F2589057C007B40E58124FAF8E675F010A4FEAFF0780DE22EFE08E7
:20246000E23FFF7820EEF2EF08F2E408F278237410F2E408F28D828C838BF0C001123E78EC
:20248000D001E58124D3F886008607E58124BDF8E6B50702800302293E740729F8E670033F
:2024A0000226BAE58124D2F88600860608860718E58124C0F8C3E69E08E69F5003022F1C71
:2024C000E58124D0F8860086058D027C008A82ECC40354F8C582C403C5826582C58254F8B4
:2024E000C5826582F583E58124D1F8860086047858ECF2E408F2C007C006C005C00112968C
:20250000A6AB82AC83D001D005D006D007E58124DBF8A60608A607E58124DBF8EB26F6EC58
:202520000836F6E58124C0F88602088604E58124DBF8C3EA96EC08964003022F1CE58124C7
:20254000C0F8E6C39EF58208E69FF5837807EDF2E408F2C001121768C8E58124FAC8A68236
:2025600008A683D001E58124D4F8740829F6C001E58124CCF98700D001C000E58124FCF8C2
:202580007600D0008602C000E58124CFF8860086048AF0ECA4FAAFF0E58124FCF8C001E585
:2025A0008124D7F9E6F7097700D001E58124D8F8C3E69A08E664808FF063F08095F0D00062
:2025C0004003022F1CC000E58124D3F88600860608860718E58124FAF88602088603E5819C
:2025E00024DEF8A602EBC423C6C423541F66C6541FC666C608F6E58124D0F886008605E570
:202600008124FCF88CF0E6848DF0A4FCADF0E58124DEF8EC26FCED0836FDD000EC2EF5828A
:20262000ED3FF583E0FF5302077B008AF005F07A80E43392D28008A2D2EB13FBEA13FAD59B
:20264000F0F57E00EF5202EE5203EA4B605F870609870719C000E58124D8F8860408860529
:20266000EC2EFEED3F8E04C423CCC423541F6CCC541FCC6CCCFDE58124B9F8EC26FCED088D
:2026800036FD088603D0008C828D838BF0129D52FA5306078EF005F07401800225E0D5F07E
:2026A000FB42028C828D838BF0EA12850BC000E58124FCF806D000022584E58124CFF88620
:2026C00000860608860718E58124C0F8C3E69E08E69F5003022F1CE58124CDF886008605AB
:2026E000E58124CEF8860086048DF0ECA4FAABF0E58124DBF8A60608A607E58124DBF8C0FD
:2027000001E58124DEF9EA26F7EB083609F7D001E58124C0F88602088603E58124DFF8C3D7
:20272000EA96EB08964003022F1C8DF0ECA4FD1DE58124C0F8E6C39EFCEDC39CFDE5812481
:20274000FBF8A605E58124DEF8740829F6C001E58124D0F98700D001C000E58124FBF8E453
:20276000F608F6D00086038B027F008A82EFC40354F8C582C403C5826582C58254F8C582DC
:202780006582F583C000E58124CDF8C001E58124DDF98600E6F7D001E58124DEF8C00179DC
:2027A00058E6F3E409F3D001D000C003C001C0001296A6AA82AF83D000D001D003C000E55E
:2027C0008124FBF8C001E58124D9F9E6F708E609F7D001E58124DAF8C3E69A08E69FD000AC
:2027E0004003022F1CC000E58124DDF88600860208860718E58124DAF8C001E58124D7F9F8
:20280000E6F708E6C423C7C423541F67C7541FC767C709F7D001E58124DEF8C0017907E6F7
:20282000F3E409F3D001E58124D8F88682088683D000C007C003C002C001C000121768ACA7
:2028400082AD83D000D001D002D003D007C000E58124FAF8C001E58124DDF987F0E684D09B
:2028600001F5F0EBA4AEF02CFCEE3DFDEC2AF582ED3FF583E0FFE58124DEF8C0017907E65E
:20288000F3E409F3D001E58124FBF88682088683D000C007C001C000121768AD82D000D086
:2028A00001D0075305077E008DF005F07D80E43392D28008A2D2EE13FEED13FDD5F0F57C4B
:2028C00000EF5205EC5206ED4E6061870609870719EFC423CEC423541F6ECE541FCE6ECE7E
:2028E000FFC000E58124D8F8EE26FEEF0836FFE58124B9F8EE26FEEF0836FF0886058E8265
:202900008F838DF0129D52FCE58124DAF8740756FAD0008AF005F07401800225E0D5F0FB09
:2029200042048E828F838DF0EC12850BC000E58124FBF806B600020806D000022765E58157
:2029400024CCF88600E6FF7003022F1CBF02028003022E5EE58124BDF8E66003022B03E5F3
:202960008124DDF88600860308860408860508860618181874162BFFE43CFCE43DFDE43EBD
:20298000FEE58124D7F8C001E58124E4F9E6F708E609F7097700097700D001E58124E5F8B5
:2029A000E62FFB08E63CFC08E63DFD08E63EFEE58124FBF874982BF6743A3C08F6E43D08D4
:2029C000F6E43E08F6900032C001129711AA82AE83D001A88118A60208A606A8811886050D
:2029E000088606C0017432C0E0E4C0E0C005C006E58124F6F886820886830886F008E6121E
:202A00003F4DE58124FCF581D001E58124DDF886008603088604088605088606181818747A
:202A2000162BFBE43CFCE43DFDE43EFEE58124E5F8E62BFB08E63CFC08E63DFD08E63EFF14
:202A4000E58124BAF8C001E58124E4F9E6F708E609F7D001E58124E5F88602088606C00132
:202A60007432C0E0E4C0E0C002C0068B828C838DF0EF123F4DE58124FCF581D001781B740A
:202A800032F2E408F2A881188682088683C0011222D7D0017F00BF32005035E58124BAF80C
:202AA000EF26FCE40836FD0886068C828D838EF0129D52FBA88118EF26F582E40836F58353
:202AC000E052038C828D838EF0EB12850B0F80C6A8811886040886057E008C828D838EF0CB
:202AE000C0011217B3D001780F7432F2E408F2E58124E5F88682088683C0011221BED00168
:202B0000022F1CE58124C4F8E67003022CC0C001E58124E8F8860086030886040886050874
:202B2000860618181874162BFFE43CFCE43DFDE43EFEE58124C1F8C001E58124DFF9E6F770
:202B400008E609F7097700097700D001E58124E0F8E62FFA08E63CFC08E63DFD08E63EFECD
:202B6000E58124FAF874982AF6743A3C08F6E43D08F6E43E08F6900032C001129711AB821C
:202B8000AE83D001A8811818A60308A606A88118188605088606C0017432C0E0E4C0E0C0BA
:202BA00005C006E58124F5F886820886830886F008E6123F4DE58124FCF581D001E5812459
:202BC000E8F88600860308860408860508860618181874162BFBE43CFCE43DFDE43EFEE516
:202BE0008124E0F8C001E58124E3F9E62BF708E63C09F708E63D09F708E63E09F7D001E5F2
:202C00008124B9F886020886068A048E05C006C002C0017432C0E0E4C0E0C004C005E5811F
:202C200024DDF886820886830886F008E6123F4DE58124FCF581D001D002D006781B7432CA
:202C4000F2E408F28A828E83C0011222D7D0017F00D001BF32005035E58124BAF8EF26FCD7
:202C6000E40836FD0886068C828D838EF0129D52FBA88118EF26F582E40836F583E052036D
:202C80008C828D838EF0EB12850B0F80C6A8811886040886057E008C828D838EF0C001126B
:202CA00017B3D001E58124BAF88682088683780F7432F2E408F2C0011221BED001022F1C57
:202CC000E58124CBF8E67003022F1CC001E58124C4F886008603088604088605088606181A
:202CE000181874162BFFE43CFCE43DFDE43EFEE58124C5F8C001E58124DFF9E6F708E60958
:202D0000F7097700097700D001E58124E0F8E62FFB08E63CFC08E63DFD08E63EFEE5812477
:202D2000FAF874982BF6743A3C08F6E43D08F6E43E08F6900032C001129711AA82AE83D0E3
:202D400001A8811818A60208A606A88118188605088606C0017432C0E0E4C0E0C005C0062F
:202D6000E58124F5F886820886830886F008E6123F4DE58124FCF581D001E58124C4F88620
:202D800000860308860408860508860618181874162BFBE43CFCE43DFDE43EFEE58124E035
:202DA000F8E62BFB08E63CFC08E63DFD08E63EFFE58124B9F8C001E58124E3F9E6F708E669
:202DC00009F7D001E58124E4F88602088606C0017432C0E0E4C0E0C002C0068B828C838DE4
:202DE000F0EF123F4DE58124FCF581D0017F00D001BF32005035E58124BAF8EF26FCE4088A
:202E000036FD0886068C828D838EF0129D52FBA88118EF26F582E40836F583E052038C82A9
:202E20008D838EF0EB12850B0F80C6A8811886040886057E008C828D838EF0C0011217B30D
:202E4000D001780F7432F2E408F2E58124E5F88682088683C0011221BED001022F1CBF0194
:202E6000028003022F1CE58124BDF8E66003022F1CC001E58124C7F88600860408860508F6
:202E80008606088607181818E58124FAF874162CF6E43D08F6E43E08F6E43F08F6E58124B7
:202EA000C8F88602088603E4FEFFE58124FAF8C001E58124E3F9EA26F7EB083609F7EE088F
:202EC0003609F7EF083609F7D001E58124B9F886040886058C068D07C005C004C001743250
:202EE000C0E0E4C0E0C006C007E58124DDF886820886830886F008E6123F4DE58124FCF524
:202F000081D001D004D005780F7432F2E408F28C828D83C0011221BED001D001E58124FAC3
:202F2000F806022435E58124BFF581227F0090163AE0FEC3EF9E5034EF75F010A4FDAEF0A3
:202F4000780DE22DFD08E23EFE74082DF582E43EF583E0FDA3E0FE4D600F7C008D828E834A
:202F60008CF0C0071217B3D0070F80C2780DE2F5F008E245F06012780DE2FD08E2FE7F0062
:202F80008D828E838FF01217B3780DE4F208F290163AF02205810581780DE2F5F008E245E8
:202FA000F0700302304090163AE02401F075F010A4F58285F083129711AE82AF83A8811882
:202FC000A60608A607A88118740F26F582E40836F583E4F0A881188603088604FD780D796A
:202FE00020E2F308E209F3E409F390163AE0FA7F001ABAFF011F7823EAF28FF0E2C5F0C499
:2030000054F0C5F0C4C5F065F0C5F054F0C5F065F0C5F0F2E5F008F28B828C838DF0123E87
:2030200078780DE2FD08E2FE7F008D828E838FF01217B3A88118790DE6F308E609F38018B0
:20304000900010129711AE82AF83780DEEF2EF08F290163AE02401F090163AE0FF7E001F35
:20306000BFFF011EEEC454F0CFC4CF6FCF54F0CF6FFE780DE22FF58208E23EF58315811505
:203080008122122F94AE82AF83780BEEF2EF08F2740E2EF582E43FF5837401F074062EF546
:2030A00082E43FF583E4F08E828F837408F0E4A3F08E828F83A3A37408F0E4A3F074072E26
:2030C000F582E43FF583E4F022AE82AF83780BE2FC08E2FD8C828D83EEF0EFA3F08C828D25
:2030E00083A3A3781DE2F008E2A3F074072CF582E43DF583781FE2F022AF82780BE2240E19
:20310000F58208E23400F583EFF022AF82780BE22406F58208E23400F583EFF022C082C0D1
:2031200083E5812405F581122F94AC82AD83780BECF2ED08F2740E2CF582E43DF583740258
:20314000F074062CF582E43DF583E4F08C828D837440F0E4A3F08C828D83A3A37404F0E40C
:20316000A3F074072CF582E43DF5837401F074042CFAE43DFBE58124FAF88682088683E46D
:2031800093FF7E0078717408F2E408F28F828E83C005C004C003C002129AF1AE82D002D04B
:2031A00003D004D0058A828B83EEF0E58124FCF874052CF6E43D08F6E58124FAF8868208A7
:2031C0008683A3A3E493FFE58124FCF88682088683EFF074082CFCE43DFD8A828B83E0FAFE
:2031E0008AF0EFA4F58285F083C005C004129711AE82AF83D004D0058C828D83EEF0EFA377
:20320000F0780BE2FE08E2FF74082EF582E43FF583E0FCA3E0FDA8811818A60408A605089C
:203220007600E58124FAF8740426FAE40836FD7820EAF2ED08F2748008F28E828F83A3A334
:20324000A3A3E0FD8E828F83A3A3A3A3A3E08DF0A4FDAEF07823EDF2EE08F2A8811818861D
:20326000820886830886F0123E78E58124F9F58122E581241CF581900030129711AE82AFE5
:2032800083E58124F5F8A60608A607087600E58124E1FCE58124F5F88602088603C004E5B5
:2032A0008124E0F8E6C0E008E6C0E08A828B83121E7B158115811581900030129711AB824F
:2032C000AC83E58124F8F8A60308A60408E4F6FEFFE58124FBF87600C006C007E58124F30E
:2032E000F8E58124F9F9E726FDE40836FE0886078D828E838FF0129D52FDFCD007D006ED68
:203300006070BC20118E048F0574042CFCE43DFD8C068D0780537D007858EC24E0F2ED34C3
:20332000FF08F2900021C007C0061296A6AC82AD83D006D007EC24BDF582ED34ACF583E490
:2033400093FDFC53040F7410C39CFCEDC4540FFDECC39DFD8E038F047A00ED2BFBEA3CFC6F
:203360000BBB00010C8B068C07E58124FBF8060232D81EBEFF011F8E04EFC423CCC423545D
:203380001F6CCC541FCC6CCCE58124FCF8A604EE54076006E58124FCF806780BE22408FE75
:2033A00008E23400FFE58124FCF886047D008C03EDC454F0CBC4CB6BCB54F0CB6BFA8B82D6
:2033C0008A83C007C006C003C002129711AC82AD83D002D003D006D0078E828F83ECF0ED79
:2033E000A3F0780BE22408F58208E23400F583E0FEA3E0FF4E7012741DC0E074B9C0E0125C
:203400001DC915811581023C827D007828E4F27829EBF2EA08F28E828F838DF01248E37831
:203420000BE2FE08E2FF8E828F83A3A3A3A3E58124FCF8E6F08E828F83A3A3A3A3A37410E1
:20344000F0E4FEFFE58124FBF87600C006C007E58124F3F8E58124F9F9E726FDE40836FE00
:203460000886078D828E838FF0129D52FDFCD007D006ED7003023C56BC20128E048F0574F5
:20348000042CFCE43DFD8C068D07023C4DC006C0078C057F007858ED24E0F2EF34FF08F2C5
:2034A000900021C007C0051296A6AC82AE83D005D007EC24BDF582EE34ACF583E493FEFC7B
:2034C00053040F7410C39CFCE58124FCF8EEC4540FF6E58124FCF8E58124FBF9ECC396F7E6
:2034E0007858ED24E0F2EF34FF08F29000211296A6AE82AF83E58124E5F8EE24BDF6EF344D
:20350000AC08F6E58124FDF87600D007D006A88118B6100040030235CAC006C007E58124FD
:20352000FDF8E675F003A4FCADF0E58124F6F8E58124E7F9EC26F7ED083609F708E609F707
:20354000E58124FDF8E626FE2402C8E58124E5C826F58208E436F583E493FFE58124E7F8A7
:2035600086820886830886F0EF12850B74012CFBE43DFFE58124F6F8EB26FBEF0836FF08AF
:203580008602EE04C8E58124E5C826F58208E436F583E4938B828F838AF012850B74022C27
:2035A000FCE43DFDE58124F6F8EC26FCED0836FD0886078C828D838FF0E412850BE5812401
:2035C000FDF806D007D00602350E8E048F055304077D00A881181886027B00EAB50407EB0C
:2035E000B50503023A76C3EA9CEB9D40030238308C03A8811818EBC396FDBD08005003029B
:2036000036CC5305077C00BC300040030236CCC006C007E58124E7F8A604087600E58124F2
:20362000E7F8740226FAE40836FBE58124F6F8E58124EAF9EA26F7EB083609F708E609F7F5
:20364000E58124E7F8740126FEE40836FFE58124F6F8E58124EDF9EE26F7EF083609F7081F
:20366000E609F7E58124EDF886820886830886F0129D52FAE58124EAF88682088683088650
:20368000F0EA12850BE58124F6F8E58124E7F9E726FA09E70836FE0886078A828E838FF068
:2036A000129D52FBE58124EDF886820886830886F0EB12850B8A828E838FF0E412850B8CCD
:2036C0000274032AFCD007D0060236077C00BC30004003023A76C006C007E58124EDF8A660
:2036E00004087600E58124EDF8740226FBE40836FEE58124F6F8E58124E7F9EB26F7EE0842
:203700003609F708E609F7E58124E7F886820886830886F0129D52FA8DF005F0E58124EAA4
:20372000F8EA8002C313D5F0FBF6E58124EDF8740126FAE40836FFE58124F6F8E58124F082
:20374000F9EA26F7EF083609F708E609F7E58124F0F886820886830886F0129D52FA8D03BA
:20376000E58124E3F87408C39BF68A03E58124E3F886F005F0EB800225E0D5F0FBFBE58124
:2037800024EAF8E64203E58124E7F886820886830886F0EB12850BE58124F0F88682088663
:2037A000830886F0129D52FB8DF005F0E58124EAF8EB8002C313D5F0FBF6E58124F6F8E5D8
:2037C0008124EDF9E726FB09E70836FE0886078B828E838FF0129D52FAE58124E3F886F022
:2037E00005F0EA800225E0D5F0FBFAE58124EAF8E64202E58124F0F886820886830886F00A
:20380000EA12850B8B828E838FF0129D52FA8DF005F0EA8002C313D5F0FB8B828E838FF073
:2038200012850B8C0374032BFCD007D0060236CEA8811818A98119E6C39CF7A88118B6082F
:2038400000500302390AA88118E65407F6A8817600A881B63000400302390AC006C007A8ED
:2038600081181886027B00E58124F6F8E58124F0F9EA26F7EB083609F708E609F774012AEC
:20388000FDE43BFFE58124F6F8ED26FDEF0836FF0886068D828F838EF0129D52FCE581249F
:2038A000F0F886820886830886F0EC12850B74022AFAE43BFBE58124F6F8E58124F0F9EA72
:2038C00026F7EB083609F708E609F7E58124F0F886820886830886F0129D528D828F838EFB
:2038E000F012850BE58124F0F886820886830886F0E412850BA88118188604A881181874F7
:20390000032CF6D007D006023851A8817600A88118E58124F2F97408C396F7A881B630001A
:203920004003023A76C006C007A881181886027B00E58124F6F8E58124EAF9EA26F7EB08CA
:203940003609F708E609F7E58124EAF886820886830886F0129D52FCE58124FDF886F00549
:20396000F0E58124EDF8EC800225E0D5F0FBF674012AFCE43BFFE58124F6F8EC26FCEF0889
:2039800036FF0886068C828F838EF0129D52FDE58124F0F886F005F0ED8002C313D5F0FBE0
:2039A000FDE58124EDF8E64205E58124EAF886820886830886F0ED12850B8C828F838EF03E
:2039C000129D52FDE58124FDF886F005F0E58124EDF8ED800225E0D5F0FBF674022AFAE4E8
:2039E0003BFBE58124F6F8E58124EAF9EA26F7EB083609F708E609F7E58124EAF886820812
:203A000086830886F0129D52FDE58124F0F886F005F0ED8002C313D5F0FBFDE58124EDF8D3
:203A2000E642058C828F838EF0ED12850BE58124EAF886820886830886F0129D52FFE581C3
:203A400024FDF886F005F0EF800225E0D5F0FBFFE58124EAF886820886830886F0EF128524
:203A60000BA88118188605A881181874032DF6D007D00602391BA881187600A88118B610A3
:203A8000004003023C318E038F04ECC423CBC423541F6BCB541FCB6BCB780BE22408FA081B
:203AA000E23400FCC006C0078A828C83E58124F0F8E0F6A3E008F6E58124E5F8A6030876F5
:203AC00000E58124E5F8740226FDE40836FBE58124FDF8E58124FAF986F0E7A4C0E0C0F07C
:203AE000E58124E9F8D0E0F618D0E0F6E58124EAF8E62DFE08E63BFFE58124F0F8E5812456
:203B0000F0F9EE26F7EF083609F7E58124F0F88682088683E0FBE58124FDF8E58124E7F935
:203B2000E675F003A4F709A7F0E58124E7F8740226FEE40836FFE58124F6F8EE26FEEF0857
:203B400036FD0886078E828D838FF0129D52FEEB4206E58124F0F88682088683EEF08A8257
:203B60008C83E0FEA3E0FFE58124E5F8740126FBE40836FDE58124EAF8E62BFB08E63DFD1A
:203B8000E58124EDF8EB2EF6ED3F08F6E58124EDF88682088683E58124F0F9E0F7E5812421
:203BA000E7F8740126FBE40836FDE58124F6F8EB26FBED0836FD0886078B828D838FF01282
:203BC0009D52FBE58124F0F8E64203E58124EDF88682088683EBF08A828C83E0FAA3E0FC87
:203BE000E58124E5F8E58124EAF9E726FE09E70836FFEE2AFAEF3CFC8A828C83E0FFE58120
:203C000024F6F8E58124E7F9E726FB09E70836FD0886068B828D838EF0129D5242078A8270
:203C20008C83EFF0E58124FDF806D007D006023A7BE58124FDF886058E038F047A00ED2BED
:203C4000FBEA3CFC0BBB00010C8B068C07E58124FBF80602344BE58124F8F88602088603B9
:203C60000886048A828B838CF01217B3E58124F5F886050886060886078D828E838FF01264
:203C800017B3E58124E4F58122C082C083C0F0C0E0122F94E5828583F0780BF2E5F008F207
:203CA000758204121270900016129711AA82AB838A068B07C003C0027416C0E0E4C0E0C0A6
:203CC00006C007E58124F7F886820886830886F008E6123F4DE58124FCF581D002D0037466
:203CE000102AF582E43BF583E0FFBF2012780BE2240FF58208E23400F5837401F08013BF50
:203D00002110780BE2240FF58208E23400F5837402F07F008A828B838FF01217B3780BE20E
:203D2000FE08E2FF74082EF582E43FF583E4F0A3F0740A2EF582E43FF583E58124FDF8E656
:203D4000F008E6A3F008E6A3F008E6A3F074062EF582E43FF58374FEF01211D8120E4AE58A
:203D60008124FCF58122123E06AC82AD83AEF0FF901558ECF0EDA3F0EEA3F0EFA3F0221229
:203D80003E06AC82AD83AEF0FF901558E0F8A3E0F9A3E0FAA3E0FBECC398F8ED99F9EE9A52
:203DA000FAEF9BFBE9C403C8C403540768C85407C868C8F9EAC40354F849F9EBC403CAC4EF
:203DC0000354076ACA5407CA6ACAFBC000C001C002C003742DC0E074B9C0E0121DC9E5818B
:203DE00024FAF581901558ECF0EDA3F0EEA3F0EFA3F022AE957F00AD967C00EE4204EF42CB
:203E0000058C828D8322AC957D007E007F00A89679007A008A0389028801E42CF8E93DF9A9
:203E2000EA3EFAEB3FFBAC978D078C06E428F8ED39F9EE3AFAEF3B888289838AF022AE8281
:203E4000AF838E048F051EBEFF011FEC4D60030080F022AE82AF838E048F051EBEFF011F5E
:203E6000EC4D60109003E6C007C006123E3ED006D00780E322023E53AD82AE83AFF07825A4
:203E8000EDF2EE08F2EF08F27820E2F50F08E2F51008E2F5117823E2F51208E2F513AB12E2
:203EA000AC13151274FFB512021513EB4C6025850F828510838511F0129D52FCA385820F92
:203EC0008583108D828E838FF0EC12850BA3AD82AE8380CA7825E2F58208E2F58308E2F519
:203EE000F02290155CE0FCA3E0FDA3E0FEA3E08C828D838EF0228582F9E5F820E0FB85F93B
:203F000082225390EF2243901022AC82AD83AEF0FFC007C006C005C004123F027582031294
:203F20003EF6D004D005D0068E82C006C005C004123EF6D004D0058D82C005C004123EF6A2
:203F4000D004D005D006D0078C82023EF6AC82AD83AEF0FFE58124FDF88602088603C0076D
:203F6000C006C005C004C003C002123F02758203123EF6D002D003D004D005D0068E82C0E6
:203F800006C005C004C003C002123EF6D002D003D004D0058D82C005C004C003C002123E0C
:203FA000F6D002D003D004D005D006D0078C82C003C002123EF6D002D003E58124FBF8799C
:203FC0003DE6F308E609F38A828B831256EE023F06AF82C007123F02D0078F82123EF602AF
:203FE0003F06123F02758205123EF6758200123EF6E58220E0F5123F0675820122AC82AD02
:2040000083AEF0FFE58124FDF88602088603758206C007C006C005C004C003C002123FD12E
:20402000123F02758202123EF6D002D003D004D005D0068E82C006C005C004C003C00212D4
:204040003EF6D002D003D004D0058D82C005C004C003C002123EF6D002D003D004D005D05D
:2040600006D0078C82C003C002123EF6D002D0038A068B07E58124FBF886040886058C029B
:204080008D031CBCFF011DEA4B60228E828F83E0FBA3AE82AF838B82C007C006C005C004BF
:2040A000123EF6D004D005D006D00780D1123F06023FE27582B9023FD17582AB023FD1AE75
:2040C00082AF83C007C006123F0275825A123EF6758200123EF6D006D0078F82C007C0062D
:2040E000123EF6D006D0078E82123EF6758200123EF6E58124FCF8793DE6F3E409F3E581E7
:2041000024FDF886820886831256EE023F06E582601953F87F75FA0043FC1043FC2043F1D5
:2041200002123F0643FE7043F4E02253FE8F53908F53F41F22E5812404F581901560E07009
:20414000071240B9D302468E901560E4F0900008129711AE82AF83E58124FDF8A60608A63E
:2041600007900140129711AC82AD83A88118A60408A6051240B97408C0E0E58124FCF8E626
:20418000C0E008E6C0E09000001240BF158115811581E58124FDF88682088683E0FBBB530D
:2041A00067E58124FDF88682088683A3E0FBBB4657E58124FDF8740226FAE40836FB8A82EC
:2041C0008B83E0FDBD4441C002C003E58124FBF8740326FFE40836FE8F828E83E0FBBB50EC
:2041E000028006D003D002801FE58124FBF8740726F582E40836F583E0FBBBFF07D003D085
:2042000002024389D003D002C208C021123F02D021758290C021123EF6D021758200C021C3
:20422000123EF6D021758200C021123EF6D021758200C021123EF6D021758200C021123E01
:20424000F6AD82D021BDC202800DBDC8028079BDEF028047024309D20890163B7420F07543
:204260008200C021123EF6AC82D021BC05028005BC1223801090155CE4F0A3F004A3F0E4CA
:20428000A3F002436690155CE4F0A3F07408A3F0E4A3F0024366C208024366D20890163B17
:2042A0007420F0758200C021123EF6AC82D021BC131190155CE4F0A3F07408A3F0E4A3F06F
:2042C000024366C208024366D20890163B7420F0758200C021123EF6AC82D021BC120280F2
:2042E00008BC1302801302436690155CE4F0A3F07408A3F0E4A3F0806D90155CE4F0A3F064
:204300007410A3F0E4A3F0805D7C00C005C0047438C0E074B9C0E0121DC9E58124FCF58120
:2043200090163B7420F090155CE4F0A3F07408A3F0E4A3F0758200C021123EF6AD82D021EC
:204340007C00C005C0047456C0E074B9C0E0121DC9E58124FCF581745EC0E074B9C0E012DC
:204360001DC915811581C021123F06D021A8811886040886057F008C828D838FF0C0211295
:2043800017B3D021A20802468EE58124FDF88682088683A3A3A3A3A3E0FDBD01028004C337
:2043A00002468EE58124FDF8740626F582E40836F583E0FDBDFF011D8A047A00C004C003B1
:2043C000C007C006C005C0027408C0E08A82124CEBAB82AC831581D00274082BFBE43CFCD6
:2043E000C004C003C0027408C0E0E58124F4F8E6C0E008E6C0E08B828C831240BF158115F6
:20440000811581D002D003D004D005D006D007E58124FBF88682088683E0D003D00460030A
:20442000024684C0058C828B83E0FDBD01028005D005024684D005C004C0038F828E83E0AE
:20444000FCBC0900D003D0045003024684E58124FDF8740426FEE40836FF8E828F83E0FE99
:20446000A3E0FF7424C0E0A8811818E6C0E008E6C0E08E828F831240BF158115811581A878
:2044800081188682088683E0FFFE530603BE0102800302468DEF20E20302468DA881188688
:2044A00082088683A3A3E05406600302468DA881188682088683A3E0FD700302468DBDFFD3
:2044C0000302468D90163BEDF0A88118740726F582E40836F583E0FE30E70302468D8E07F1
:2044E000EFFE601090155CE4F0A3F07420A3F0E4A3F08042A88118740626F582E40836F528
:2045000083E0FE601090155CE4F07420A3F0E4A3F0A3F08021A881188682088683A3A3A3E0
:20452000A3A3E0FE700302468D90155C7420F0E4A3F0A3F0A3F0EE602E90155CE0FFA3E00E
:20454000FCA3E0FBA3E0FAEF2FFFEC33FCEB33FBEA33FA90155CEFF0ECA3F0EBA3F0EAA392
:20456000F0EEC313FE80CF7C1C8C067F000EBE00010FA88118EE26F582EF0836F583E0FF65
:204580006038BFFF028033A88118EC26F582E40836F583E0FEBE0C02800ABE0F02800FBE5C
:2045A00010188011EDB507028010C302468E90163CEFF0800590163DEFF08C0774022FFC32
:2045C000BC240040A4747DC0E074B9C0E0121DC915811581748EC0E074B9C0E0121DC91519
:2045E00081158190163BE0FFE060177E00C007C006749EC0E074B9C0E0121DC9E58124FC85
:20460000F58190163CE0FFE060177E00C007C00674ABC0E074B9C0E0121DC9E58124FCF502
:204620008190163DE0FFE060177E00C007C00674B8C0E074B9C0E0121DC9E58124FCF58148
:204640007E5C7F15C006C00774C5C0E074B9C0E0121DC9E58124FCF581A88118860408866C
:20466000057F008C828D838FF01217B3E58124FDF886060886077D008E828F838DF0121758
:20468000B3D3800A0AC3ED9A40030243BCC3A8D0E58124FCF58188D022C082C083C0F0C0CC
:2046A000E005810581E58124F7F88605088604E58124F5F8E608467003024777C005C00411
:2046C000E58124F9F88602087B00E58124FDF8E4C39AF674019B08F6E58124FDF8E5812487
:2046E000F3F9C3E79609E70896D004D005500EE58124F5F8A98119E6F708E609F78D028C59
:2047000003C005C004E58124FDF8E6C0E008E6C0E0C002C003E58124F5F88682088683085D
:2047200086F008E6123FFDAB82E58124FCF581D004D005EB7004F5828040A881188602088E
:204740008603E4FEFFE58124FBF8EA26F6EB0836F6EE0836F6EF0836F6A88118E62DFD08AF
:20476000E63CFCE58124F5F8A98119E6C397F608E60997F60246AF758201E58124FAF581BE
:2047800022C082C083C0F0C0E0E58124FDF88602088603EA7005EB540F601574D6C0E0740A
:2047A000B9C0E0121DC9158115817582000248D0E58124F9F8E6084670030248CD75820635
:2047C000123FD1123F02E58124F9F88602088603C3EA9410EB9400401FE58124FDF886029A
:2047E000088603EA4B701190163DE0FBE060098B82123EF67B108041E58124F9F8860208C1
:204800008607C3EA9408EF94004023E58124FDF88602088607EA7016EF547F701190163CAB
:20482000E0FFE060098F82123EF67B08800B90163BE0F582123EF67B01E58124FDF8080862
:204840008682C003123EF6D003E58124FDF8088682C003123EF6D003E58124FDF88682C0C2
:2048600003123EF6123F06123FE2E582D003701474EAC0E074B9C0E0121DC9158115817543
:204880008200804CC003C003901000124D00AC82AD83AEF0FF1581D003E58124FDF8EC2650
:2048A000F6ED0836F6EE0836F6EF0836F6E58124F9F886060886077D00EEC39BFEEF9DFFAE
:2048C000E58124F9F8A60608A6070247B0758201E58124FCF581227582B1023FD17582C17B
:2048E000023FD1AFF0AE83E582782BF2EE08F2EF08F27829E2F50F08E2F5107829E2F5F02B
:2049000008E245F0602A782BE2FA08E2FB08E2FC7828E2FFAD0FAE108A828B838CF0EF1212
:20492000850BA3AA82AB831DBDFF011EED4E70E8782BE2F58208E2F58308E2F5F02243FFCE
:204940000143EC0475EB3E75ED8B2253FF0153A0FE22AF82C2AF53D8EF741055D8FEBE10D7
:20496000F853A0FE7E00BE0800501E53D8EF741055D8FDBD10F8EF30E00543A00180035351
:20498000A0FEEFC313FF0E80DD53D8EF741055D8FFBF10F843A001D2AF2290163E7401F0E9
:2049A00090163FE4F0901640F0901641F090164204F0901643F0901644F0901646E4F090B2
:2049C0001645F09016497423F0E4A3F090164BF09016477492F07409A3F022AD82AE83AF9A
:2049E000F074FBC0E074B9C0E0121DC9158115818D828E838FF0129D52FCBC01237A3E7B18
:204A0000167C007820EDF2EE08F2EF08F27823740EF2E408F28A828B838CF0123E78800FE2
:204A20007420C0E074BAC0E0121DC915811581901536E0901645F0024BEC900080129711B7
:204A4000AE82AF838E048F05C007C006740EC0E0E4C0E0C004C005900004F5F0123F4DE516
:204A60008124FCF581D006D0078E048F057B00786C743EF2741608F2E408F2786F740EF28C
:204A8000E408F28C828D838BF0C007C006129A37E5828583F0D006D00745F070128E048F4B
:204AA00005FB8C828D838BF01217B3758201227D008E828F838DF01217B3758200222290A4
:204AC0000080129711AE82AF838E048F05C007C006740EC0E0E4C0E0C004C005900004F5CF
:204AE000F0123F4DE58124FCF581D006D0078E048F057820ECF2ED08F2E408F27823740E01
:204B0000F2E408F290163EF5F0C007C006123E78901561E4F0A3F0A3F0A3F07404C0E0E418
:204B2000C0E07461C0E07415C0E0900000E4F5F0123F4DE58124FCF581D006D0078E048F76
:204B4000058C098D0A7A3E7B168A828B83C007C006740EC0E0E4C0E0C009C00A124F07E5AE
:204B60008124FCF581D006D00790163EE0FDBDFF028022C005901561E0FAA3E0FBA3E0FCAE
:204B8000A3E0FDBAA50DBB5A0ABCBA07BDAB04D005801ED005C007C00612499AD006D007AA
:204BA0007465C0E074BAC0E0121DC9158115818030BD0100501CC007C006124ABED006D063
:204BC000077488C0E074BAC0E0121DC915811581800F74B2C0E074BAC0E0121DC91581157A
:204BE000817D008E828F838DF00217B3124A3AE582601074D0C0E074BAC0E0121DC915819F
:204C00001581227401C0E0E4C0E0900000F5F01247811581158190156574A5F0F4A3F074BA
:204C2000BAA3F0C4A3F07404C0E0E4C0E07465C0E07415C0E0900000E4F5F0124699E581E2
:204C400024FCF581740EC0E0E4C0E0743EC0E07416C0E0900004E4F5F0124699E58124FCC8
:204C6000F58174FDC0E074BAC0E0121DC91581158122901569E4F0A3F0A3F0A3F07423C0A7
:204C8000E074BBC0E0121DC9158115817404C0E0E4C0E07469C0E07415C0E0900000E4F596
:204CA000F0124699E58124FCF58122858283D0F0D0E0D082C082C0E0C0F022C00074FB25A1
:204CC00081F8E58286820886830886F0D0002275F008C58213C58233D5F0F7C58222E5839D
:204CE000A2E713F583E58213F58222D083D0E0D0F0C0F0C0E0C083E582A4F58285F083229B
:204D0000C000E58124FDF8E6F88582F0A4F582E8A8F08583F0A428F583E5F03400F5F0E4D6
:204D2000D00022C000C001C0E0C0F074FA2581F88600E58288F0A4F582A9F0E58388F0A407
:204D400029F583E5F03400F9D0E088F0A429C5F03400F9D0E0C0F088F0A429D0F0D001D0D3
:204D60000022C000C001C002E58124FBF8E6F918E6F88582F0A4C0E0AAF0E58388F0A42AF9
:204D8000F8E5F03400FAE98582F0A428C0E0E5F03AFA74003400F8E98583F0A42AFAE5F0A5
:204DA000388AF0D083D082D002D001D00022D0E0D0F0C000C001C002C0F0C0E074F82581F2
:204DC000F9E7F809E7F922D002D001D00022C9C583C9C8C582C822124DAE75F008124DCEE1
:204DE000E0A3124DCEF0A3D5F0F3024DC7124DAE75F008124DCEE493A3124DCEF0A3D5F05C
:204E0000F2024DC7124DAEC375F008124DCEE0A3F502124DCEE03AF0A3D5F0EF024DC712F0
:204E20004DAE75F008124DCEE0A3F502124DCEE05AF0A3D5F0EF024DC7124DAEC375F00862
:204E4000124DCEE0A3F502124DCEE09AF0A3D5F0EF024DC7124DAEC375F008124DCEE0A3BA
:204E6000F502124DCEE0A39AD5F0F0024DC7124DAE75F008124DCEE0A3F502124DCEE0A355
:204E80006A7007D5F0EED3024DC7C3024DC7C8C0E075F008E038F0A3D5F0F9D00022D3E4D5
:204EA000024E8EC374FF024E8EC000C00174FA2581F8E6F5F0088601496015088600E8F0F5
:204EC000A374FF25F0F5F074FF39F50145F070EED001D00022C000C001C00274F92581F97B
:204EE000E7D3601CF5F0098700098701C3E0F502A3124DCEE0A3124DCE6A7004D5F0EED3F8
:204F0000D002D001D00022C000C001C00274F82581F9E7F5F00987024A601F098700098767
:204F200001124DCEE0A3124DCEF0A374FF25F0F5F074FF3AF50245F070E7D002D001D000F0
:204F400022C000C001C00274F92581F9E76015F5F0098700098701124DCEE0A3124DCEF0B1
:204F6000A3D5F0F3D002D001D00022C083C082E06003A380FAC3E582D0F095F0F582E5830E
:204F8000D0F095F0F58322C003C002C001C000C0E0C0F0C083C082A98174F62581F886F0AF
:204FA000188600750201750300758211A2F74014C3E833F8E5F033F5F0C3EA33FAEB33FBB8
:204FC000058280E8E4C003C002C0E0C0E0AA81C0F0C000C0E0C0E0A881C0E0C0E0C0E0C095
:204FE000E0AB81C000C001C375830486F018E71995F0D583F6D001D000402BC000C001C3B4
:2050000075830486F018E795F0F719D583F585020085030175830486F018E745F0F719D5A2
:2050200083F5D001D00074FC28F8C375830408E613F6D583F9C00074FC2AF8C375830408A7
:20504000E613F6D583F9D000D5829820D508D082D083D0F0D00074F42581F58130D508D0BE
:2050600082D083D0F0D000E8D000D001D002D00322C2D5024F87D2D5024F87C003C002C048
:2050800001C000C0E0C0F0C083C082A98174F62581F886F07401758219A2F7400A23C5F092
:2050A00023C5F0058280F2C0E0E4C0E0C0E0C0E0AA81C0F0C0E0C0E0C0E0A881C0E0C0E097
:2050C000C0E0C0E0AB81C000C001C375830486F018E71995F0D583F6D001D000402BC000F7
:2050E000C001C375830486F018E795F0F719D583F585020085030175830486F018E745F023
:20510000F719D583F5D001D00074FC28F8C375830408E613F6D583F9C00074FC2AF8C37570
:20512000830408E613F6D583F9D000D58298D082D083D0F0D00074F42581F581E8D000D0A0
:2051400001D002D00322C006C005C004C003C002C001C00074F72581F886F074017C09A217
:20516000F7400923C5F023C5F00C80F3FBE4FAA9F0F88582F0FDFEC3E58298E58399401150
:20518000C3E58298F582E58399F583EA4DFDEB4EFEC3E913F9E813F8C3EB13FBEA13FADCB8
:2051A000D620D5048D828E83D000D001D002D003D004D005D00622C2D5025146D2D50251EF
:2051C00046E0C0E02401F0A3E0C0E03400F0A3E0D083D0826014B4600AC000A882E2D00057
:2051E000F582224009E493F58222E0F58222C000A882E6D000F58222124DAE75F004D312B0
:205200004DCEE0FA3400F0EAA3124DCEF0A3D5F0EE024DC7124DAE75F004C3124DCEE0FA1F
:20522000A3124DCEE0A36A7004D5F0EFD3024DC7124DAEC3E0A398E0A399E0A39400E0A3FF
:205240009400024DC7124DAEC3E0A338E0A339E0A33400E0A33400024DC775F004E070041C
:20526000A3D5F0F9F58222A3A3A3E033227F00BF050040030252EFEF75F008A4246DFD744B
:205280001535F0FE74072DF582E43EF583E054F7F074072DF582E43EF583E054FBF07406B0
:2052A0002DF582E43EF583E0547FF074062DF582E43EF583E054E0F08D828E83A3A3A3A3A5
:2052C000E0541FF074072DF582E43EF583E054FCF074072DF582E43EF583E0543FF074071B
:2052E0002DF582E43EF583E054CFF00F02526F901594E0543F4440F0901594E054CF4410FB
:20530000F0901593E0549F4420F0901574E0543FF0901574E054CF4410F0901573E054E036
:205320004410F0901573E0549FF0901574E054FC4402F07EF97F708F0690156DEEF07FF96C
:2053400090156EEFF090157CE054CFF090157BE054E04411F090157BE0549FF090157CE0EA
:2053600054FCF07EF97F708F06901577EEF07FF9901578EFF07E6D7F158FD575D46D7E75F8
:205380007F158FD375D27522E582FF2495FDE43415FE8D828E83E0FC782EE2B5040122781A
:2053A0002EE2B402028015782EE2B40303025464782EE2B4040302550802558EC005C00682
:2053C000EF75F008A4246DFB741535F0FC74072BF582E43CF583E054F7F074072BF582E4C6
:2053E0003CF583E054FBF074062BF582E43CF583E0547FF08B828C83A3A3A3A3E0541FF098
:2054000074072BF582E43CF583E054FCF074072BF582E43CF583E0543F4440F074072BF580
:2054200082E43CF583E054CFF074062BF582E43CF583E054E0F074062BF582E43CF583E013
:20544000549F4420F08B828C83A3A37AD97E708E02EAF08B828C83A3A3A374D9F0D006D010
:205460000502558EC005C006EF75F008A4246DFB741535F0FC74072BF582E43CF583E05498
:20548000F7F074072BF582E43CF583E054FBF074062BF582E43CF583E0547FF08B828C83DE
:2054A000A3A3A3A3E0541FF074072BF582E43CF583E054FCF074072BF582E43CF583E0545F
:2054C0003FF074072BF582E43CF583E054CF4410F074062BF582E43CF583E054E0F074066F
:2054E0002BF582E43CF583E0549F4420F07AD97E708E028B828C83EAF08B828C83A374D978
:20550000F0D006D00502558EEF75F008A4246DFC741535F0FF74072CF582E43FF583E054E4
:205520003F4440F074072CF582E43FF583E054CFF074062CF582E43FF583E054E04412F0FA
:2055400074062CF582E43FF583E0549FF074072CF582E43FF583E054FC4402F074072CF515
:2055600082E43FF583E054F7F074072CF582E43FF583E054FBF08C828F83A3A37A737B62EB
:205580008B02EAF08C828F83A3A3A37473F08D828E83782EE2F022AE82AF83782FE208E235
:2055A00090158DF0782FE290158EF08E048F058D0490158FECF0901590EEF07832E2901512
:2055C00091541FF5F0E054E045F0F07831E2901592F053D1EF43D61043D710741055D1FFE8
:2055E000BF10F822AE82AF837833E208E290158DF07833E290158EF08E048F058D049015BB
:205600008FECF0901590EEF07836E2901591541FF5F0E054E045F0F07835E2901592F053AC
:20562000D1EF43D61043D71022AE82AF837837E208E2C39480500F53C7F87837E2C3F208C2
:20564000E23480F2800953C7F8E59F540742C77837E208E290158DF07837E290158EF08E60
:20566000048F058D0490158FECF0901590EEF0783AE2901591541FF5F0E054E045F0F0780B
:2056800039E2901592F053D1EF43D61043D710741055D1FFBF10F822AE82AF83901594E055
:2056A000543FF07C997D158D0490158DECF07D9990158EEDF08E048F058D0490158FECF034
:2056C000901590EEF0783CE2901591541FF5F0E054E045F0F0783BE2901592F053D1EF4348
:2056E000D61043D710741055D1FFBF10F822AE82AF838E048F058D0490156FECF0901570EA
:20570000EEF0783EE2FF901571541FF5F0E054E045F0F0783DE2FE901572F053D1FE90150A
:205720009AE4F07C9A7D158D04901575ECF07D9A901576EDF090157CE0543FF0901579EF2C
:20574000541FF5F0E054E045F0F090157AEEF053D1FD43D60143D60243D702E5D130E0FB88
:2057600022AE82AF838E048F058D04901575ECF0901576EEF090157CE0543F4440F078403F
:20578000E2901579541FF5F0E054E045F0F0783FE290157AF053D1FD43D60243D70222AFA7
:2057A000F0AE83E5829015A3F0EEA3F0EFA3F09015A3E0F50FA3E0F510A3E0F511AA0FAB85
:2057C00010AC118A008B018C07888289838FF0129D525407F8B8015F74012AFDE43BFE8C0D
:2057E000078D828E838FF0129D5203035403FDBD024574012AFDE43BFE8C078D828E838FA9
:20580000F0129D5223235403FDBD032B8A058B068C078D828E838FF0129D5220E619AD0FE4
:20582000AE10AF1174112DFDE43EFE8D828E838FF0129D52F582228A058B068C078D828E92
:20584000838FF0129D525407FDBD016374012AFDE43BFE8C078D828E838FF0129D520303DA
:205860005403FDBD034974012AFDE43BFE8C078D828E838FF0129D5223235403FDBD032F56
:205880008A828B838CF0129D5223235401FABA011E9015A3E0FDA3E0FEA3E0FF74152DFD28
:2058A000E43EFE8D828E838FF0129D52F5822275820022AFF0AE83E5829015A6F0EEA3F083
:2058C000EFA3F09015A6E0FDA3E0FEA3E0FF8D028E038F048A828B838CF0129D525407FA7C
:2058E000BA014A74012DFAE43EFB8F048A828B838CF0129D5203035403FABA023074012DDB
:20590000FAE43EFB8F048A828B838CF0129D5223235403FABA03168D028E038F048A828B92
:20592000838CF0129D5220E604758200228D028E038F048A828B838CF0129D525407FABAEB
:20594000014974012DFAE43EFB8F048A828B838CF0129D5203035403FABA032F74012DFA3B
:20596000E43EFB8F048A828B838CF0129D5223235403FABA03158D828E838FF0129D5223B4
:20598000235401FDBD01047582012275820022AFF0AE83E5827842F2EE08F2EF08F278452C
:2059A000E4F27B017841C3E2F5F0EB95F050227842E2FA08E2FC08E2FFEB2AFAE43CFC8A56
:2059C000828C838FF0129D52FA7845E22AF20B80D37842E2FD08E2FE08E2FF8D828E838F8A
:2059E000F0129D52FD7845E2B50503D38001C3E433F58222AFF0AE83E5827847F2EE08F2C6
:205A0000EF08F2784AE4F27B017846C3E2F5F0EB95F050227847E2FA08E2FC08E2FFEB2AE0
:205A2000FAE43CFC8A828C838FF0129D52FA784AE22AF20B80D37847E2FD08E2FE08E2FF2E
:205A40008D828E838FF0784AE202850B900020129711AE82AF8374012EFCE43FFD784BEC37
:205A6000F2ED08F28E028F037D007828E4F278297417F2E408F28A828B838DF0C007C00618
:205A80001248E3D006D0078E828F837414F074122EF582E43FF58374EDF0784BE22409FC9D
:205AA00008E23400FD7B007820749BF2741508F2E408F278237408F2E408F28C828D838BC6
:205AC000F0C007C006123E78D006D007784BE2F58208E2F583E054F84401F0784BE2F582D9
:205AE00008E2F583E054DFF0784BE22401F58208E23400F583E054F34408F0784BE224013D
:205B0000F58208E23400F583E044C0F0784BE22402FC08E23400FD901656E0FB04F08C82E9
:205B20008D83EBF0784BE22403F58208E23400F5837447F07444A3F0784BE22405F582085E
:205B4000E23400F58374FFF0A3F0784BE22407F58208E23400F5837447F07444A3F08E82DE
:205B60008F83C007C006121FF5D006D0077D008E828F838DF00217B3C082058105810581F7
:205B8000900080129711AD82AE83E58124FDF88682C006C005121EF8121F1CD005D0067C2D
:205BA00001A8817601A881E624EB5003025D13C006C005C004125A4C123DF3E5828583F0B9
:205BC000D004D005D0069015A92440F0E435F0A3F0A881181874162DF6E43E08F6C004C05E
:205BE00006C005123DF3AA82AC83D005D0069015A9E0FBA3E0FFEAC39BFAEC9FFCC3E49ADD
:205C000074809CD0044003025D098D828E83C006C005C004121F23AF82D004D005D0069072
:205C200015ABEFF0C374818FF063F08095F050ADA88118188682088683E0FFE58124FDF869
:205C4000E6B507998D028E037F008A828B838FF0C006C005C00412579FAF82D004D005D0D0
:205C600006BFEE028003025BDD8D028E037F008A828B838FF0C006C005C0041258B3E582A7
:205C8000D004D005D0067003025BDD8D028E037F009015ACEAF0EBA3F0EFA3F0740D2AFA69
:205CA000E43BFB7820EAF2EB08F2EF08F278237408F2E408F290164CF5F0C006C005C0047B
:205CC000123E78D004D005D0069015ACE0FAA3E0FBA3E0FF74032AFAE43BFB8A828B838FF4
:205CE000F0129D52FAA3129D52FB901654EAF0EBA3F08D028E037F008A828B838FF0C004CC
:205D00001217B3D0048C828018A88106A8818604025BA57F008D828E838FF01217B3758258
:205D200000E58124FCF58122E5812404F581900080129711AE82AF83EE4F700F744DC0E0F8
:205D400074BBC0E0121DC91581158174012EFCE43FFDE58124FDF8A60408A6058E028F0393
:205D60007D007828E4F27829742DF2E408F28A828B838DF0C007C0061248E3D006D007749C
:205D8000132EFCE43FFDA88118A60408A6058E828F83742AF074122EF582E43FF58374E539
:205DA000F0E58124FDF8740926FAE40836FB7D007820749BF2741508F2E408F2782374082C
:205DC000F2E408F28A828B838DF0C007C006123E78D006D007E58124FDF88682088683E0E2
:205DE00054F84401F0E58124FDF88682088683E054DFF0E58124FDF88682088683A3E05418
:205E0000F34408F0E58124FDF88682088683A3E044C0F0E58124FDF8740226FCE40836FD0E
:205E2000901656E0FB04F08C828D83EBF0E58124FDF88682088683A3A3A37447F07444A317
:205E4000F0E58124FDF88682088683A3A3A3A3A374FFF0A3F0E58124FDF8740726F582E41A
:205E60000836F5837447F07444A3F0A88118740626F582E40836F5837408F0A881180426AD
:205E8000F582E40836F5837428F0E4A3F0A88118740B26FCE40836FD901657E08C828D83F2
:205EA000F0A88118740426FCE40836FD901632E0FAA3E0FB8C828D83EAF0EBA3F0A8811811
:205EC000740826FCE40836FD901536E08C828D83F0A88118740226FCE40836FD901556E069
:205EE0008C828D83F0A88118740126FCE40836FD901557E08C828D83F0A88118740726FCD5
:205F0000E40836FD90162FE08C828D83F0A881188682088683A3A3A37414F0A88118740C23
:205F200026FCE40836FD901646E08C828D83F0A88118740D26F582E40836F5837455F0A8EC
:205F40008118741426F582E40836F58374ABF0A8811886030886047D0078467415F28B82BB
:205F60008C838DF0C007C0061259F4D006D0078E828F83C007C006121FF5D006D0077D00FD
:205F80008E828F838DF01217B3E58124FCF58122E5812407F581121F1C900082129711AE9A
:205FA00082AF83E58124FAF8A60608A607E58124FAF8E60846700F746BC0E074BBC0E012C1
:205FC0001DC9158115817D007E00BE0A004003026156C006C005125D28123DF3AA82AB8332
:205FE000D005D006E58124FCF874A02AF6E43B08F6C005C006123DF3AB82AD83D006E581C1
:2060000024FBF8EBC396FBED0896FDC3E49B74809DD0054003026150E58124FAF886820878
:206020008683C006C005121F23AB82D005D006C374818BF063F08095F050B6C005E58124C0
:20604000F9F886020886037D008A828B838DF0C00612579FAD82D006BDE6028004D00580D1
:2060600090E58124F9F8741626FAE40836FB8A048B057F0078417411F28C828D838FF0C024
:2060800006C005C003C00212598FE582D002D003D005D006D0057003025FF1E58124FAF8E9
:2060A0008606088607A8811818A60608A607A8811818740D26FCE40836FF7820ECF2EF087B
:2060C000F2E408F278237408F2E408F290164CF5F0C005C003C002123E78D002D003D005A6
:2060E000A88118188682088683A3A3A3E0FEA3E0FF901654EEF0EFA3F090162CEDF090004C
:2061000011C003C002129711AE82AF83D002D0038E828F83C007C0067411C0E0C002C003CF
:20612000124F41158115811581D006D007E58124FAF886020886037C008A828B838CF0C0E7
:2061400007C0061217B3D006D0078E828F8380240E8E05025FCA90162C740AF0E58124FA93
:20616000F886050886067F008D828E838FF01217B3900000C8E58124F9F581C822C082C0D1
:2061800083C0F0E5812407F58124F7F8740226FAE40836FB0886048A828B838CF0E581244D
:2061A000FAF8129D52F6E58124FAF87958E6F3E409F3900063C004C003C0021296A6AE8236
:2061C000AF83D002D003D004A88118A60608A607E58124FBF87663087600E58124F7F874B1
:2061E0000126FDE40836FE0886078D828E838FF0129D52FD901661E0FFEDB507028006759D
:20620000820002632EA88118C3E6940308E69410400675820002632EE58124FAF8E624D52B
:20622000500675820002632EA88118746326FEE40836FFC374049E74109F5013A88118E59C
:206240008124FBF97404C396F77410089609F7E58124F7F8860508860608860778417466FB
:20626000F28D828E838FF0C004C003C00212598FE582D002D003D004700302632BE58124DD
:20628000F7F8740326FDE40836FE088607E58124FDF8A60508A606E58124F3F8A98119E743
:2062A00026FE09E70836FFC004C003C002E58124F8F8E6C0E008E6C0E0E58124F8F8E6C096
:2062C000E008E6C0E08E828F83124F07E58124FCF581D002D003D0048A828B838CF0129D0C
:2062E00052FA7F0078717408F2E408F28A828F83C007C002129AF1AD82AE83D002D007ED64
:206300002463FDEE3416FE5302078AF005F07401800225E0D5F0FBF4FA8D828E83E05202FA
:206320008D828E83EAF07582018003758200E58124F6F58122C082C083E5812404F5817DD3
:2063400000900080C005129711AB82AC83D005A88118A60308A604758201C0051220E812F8
:206360003DF3AA82AF83D005E58124FBF8860408860674142CFCE43EC42354E0CCC423CCB3
:206380006CCC54E0CC6CFEEC2AFCEE3FFEE58124FDF8A60408A606A88118741626FBE40869
:2063A00036FFC005C007C003123DF3AA82AD83D003D007E58124FCF8EAC396FAED0896FDCE
:2063C000C3E49A74809DD005400302644DA881188682088683C007C005C003121F23AA82F7
:2063E000D003D005D007C374818AF063F08095F050B0C005A881181886020886057E008A53
:20640000828D838EF0C007C005C00312579FAE82D003D005D007BEE8028004D0058083D092
:20642000058B048F067A00C007C003E58124F5F8E6C0E008E6C0E08C828E838AF012617D1B
:20644000AD8215811581D003D0070263A2758200C0051220E8D005A8811886030886047FAA
:20646000008B828C838FF0C0051217B3D0058D82E58124FAF58122900003129711AE82AFB4
:2064800083A3E4F0A3F08E828F8322C082E5812404F581900080129711AD82AE838D028E9E
:2064A000037C007828E4F27829742DF2E408F28A828B838CF0C006C0051248E3D005D006CC
:2064C00074012DFBE43EFCE58124FDF8A60308A60474172DFAE43EFFA88118A60208A607B6
:2064E0008D828E83742AF0E58124FCF8E6600E74162DF582E43EF58374E7F0800C74162DC6
:20650000F582E43EF58374E4F0E58124FDF8740D26FAE40836FC7F007820749BF27415083B
:20652000F2E408F278237408F2E408F28A828C838FF0C006C005123E78D005D006E5812482
:20654000FDF8740526FCE40836FF7B007820744CF2741608F2E408F278237408F2E408F27C
:206560008C828F838BF0C006C005123E78D005D006E58124FDF88682088683E054F8440179
:20658000F0E58124FDF88682088683E054F7F0E58124FDF88682088683E054EFF0E5812423
:2065A000FDF88682088683E054DFF0E58124FDF88682088683E04440F0E58124FDF8868257
:2065C000088683A3E0440CF0E58124FDF88682088683A3E054CFF0E58124FDF886820886A4
:2065E00083A3E044C0F0E58124FDF8740226FCE40836FF901656E0FB04F08C828F83EBF0A3
:20660000E58124FDF8740326FCE40836FF901654E0FAA3E0FB8C828F83EAF0EBA3F0A8814E
:206620001886020886047F0078207458F2741608F2E408F278237411F2E408F28A828C83E6
:206640008FF0C006C005123E78D005D006A8811886020886047F0078467411F28A828C8393
:206660008FF0C006C0051259F4D005D0068D828E83C006C005121FF5D005D0067F008D82FC
:206680008E838FF01217B3E58124FBF58122058105810581AF82900080C007129711AD82EE
:2066A000AE83D007A8811818A60508A606758201C0071220E8D007A8817600A881B60A00E2
:2066C000400302685A8F82C00712648B123DF3AA82AB83D007A88186057E0078717405F2E1
:2066E000E408F28D828E83C007C003C002129AF1AD82AE83D002D003D007740B2DFDE43E0C
:20670000C42354E0CDC423CD6DCD54E0CD6DFE9015AFED2AF0EE3BA3F0A8811818868208B7
:206720008683C007121F23AB82D0079015B1EBF0C374818BF063F08095F0400302682FC0D9
:2067400007E58124FDF886020886037F008A828B838FF0C00712579FAE82D007BEE805D031
:20676000070267FDD007BEE9028009BEEC0302681602682FC007E58124FDF8741626FAE409
:206780000836FB8A048B067F0078417403F28C828E838FF0C007C003C00212598FE582D0E5
:2067A00002D003D007D007700302682F900003C003C002129711AD82AE83D002D0038D8264
:2067C0008E83C006C0057403C0E0C002C003124F41158115811581D005D006A88118188693
:2067E000020886037C008A828B838CF0C006C0051217B3D005D0068D828E838074A881188D
:206800001886040886057E008C828D838EF01217B3126477805BA881181886040886057E91
:20682000008C828D838EF01217B39000008042C007123DF3AD82AE83D0079015AFE0FBA37C
:20684000E0FCEDC39BFDEE9CFEC3E49D74809E5003026719A881060266BBA88118188605AB
:206860000886067F008D828E838FF01217B312647715811581158122900020129711AE821F
:20688000AF838E038F047D007828E4F27829741BF2E408F28B828C838DF0C007C00612482F
:2068A000E3D006D00774012EFCE43FFD784DECF2ED08F28E828F837419F074162EF582E44D
:2068C0003FF58374EAF0784DE2240DFA08E23400FB7D007820749BF2741508F2E408F278D9
:2068E000237408F2E408F28A828B838DF0C007C006123E78784DE22405FC08E23400FD7BDB
:20690000007820744CF2741608F2E408F278237408F2E408F28C828D838BF0123E78D006AD
:20692000D007784DE2F58208E2F583E054F84401F0784DE2F58208E2F583E054F7F0784D3F
:20694000E2F58208E2F583E054EFF0784DE2F58208E2F583E054DFF0784DE2F58208E2F5E9
